:100000000C94FB020C9442030C9442030C94272A98
:100010000C9442030C9442030C9442030C9442034C
:100020000C9442030C9442030C948E260C94642787
:100030000C944E0B0C9442030C9442030C94420318
:100040000C9442030C9442030C9442030C9442031C
:100050000C9442030C943C200C9442030C944203F5
:100060000C9442030C9442030C9442030C944203FC
:100070000C9442030C9442030C9442030C944203EC
:100080000C9442030C9442030C9442030C944203DC
:100090000C9442030C9442030C9442030C944203CC
:1000A0000C9442030C9442030C944203084AD73B3D
:1000B0003BCE016E84BCBFFDC12F3D6C74319ABD37
:1000C00056833DDA3D00C77F11BED9E4BB4C3E915B
:1000D0006BAAAABE000000803F05A84CCDB2D44E4A
:1000E000B93836A9020C50B9918688083CA6AAAA4C
:1000F0002ABE000000803F07634236B79BD8A71A8C
:1001000039685618AEBAAB558C1D3CB7CC5763BD99
:100110006DEDFD753EF6177231BF000000803F089F
:10012000000000BE922449123EABAAAA2ABECDCC42
:10013000CC4C3E00000080BEABAAAAAA3E00000044
:1001400000BF000000803F0000000000084178D39D
:10015000BB4387D1133D190E3CC3BD4282AD2B3E3C
:1001600068EC8276BED98FE1A93E4C80EFFFBE01DC
:10017000C4FF7F3F00000000000005010902A1014B
:1001800085020901A10005091901290815002501A9
:100190009508750181020501093009311581257F16
:1001A00095027508810609381581257F9501750826
:1001B0008106050C0A38021581257F950175088195
:1001C00006C0C005010980A101850319012AB700F5
:1001D000150126B700950175108100C0050C0901B5
:1001E000A101850419012AA002150126A00295018A
:1001F00075108100C005010906A101050719E02954
:10020000E7150025019508750181029501750881A2
:10021000010507190029FF150026FF00950675083E
:1002200081000508190129059505750191029501BF
:1002300075039101C009023B00020100A0FA090404
:100240000000010301010009211101000122400009
:100250000705810308000A090401000103000000EA
:10026000092111010001227B000705820320000AF9
:1002700012011001000000085346010001000102B4
:1002800000010C0343006F0072006E006500000067
:10029000100366006F006F007300740061006E0051
:1002A000000004030904000000000000000000003A
:1002B000000000000000000000000000000000003E
:1002C000000000000000000000007E0F00D4FFFFCF
:1002D000FFC70000007800000000000000002A2B8B
:1002E00028000000000000000000000000000000E6
:1002F0000029000000002C1E34202122243426274F
:10030000252E362D3738271E1F202122232425266F
:100310003333362E37381F0405060708090A0B0C3D
:100320000D0E0F101112131415161718191A1B1C85
:100330001D2F3130232D350405060708090A0B0C43
:100340000D0E0F101112131415161718191A1B1C65
:100350001D2F3130354C2B001400070015001A00FA
:100360000500E000040016000B0017000A00E10081
:100370001D001B0010000600190000000000000016
:100380002A5D2B5D2C00355D330013001800090039
:100390000D00505D0C001200080011001C00365DBD
:1003A000545D370036000F000E0000000000000012
:1003B000F65C2C5D2800E3003F5DAA00A900A800C0
:1003C0004D5DE0003B5D3C5D3D5D3E5D455DE100BA
:1003D000465D475D485D4A5D415D000000000000EC
:1003E0002A5D2B5D305DE600405DAB00AC00AE00E9
:1003F0004E5D00003A5D395D385D375D4C5D365DC0
:100400004F5D445D4B5D4C5D495D000000000000A8
:100410004C002C5D0000E300210020001F001E00A6
:100420002200E000555D515D525D535D565DE10077
:100430005D5D5C5D5E5D5F5D605D00000000000015
:100440002A5D2B5D2B00E6002600250024002300FA
:100450002700F65C5B5D5A5D595D585D575D365D02
:10046000645D655D625D635D615D000000000000CC
:100470004C002C5D2B00E300705D715D725D735D5F
:10048000745DE000665D675D685D695D6A5DE10001
:100490006B5D6C5D6D5D6E5D6F5D0000000000006A
:1004A0002A5D2B5D345D000000004B004E004D00C6
:1004B0004A0000001A5C4F00520051005000365DA7
:1004C000755D765D785D775D0000000000000000DE
:1004D00000002C5D345D855D795D7A5D7C5D7D5DC0
:1004E000835DE0004400805D815D7B5D7E5DE100B9
:1004F0003D003C003B003A003E00000000000000D0
:10050000FF002B5D00007F5D845DF200ED00F100D7
:10051000825DFE004500F000EE00EF00F300365D66
:100520004200410040003F00430000000000000086
:10053000F65CFE00FF002F5D0000000000000000E0
:1005400000002F5D000000000000000000002F5D93
:100550000000000000000000520000000000000049
:10056000500051004F002F5D00000000000000000F
:1005700000002F5D000000000000000000002F5D63
:100580000000000000000000520000000000000019
:100590004F0051005000005C0000CC5CC65CC85CA1
:1005A000CA5C00000000CD5CC75CC95CCB5CC55C6C
:1005B0000000000000000000C35C0000000000001C
:1005C000000000000000000000000000000000002B
:1005D000335D000000000000435D425D000000004C
:1005E000000000000000000000000000000000000B
:1005F00000000000000011241FBECFEFDAE0DEBFD4
:10060000CDBF04B603FE27C080916A0290916B02B1
:10061000A0916C02B0916D028730904BA740B04B17
:10062000D1F410926A0210926B0210926C02109236
:100630006D0214BE84B7877F84BF0FB6F894A89567
:1006400080916000886180936000109260000FBE0E
:10065000E0E0F8E3099511E0A0E0B1E0E6EBF7E6B1
:1006600002C005900D92A837B107D9F722E0A8E79C
:10067000B1E001C01D92AA36B207E1F70E94BA208C
:100680000C94CD320C940000DC01FB01808191813F
:10069000803891054CF08FE78C93808191818F5742
:1006A000910991838083089581382FEF92073CF45C
:1006B00081E88C938081918181589F4FF2CF8C93F8
:1006C00090E080E0EECF90915B0292FF06C0282F71
:1006D00028712830F9F4877F846093FF06C0282FA3
:1006E00028712831F1F4877E846120915C0220FF1B
:1006F00006C0382F38713830D9F4877F816021FFE8
:1007000006C0282F28712831D1F4877E816194FD9D
:10071000877E0895282F24712430F9F68B7F886016
:10072000DCCF282F2471243101F78B7E8861DDCF47
:10073000382F3171313019F78E7F8860E0CF282F44
:100740002171213121F78E7E8861E1CF0F931F93B4
:10075000CF93DF93972F70E026E0929F600D711D7D
:100760001124FB0190E3899FE00DF11D1124EE0F90
:10077000FF1FEA5AFC4F05911491E801003E110554
:1007800009F464C070F50133110509F4ACC098F4A4
:100790000932110509F4A0C00A32110509F4AAC0F2
:1007A0000130110509F465C004501109013A110521
:1007B00008F058C05EC00933110509F440C0023882
:1007C0001105E9F10533110509F47FC0083A110557
:1007D00008F097C0053A110518F3E801A497D06412
:1007E00048C0043E110509F455C068F4023E1105E5
:1007F000E1F1033E110509F442C0005E1109083021
:10080000110580F536C0063E110509F44EC0073EBD
:10081000110509F44FC0011523E5120708F09CC02B
:10082000011582E5180708F001C10F3F110511F00D
:1008300008F076C00D3E110548F2D0651AC08091CF
:100840005B028370B1F0C0EED0E013C080915B0218
:1008500080FD15C190915C0290FF0BC0C3EED0E00B
:1008600084FF07C0D0E0C0E004C080915B0282FD3D
:10087000F5CFCE01DF91CF911F910F910895809117
:100880005B0282FDFFC090915C0290FDDCCF84FF93
:10089000F0CFE8CF80915C0281FFEBCF80915B02CB
:1008A000C7EED0E084FDDECFE4CF80915B0283FD14
:1008B000F7CFDFCF80915B0283FDE7C090915C02B0
:1008C00091FFE5CFC4EED0E0D4CF80915B0285FFED
:1008D000D0CFC9E2D0E0CDCF80915B0285FFC9CFF8
:1008E000C5E3D0E0C6CF80915B0286FFC2CFCAE2EB
:1008F000D0E0BFCF80915B0286FFBBCFC1E3D0E0E9
:10090000B8CF0F3B110508F078CF085AE02FF0E080
:10091000EE0FFF1FE65BFE4FC081D181D464A9CFEB
:10092000011591E5190798F4011520E5120708F063
:1009300062C0011580E2180708F49BCFC8019054EB
:100940008115904108F08ECFDF70D06A92CFD02F02
:10095000CC27C16FD06A8DCF011589E51807A0F5A6
:10096000011598E5190708F077C0011525E512076C
:10097000C8F4011584E5180708F069C0C801837040
:100980009927C1E0D0E002C0CC0FDD1F8A95E2F7C5
:100990000695069590E2099F80011124C02BD12B6A
:1009A000DA6867CFC80195558F3F910511F008F0BF
:1009B00059CF802F0E946303C82FD0E0DC2FCC27B3
:1009C000CC27DF71D06255CF01152AE5120708F454
:1009D00048C0C80190568115904208F043CF812F3E
:1009E0008F710E946303C82FD0E0DC2FCC27CC2767
:1009F000DF71C02BE7CFC80154E0969587955A95D3
:100A0000E1F78370C695C695C37090E2C99FE00177
:100A10001124D82B037081E090E002C0880F991F49
:100A20000A95E2F7C82BD92BDC6823CF98012370F5
:100A3000332781E090E002C0880F991F2A95E2F7E2
:100A4000C695C69520E2C29FE0011124EBCFD02FBE
:100A5000CC27C46FD06A0DCFD02FCC27C06FD06AFF
:100A600008CF802F8F700E94630394E0D695C795BE
:100A70009A95E1F7CF709C2FEC01D069FACEC9E3CB
:100A8000D0E0F7CEC2EED0E0F4CEC6EED0E0F1CEAC
:100A9000F894E82FE295EF70F0E041A18F7021E02B
:100AA00030E0B90102C0660F771F8A95E2F7CB01EB
:100AB000962F9095942391A392A1892B82A3789449
:100AC000089580913F0290E0880F991FFC01EC5C33
:100AD000FE4F2081845D9E4FFC01808190913B02FE
:100AE000191614F420933B0290913B0297FF04C027
:100AF000922F919590933B0290913C02191614F419
:100B000020933C0290913C0297FF03C021952093D3
:100B10003C0290913E02191614F480933E0290918B
:100B20003E0297FF04C0982F919590933E029091BA
:100B30003D02191614F480933D0290913D0297FFF7
:100B400003C0819580933D0230913B023323A1F095
:100B500020913C02222381F045EB3403C001112493
:100B60009923F1F090933B0245EB2403900111246B
:100B70003323D1F030933C0230913E02332379F09D
:100B800040913D02442359F025EB3203C00111246A
:100B900090933E0242039001112430933D02089548
:100BA00081E080933B02E0CF81E080933C02E4CF80
:100BB00060913F02462F50E0440F551FFA01EC5C54
:100BC000FE4F2081445D5E4FFA0190818D3E49F4D5
:100BD000219520933C0280913F02681769F10C94A3
:100BE0006105E2E1E80FE231B0F7F0E0E153FD4CDE
:100BF0000C94A72F219520933B02EDCF91959093D4
:100C00003D02E9CF919590933E02E5CF815F990B2C
:100C100021E030E001C0220F8A95EAF780913A0284
:100C2000822B80933A02D7CF81E080933F02D3CFCB
:100C300082E0FBCF83E0F9CF089590913F028D3E93
:100C400039F480913C0287FF29C010923C0208953C
:100C50008E3E29F480913C021816BCF308958F3E15
:100C600039F480913B0287FF19C010923B0208952E
:100C7000803F29F480913B021816BCF30895893F08
:100C800039F480913D0218164CF410923D020895FB
:100C90008A3F29F480913D0287FDF7CF08958B3F6D
:100CA00039F480913E0287FFF9CF10923E020895F9
:100CB0008C3F29F480913E021816BCF308952FE072
:100CC000280F283090F4815F990B21E030E0A901D2
:100CD00002C0440F551F8A95E2F7CA018095909192
:100CE0003A02892380933A0208958D3FB8F2109218
:100CF0003F02992399F20C946105E0913302F0913F
:100D00003402309721F00190F081E02D099480E0C9
:100D10000895DC01E0913302F0913402309739F00C
:100D200082E08C930480F581E02DCD010994089533
:100D300020913102309132022817390771F09093D7
:100D4000320280933102E0913302F0913402309705
:100D500021F00680F781E02D0994089520912F025B
:100D6000309130022817390771F090933002809348
:100D70002F02E0913302F0913402309721F0008489
:100D8000F185E02D099408958091F8019091F70183
:100D9000981301C008958F5F8770FACF282F809134
:100DA000F1019091F201A091F301B091F40100974B
:100DB000A105B10549F004C0B695A795979587950B
:100DC0002A95D2F78170089580E00895E92FEE0FFB
:100DD000E90FEE0FE80F8E2F877041E001C0440F3E
:100DE0008A95EAF7E695E695E69585E0E89FF001B5
:100DF0001124EB53FE4F30E020E070E05191DF0111
:100E00001197CB01022E02C0969587950A94E2F7BE
:100E1000817081958527842385278C932F5F3F4F91
:100E20002530310559F70895E92FEE0FE90FEE0F40
:100E3000E80F9E2F9770E695E695E69585E0E89F8A
:100E4000F0011124EB53FE4F50E040E080E021918F
:100E500030E0092E02C0369527950A94E2F72170FA
:100E60003327042E01C0220F0A94EAF7822B4F5F2A
:100E70005F4F4530510559F70895BF92CF92DF92E9
:100E8000EF92FF920F931F93CF93DF938C01C0904B
:100E9000F101D090F201E090F301F090F401809123
:100EA000ED019091EE01A091EF01B091F001C82AFF
:100EB000D92AEA2AFB2ACFE1D0E0BC2ED701C6010D
:100EC0000C2E04C0B695A795979587950A94D2F7EE
:100ED00080FD0EC0219788F7B12C8B2DDF91CF912B
:100EE0001F910F91FF90EF90DF90CF90BF900895EA
:100EF000B8018C2F0E94A603019761F3EECFFF92F9
:100F00000F931F93CF93DF93FC01828100811181A6
:100F1000C081F180882311F1662301F1C8010E948C
:100F20003D07D82F682FC8010E94E606EC2FF0E09D
:100F300086E0F89EE00DF11D112480E3D89FE00DBE
:100F4000F11D1124EE0FFF1FEA5AFC4F8591949179
:100F5000DF91CF911F910F91FF900895C8010E94DA
:100F60001407D82FE3CFCF93DF93D82FC92F0E9438
:100F70003D076D2F7C2FDF91CF910C94A6030E942B
:100F8000B307282F892F8F70392F32953F70903CEF
:100F900080F43A30B0F4343020F4323090F480E011
:100FA00008953630E1F781E0283E88F0213FB9F717
:100FB0000EC03C3011F03F3091F7869586958695AE
:100FC000089581E0203F39F018F4283E40F7089555
:100FD000243F29F7FCCF0895ECE7F1E091918913C4
:100FE00003C0DF0111971C9291E0E238F907B1F7D5
:100FF00008958091E60181111092E6010895809193
:101000005D029091F601892B9091E301892B8093E9
:101010007A019091E601992391F0892B80937A01CE
:1010200020E08CE791E0FC013081019631112F5FC7
:1010300031E082389307B9F721110E94F907E09156
:101040003302F0913402309731F00280F381E02DC9
:101050008AE791E009940895882339F090915D0220
:10106000892B80935D020C94FF070895882341F03B
:10107000809590915D02892380935D020C94FF0717
:10108000089580E008959C01FC0132968FEF90E076
:101090004191461751F08F3F19F4411101C0892F3A
:1010A0009F5F9630A9F78F3F09F40895280F311DEF
:1010B00087FD3A95F90162830895CF93DF9300D0BD
:1010C00000D0CDB7DEB78FB7F8942091C001309132
:1010D000C1014091C2015091C30129833A834B83DE
:1010E0005C838FBF69817A818B819C810F900F9087
:1010F0000F900F90DF91CF9108959C014FB7F89416
:101100008091C0019091C101A091C201B091C30131
:101110004FBF821B930B08958091BB010895FC0182
:10112000CB0120918E0130918F012617370790F067
:10113000009729F42091E8002E772093E80040E002
:10114000009751F4411108C08091E80082FF31C03E
:1011500080E00895C901F3CF2091B2012223A9F1C3
:101160002530A9F12091E80023FD2DC02091E80051
:1011700022FDEACF2091E80020FFE2CF3091F3007A
:101180002091F200009719F02830310558F041E025
:101190002830310509F040E02091E8002E772093B7
:1011A000E800CECF41914093F10001972F5F3F4F70
:1011B000E9CF8091B201882341F0853041F08091E0
:1011C000E80083FFC1CF81E0089582E0089583E0C5
:1011D00008958091880187FF13C08091E80082FF05
:1011E00006C08091E8008B778093E80004C080916E
:1011F000B2018111F2CF08958091B2018823D9F311
:101200008091E80080FFF8CF8091E8008E77ECCFE6
:101210002091E4003091E50095E6A9012091EC00D1
:10122000822F817020FF06C08091E80080FF06C0F9
:1012300080E008952091E80022FD1AC08091B2015B
:10124000882389F0853089F08091EB0085FD0FC0FF
:101250002091E4003091E50042175307F9F29150D4
:10126000E1F684E0089582E0089583E0089581E046
:101270000895E8EDF0E080818E7F80831092E20097
:101280001092DA001092E100A0EEB0E08C91816043
:101290008C9380818F77808319BCA7EDB0E08C910F
:1012A0008E7F8C9380818F7E80831092870108953A
:1012B000EF92FF920F931F93CF937C018B010E94BB
:1012C0000809C82F811117C08091E80085FD0BC067
:1012D0008091E8008E778093E8000E9408098823B7
:1012E00099F3C82F08C0F70181917F018093F10025
:1012F0000150110949F78C2FCF911F910F91FF9049
:10130000EF900895982F9093E900242F762F50E0C6
:10131000891731F07091EC002091ED005091F000B0
:1013200021FD06C09F5F973071F78093E900089513
:101330003091EB003E7F3093EB003091ED003D7F2C
:101340003093ED003091EB0031603093EB007093FF
:10135000EC002093ED005093F0002091EE0027FD6B
:10136000E1CF0895CF92DF92EF92FF920F931F93F8
:10137000CF93DF93C8EDD0E088818F7E8883E7ED3F
:10138000F0E080818160808384E082BF81E080938F
:10139000870188818E7F888302EE10E0F801108239
:1013A0001092DA0081EEC82ED12CF60110828881CD
:1013B0008F77888388818068888388818F7D888300
:1013C00019BC1092B201109286011092B1011092D4
:1013D000850190EEE92EF12CF70180818B7F8083CF
:1013E00088818160888342E060E080E00E94820919
:1013F000F60180818E7F8083F80180818160808307
:10140000808188608083F70180818E7F80838881DE
:1014100080618883DF91CF911F910F91FF90EF90B2
:10142000DF90CF900895CF93DF9300D000D00F923C
:10143000CDB7DEB719828A836B834C832D8324E674
:1014400030E045E050E0BE016F5F7F4F84E10E94D5
:10145000F5280F900F900F900F900F90DF91CF9184
:10146000089580914002811110C08091D800806160
:101470008093D8008AE18A95F1F700C09091D90055
:10148000917082E0891B8093400281E0909140023C
:10149000913009F080E00895CF93DF93D82FC92FC2
:1014A00081E08093E9008FEF9091E800815095FDF5
:1014B00006C095ED9A95F1F700008111F5CF809166
:1014C000E80085FF16C050E040E068E070E08D2F36
:1014D0009C2F0E9458098091E8008E778093E80045
:1014E00088E0ED2FFC2FA3EBB1E001900D928A95DF
:1014F000E1F7DF91CF91089522E02093E9002FEFEB
:101500003091E800215035FD06C035ED3A95F1F7F0
:1015100000002111F5CF2091E80025FF0BC050E01D
:1015200040E066E070E00E9458098091E8008E7704
:101530008093E8000895CF93DF9300D00F92CDB74A
:10154000DEB79091B201943019F589836A837B8369
:1015500082E08093E9008FEF9091E800815095FD43
:1015600006C095ED9A95F1F700008111F5CF8091B5
:10157000E80085FF0DC050E040E063E070E0CE0180
:1015800001960E9458098091E8008E778093E800C8
:101590000F900F900F90DF91CF910895BC0183E0E1
:1015A0000C949B0ABC0184E00C949B0A6BEE7EEFCA
:1015B00090E080E00E94103060E082E090E00E94C5
:1015C000F22F60E083E090E00E94F22F1092ED0194
:1015D0001092EE011092EF011092F00160E084E0B1
:1015E00090E00E94F22F60E081E290E00E94F22FF2
:1015F00060E085E090E00E94F22F60E086E090E0FD
:101600000E94F22F6FEF87E090E00E94F22F40E0FF
:1016100050E0BA0188E090E00E94043060E08DE084
:1016200090E00E94F22F40E050E0BA0188E190E0A3
:101630000E94043060E087E190E00E94F22F40E0D9
:1016400050E0BA018CE190E00E94043060E080E25A
:1016500090E00E94F22F40E050E0BA0188E190E073
:101660000E94043040E050E0BA018FE090E00E9418
:10167000043040E050E0BA0183E190E00C94043083
:10168000CF9384E090E00E94E42FC82F81E290E0A5
:101690000E94E42F982F8C2FCF9108951F921FB690
:1016A0001F9211248F939F93AF93BF938091C40196
:1016B000811113C08091C0019091C101A091C2011C
:1016C000B091C3014196A11DB11D8093C0019093BB
:1016D000C101A093C201B093C301BF91AF919F918B
:1016E0008F911F901FBE1F9018952FB7F89480916F
:1016F000C0019091C101A091C201B091C3012FBF5F
:1017000008950E94750B20913B0230913C02232BDF
:1017100021F0809337029093380220913D0230915E
:101720003E02232B21F0809335029093360289E309
:1017300092E00C948906CF93C82F882309F44EC0F9
:101740008CEF8C0F813A90F4ECE7F1E082E891E0C5
:101750002191C217E9F18E179F07D1F76C2F8AE705
:1017600091E00E944308CF910C94FF0780E28C0F18
:10177000883068F4C77021E030E001C0220FCA95BC
:10178000EAF780915D02822B80935D02ECCF8BE5BE
:101790008C0F833038F42C2F2452330BC901CF9196
:1017A0000C949806E8E5EC0FE73150F4F0E0EE0F0A
:1017B000FF1FE65BFE4F80819181CF910C94AE06B6
:1017C000CD3E60F08C2F0E94D805CF910C94810BF8
:1017D0008C2F0E94EC070E94FF07C0CFCF91089585
:1017E000EF920F931F93CF93DF93D82FC62F122F13
:1017F00090915D0290935E029272B9F4442319F0C5
:1018000081EE0E949B0B112319F086EE0E949B0B28
:101810008D2F0E949B0B80915E0280935D02DF9171
:10182000CF911F910F91EF90089510925D020023C8
:1018300019F081EE0E949B0BEE2019F086EE0E94BB
:101840009B0B8C2FE6CF882399F19CEF980F913A50
:1018500020F40E94EC070C94FF0790E2980F983058
:1018600088F4877021E030E0A90102C0440F551FC1
:101870008A95E2F7CA01809590915D028923809351
:101880005D02E9CF9BE5980F933020F490E080E073
:101890000C94980698E5980F973120F490E080E03A
:1018A0000C94AE068D3E20F00E941D060C94810B18
:1018B00008950F931F93CF93C82F10E000E0893352
:1018C00011F400E510E08C2F0E949B0B011511050F
:1018D00031F48C2FCF911F910F910C94230C8FE931
:1018E0009FE00197F1F700C0000001501109EECF11
:1018F0000F931F93CF93DF938C01EB0180910E0127
:1019000082FF2FC08B7F80930E0180914402209133
:10191000460230914702AB01421B530B20910C0150
:1019200030910D014217530798F40E949B0B90E0F1
:1019300080910E0190FB81F980930E018091440209
:101940000E94230C8091F6018D7F8093F60113C0D5
:101950009091F60192609093F6010E949B0B91E0AA
:10196000E7CF802F0E94230C809144029091450282
:101970000817190739F30E94FF07D0934702C09355
:101980004602DF91CF911F910F910895AF92BF92C0
:10199000CF92DF92EF92FF920F931F93CF93DF933B
:1019A00000D000D0CDB7DEB78CE3E82E81E0F82E72
:1019B00093E5A92E92E0B92E00E0CC24C394D12C5B
:1019C000D7018D917D01F894E82FE295EF70F0E05A
:1019D00021A18F70A60102C0440F551F8A95E2F71E
:1019E000CA01922F982B91A392A18095892382A35B
:1019F000789400C0E4E4F1E030E020E010E04191B0
:101A0000A42FA295AF70A05EB0E08C9190E04F70D3
:101A100002C0959587954A95E2F780FD47C08C2DC9
:101A2000022E01C0880F0A94EAF7182B2F5F3F4F50
:101A30002630310521F7F701319780810E94480552
:101A400050EA5A95F1F7D5018D915D01181781F192
:101A5000FD013197108381E0082BB0E4EB16B1E073
:101A6000FB0609F0ADCF10915202002319F181E07D
:101A7000809343020E94750B90934202809341022F
:101A800080914102909142020E947D080697B0F039
:101A9000A12FB0E0A65BBD4F84E0E3E5F2E001904A
:101AA0000D928A95E1F71092430208C080E0BDCF05
:101AB00080E0D2CF809143028111E2CF0E94310AAF
:101AC000182F60915202882309F472C01A82198279
:101AD0001C821B82862F90E0FE0131967F01BF01A0
:101AE000865B9D4F0E94B927811145C080914902B4
:101AF0008F5F80934902863008F458C0E091480215
:101B0000F0E0E65BFD4F84E0DF01282F1D922A956F
:101B1000E9F7D7011D928A95E9F780910E0182FFBE
:101B200017C00E94750BBC0180914602909147023C
:101B30009B01281B390B80910C0190910D012817F6
:101B4000390730F080914402909145020E94780C50
:101B5000011101C0012F802F0F900F900F900F9057
:101B6000DF91CF911F910F91FF90EF90DF90CF9079
:101B7000BF90AF90089510924902A0914802B0E042
:101B8000A65BBD4F9E012B5F3F4F10E04D91F701CB
:101B900091917F01491731F0AD0141505109FA018E
:101BA0009083182FE216F30689F7B7CF10E0B5CF70
:101BB00070E0665B7D4F8091480290E0865B9D4FB0
:101BC0000E94ED27C5CF90E080E00E94980690E04B
:101BD00080E00E94AE061092F6011092E3010E948E
:101BE000FF0786E0E9E3F2E0DF011D928A95E9F75D
:101BF0000C94810BECE7F1E086E0DF011D928A9501
:101C0000E9F70C94E30D10925D020C94FA0D1F930A
:101C1000CF93DF93CDB7DEB7AA970FB6F894DEBFA8
:101C20000FBECDBF88E891E0FC0101962091F10044
:101C3000208321E080399207B9F7809189018930AA
:101C400009F456C0C8F4823009F4B1C0833009F4F5
:101C500080C0813071F18091E80083FF78C280916B
:101C60008801909189019A3008F071C2E92FF0E063
:101C7000EF51FD4C0C94A72F8A3009F487C08B30AC
:101C800051F780918801813231F780918C019091D8
:101C90008D01892B01F78091E800877F8093E80010
:101CA0000E94E90880918A0180930B010E94030E33
:101CB000D2CF80918801813A71F68091E800877FC8
:101CC0008093E80080918C0190918D01892B61F4C3
:101CD00068E083EB91E070E00E948F088091E8005B
:101CE0008B778093E800B7CF60E090E080E0F3CF9F
:101CF00080918801813209F0AECF80918C01909162
:101D00008D01029708F0A7CF8091E800877F80932C
:101D1000E8008091E80082FF17C09091F300809165
:101D2000F200029729F48091F1008B7F813021F439
:101D30008091F1008093BB018091E8008B778093C4
:101D4000E8000E94E90887CF8091B2018111E1CFBC
:101D500082CF80918801813A09F07DCF80918C01FA
:101D600090918D01892B09F076CF8091E800877FD3
:101D70008093E8008091E80080FFFCCF80910B0108
:101D80008093F1008091E8008E77D9CF809188010F
:101D9000813209F060CF8091E800877F8093E8006E
:101DA0000E94E90880918B018093840154CF809137
:101DB0008801813A09F04FCF8091E800877F8093B6
:101DC000E8008091E80080FFFCCF80918401D8CFAB
:101DD000803899F0823809F0BAC180918C018F70F7
:101DE000873008F0B4C18093E9008091EB0085FB57
:101DF000882780F91092E90006C0809185019091B2
:101E0000B101911182609091E800977F9093E80072
:101E10008093F1001092F1008091E8008E7793C1D9
:101E2000882309F481C1823009F091C180918A012F
:101E3000811184C180918C018F702FEF280F263083
:101E400008F085C18093E9002091EB0020FF76C166
:101E5000933031F48091EB0080628093EB006EC18F
:101E60009091EB0090619093EB0021E030E001C095
:101E7000220F8A95EAF72093EA001092EA008091F7
:101E8000EB008860EACF811162C110918A011F774F
:101E90008091E3008078812B8093E3008091E800BB
:101EA000877F8093E8000E94E9088091E80080FF26
:101EB000FCCF8091E30080688093E30082E0111101
:101EC00083E08093B20143C18058823008F03FC163
:101ED00040918A0150918B014C3D83E0580799F560
:101EE00083E08A838AE289834FB7F894DE011396F0
:101EF00020E03EE051E2E32FF0E050935700849160
:101F000020FF03C082958F703F5F8F708A30C8F0CA
:101F1000895C90E08D939D932F5F243161F74FBFD3
:101F20008091E800877F8093E8006AE270E0CE014C
:101F300001960E948F088091E8008B778093E800DB
:101F400006C1805DE6CF20918C0130918D01852FF7
:101F500099278330910509F160F48130910509F4E6
:101F600072C0029709F0F3C08BE390E0E5E3F2E082
:101F700029C08132910509F45AC0829709F0E7C05F
:101F80002115310509F469C02130310509F0DFC0A0
:101F90008BE790E0EAE7F1E015C0CA0199274130EC
:101FA000B1F18230910509F43AC0892B09F0CFC014
:101FB000E2EAF2E0E4918E2F90E0E2EAF2E00097AC
:101FC00009F4C5C02091E800277F2093E800209104
:101FD0008E0130918F018217930708F49C0140E035
:101FE0002115310509F03EC041113CC08091E80047
:101FF00082FDA1CF8091B201882309F49CCF853066
:1020000009F499CF8091E80083FFF0CF94CFE0E905
:10201000F2E0E4918E2F90E0E0E9F2E0D0CFE2E848
:10202000F2E0E4918E2F90E0E2E8F2E0C8CF2115D3
:10203000310571F02130310509F089C089E090E067
:10204000E0E6F2E0BFCF82E190E0E0E7F2E0BACF75
:1020500089E090E0E7E4F2E0B5CF80E490E0E5EFDE
:10206000F1E0B0CF8091B201882309F464CF8530CC
:1020700009F461CF8091E80083FD5DCF8091E80095
:1020800082FDB4CF8091E80080FFAACF9091F30049
:102090008091F2002115310519F08830910550F03A
:1020A00041E0089709F040E08091E8008E77809346
:1020B000E80096CF44914093F100319621503109C8
:1020C0000196E8CF803809F042C08091E800877F10
:1020D0008093E800809186018093F1009DCE81116C
:1020E00036C010918A01123090F58091E800877F08
:1020F0008093E800109386010E94E908112311F0F3
:1021000084E005C08091E30087FDFACF81E08093F1
:10211000B20142E061EC81E00E94820942E261EC9E
:1021200082E00E94820913C080918A01813079F493
:1021300081E0933009F080E08093B1011092E900D2
:102140008091E800877F8093E8000E94E9088091F1
:10215000E80083FF0AC08091E800877F8093E80051
:102160008091EB0080628093EB00AA960FB6F89402
:10217000DEBF0FBECDBFDF91CF911F910895609359
:10218000ED017093EE018093EF019093F0010C94B8
:10219000E30D6093F1017093F2018093F30190934A
:1021A000F4010C94E30D0F931F93CF93DF9300D0B2
:1021B00000D0CDB7DEB741E050E060E070E004C091
:1021C000440F551F661F771F8A95D2F78091F10142
:1021D0009091F201A091F301B091F4018A019B0169
:1021E000082B192B2A2B3B2B09831A832B833C8327
:1021F000C901B8010F900F900F900F90DF91CF9110
:102200001F910F910C94C9100F931F93CF93DF93DD
:1022100000D000D0CDB7DEB741E050E060E070E024
:1022200004C0440F551F661F771F8A95D2F740954B
:102230005095609570958091F1019091F201A09177
:10224000F301B091F4018A019B01082319232A2389
:102250003B2309831A832B833C83C901B8010F9068
:102260000F900F900F90DF91CF911F910F910C94D1
:10227000C9109091F501809589238093F501282F4D
:10228000277071F4282F082E000C330B92171306B9
:1022900039F08595859585950E9404111092F50178
:1022A0000895CF93C82F81E00E94CE06882349F07D
:1022B00083E00E94CE06882321F084E0CF910C9425
:1022C000D310C11104C084E0CF910C940411CF91BC
:1022D00008950F931F93CF93DF9300D000D0CDB715
:1022E000DEB741E050E060E070E004C0440F551FED
:1022F000661F771F8A95D2F78091F1019091F201C4
:10230000A091F301B091F4018A019B0108271927DC
:102310002A273B2709831A832B833C83C901B801F1
:102320000F900F900F900F90DF91CF911F910F9111
:102330000C94C910FF920F931F93CF93DF93C62F76
:10234000D42F122F8823A9F06093E4010E94750B0B
:102350009093830180938201C77081E001C0880F50
:10236000CA95EAF7DF91CF911F910F91FF900C94DE
:102370002C088091E401681334C08091820190910F
:1023800083010E947D088C32914058F500E20D0FC8
:10239000CD17A9F0C770FF24F3948F2D01C0880FCB
:1023A000CA95EAF70E943608083048F48D2F8770E6
:1023B00001C0FF0C8A95EAF78F2D0E942C08812F0F
:1023C0000E94590C0830A0F4D77081E001C0880F3A
:1023D000DA95EAF7DF91CF911F910F91FF900C945E
:1023E0003608C77081E001C0880FCA95EAF7F2CFBE
:1023F000DF91CF911F910F91FF9008954F925F92BF
:102400006F927F928F929F92AF92BF92CF92DF9204
:10241000EF92FF920F931F93CF93DF93CDB7DEB769
:1024200068970FB6F894DEBF0FBECDBF6C01FC01FC
:102430009081818123813481232B29F089238F3F4F
:1024400011F00C94DF1D68960FB6F894DEBF0FBE36
:10245000CDBFDF91CF911F910F91FF90EF90DF9053
:10246000CF90BF90AF909F908F907F906F905F9034
:102470004F900895882341F080EE0E949B0B8AE2E2
:102480000E949B0B0E94030E8091F5018770D9F288
:10249000F60182818823B9F282E068960FB6F8943B
:1024A000DEBF0FBECDBFDF91CF911F910F91FF9087
:1024B000EF90DF90CF90BF90AF909F908F907F90E4
:1024C0006F905F904F900C943911882359F0E12C54
:1024D00000E020E040E06CE470E08AE290E00E94DE
:1024E000F00BD2CF0E94FA0DCFCF8823D9F3809181
:1024F0005D0281FF04C085E00E94D310C5CF83E058
:102500000E946911C1CF882309F4BECF83EE0E94D7
:102510009B0B8EE10E949B0B0E94030EB5CF88237C
:1025200009F4B2CF83EE0E949B0B8FE10E949B0BBC
:102530000E94030EA9CF882309F4A6CF83EE0E9440
:102540009B0B80E20E949B0B0E94030E9DCF882371
:1025500009F49ACF83EE0E949B0B81E20E949B0BB1
:102560000E94030E91CF882309F48ECF83EE0E9440
:102570009B0B82E20E949B0B0E94030E85CF882357
:1025800009F482CF83EE0E949B0B83E20E949B0B97
:102590000E94030E79CF882309F476CF83EE0E9440
:1025A0009B0B84E20E949B0B0E94030E6DCF88233D
:1025B00009F46ACF83EE0E949B0B85E20E949B0B7D
:1025C0000E94030E61CF882309F45ECF81EE0E9442
:1025D0009B0B83EE0E949B0B86E20E949B0B0E944A
:1025E000030E52CF882309F44FCF81EE0E949B0B3C
:1025F00083EE0E949B0B87E20E949B0B0E94030EBE
:1026000043CF882309F440CF83EE0E949B0B82E4E2
:102610000E949B0B0E94030E37CF882309F434CF0E
:1026200081EE0E949B0B83EE0E949B0B8BE00E942D
:102630009B0B0E94030E28CF882309F425CF81EE3F
:102640000E949B0B83EE0E949B0B89E10E949B0BD7
:102650000E94030E19CF882309F416CF83EE0E943F
:102660009B0B8DE10E949B0B0E94030E0DCF8823D4
:1026700009F40ACF83EE0E949B0B89E00E949B0B1A
:102680000E94030E01CF882309F4FECE81EE0E9442
:102690009B0B83EE0E949B0B8AE00E949B0B0E9487
:1026A000030EF2CE882309F4EFCE83EE0E949B0B3B
:1026B00085E10E949B0B0E94030EE6CE882309F45D
:1026C000E3CE81EE0E949B0B83EE0E949B0B84E085
:1026D0000E949B0B0E94030ED7CE882309F4D4CE10
:1026E00083EE0E949B0B80E10E949B0B0E94030ED5
:1026F000CBCE882309F4C8CE83EE0E949B0B88E3DF
:102700000E949B0B0E94030EBFCE882309F4BCCE0F
:1027100083EE0E949B0B8BE20E949B0B0E94030E98
:10272000B3CE882309F4B0CE81EE0E949B0B83EEDA
:102730000E949B0B84E10E949B0B0E94030EA4CE7F
:10274000882359F081EE0E949B0B83EE0E949B0B25
:102750008BE10E949B0B0E94030EF601828188236D
:1027600009F492CE81EE0E949B0B83EE0E949B0B9C
:1027700086E00E949B0B0E94030E81EE0E949B0B41
:1027800083EE0E949B0B85E10E949B0B0E94030E2F
:102790007BCE882359F081EE0E949B0B83EE0E9432
:1027A0009B0B8CE20E949B0B0E94030EF601828120
:1027B000882309F497CEE12C00E020E040E06FE2AE
:1027C00070E084E390E00E94F00B5ECE882309F471
:1027D00089CEEE24E39400E021E040E061E270E085
:1027E00080E290E00E94F00B4FCE882309F47ACE6D
:1027F000E12C01E020E040E060E270E08DE290E05A
:102800000E94F00B41CE882309F46CCEE12C01E04C
:1028100020E041E064E370E08FE190E00E94F00B83
:1028200033CE882309F45ECEE12C01E020E041E0C4
:102830006EE270E08DE290E00E94F00B25CE8823DE
:1028400009F450CEE12C00E020E041E06EE270E0BF
:102850008EE190E00E94F00B17CE882309F442CE5F
:10286000EE24E39400E020E041E063E270E082E2E5
:1028700090E00E94F00B08CE882309F433CEEE24BA
:10288000E39400E020E040E06FE170E080E390E05E
:102890000E94F00BF9CD882309F424CEE12C01E04D
:1028A00020E040E068E370E088E390E00E94F00BF5
:1028B000EBCD882309F416CEE12C01E020E041E0C5
:1028C0006FE270E080E390E00E94F00BDDCD8823A2
:1028D00009F408CEEE24E39400E020E041E065E353
:1028E00070E084E290E00E94F00BCECD882309F4E2
:1028F000F9CDE12C01E020E041E067E270E087E201
:1029000090E00E94F00BC0CD882309F4EBCDEE24BB
:10291000E39400E020E040E06CE170E084E690E0C9
:102920000E94F00BB1CD882309F4DCCDEE24E394B2
:1029300000E020E041E06CE070E084E690E00E947E
:10294000F00BA2CD882309F4CDCDEE24E39400E072
:1029500020E041E068E070E085E290E00E94F00B4A
:1029600093CD882309F4BECDE12C01E020E041E0C5
:1029700061E270E086E290E00E94F00B85CD882352
:1029800009F4B0CDE12C01E020E041E065E370E026
:1029900083E290E00E94F00B77CD882309F4A2CD6A
:1029A000E12C00E021E040E065E370E08EE190E0A2
:1029B0000E94F00B69CD882309F494CDEE24E394B2
:1029C00000E021E040E064E370E084E390E00E94F6
:1029D000F00B5ACD882309F485CDEE24E39400E072
:1029E00021E040E062E370E082E390E00E94F00BBF
:1029F0004BCD882309F476CDEE24E39400E021E06A
:102A000040E06FE270E08FE290E00E94F00B3CCD7E
:102A1000882309F467CDEE24E39400E021E040E050
:102A200060E370E080E390E00E94F00B2DCD8823FE
:102A300009F458CDE12C00E020E040E066E070E0D1
:102A400086E090E00E94F00B20E040E064E070E05F
:102A50008CE090E00E94F00B20E040E067E170E045
:102A600087E190E00E94F00B0FCD882309F43ACD66
:102A7000E12C00E020E040E066E070E086E090E0DD
:102A80000E94F00B20E040E064E070E08CE090E019
:102A90000E94F00B20E040E063E170E083E190E011
:102AA0000E94F00BF1CC882309F41CCDE12C00E04E
:102AB00020E040E066E070E086E090E00E94F00BED
:102AC00020E040E064E070E08CE090E00E94F00BD9
:102AD00020E040E066E170E086E190E00E94F00BCB
:102AE000D3CC882309F4FECCE12C00E020E040E0C8
:102AF00066E070E086E090E00E94F00B20E040E0AD
:102B000064E070E08CE090E00E94F00B20E040E098
:102B10006AE170E08AE190E00E94F00BB5CC882376
:102B200009F4E0CCE12C00E020E040E066E070E059
:102B300086E090E00E94F00B20E040E06CE070E066
:102B40008CE090E00E94F00B20E041E065E070E056
:102B500085E090E00E94F00B97CC882309F4C2CC6A
:102B6000E12C00E020E040E069E170E089E190E0E4
:102B70000E94F00B20E040E064E070E08CE090E028
:102B80000E94F00B20E040E067E170E087E190E018
:102B90000E94F00B79CC882309F4A4CCE12C00E04E
:102BA00020E040E069E170E089E190E00E94F00BF4
:102BB00020E040E064E070E08CE090E00E94F00BE8
:102BC00020E040E063E170E083E190E00E94F00BE0
:102BD0005BCC882309F486CCE12C00E020E040E0C7
:102BE00069E170E089E190E00E94F00B20E040E0B4
:102BF00064E070E08CE090E00E94F00B20E040E0A8
:102C000066E170E086E190E00E94F00B3DCC882305
:102C100009F468CCE12C00E020E040E069E170E0DC
:102C200089E190E00E94F00B20E040E064E070E079
:102C30008CE090E00E94F00B20E040E06AE170E060
:102C40008AE190E00E94F00B1FCC882309F44ACC63
:102C5000E12C00E020E040E069E170E089E190E0F3
:102C60000E94F00B20E040E06CE070E08CE090E02F
:102C70000E94F00B20E041E065E070E085E090E02C
:102C80000E94F00B01CC882309F42CCCE12C00E04D
:102C900020E040E067E070E087E090E00E94F00B09
:102CA00020E040E064E070E08CE090E00E94F00BF7
:102CB00020E040E067E170E087E190E00E94F00BE7
:102CC000E3CB882309F40ECCE12C00E020E040E0C7
:102CD00067E070E087E090E00E94F00B20E040E0C9
:102CE00064E070E08CE090E00E94F00B20E040E0B7
:102CF00063E170E083E190E00E94F00BC5CB882394
:102D000009F4F0CBE12C00E020E040E067E070E067
:102D100087E090E00E94F00B20E040E064E070E08B
:102D20008CE090E00E94F00B20E040E066E170E073
:102D300086E190E00E94F00BA7CB882309F4D2CB68
:102D4000E12C00E020E040E067E070E087E090E008
:102D50000E94F00B20E040E064E070E08CE090E046
:102D60000E94F00B20E040E06AE170E08AE190E030
:102D70000E94F00B89CB882309F4B4CBE12C00E04E
:102D800020E040E067E070E087E090E00E94F00B18
:102D900020E040E06CE070E08CE090E00E94F00BFE
:102DA00020E041E065E070E085E090E00E94F00BFB
:102DB0006BCB882309F496CBEE24E39400E021E06A
:102DC00040E060E370E080E390E00E94F00BE12CD3
:102DD00020E040E060E170E080E190E00E94F00BD4
:102DE00053CB882309F47ECBEE24E39400E021E06A
:102DF00040E06FE270E08FE290E00E94F00BE12C87
:102E000020E040E060E170E080E190E00E94F00BA3
:102E10003BCB882309F466CBEE24E39400E020E06A
:102E200040E060E370E086E390E00E94F00B20E079
:102E300040E060E370E086E090E00E94F00BE12C5F
:102E400020E040E070E060E08EE190E00E94F00B56
:102E50001BCB882309F446CBEE24E39400E020E06A
:102E600040E06FE270E086E390E00E94F00B20E02B
:102E700040E06FE270E086E090E00E94F00BE12C11
:102E800020E040E070E060E08FE190E00E94F00B15
:102E9000FBCA882309F4F8CA83EE0E949B0B84E4E2
:102EA0000E949B0B0E94030EEFCA882309F4ECCA10
:102EB00080EE0E949B0B83EE0E949B0B85E00E949C
:102EC0009B0B0E94030EE0CA882309F4DDCA83EE3F
:102ED0000E949B0B87E00E949B0B0E94030ED4CAAA
:102EE000882309F4D1CA80EE0E949B0B83EE0E94D6
:102EF0009B0B86E10E949B0B0E94030EC5CA882390
:102F000009F4C2CA80EE0E949B0B83EE0E949B0BC9
:102F100088E00E949B0B0E94030EB6CA882309F426
:102F2000B3CA83EE0E949B0B81E40E949B0B0E941C
:102F3000030EAACA882309F4A7CA80EE0E949B0B3D
:102F400083EE0E949B0B80E10E949B0B0E94030E6C
:102F50009BCA882309F498CA80EE0E949B0B83EEDB
:102F60000E949B0B87E00E949B0B0E94030E8CCA61
:102F7000882309F489CA80EE0E949B0B83EE0E948D
:102F80009B0B84E00E949B0B0E94030E7DCA88234A
:102F900009F47ACA83EE0E949B0B8AE30E949B0B82
:102FA0000E94030E71CA882309F46ECA83EE0E9440
:102FB0009B0B8BE30E949B0B0E94030E65CA882328
:102FC00009F462CA83EE0E949B0B83E40E949B0B70
:102FD0000E94030E59CA882309F456CA80EE0E9443
:102FE0009B0B83EE0E949B0B8AE10E949B0B0E942D
:102FF000030E4ACA882309F447CA61E083E090E0DF
:103000000E94F22F61E070E080E090E00E94BF102B
:103010003BCA882321F082E00E94D31035CA82E0A7
:103020000E94041131CA882339F083E00E94D31032
:1030300081E00E94511128CA83E00E94041180E0BF
:103040000E94511121CA882321F086E00E94D310EA
:103050001BCA86E00E94041117CA882351F081E040
:103060000E94D31081E00E94511185E00E9404115A
:103070000BCA81E00E94041180E0F5CF0B316CE5B2
:10308000160709F442C080910E018E7F0C317CE559
:10309000170709F068C580930E01F6018281882325
:1030A00009F45EC11092E4010631FCE51F0708F047
:1030B00050C102302CE5120708F421C20E94400BD7
:1030C00090935C0280935B0206313CE5130708F0A5
:1030D0006FC102304CE5140708F05DC160915B02DE
:1030E00010915C0284E090E00E94F22F612F81E257
:1030F00090E00E94F22F0E94030EC6C990910E012B
:10310000892F8E7F90FF8160C6CF80910E018160F4
:10311000C2CF80910C0190910D01059790930D0104
:1031200080930C01BACF80910D018F9380910C0197
:103130008F9387E191E09F938F931F9288E08F9305
:10314000CE0101967C019F938F930E9426300FB68B
:10315000F894DEBF0FBECDBF3AE0432EF701808169
:10316000882309F49ACF813009F048C09181828187
:10317000913031F4F2E0EF0EF11C0E94590C07C0BF
:10318000923049F422E0E20EF11C0E949B0B2FEFDB
:10319000E21AF20AE3CF933031F432E0E30EF11C8D
:1031A0000E94230CF4CF943021F04FEFE41AF40A7C
:1031B000EECF52E0E50EF11C20E030E0A7014F5FBA
:1031C0005F4F8053990B8A30910560F021153105CE
:1031D000F1F28FE99FE00197F1F700C00000215064
:1031E0003109F4CF429EB001439E700D11249C0121
:1031F000260F371FF70181817A01E0CFE82FF0E039
:10320000EA52FD4F5490282F26952695269530E0BA
:10321000F901EA53FD4FE4918770F0E0082E02C0F7
:10322000F595E7950A94E2F73F0191E0692277244A
:10323000F901EA54FD4F8490912C082E02C0959418
:1032400087940A94E2F7E1E08E229924F901EA5585
:10325000FD4FA490B12C02C0B594A7948A95E2F7D3
:10326000F1E0AF22BB246114710419F081EE0E94D9
:103270009B0B8114910419F086EE0E949B0B852D07
:103280000E94590C892819F086EE0E94230C6728A9
:1032900019F081EE0E94230CAB2809F478CF8CE260
:1032A0006CCF0B32110509F46FC4F7CE043611054B
:1032B00009F46AC4043FFCE51F0799F1C8F4093D0D
:1032C0003CE5130741F10A3D4CE51407E1F1083DE7
:1032D0005CE5150709F0E1CE26E241EE61EE0E94C1
:1032E0009A11D2C86F2D7E2DC8010E94780CCCC8CF
:1032F000063F6CE51607D9F0073F7CE51707E9F0B4
:10330000053F9CE5190709F0C8CE27E245EE64EEBB
:103310000E949A11B9C827E245EE65EE0E949A1103
:10332000B3C826E241EE60EE0E949A11ADC829E2D0
:1033300040E062EE0E949A11A7C827E245EE66EED1
:103340000E949A11A1C828E241E065EE0E949A11FC
:103350009BC898012B5F3C452930310508F4AECE5F
:1033600006315CE5150709F0C8C090915D0288231D
:1033700009F4B9C0892F8A7A91E009F490E090931A
:10338000E50169E2811165E38AE791E00E94430863
:103390000E94FF0779C8F801E350FC4580915B0269
:1033A0008160E331F105B8F4E551FD4C0C94A72F91
:1033B000C8018B5F9C45099708F090CEF801EC5F3F
:1033C000FC45E830F10590F4E250FD4C0C94A72F39
:1033D00080915B02826080935B0280CE80915B0271
:1033E0008460F9CF80915B028860F5CF80915C02A8
:1033F000816080935C0272CE80915C028260F9CF22
:1034000080915B028061E7CF80915B028062E3CFB5
:1034100080915B028064DFCF0E94030E80915B028B
:103420008068D9CF80915B028C60D5CF80915C029F
:103430008360DFCF80915B028E7FCDCF80915B0276
:103440008D7FC9CF80915B028B7FC5CF80915B025E
:10345000877FC1CF80915C028E7FCBCF80915C0251
:103460008D7FC7CF80915B028F7EB5CF80915B024D
:103470008F7DB1CF80915B028F7BADCF0E94030E19
:1034800080915B028F77A7CF80915B02837FA3CF70
:1034900080915C028C7FADCF80915B0282FB99278B
:1034A00090F921E0922790FB82F990FB83F993CF6A
:1034B00080915C02982F909591708E7F892B90FB64
:1034C00081F997CF0E94030E90915B02892F97FBA1
:1034D00087F9805880CF61E08EE090E00E94F22F63
:1034E000FDCD60E0F9CF8091E501811104C089E252
:1034F0000E94EC074DCF85E3FBCF882349F00115EF
:103500006CE5160709F443C00F3D1C4509F45BC088
:10351000F601E080F180882309F459C0C7010E94B8
:103520003D07182F682FC7010E94E606B701812FBB
:103530000E94A6038C01F601F280E580E2942FE060
:10354000E2228091F5018770A1F09F2CFF2091F07D
:10355000812F807F803421F080E2800F883048F016
:1035600082E00E9439118091F5018770992493942B
:103570008111912C812F82958F70A82EB12C8C30C7
:1035800008F060C0F501EA5FFC4C0C94A72F0E9484
:10359000030E8FEF94E3ECE081509040E040E1F7C0
:1035A00000C0000087E797E7909301088093000828
:1035B00088E19AE00FB6F894A895809360000FBE5A
:1035C00090936000FFCF0E94D60A0C944412C7016A
:1035D0000E941407182FAACFF12FFF70EF2E107F33
:1035E00019F0E29490EFE922FF20C9F0EE2069F093
:1035F00080E2800F883010F001110BC080915D02D5
:103600008E2980935D020E94FF07802F0E949B0BF2
:1036100019C08091F6018E298093F601F4CF802F96
:103620000E94230CEE2071F0E09480E2800F88303D
:1036300010F0011141C080915D028E2180935D02E6
:103640000E94FF07E8E0AE1AB108F4E0AF16B1043B
:1036500010F40E947D069920A9F08091F50180FD6B
:1036600011C0F60112828595859585950E94D3102B
:10367000C6010E94FE118091F5018595859585957D
:103680000E94041160E0C60168960FB6F894DEBF90
:103690000FBECDBFDF91CF911F910F91FF90EF90A3
:1036A000DF90CF90BF90AF909F908F907F906F9062
:1036B0005F904F900C947F078091F6018E2180934C
:1036C000F601BECF212F2F70822E107F103219F0FD
:1036D000829480EF8822002339F0013031F1FF20FD
:1036E00089F1EE2041F191CFFF2091F09091E60118
:1036F000882D892BE11003C00E942C08A3CF31E054
:10370000E312FACF981709F49DCF8093E6019ACF80
:10371000E11006C00E94F907882D0E94360892CF5A
:1037200041E0E41609F48ECFF5CFFF2031F055E0EB
:103730005E1508F487CF882DDFCF64E06E1508F49E
:1037400081CFEACFEE2041F3093349F47FEF87EED2
:1037500093E0715080409040E1F700C00000802F5E
:103760000E94230C6FCF812F86958695837061F020
:10377000813009F067CFC8019370F11002C090E06A
:1037800080E00E94AE065ECFC8019370F11002C0C7
:1037900090E080E00E94980655CF802FFF20C1F175
:1037A0000E94D805015F110B08301105B8F581E0C2
:1037B00090E001C0880F0A95EAF726E0E7EEF1E015
:1037C000DE01199601900D922A95E1F72091E8010A
:1037D00036E0FE013996DE011F9601900D923A9572
:1037E000E1F7FF20C1F0282B288B86E0FE013F96F1
:1037F000DE01119601900D928A95E1F786E0FE01B7
:103800003196A7EEB1E001900D928A95E1F71ACFBB
:103810000E941D06C7CF80952823E6CF0E94810B0A
:1038200011CF812F837009F07AC0F1100BCF202FB8
:10383000229526952770220F220F402F4F7050E0BF
:1038400070E060E0022E04C0440F551F661F771F12
:103850000A94D2F780E090E0DC0104FF0FC08FE013
:1038600090E0A0E0B0E004C0880F991FAA1FBB1F22
:103870002A95D2F780959095A095B095E12FE69581
:10388000E695E370E23059F1E33009F441C000916C
:10389000ED011091EE012091EF013091F001E13046
:1038A00099F0842B952BA62BB72BAC01BD0140239F
:1038B0005123622373234D8B5E8B6F8B788FCB01EB
:1038C000BA010E94BF10BECE042B152B262B372B1E
:1038D000B901A801482B592B6A2B7B2BECCF842BE9
:1038E000952BA62BB72B4091ED015091EE016091E5
:1038F000EF017091F0018C019D0104271527262707
:1039000037270D8B1E8B2F8B388FC901B801D9CF6C
:103910008A019B01082B192B2A2B3B2BF2CFFF206E
:1039200009F44DC010FF8ECE202F229526952770CA
:10393000220F220F402F4F7050E070E060E0022E07
:1039400004C0440F551F661F771F0A94D2F780E00A
:1039500090E0DC0104FF0FC08FE090E0A0E0B0E059
:1039600004C0880F991FAA1FBB1F2A95D2F7809504
:103970009095A095B095E12FE695E695E370E2303D
:1039800061F1E33009F444C00091F1011091F201BA
:103990002091F3013091F401E130A1F0842B952BBB
:1039A000A62BB72BAC01BD01402351236223732307
:1039B0004D8B5E8B6F8B788FCB01BA0126C011FFC8
:1039C00041CEB2CF042B152B262B372BB901A801E2
:1039D000482B592B6A2B7B2BEBCF842B952BA62BBB
:1039E000B72B4091F1015091F2016091F301709178
:1039F000F4018C019D0104271527262737270D8BFD
:103A00001E8B2F8B388FC901B8010E94C9101ACEA6
:103A10008A019B01082B192B2A2B3B2BF0CF1F70FF
:103A2000FF2029F0812F0E94D310802F65CE802F98
:103A30000E943608812F0E94041104CE023FB9F182
:103A400060F4003FE9F0013F59F1FF2009F454C050
:103A5000E110DBCD812F8F7127C0033F69F1043F57
:103A6000A1F7FF20F1F11F71812F0E94D31058E0C0
:103A7000159FC001112483608093F501812F14C02C
:103A8000FF2049F024E02E1508F4DCCD812F8F7142
:103A90000E946911D7CD35E03E1508F4D3CDF6CF9D
:103AA000812F8F71FF2039F20E94D310CBCD812F4F
:103AB0008F71FF20C9F3BFCF60E070E0CB01FF2022
:103AC00009F4A3CF1F7181E090E0A0E0B0E0AC0169
:103AD000BD0104C0440F551F661F771F1A95D2F70A
:103AE00067CF81E00E94391161E06E1508F0AACD20
:103AF00082E00E943911A6CDE11026CE812F8F7170
:103B00009ACF0E94750BF82EE92EF6018281882348
:103B100051F180910E0182FF06C06F2D7E2D90E045
:103B200080E00E94780C8091F6018D7F8093F601F1
:103B30000A31FCE51F0709F4E1CA08F09FCA083101
:103B40003CE5130709F4E5CA09314CE5140709F40B
:103B5000EACA80910C0190910D01059607315CE550
:103B6000150709F4DBCAF60182810933110508F053
:103B70009DCB0D32110540F40E31110508F091CBAB
:103B80000430110508F489CA882309F4ABCB80916D
:103B90000E0180FF82CA90915D0291117ECA10933E
:103BA000450200934402F0924602E092470284608C
:103BB00080930E0182E00E9439110C94441261E05E
:103BC000C6010E947F078C01F6018281F801E45C46
:103BD000FC45E23CF10508F094CFEE5EFC4C0C9401
:103BE000A72F1F93CF93DF9380912E02807FA9F49C
:103BF00080912B02882389F08091F801C091F70110
:103C00007091290260912A02A0912C02B0912D029C
:103C1000D62FD72316E0C81304C0DF91CF911F9190
:103C2000089590E0109711F0DF3F19F40196877026
:103C3000F2CF189F9001199F300D1124F901E75020
:103C4000FE4F41816413F2CF40814713EFCF428191
:103C50004111ECCF438154814A1B5B0B4C325140E4
:103C600028F780912E028F70806180932E02F901D7
:103C7000E250FE4F80818F708061808389E292E004
:103C80000E94FE11DF91CF911F910C94C406AF9258
:103C9000BF92CF92DF92EF92FF920F931F93CF9339
:103CA000DF93CDB7DEB72B970FB6F894DEBF0FBE0C
:103CB000CDBF8C0185E0F801DE01179601900D92D1
:103CC0008A95E1F7F801E28030812181C380D480B8
:103CD00089E2A82E82E0B82E9091290240912A0212
:103CE00060912C0270912D026115710529F0892FC8
:103CF00084238F3F09F01DC1EE2009F428C18F8174
:103D000098850E94BF07F82E882309F420C186E019
:103D1000F801A9E2B2E001900D928A95E1F7809155
:103D2000290290912A020E94B3070E94F11D1DC032
:103D300080912E02582F507F6C32714008F078C06D
:103D4000511194C0FE2C241322C0931320C0E11003
:103D50001EC08F70806180932E0289E292E00E94E3
:103D6000FE1180912E02F80185838F2D2B960FB6C0
:103D7000F894DEBF0FBECDBFDF91CF911F910F91A1
:103D8000FF90EF90DF90CF90BF90AF900895CD2837
:103D900029F0822F83238F3F09F065C080E0F82F40
:103DA000F170DF2EE091F8014091F70156E080FDBF
:103DB0001CC0EE20D1F280912E02816080932E02F1
:103DC000F12CD3CF8E2F90E05E9FF0011124E750AD
:103DD000FE4F6181261306C06081361303C06281E5
:103DE0006E11E7CF0196E82FE770E413EBCF8F81D8
:103DF00098850E94B307292F22952F70903260F08A
:103E0000225F2F70223078F49F7051F0F801958175
:103E1000907F31F4D12C0AC09F7011F08823D1F328
:103E2000805E8830B8F3C8010E94FE11FD2C9DCF42
:103E300051114DC089E292E00E94FE1186E0F50129
:103E400011928A95E9F7BCCF8F8198850E94BF07B0
:103E5000811130C080912E02816080932E02C801B2
:103E60000E94FE1182CF81E08E2599CF241306C0D7
:103E7000931304C0F801EE2009F44EC08F81988599
:103E80000E94BF07882309F462C0EE2009F45FC0D6
:103E900080912E02803270F02091290230912A0206
:103EA0003A8329831B82DD82CC828E83CE010196E8
:103EB0000E94FE1186E0F801A9E2B2E001900D92A5
:103EC0008A95E1F70E94F11DFF24F3944ECF24134D
:103ED000D5CF9313D3CFE110D1CFF8018583C8019B
:103EE0000E94FE1186E0F50111928A95E9F73DCF17
:103EF0002413AACF9313A8CF80912E0280FD10C067
:103F0000982F907F69F0F8018583903F31F0982FCA
:103F1000907F905F8F70892B8583C8010E94FE116E
:103F200086E0F801A9E2B2E001900D928A95E1F7EE
:103F30001CCFF0902B02F601E61BF70BBF01F1102E
:103F4000F7CE6C32714070F6FE2CE110D1CFC80173
:103F50000E94FE11B9CF1F93CF93DF93CDB7DEB789
:103F600067970FB6F894DEBF0FBECDBF4B8B5C8B4F
:103F7000962F6D8B7E8B8F8B61111092F6011A8AB2
:103F800085E0FE017396DE011D9601900D928A95E3
:103F9000E1F79F8786E0FE013D96DE0117960190CE
:103FA0000D928A95E1F7CE0107960E94471E88235D
:103FB00089F016E08091F8019091F701891349C0CA
:103FC00067960FB6F894DEBF0FBECDBFDF91CF91DD
:103FD0001F91089586E0FE013796DE01119601904B
:103FE0000D928A95E1F78F8198852091F701409194
:103FF000F8016A857B85672BE1F289238F3FC9F23F
:1040000030E0C9010196877099274817190671F4A5
:104010000E94030E1092F7011092F80186E0E9E287
:10402000F2E0DF011D928A95E9F7C3CF96E0929FF7
:10403000D001939FB00D1124A750BE4FFE013196C1
:1040400001900D929A95E1F78093F7010E94C406C2
:10405000B0CF819FC001112487509E4F0E94471E00
:10406000882309F4ADCF8091F80190E00196877024
:1040700099278093F8019ECF78941F921FB61F92C4
:1040800011248F939F93AF93BF938091C001909120
:10409000C101A091C201B091C3010196A11DB11D42
:1040A0008093C0019093C101A093C201B093C3015A
:1040B000BF91AF919F918F911F901FBE1F90189538
:1040C000CF92DF92EF92FF92CF93DF9300D000D098
:1040D000CDB7DEB76B017C010E94310A81110EC0A1
:1040E0000E945D08C61AD70AE80AF90AC092BC0104
:1040F000D092BD01E092BE01F092BF010F900F90EF
:104100000F900F90DF91CF91FF90EF90DF90CF90C5
:104110000895CF93DF9300D000D0CDB7DEB70E94D3
:10412000310A882341F00F900F900F900F90DF918C
:10413000CF910C945D080E945D0869837A838B831C
:104140009C838091BC019091BD01A091BE01B09172
:10415000BF0129813A814B815C81280F391F4A1F99
:104160005B1FCA01B9010F900F900F900F90DF9164
:10417000CF910895CDB7DEB7E7970FB6F894DEBFBD
:104180000FBECDBF84B7877F84BF0FB6F894A895C4
:1041900080916000886180936000109260000FBE83
:1041A00080E890E00FB6F8948093610090936100EE
:1041B0000FBE85B7806885BF85B7806885BF81E4FD
:1041C00098E090937901809378010E9439090E94C8
:1041D000B2098091E20084608093E200789480913B
:1041E000B201882399F08091E9001091EC001795B5
:1041F000112717958F70182B1092E9008091E80015
:1042000083FD0E94070E1F701093E90082E084BDB9
:1042100093E095BD9AEF97BD80936E001092BC011C
:104220001092BD011092BE011092BF010E94310A8E
:1042300091E08927809300010E94310A81110E9438
:10424000AD27809100018091000191E08927880FBE
:10425000880F8093520294E0981B9093480284E95F
:104260000E94480586E60E94480587E90E944805A5
:1042700086EC0E94480584EF0E94480585EF0E9465
:10428000480586EF0E94480587EF0E94480581E3B4
:104290000E94480583E30E94480588E0E3E5F2E0D8
:1042A000DF01282F1D922A95E9F7EAE4F2E0DF0109
:1042B0001D928A95E9F790E080E00E94EC2F8B3EFA
:1042C0009E4F11F00E94D60A0E94310A811102C04D
:1042D0000E94B32790E080E00E94EC2F8B3E9E4F1F
:1042E00011F00E94D60A82E090E00E94E42F8093B1
:1042F000A8010E94400B90935C0280935B0283E0D4
:1043000090E00E94E42F282F30E050E040E02CA7FE
:104310003DA74EA75FA7CA01B9010E94BF100E9426
:104320001C2820E04AE260E080E00E94130A81E05D
:1043300091E09093340280933302AE014F5F5F4F60
:104340005DA34CA3CE0103969FA38EA38091B201DF
:1043500000E112E1853009F4E4C20E94C60C81112B
:104360000E945D08EAE4F2E0A9EAB1E010E000E0B2
:10437000C02EE1908D918E1509F4E2C28E25D12CCC
:10438000FF24F394982F9F2109F4D5C20E94310A8B
:10439000882399F0D982CA82EF2081E009F480E075
:1043A0008B830E94750B8160782F9D838C8349815C
:1043B0005A816B81892F0E94AB1FF801E755FE4F90
:1043C00080818F25808386E0E9E3F2E0DE011196AB
:1043D00001900D928A95E1F7C0903B02D0903C028B
:1043E00000913D0210913E0210923B0210923C025D
:1043F00010923D0210923E028C2D8D29FCA0EDA062
:104400008823B1F080913702909138020E947D0894
:10441000E0913F02F0E0EE0FFF1FEC5DFE4F2081C8
:1044200031812817390720F4C0923B02D0923C0218
:10443000802F812BB1F080913502909136020E943D
:104440007D08E0913F02F0E0EE0FFF1FE45EFE4FBB
:10445000208131812817390720F400933D02109301
:104460003E0280913B0290913C02892B90913D024B
:10447000892B90913E02892B11F00E94810B86E0DE
:10448000EF2DFE2DA9E3B2E001900D928A95E1F7A0
:1044900086E0E7EEF1E0DE01539601900D928A95F9
:1044A000E1F74091E8014CA75091E9015CAB8091A4
:1044B000EA018EAB9091EB019DABA091EC01AFAB0B
:1044C00086E0FE017396AF2DBE2D01900D928A9568
:1044D000E1F786E0EF2DFE2DDE01599601900D9259
:1044E0008A95E1F70E94310A882309F45EC2198295
:1044F00004E610E021E030E04F2D5E2D69EF84E10D
:104500000E942229898180FF37C280919E0190916B
:104510009F01009709F02BC20E94750B8160909358
:104520009F0180939E011A82198283E0EEA1FFA170
:1045300011928A95E9F704E610E025E030E04F2D6E
:104540005E2D64E084E10E9422298B812C811A81F6
:1045500009819D8190FD7CC2821B990B9C01990F62
:10456000440B550B28A739A74AA75BA7CA01B90175
:104570000E940D2F3B015C01412F401B550B9A01FE
:10458000550F440B550B28A739A74AA75BA7CA01AB
:10459000B9010E940D2F68AB79AB8AAB9BAB93013D
:1045A000A50168A679A6AAA6BBA668A579A58AA52D
:1045B0009BA50E94072F6B018C0128A939A94AA944
:1045C0005BA988A988A799A999A7AAA9AAA7BBA9FD
:1045D000BBA768A579A58AA59BA50E94072F9B016B
:1045E000AC01C8A6D9A60AA71BA768A579A58AA564
:1045F0009BA50E94762D68A779A78AA79BA768A587
:1046000079A58AA59BA50E94312D162F072FD82E9C
:10461000C92E20E030E040EC5FE368A779A78AA7C5
:104620009BA768A579A58AA59BA50E94D32C1B01F1
:104630002C0120E030E040E050E468A579A58AA58F
:104640009BA50E947E2F18160CF013C280909C012F
:1046500090909D01C4010E947D08892B09F002C23F
:104660000E94750B4C01212F302F4D2D5C2D18A76A
:1046700009A7DAA6CBA668A579A58AA59BA50E945D
:10468000762D20E030E040EC5FE368A779A78AA7A9
:104690009BA768A579A58AA59BA50E94D32C9B0101
:1046A000AC0128A639A64AA65BA668A579A58AA565
:1046B0009BA50E94762D6B018C019301A501F8A9A1
:1046C000F8A789A989A79AA99AA7ABA9ABA768A5B2
:1046D00079A58AA59BA50E94D92A20E030E0A901EE
:1046E00068A779A78AA79BA768A579A58AA59BA58E
:1046F0000E94762D2B013C0180929C0190929D019D
:1047000068A759A68AA77BA668A579A58AA59BA5AF
:104710000E94382B9B01AC01C8A6D9A60AA71BA7EB
:1047200068A579A58AA59BA50E94072F4B015C016E
:1047300080919A0190919B019C01990F440B550B1C
:1047400028A739A74AA75BA7CA01B9010E940D2F64
:104750009401A50168A779A78AA79BA768A579A551
:104760008AA59BA50E94762D68A779A78AA79BA7F3
:1047700068A579A58AA59BA50E94482F70939B01E7
:1047800060939A0148A659A66AA67BA668A579A552
:104790008AA59BA50E94232D9B01AC01C8A6D9A682
:1047A0000AA71BA768A579A58AA59BA50E94072F24
:1047B0006B018C0180919801909199019C01990F56
:1047C000440B550B28A739A74AA75BA7CA01B90113
:1047D0000E940D2F9601A80168A779A78AA79BA719
:1047E00068A579A58AA59BA50E94762D68A779A7BB
:1047F0008AA79BA768A579A58AA59BA50E94482F93
:10480000709399016093980180919601909197011E
:104810009C01990F440B550B28A739A74AA75BA702
:10482000CA01B9010E940D2F9601A80168A779A7B6
:104830008AA79BA768A579A58AA59BA50E94752D27
:1048400068A779A78AA79BA768A579A58AA59BA52C
:104850000E94482F70939701609396018091940174
:10486000909195019C01990F440B550B28A739A7EE
:104870004AA75BA7CA01B9010E940D2F9401A501A7
:1048800068A779A78AA79BA768A579A58AA59BA5EC
:104890000E94762D68A779A78AA79BA768A579A506
:1048A0008AA59BA50E94482F70939501609394015F
:1048B00063C08091B201843021F11092C401A8E15B
:1048C000B0E0E0E40FB6F894A895A09360000FBEA6
:1048D000E093600083B7817F846083BF83B781608A
:1048E00083BF7894889583B78E7F83BF0FB6F89483
:1048F000A8958091600088618093600010926000AC
:104900000FBE8091B101882361F00E94C60CEAE4D9
:10491000F2E081918111E7C122E532E02E173F07D5
:10492000C1F78091B201853009F4C3CF0E94030E14
:104930000E947D0612CDD394FF0C36E0D31222CD17
:104940000F5F1F4F0830110509F012CD8FEF8F8FC9
:1049500088A319A20E94750B8160782F9BA38AA35C
:104960004F8D58A169A1892F0E94AB1F2CCD0E94A9
:104970007D08069708F0D0CD80919A0190919B0117
:104980002091980130919901822B932B20919401D1
:1049900030919501822B932B2091960130919701B4
:1049A000822B932B892B09F06AC08091F1019091A1
:1049B000F201A091F301B091F401AD0166277727D0
:1049C000E0E0411551056105710519F0DB01CA01EF
:1049D000E0E1492F5A2F6B2F7727411551056105CB
:1049E000710519F0E85FDB01CA01AC01BD01F4E01B
:1049F0007695679557954795FA95D1F741155105E5
:104A00006105710519F0EC5FDB01CA01AC01BD0164
:104A100032E076956795579547953A95D1F74115C8
:104A200051056105710519F0EE5FDB01CA01B6950C
:104A3000A79597958795892B8A2B8B2B09F0EF5F8C
:104A4000E73008F0FFC0F0E0EC52FC4C0C94A72FCC
:104A500097FF04C0FCA5F160FCA78ECF2CA52E7F8C
:104A60002CA78ACFC4010E947D088035934C08F49E
:104A7000F7CD0E94750B4C019101A20112CE6AE99B
:104A800071E083E991E00E94440368E971E082E902
:104A900091E00E94440366E971E081E991E00E949F
:104AA000440364E971E080E991E00E94440330919D
:104AB00093013CAB409192014EAB509191015DABA3
:104AC000809190018FAB58CF20E240E0AEC020E053
:104AD00040E060E080E20E94130A83E00E94CE067C
:104AE0008111B2C082E00E94CE0691E089278093B6
:104AF000A6019CA59A8FACA9AB8FBEA9BC8FEDA9CE
:104B0000ED8FFFA9FE8F86E0FE017996AF2DBE2DB9
:104B100001900D928A95E1F786E0EF2DFE2DA7EE2C
:104B2000B1E001900D928A95E1F786E0E7EEF1E0C1
:104B3000DE01179601900D928A95E1F786E0FE015D
:104B40003796AF2DBE2D01900D928A95E1F786E044
:104B5000EF2DFE2DDE011D9601900D928A95E1F755
:104B60000E94310A882379F12F8598898A891989C9
:104B70001F86188A1A8A198A3091A601311166C0D7
:104B80002F87988B3F85288989899A897091A201FE
:104B90006091A3014091A4015091A501FE85E0918F
:104BA000A101FE13B6C0332311F03713B2C0222384
:104BB00011F02613AEC0992311F09513AAC08823D3
:104BC00011F08413A6C01F86188A198A1A8A86E0F3
:104BD000FE013D96A0EAB1E001900D928A95E1F7C1
:104BE00086E0FE013D96AF2DBE2D01900D928A9577
:104BF000E1F786E0EF2DFE2DA7EEB1E001900D92DA
:104C00008A95E1F70E947D069091A701891709F422
:104C10009DCB0E947D068093A70198CB20E040E0C9
:104C200060E280E058CF20E040E260E0FACF20E090
:104C300040E24FCF20E040E160E14CCF20E040E097
:104C400060E248CF20E041CF80E051CF282F880F8D
:104C5000330B440B550B2CA73DA74EA75FA7CA01EA
:104C6000B9010E940D2F20E030E040E05FE36CA727
:104C70007DA78EA79FA76CA57DA58EA59FA50E9449
:104C8000072F6CA77DA78EA79FA76CA57DA58EA5D6
:104C90009FA50E94482F6A8B812F110F990BAA0B99
:104CA000BB0B8CA79DA7AEA7BFA7BC01CD010E94DF
:104CB0000D2F20E030E040E05FE36CA77DA78EA7DA
:104CC0009FA76CA57DA58EA59FA50E94072F6CA709
:104CD0007DA78EA79FA76CA57DA58EA59FA50E94E9
:104CE000482F698B4FCF09BD19BD09B400FEFDCF18
:104CF0008091D8008F7D8093D8008091E000826001
:104D00008093E0008091E00081FDFCCF0E94030EC3
:104D100008CECE010D960E94890655CF1F920F92A4
:104D20000FB60F9211242F933F934F935F936F937E
:104D30007F938F939F93AF93BF93EF93FF93809154
:104D4000E10082FF09C08091E20082FF05C08091EE
:104D5000E1008B7F8093E1008091DA0080FF24C026
:104D60008091D80080FF20C08091DA008E7F8093F0
:104D7000DA008091D90080FF99C080E189BD82E18D
:104D800089BD09B400FEFDCF81E08093B20180911E
:104D90008701811109C00E9439090E94B2098091DE
:104DA000E20084608093E2008091E10080FF17C000
:104DB0008091E20080FF13C08091E2008E7F80939B
:104DC000E2008091E20080618093E2008091D8004F
:104DD00080628093D80019BC85E08093B2018091F5
:104DE000E10084FF27C08091E20084FF23C080E1BE
:104DF00089BD82E189BD09B400FEFDCF8091D80054
:104E00008F7D8093D8008091E1008F7E8093E100B8
:104E10008091E2008F7E8093E2008091E2008160C9
:104E20008093E20080918601882309F445C084E0E4
:104E30008093B2018091E10083FF27C08091E2005E
:104E400083FF23C08091E100877F8093E10082E0AF
:104E50008093B201109286018091E1008E7F809351
:104E6000E1008091E2008E7F8093E2008091E20079
:104E700080618093E20042E060E080E00E9482096D
:104E80008091F00088608093F000FF91EF91BF91D6
:104E9000AF919F918F917F916F915F914F913F91D2
:104EA0002F910F900FBE0F901F90189519BC109264
:104EB000B2011092870178CF8091E30087FD02C094
:104EC00081E0B6CF83E0B4CF1F920F920FB60F925E
:104ED0001124FF920F931F932F933F934F935F9350
:104EE0006F937F938F939F93AF93BF93CF93DF93F2
:104EF000EF93FF9309EE10E0F8018081C091EC0080
:104F0000C795CC27C7958F70FC2EF82A1082C0EF6A
:104F1000D0E08881877F888378940E94070EF8010B
:104F20001082888188608883CF2DCF70C083FF91E5
:104F3000EF91DF91CF91BF91AF919F918F917F9131
:104F40006F915F914F913F912F911F910F91FF9022
:104F50000F900FBE0F901F90189561E070E08FE0EA
:104F600091E00C94D82961E070E08FE091E00C941E
:104F7000DF29CF93DF9300D000D00F92CDB7DEB7FB
:104F80006D8379830E94792A9C0180E02115310587
:104F9000E1F4ED81F981D901AC59BD4F8C91819338
:104FA0002F5F3F4F24303105B1F70E948920DC018B
:104FB000CB010296A11DB11D809360029093610206
:104FC000A0936202B093630281E00F900F900F9064
:104FD0000F900F90DF91CF910895CF93DF9300D082
:104FE00000D000D0CDB7DEB76E837D8380916002A4
:104FF00090916102A0916202B091630289839A83C9
:10500000AB83BC83BC01CD010E946020EE81FD8199
:1050100090E080E02191DC01AC59BD4F2C930196CA
:1050200084309105B9F726960FB6F894DEBF0FBE0F
:10503000CDBFDF91CF9108951092B9008CE080939D
:10504000B8000895EF92FF920F931F93CF93DF93D1
:10505000182FEB011092BC0084EA8093BC000E94E0
:10506000750B7C018091BC0087FF27C08091B9003F
:10507000887F883029F08091B900887F8031D9F508
:105080001093BB0084E88093BC000E94750B8C01D8
:105090008091BC0087FF24C02091B900287F90E058
:1050A00080E02831B1F081E090E0203411F490E00C
:1050B00080E09195819591090CC0CF3FDC0791F27A
:1050C0000E94750B8E199F098C179D0758F28EEF61
:1050D0009FEFDF91CF911F910F91FF90EF90089577
:1050E000CF3FDC07A9F20E94750B801B910B8C1738
:1050F0009D0770F2ECCF8FEF9FEFEBCF0F931F93D5
:10510000CF93DF93EB018093BB0084E88093BC00D6
:105110000E94750B8C018091BC0087FF11C020910B
:10512000B900287F81E090E0283211F490E080E01F
:10513000919581959109DF91CF911F910F910895DC
:10514000CF3FDC0741F30E94750B801B910B8C173E
:105150009D0708F38EEF9FEFEECF0F931F93CF9332
:10516000DF93EC0184EC8093BC000E94750B8C01F2
:105170008091BC0087FF08C08091BB0090E0DF9168
:10518000CF911F910F910895CF3FDC0789F30E94C3
:10519000750B801B910B8C179D0750F38EEF9FEFC3
:1051A000EECF0F931F93CF93DF93EC0184E88093AE
:1051B000BC000E94750B8C018091BC0087FF08C069
:1051C0008091BB0090E0DF91CF911F910F910895E6
:1051D000CF3FDC0789F30E94750B801B910B8C1766
:1051E0009D0750F38EEF9FEFEECFCF92DF92EF92BD
:1051F000FF920F931F93CF93DF936B018A01F22EDF
:10520000E32E622F732F0E942228AC01E6010C0DC1
:105210001D1DC017D10711F057FF0DC084E9809301
:10522000BC00CA01DF91CF911F910F91FF90EF90C9
:10523000DF90CF9008956F2D7E2D89910E947E285A
:10524000AC01E7CFCF92DF92EF92FF920F931F93C3
:10525000CF93DF93D82EC62EEA017901B8010E94C0
:1052600022289C0197FD17C0B8018C2D0E947E2832
:105270009C0197FD10C0B8018D2D81600E942228ED
:105280009C01D12CC12C81E0E81AF108CE14DF0476
:1052900010F537FF12C084E98093BC00C9011816CD
:1052A000190614F490E080E0DF91CF911F910F91E7
:1052B000FF90EF90DF90CF900895C8010E94AD2835
:1052C0009C0197FD04C0FE01EC0DFD1D80838FEF56
:1052D000C81AD80ADBCF37FDDECFC8010E94D1281B
:1052E0009C0197FDD8CFCE0DDF1D8883D4CF8EE1F2
:1052F0004A9B02C08150E1F74A9BFECF08955A981D
:1053000080E28A95F1F75A9A0895FC013BE03A95BC
:10531000F1F798E020E080E031E040E14A95F1F7D4
:10532000880F4A9B02C08160232742E04A95F1F72B
:10533000000040E14A95F1F7915079F790E19A9594
:10534000F1F799B132E03A95F1F7000040E14A9562
:10535000F1F792FB992790F992272081920F908381
:105360000895EF92FF920F931F93CF93DF930F92C5
:10537000CDB7DEB719828C017C01E60EF11C0E154B
:105380001F0561F481E09981911180E00F90DF9118
:10539000CF911F910F91FF90EF9008950E94772970
:1053A000CE0101960E948529F80181938F01E7CFF4
:1053B0009093690280936802529A5A9A0895909342
:1053C00069028093680252985A9AEA9AE9E6F0E0F4
:1053D00080818F7C808308956150770B91E001C0BC
:1053E000990F6A95EAF720E031E0911108C0222375
:1053F00091F05A9A80E28A95F1F75A980895492FC8
:10540000482339F05A9A232740E24A95F1F79695B6
:10541000ECCF5A98F9CF5A98EDCFFF920F931F9384
:10542000CF93DF93EC018C01060F111DC017D1073C
:1054300031F4DF91CF911F910F91FF900895F99072
:105440000E947F2968E08F2D0E94EC29EFCF1F92E8
:105450000F920FB60F9211242F933F934F935F93A8
:105460006F937F938F939F93AF93BF93CF93DF936C
:10547000EF93FF935A98529AC0916802D0916902B3
:105480006D81662321F08E819F810E940D2A0E94EA
:105490007F2980E18A95F1F75A9852985A9A80E1CB
:1054A0008A95F1F76A81662309F18B819C810E94BC
:1054B000B129E881F981882311F088E001C082E0F8
:1054C00080830E947729FF91EF91DF91CF91BF9167
:1054D000AF919F918F917F916F915F914F913F918C
:1054E0002F910F900FBE0F901F901895E881F981B2
:1054F000E4CFCF93DF93C0916802D0916902F89412
:10550000529A5A9885E08A95F1F7000052985A9A73
:1055100080E28A95F1F74A9B0CC0529A5A9AE88128
:10552000F98181E08083789481E090E0DF91CF91F0
:1055300008956D81662381F08E819F810E94B1293B
:1055400081110AC0529A5A9AE881F98182E08083D7
:10555000789482E090E0EACF0E94772980E28A95F1
:10556000F1F75A98529A80E18A95F1F76A81662399
:1055700021F08B819C810E940D2A0E947F29E88165
:10558000F9811082789490E080E0D0CF0E94DB2BEC
:1055900060F080E891E009F49EEF0E94E22B28F091
:1055A00040E851E071F45EEF0CC00C94B12B0C9408
:1055B0005B2CE92FE0780E94392C40F3092E052A54
:1055C000B1F3261737074807590738F00E2E07F8AA
:1055D000E02569F0E025E0640AC0EF6307F8009475
:1055E00007FADB01B9019D01DC01CA01AD01EF93AE
:1055F0000E94502B0E94142C0E94092B5F9155236E
:1056000039F02BED3FE049E450FD49EC0C94762D48
:105610000895DF93DD27B92FBF7740E85FE31616C3
:10562000170648075B0718F4D92F0E94622C9F9336
:105630008F937F936F930E94712DECEAF0E00E94AC
:10564000B42B0E94142C2F913F914F915F910E9497
:10565000792CDD2351F09058A2EA2AED3FE049EC85
:105660005FE3D0785D270E948D2DDF910C94142C80
:105670000E94EB2BE3950C94252C0E94E22B58F012
:105680000E94DB2B40F029F45F3F29F00C94AB2BF8
:1056900051110C945C2C0C94B12B0E94392C68F3A2
:1056A0009923B1F3552391F3951B550BBB27AA27DB
:1056B00062177307840738F09F5F5F4F220F331F15
:1056C000441FAA1FA9F335D00E2E3AF0E0E832D0DD
:1056D00091505040E695001CCAF72BD0FE2F29D0E0
:1056E000660F771F881FBB1F261737074807AB07B2
:1056F000B0E809F0BB0B802DBF01FF2793585F4F27
:105700003AF09E3F510578F00C94AB2B0C945C2C36
:105710005F3FE4F3983ED4F3869577956795B79508
:10572000F7959F5FC9F7880F911D9695879597F913
:105730000895E1E0660F771F881FBB1F621773078C
:105740008407BA0720F0621B730B840BBA0BEE1FA1
:1057500088F7E095089597F99F6780E870E060E02A
:1057600008959FEF80EC0895DF93CF931F930F93DD
:10577000FF92EF92DF927B018C01689406C0DA2ED3
:10578000EF010E94792CFE01E894A59125913591B5
:1057900045915591A6F3EF010E948D2DFE019701D1
:1057A000A801DA9469F7DF90EF90FF900F911F91B5
:1057B000CF91DF91089500240A9416161706180653
:1057C0000906089500240A94121613061406050605
:1057D00008950C94B12B0E94412CD8F3E894E0E09A
:1057E000BB279F57F0F02AED3FE049EC06C0EE0FD3
:1057F000BB0F661F771F881F28F0B23A6207730736
:10580000840728F0B25A620B730B840BE3959A95C8
:1058100072F7803830F49A95BB0F661F771F881F88
:10582000D2F790480C94222E092E0394000C11F408
:10583000882352F0BB0F40F4BF2B11F460FF04C06B
:105840006F5F7F4F8F4F9F4F0895EF93E0FF07C02B
:10585000A2EA2AED3FE049EC5FEB0E948D2D0E9409
:10586000142C0F90039401FC9058E9EDF0E00C9497
:10587000352E57FD9058440F551F59F05F3F71F07A
:105880004795880F97FB991F61F09F3F79F08795A7
:105890000895121613061406551FF2CF4695F1DF30
:1058A00008C0161617061806991FF1CF86957105C0
:1058B000610508940895E894BB2766277727CB01F4
:1058C00097F908959B01AC0160E070E080E89FE3E8
:1058D0000C94E22D0E94DB2B38F00E94E22B20F08A
:1058E000952311F00C94AB2B0C94B12B11240C9438
:1058F0005C2C0E94392C70F3959FC1F3950F50E0FA
:10590000551F629FF001729FBB27F00DB11D639F71
:10591000AA27F00DB11DAA1F649F6627B00DA11D17
:10592000661F829F2227B00DA11D621F739FB00DBD
:10593000A11D621F839FA00D611D221F749F33272D
:10594000A00D611D231F849F600D211D822F762FC6
:105950006A2F11249F5750409AF0F1F088234AF0A3
:10596000EE0FFF1FBB1F661F771F881F915050400F
:10597000A9F79E3F510580F00C94AB2B0C945C2C46
:105980005F3FE4F3983ED4F3869577956795B79596
:10599000F795E7959F5FC1F7FE2B880F911D9695B0
:1059A000879597F90895FA01EE0FFF1F30962105AC
:1059B0003105A1F16115710561F48038BFE39B07E2
:1059C00049F168949038810561F08038BFEF9B07FA
:1059D00041F099234AF5FF3FE1053105210519F111
:1059E000E8940894E795D901AA2329F4AB2FBE2F98
:1059F000F85FD0F310C0FF5F70F4A695E0F7F739B9
:105A000050F019F0FF3A38F49F779F930DD00F9024
:105A100007FC9058089546F00C94B12B60E070E0BC
:105A200080E89FE308954FE79F775F934F933F93FD
:105A30002F930E948B2E2F913F914F915F910E9447
:105A4000072F0C94EE2D9F930E94EB2B0F9007FCD9
:105A5000EE5F0C94252C19F416F40C94B12B0C94D5
:105A6000202E0E94412CB8F39923C9F3B6F39F5717
:105A7000550B87FF0E942E2E0024A0E640EA9001DD
:105A800080585695979528F4805C660F771F881F7D
:105A900020F026173707480730F4621B730B840B7E
:105AA000202931294A2BA6951794079420253125C2
:105AB0004A2758F7660F771F881F20F026173707E9
:105AC000480730F4620B730B840B200D311D411D10
:105AD000A09581F7B901842F9158880F96958795E5
