:100000000C94FB020C9442030C9442030C94012ABE
:100010000C9442030C9442030C9442030C9442034C
:100020000C9442030C9442030C946D260C944327C9
:100030000C94500B0C9442030C9442030C94420316
:100040000C9442030C9442030C9442030C9442031C
:100050000C9442030C943B200C9442030C944203F6
:100060000C9442030C9442030C9442030C944203FC
:100070000C9442030C9442030C9442030C944203EC
:100080000C9442030C9442030C9442030C944203DC
:100090000C9442030C9442030C9442030C944203CC
:1000A0000C9442030C9442030C944203084AD73B3D
:1000B0003BCE016E84BCBFFDC12F3D6C74319ABD37
:1000C00056833DDA3D00C77F11BED9E4BB4C3E915B
:1000D0006BAAAABE000000803F05A84CCDB2D44E4A
:1000E000B93836A9020C50B9918688083CA6AAAA4C
:1000F0002ABE000000803F07634236B79BD8A71A8C
:1001000039685618AEBAAB558C1D3CB7CC5763BD99
:100110006DEDFD753EF6177231BF000000803F089F
:10012000000000BE922449123EABAAAA2ABECDCC42
:10013000CC4C3E00000080BEABAAAAAA3E00000044
:1001400000BF000000803F0000000000084178D39D
:10015000BB4387D1133D190E3CC3BD4282AD2B3E3C
:1001600068EC8276BED98FE1A93E4C80EFFFBE01DC
:10017000C4FF7F3F00000000000005010902A1014B
:1001800085020901A10005091901290815002501A9
:100190009508750181020501093009311581257F16
:1001A00095027508810609381581257F9501750826
:1001B0008106050C0A38021581257F950175088195
:1001C00006C0C005010980A101850319012AB700F5
:1001D000150126B700950175108100C0050C0901B5
:1001E000A101850419012AA002150126A00295018A
:1001F00075108100C005010906A101050719E02954
:10020000E7150025019508750181029501750881A2
:10021000010507190029FF150026FF00950675083E
:1002200081000508190129059505750191029501BF
:1002300075039101C009023B00020100A0FA090404
:100240000000010301010009211101000122400009
:100250000705810308000A090401000103000000EA
:10026000092111010001227B000705820320000AF9
:1002700012011001000000085346010001000102B4
:1002800000010C0343006F0072006E006500000067
:10029000100366006F006F007300740061006E0051
:1002A000000004030904000000000000000000003A
:1002B000000000000000000000000000000000003E
:1002C000000000000000000000007E0F00D4FFFFCF
:1002D000FFC70000007800000000000000002A2B8B
:1002E00028000000000000000000000000000000E6
:1002F0000029000000002C1E34202122243426274F
:10030000252E362D3738271E1F202122232425266F
:100310003333362E37381F0405060708090A0B0C3D
:100320000D0E0F101112131415161718191A1B1C85
:100330001D2F3130232D350405060708090A0B0C43
:100340000D0E0F101112131415161718191A1B1C65
:100350001D2F3130354C2B001400070015001A00FA
:100360000500E000040016000B0017000A00E10081
:100370001D001B0010000600190000000000000016
:100380002A5D2B5D2C00355D330013001800090039
:100390000D00505D0C001200080011001C00365DBD
:1003A000545D370036000F000E0000000000000012
:1003B000F65C2C5D28004B5D3F5DAA00A900A800FB
:1003C0004D5DE0003B5D3C5D3D5D3E5D455DE100BA
:1003D000465D475D485D4A5D415D000000000000EC
:1003E0002A5D2B5D305DE600405DAB00AC00AE00E9
:1003F0004E5D00003A5D395D385D375D445D365DC8
:100400004F5D00004C5D4B5D495D00000000000049
:100410004C002C5D0000E300210020001F001E00A6
:100420002200E000555D515D525D535D565DE10077
:100430005D5D5C5D5E5D5F5D605D00000000000015
:100440002A5D2B5D2B00E6002600250024002300FA
:100450002700F65C5B5D5A5D595D585D575D365D02
:10046000645D655D625D635D615D000000000000CC
:100470004C002C5D2B00E300705D715D725D735D5F
:10048000745DE000665D675D685D695D6A5DE10001
:100490006B5D6C5D6D5D6E5D6F5D0000000000006A
:1004A0002A5D2B5D345D000000004B004E004D00C6
:1004B0004A0000001A5C4F00520051005000365DA7
:1004C000755D765D785D775D0000000000000000DE
:1004D00000002C5D345D855D795D7A5D7C5D7D5DC0
:1004E000835DE0004400805D815D7B5D7E5DE100B9
:1004F0003D003C003B003A003E00000000000000D0
:10050000FF002B5D00007F5D845DF200ED00F100D7
:10051000825DFE004500F000EE00EF00F300365D66
:100520004200410040003F00430000000000000086
:10053000F65CFE00FF002F5D0000000000000000E0
:1005400000002F5D000000000000000000002F5D93
:100550000000000000000000520000000000000049
:10056000500051004F002F5D00000000000000000F
:1005700000002F5D000000000000000000002F5D63
:100580000000000000000000520000000000000019
:100590004F0051005000005C0000CC5CC65CC85CA1
:1005A000CA5C00000000CD5CC75CC95CCB5CC55C6C
:1005B0000000000000000000C35C0000000000001C
:1005C000000000000000000000000000000000002B
:1005D000335D000000000000435D425D000000004C
:1005E000000000000000000000000000000000000B
:1005F00000000000000011241FBECFEFDAE0DEBFD4
:10060000CDBF04B603FE27C080916A0290916B02B1
:10061000A0916C02B0916D028730904BA740B04B17
:10062000D1F410926A0210926B0210926C02109236
:100630006D0214BE84B7877F84BF0FB6F894A89567
:1006400080916000886180936000109260000FBE0E
:10065000E0E0F8E3099511E0A0E0B1E0E8E4F7E6B6
:1006600002C005900D92A837B107D9F722E0A8E79C
:10067000B1E001C01D92AA36B207E1F70E94B9208D
:100680000C94A7320C940000DC01FB018081918165
:10069000803891054CF08FE78C93808191818F5742
:1006A000910991838083089581382FEF92073CF45C
:1006B00081E88C938081918181589F4FF2CF8C93F8
:1006C00011821082089590915B0292FF06C0282F3C
:1006D00028712830F9F4877F846093FF06C0282FA3
:1006E00028712831F1F4877E846120915C0220FF1B
:1006F00006C0382F38713830D9F4877F816021FFE8
:1007000006C0282F28712831D1F4877E816194FD9D
:10071000877E0895282F24712430F9F68B7F886016
:10072000DCCF282F2471243101F78B7E8861DDCF47
:10073000382F3171313019F78E7F8860E0CF282F44
:100740002171213121F78E7E8861E1CFCF93DF9334
:10075000972F70E026E0929F600D711D1124FB0120
:1007600030E3839FE00DF11D1124EE0FFF1FEA5AC5
:10077000FC4FC591D491CE01C03ED10509F46DC0A6
:1007800060F5C133D10509F4B2C088F4C932D1058E
:1007900009F4A6C0CA32D10509F4B0C0C130D105F0
:1007A00049F12497C13AD10508F063C023C0C93389
:1007B000D10509F44BC0C238D10509F447C0C5338F
:1007C000D10509F486C0C83AD10508F09EC0C53AE3
:1007D000D10520F3849790640DC0C43ED10509F47F
:1007E0005BC058F4C23ED10509F446C0C33ED105F2
:1007F00009F447C0DF91CF910895C63ED10509F4B1
:1008000056C0C73ED10509F459C0C11542E5D40709
:1008100008F0AEC0C11521E5D20708F0F8C0C83E07
:10082000D10540F3C11530E5D30708F086C0C115E6
:1008300040E4D40708F0E8C0CF3FD10511F008F03C
:1008400076C09065CD3ED105A8F613C020915B021D
:10085000237081F280EE90E0CDCF20915B0220FDED
:10086000F8C030915C0230FFC5CF83EE90E024FFEA
:10087000C1CF90E080E0BECF20915B0222FDF5CF9A
:10088000B9CF20915B0222FDE7C030915C0230FDC0
:10089000E1CF24FFAFCFEDCF20915C0221FFAACFA3
:1008A00080915B0284FDE5CF87EE90E0A3CF20919D
:1008B0005B0223FF9FCF24FDDCCFF6CF20915B02AC
:1008C00023FDCDC030915C0231FFE3CF84EE90E098
:1008D00091CF20915B0225FF8DCF89E290E08ACFF6
:1008E00020915B0225FF86CF85E390E083CF2091A6
:1008F0005B0226FF7FCF8AE290E07CCF20915B02F3
:1009000026FF78CF81E390E075CF9E01285A310908
:100910002731310508F0ADCF885AE82FF0E0EE0F0F
:10092000FF1FE65BFE4F80819181946463CFDA956F
:10093000C115DF4108F45ECF9CCF9E01F4E03695EF
:100940002795FA95E1F7237086958695837030E2B6
:10095000839FC0011124922BC37021E030E002C0BC
:10096000220F331FCA95E2F7822B932B9C6842CF4C
:10097000C11546E5D40718F5C11525E5D20708F0DD
:1009800052C0C11534E5D307A8F49C2F96959695CF
:10099000AE014370552721E030E002C0220F331F23
:1009A0004A95E2F740E2C115D345B0F5949FC001E6
:1009B0001124DACF9C2F8827846F906A1BCFC11532
:1009C0008AE5D80780F4C11599E5D907A8F5CE01C5
:1009D00098558F3F910511F008F04BCF9C2F882739
:1009E000806F906A07CFCE0190568115904208F033
:1009F00040CF8D2F8F710E94630390E0982F88273E
:100A000088279F718C2B16C09F70906AF3CE9C2F05
:100A10008827816F906AEECE949FC0011124822BAB
:100A2000932B9A68E7CE0E94630390E0982F882763
:100A300088279F719062DECE8C2F8F700E94630397
:100A400034E0D695C7953A95E1F7CF709C2F906921
:100A5000D1CE89E390E0CECE82EE90E0CBCE86EE92
:100A600090E0C8CEF894E82FE295EF70A1E2AE0FC7
:100A7000B0E04C918F7021E030E0B90102C0660F08
:100A8000771F8A95E2F7CB01962F909594239C933C
:100A9000EE5DF0E09081892B8083789408958091B9
:100AA0003F0290E0880F991FFC01EC5CFE4F208113
:100AB000845D9E4FFC01808190913B02191614F4D5
:100AC00020933B0290913B0297FF04C0922F919597
:100AD00090933B0290913C02191614F420933C022F
:100AE00090913C0297FF03C0219520933C02909186
:100AF0003E02191614F480933E0290913E0297FF35
:100B000004C0982F919590933E0290913D02191642
:100B100014F480933D0290913D0297FF03C08195AC
:100B200080933D0230913B023323A1F020913C029F
:100B3000222381F045EB3403C00111249923F1F005
:100B400090933B0245EB2403900111243323D1F011
:100B500030933C0240913E02442379F030913D02B3
:100B6000332359F025EB4203A001112450933E0298
:100B700032039001112430933D02089581E0809367
:100B80003B02E0CF81E080933C02E4CF40913F0202
:100B9000242F30E0220F331FF901EC5CFE4F9081CF
:100BA0008D3E21F4919590933C0208958E3ED9F3A9
:100BB0008F3E21F4919590933B020895803FD9F3A5
:100BC000245D3E4FF9019081893F19F490933D02D5
:100BD00008958A3F11F49195F9CF8B3F21F49195B7
:100BE00090933E0208958C3FD9F39FE0980F983080
:100BF00070F4815F990B21E030E001C0220F8A95EB
:100C0000EAF780913A02822B80933A0208958D3F51
:100C100049F481E080933F0280913F02481751F0F0
:100C20000C944F058E3F11F482E0F4CF8F3F11F406
:100C300083E0F0CF08958D3E39F480913C0287FF28
:100C400029C010923C0208958E3E29F480913C0206
:100C50001816BCF308958F3E39F480913B0287FF4C
:100C600019C010923B020895803F29F480913B0205
:100C70001816BCF30895893F39F480913D02181687
:100C80004CF410923D0208958A3F29F480913D0270
:100C900087FDF7CF08958B3F39F480913E0287FF9F
:100CA000F9CF10923E0208958C3F29F480913E02C4
:100CB0001816BCF308959FE0980F983090F4815F68
:100CC000990B21E030E0A90102C0440F551F8A951D
:100CD000E2F7CA01809590913A02892380933A0203
:100CE00008958D3FB8F280913F0210923F02882311
:100CF00089F20C944F05E0913302F0913402309761
:100D000021F00190F081E02D099480E00895DC014C
:100D1000E0913302F0913402309739F082E08C9305
:100D20000480F581E02DCD010994089520913102D0
:100D3000309132022817390771F090933202809374
:100D40003102E0913302F0913402309721F00680B5
:100D5000F781E02D0994089520912F0230913002FF
:100D60002817390771F09093300280932F02E09199
:100D70003302F0913402309721F00084F185E02DA8
:100D8000099408958091F8019091F701981301C09A
:100D900008958F5F8770FACF282F8091F10190918D
:100DA000F201A091F301B091F4010097A105B10502
:100DB00049F004C0B695A795979587952A95D2F7DF
:100DC0008170089580E00895292F220FE22FE90F06
:100DD000EE0FE80F8E2F877041E001C0440F8A9517
:100DE000EAF7E695E695E69585E0E89FF00111249F
:100DF000EB53FE4F30E020E070E05191DF0111979E
:100E0000CB01022E02C0969587950A94E2F7817075
:100E100081958527842385278C932F5F3F4F25302D
:100E2000310559F70895292F220FE22FE90FEE0F10
:100E3000E80F9E2F9770E695E695E69585E0E89F8A
:100E4000F0011124EB53FE4F50E040E080E021918F
:100E500030E0092E02C0369527950A94E2F72170FA
:100E60003327042E01C0220F0A94EAF7822B4F5F2A
:100E70005F4F4530510559F70895BF92CF92DF92E9
:100E8000EF92FF920F931F93CF93DF938C01C0904B
:100E9000F101D090F201E090F301F090F401809123
:100EA000ED019091EE01A091EF01B091F001C82AFF
:100EB000D92AEA2AFB2ACFE1D0E0BC2ED701C6010D
:100EC0000C2E04C0B695A795979587950A94D2F7EE
:100ED00080FD0EC0219788F7B12C8B2DDF91CF912B
:100EE0001F910F91FF90EF90DF90CF90BF900895EA
:100EF000B8018C2F0E94A603019761F3EECFFF92F9
:100F00000F931F93CF93DF93FC01828100811181A6
:100F1000C081F180882311F1662301F1C8010E948C
:100F20003D07D82F682FC8010E94E406EC2FF0E09F
:100F300086E0F89EE00DF11D112480E3D89FE00DBE
:100F4000F11D1124EE0FFF1FEA5AFC4F8591949179
:100F5000DF91CF911F910F91FF900895C8010E94DA
:100F60001307D82FE3CFCF93DF93D82FC92F0E9439
:100F70003D076D2F7C2FDF91CF910C94A6030E942B
:100F8000B307282F892F8F70392F32953F70903CEF
:100F900080F43A30B0F4343020F4323090F480E011
:100FA00008953630E1F781E0283E88F0213FB9F717
:100FB0000EC03C3011F03F3091F7869586958695AE
:100FC000089581E0203F39F018F4283E40F7089555
:100FD000243F29F7FCCF0895ECE7F1E091918913C4
:100FE00003C0DF0111971C9291E0E238F907B1F7D5
:100FF00008958091E60181111092E6010895809193
:101000005D029091F601892B9091E301892B8093E9
:101010007A019091E601992391F0892B80937A01CE
:1010200020E08CE791E0FC013081019631112F5FC7
:1010300031E082389307B9F721110E94F907E09156
:101040003302F0913402309731F00280F381E02DC9
:101050008AE791E009940895882339F090915D0220
:10106000892B80935D020C94FF070895882341F03B
:10107000809590915D02892380935D020C94FF0717
:10108000089580E008959C01FC0132968FEF90E076
:101090004191461751F08F3F19F4411101C0892F3A
:1010A0009F5F9630A9F78F3F09F40895280F311DEF
:1010B00087FD3A95F90162830895CF93DF9300D0BD
:1010C00000D0CDB7DEB78FB7F8942091C001309132
:1010D000C1014091C2015091C30129833A834B83DE
:1010E0005C838FBF69817A818B819C810F900F9087
:1010F0000F900F90DF91CF9108959C014FB7F89416
:101100008091C0019091C101A091C201B091C30131
:101110004FBF821B930B08958091BB010895FC0182
:10112000CB0120918E0130918F012617370790F067
:10113000009729F42091E8002E772093E80040E002
:10114000009751F4411108C08091E80082FF31C03E
:1011500080E00895C901F3CF2091B2012223A9F1C3
:101160002530A9F12091E80023FD2DC02091E80051
:1011700022FDEACF2091E80020FFE2CF3091F3007A
:101180002091F200009719F02830310558F041E025
:101190002830310509F040E02091E8002E772093B7
:1011A000E800CECF41914093F10001972F5F3F4F70
:1011B000E9CF8091B201882341F0853041F08091E0
:1011C000E80083FFC1CF81E0089582E0089583E0C5
:1011D00008958091880187FF13C08091E80082FF05
:1011E00006C08091E8008B778093E80004C080916E
:1011F000B2018111F2CF08958091B2018823D9F311
:101200008091E80080FFF8CF8091E8008E77ECCFE6
:101210002091E4003091E50095E6A9012091EC00D1
:10122000822F817020FF06C08091E80080FF06C0F9
:1012300080E008952091E80022FD1AC08091B2015B
:10124000882389F0853089F08091EB0085FD0FC0FF
:101250002091E4003091E50042175307F9F29150D4
:10126000E1F684E0089582E0089583E0089581E046
:101270000895E8EDF0E080818E7F80831092E20097
:101280001092DA001092E100A0EEB0E08C91816043
:101290008C9380818F77808319BCA7EDB0E08C910F
:1012A0008E7F8C9380818F7E80831092870108953A
:1012B000EF92FF920F931F93CF937C018B010E94BB
:1012C0000809C82F811117C08091E80085FD0BC067
:1012D0008091E8008E778093E8000E9408098823B7
:1012E00099F3C82F08C0F70181917F018093F10025
:1012F0000150110949F78C2FCF911F910F91FF9049
:10130000EF900895982F9093E900242F762F50E0C6
:10131000891731F07091EC002091ED005091F000B0
:1013200021FD06C09F5F973071F78093E900089513
:101330003091EB003E7F3093EB003091ED003D7F2C
:101340003093ED003091EB0031603093EB007093FF
:10135000EC002093ED005093F0002091EE0027FD6B
:10136000E1CF0895CF92DF92EF92FF920F931F93F8
:10137000CF93DF93C8EDD0E088818F7E8883E7ED3F
:10138000F0E080818160808384E082BF81E080938F
:10139000870188818E7F888302EE10E0F801108239
:1013A0001092DA0081EEC82ED12CF60110828881CD
:1013B0008F77888388818068888388818F7D888300
:1013C00019BC1092B201109286011092B1011092D4
:1013D000850190EEE92EF12CF70180818B7F8083CF
:1013E00088818160888342E060E080E00E94820919
:1013F000F60180818E7F8083F80180818160808307
:10140000808188608083F70180818E7F80838881DE
:1014100080618883DF91CF911F910F91FF90EF90B2
:10142000DF90CF900895CF93DF9300D000D00F923C
:10143000CDB7DEB719828A836B834C832D8324E674
:1014400030E045E050E0BE016F5F7F4F84E10E94D5
:10145000CF280F900F900F900F900F90DF91CF91AA
:10146000089580914002811110C08091D800806160
:101470008093D8008AE18A95F1F700C08091D90065
:1014800080FD0AC082E08093400281E0909140029A
:10149000913009F080E0089581E0F5CFCF93DF939C
:1014A000D82FC92F81E08093E9008FEF9091E80059
:1014B000815095FD06C095ED9A95F1F700008111D8
:1014C000F5CF8091E80085FF16C050E040E068E06D
:1014D00070E08D2F9C2F0E9458098091E8008E7734
:1014E0008093E80088E0ED2FFC2FA3EBB1E00190A2
:1014F0000D928A95E1F7DF91CF91089522E0209334
:10150000E9002FEF3091E800215035FD06C035EDA0
:101510003A95F1F700002111F5CF2091E80025FF61
:101520000BC050E040E066E070E00E9458098091F6
:10153000E8008E778093E8000895CF93DF9300D082
:101540000F92CDB7DEB79091B201943019F589832F
:101550006A837B8382E08093E9008FEF9091E800BB
:10156000815095FD06C095ED9A95F1F70000811127
:10157000F5CF8091E80085FF0DC050E040E063E0CA
:1015800070E0CE0101960E9458098091E8008E77A4
:101590008093E8000F900F900F90DF91CF91089506
:1015A000BC0183E00C949D0ABC0184E00C949D0A6C
:1015B0006BEE7EEF90E080E00E94EA2F60E082E038
:1015C00090E00E94CC2F60E083E090E00E94CC2F5E
:1015D0001092ED011092EE011092EF011092F001C5
:1015E00060E084E090E00E94CC2F60E081E290E037
:1015F0000E94CC2F60E085E090E00E94CC2F60E05C
:1016000086E090E00E94CC2F6FEF87E090E00E9490
:10161000CC2F40E050E0BA0188E090E00E94DE2F3D
:1016200060E08DE090E00E94CC2F40E050E0BA01F5
:1016300088E190E00E94DE2F60E087E190E00E9468
:10164000CC2F40E050E0BA018CE190E00E94DE2F08
:1016500060E080E290E00E94CC2F40E050E0BA01D0
:1016600088E190E00E94DE2F40E050E0BA018FE078
:1016700090E00E94DE2F40E050E0BA0183E190E06C
:101680000C94DE2FCF9384E090E00E94BE2FC82FF1
:1016900081E290E00E94BE2F982F8C2FCF91089569
:1016A0001F921FB61F9211248F939F93AF93BF93E6
:1016B0008091C401811113C08091C0019091C1013A
:1016C000A091C201B091C3014196A11DB11D8093AB
:1016D000C0019093C101A093C201B093C301BF9117
:1016E000AF919F918F911F901FBE1F9018952FB79C
:1016F000F8948091C0019091C101A091C201B09174
:10170000C3012FBF08950E94770B20913B023091B7
:101710003C02232B21F080933702909338022091D2
:101720003D0230913E02232B21F0809335029093AD
:10173000360289E392E00C948706CF93C82F882362
:1017400009F44EC08CEF8C0F813A90F4ECE7F1E095
:1017500082E891E02191C217E9F18E179F07D1F736
:101760006C2F8AE791E00E944308CF910C94FF0709
:1017700080E28C0F883068F4C77021E030E001C04F
:10178000220FCA95EAF780915D02822B80935D0259
:10179000ECCF8BE58C0F833038F42C2F2452330B95
:1017A000C901CF910C949606E8E5EC0FE73150F4AF
:1017B000F0E0EE0FFF1FE65BFE4F80819181CF913D
:1017C0000C94AC06CD3E60F08C2F0E94C605CF91E4
:1017D0000C94830B8C2F0E94EC070E94FF07C0CF54
:1017E000CF910895EF920F931F93CF93DF93D82F4C
:1017F000C62F122F90915D0290935E029272B9F4FF
:10180000442319F081EE0E949D0B112319F086EEFE
:101810000E949D0B8D2F0E949D0B80915E028093F4
:101820005D02DF91CF911F910F91EF90089510927B
:101830005D02002319F081EE0E949D0BEE2019F04D
:1018400086EE0E949D0B8C2FE6CF882399F19CEFAA
:10185000980F913A20F40E94EC070C94FF0790E255
:10186000980F983088F4877021E030E0A90102C019
:10187000440F551F8A95E2F7CA01809590915D0249
:10188000892380935D02E9CF9BE5980F933020F484
:1018900090E080E00C94960698E5980F973120F43C
:1018A00090E080E00C94AC068D3E20F00E941B0678
:1018B0000C94830B08950F931F93CF93C82F10E0C0
:1018C00000E0893311F400E510E08C2F0E949D0B9D
:1018D0000115110531F48C2FCF911F910F910C94AC
:1018E000250C8FE99FE00197F1F700C0000001503F
:1018F0001109EECF0F931F93CF93DF938C01EB0170
:1019000080910E0182FF2FC08B7F80930E0180910A
:1019100044022091460230914702AB01421B530B17
:1019200020910C0130910D014217530788F40E9459
:101930009D0B80910E018D7F80930E01809144025A
:101940000E94250C8091F6018D7F8093F60115C0D1
:101950009091F60192609093F6010E949D0B809108
:101960000E018260E9CF802F0E94250C80914402F5
:10197000909145020817190729F30E94FF07D09399
:101980004702C0934602DF91CF911F910F910895B6
:10199000AF92BF92CF92DF92EF92FF920F931F937D
:1019A000CF93DF9300D000D0CDB7DEB78CE3E82E25
:1019B00081E0F82E93E5C92E92E0D92E00E0AA240A
:1019C000A394B12CD7018D917D01F894E82FE29575
:1019D000EF70A1E2AE0FB0E02C918F70A50102C0B4
:1019E000440F551F8A95E2F7CA01922F982B9C93BA
:1019F000EE5DF0E09081809589238083789400C02B
:101A0000E4E4F1E030E020E010E04191A42FA29561
:101A1000AF70A05EB0E08C9190E04F7002C09595E1
:101A200087954A95E2F780FD47C08A2D022E01C0B6
:101A3000880F0A94EAF7182B2F5F3F4F26303105A5
:101A400021F7F701319780810E94320550EA5A95BB
:101A5000F1F7D6018C91181789F11C9381E0082BBE
:101A6000BFEFCB1ADB0AE0E4EE16E1E0FE0609F078
:101A7000A9CF10915202002319F181E08093430213
:101A80000E94770B90934202809341028091410221
:101A9000909142020E947D080697B0F0A12FB0E01D
:101AA000A65BBD4F84E0E3E5F2E001900D928A95DC
:101AB000E1F71092430208C080E0BDCF80E0CFCFB5
:101AC000809143028111E2CF0E94310A182F609168
:101AD0005202882309F473C01A8219821C821B8265
:101AE000862F90E09E012F5F3F4F7901B901865B01
:101AF0009D4F0E949327811145C0809149028F5FBD
:101B000080934902863008F458C0E0914802F0E022
:101B1000E65BFD4F84E0DF01282F1D922A95E9F74F
:101B2000D7011D928A95E9F780910E0182FF17C0B7
:101B30000E94770BBC0180914602909147029B0165
:101B4000281B390B80910C0190910D012817390742
:101B500030F080914402909145020E947A0C01116C
:101B600001C0012F802F0F900F900F900F90DF91E9
:101B7000CF911F910F91FF90EF90DF90CF90BF908A
:101B8000AF90089510924902A0914802B0E0A65B80
:101B9000BD4F9E012B5F3F4F10E04D91F70191919A
:101BA0007F01491731F0AD0141505109FA0190838D
:101BB000182FE216F30689F7B7CF10E0B5CF70E023
:101BC000665B7D4F8091480290E0865B9D4F0E944E
:101BD000C727C5CF90E080E00E94960690E080E0A5
:101BE0000E94AC061092F6011092E3010E94FF07DA
:101BF00086E0E9E3F2E0DF011D928A95E9F70C94B3
:101C0000830BECE7F1E086E0DF011D928A95E9F7AE
:101C10000C94EA0D10925D020C94010E1F93CF9369
:101C2000DF93CDB7DEB7AA970FB6F894DEBF0FBE2D
:101C3000CDBF88E891E0FC0101962091F10020835E
:101C400021E080399207B9F780918901893009F440
:101C500056C0C8F4823009F4B1C0833009F480C0A2
:101C6000813071F18091E80083FF78C28091880112
:101C7000909189019A3008F071C2E92FF0E0E755A0
:101C8000FD4C0C94812F8A3009F487C08B3051F7BA
:101C900080918801813231F780918C0190918D0182
:101CA000892B01F78091E800877F8093E8000E94EC
:101CB000E90880918A0180930B010E940A0ED2CF1D
:101CC00080918801813A71F68091E800877F809346
:101CD000E80080918C0190918D01892B61F468E07E
:101CE00083EB91E070E00E948F088091E8008B7791
:101CF0008093E800B7CF60E090E080E0F3CF809180
:101D00008801813209F0AECF80918C0190918D01D4
:101D1000029708F0A7CF8091E800877F8093E800C2
:101D20008091E80082FF17C09091F3008091F2004B
:101D3000029729F48091F1008B7F813021F480910A
:101D4000F1008093BB018091E8008B778093E800DD
:101D50000E94E90887CF8091B2018111E1CF82CF43
:101D600080918801813A09F07DCF80918C0190911A
:101D70008D01892B09F076CF8091E800877F8093D1
:101D8000E8008091E80080FFFCCF80910B018093F8
:101D9000F1008091E8008E77D9CF8091880181325F
:101DA00009F060CF8091E800877F8093E8000E946F
:101DB000E90880918B018093840154CF8091880140
:101DC000813A09F04FCF8091E800877F8093E80047
:101DD0008091E80080FFFCCF80918401D8CF8038CB
:101DE00099F0823809F0BAC180918C018F708730E8
:101DF00008F0B4C18093E9008091EB0085FB88274F
:101E000080F91092E90006C0809185019091B1019E
:101E1000911182609091E800977F9093E800809301
:101E2000F1001092F1008091E8008E7793C1882331
:101E300009F481C1823009F091C180918A01811138
:101E400084C180918C018F702FEF280F263008F00D
:101E500085C18093E9002091EB0020FF76C193308B
:101E600031F48091EB0080628093EB006EC1909121
:101E7000EB0090619093EB0021E030E001C0220F75
:101E80008A95EAF72093EA001092EA008091EB002D
:101E90008860EACF811162C110918A011F77809119
:101EA000E3008078812B8093E3008091E800877FB6
:101EB0008093E8000E94E9088091E80080FFFCCF51
:101EC0008091E30080688093E30082E0111183E059
:101ED0008093B20143C18058823008F03FC14091E5
:101EE0008A0150918B014C3D83E0580799F583E0BE
:101EF0008A838AE289834FB7F894DE01139620E043
:101F00003EE051E2E32FF0E050935700849120FF30
:101F100003C082958F703F5F8F708A30C8F0895CF4
:101F200090E08D939D932F5F243161F74FBF809197
:101F3000E800877F8093E8006AE270E0CE010196B6
:101F40000E948F088091E8008B778093E80006C19B
:101F5000805DE6CF20918C0130918D01852F9927EE
:101F60008330910509F160F48130910509F472C064
:101F7000029709F0F3C08BE390E0E5E3F2E029C0BB
:101F80008132910509F45AC0829709F0E7C0211502
:101F9000310509F469C02130310509F0DFC08BE754
:101FA00090E0EAE7F1E015C0CA0199274130B1F1AC
:101FB0008230910509F43AC0892B09F0CFC0E2EADA
:101FC000F2E0E4918E2F90E0E2EAF2E0009709F46B
:101FD000C5C02091E800277F2093E80020918E0162
:101FE00030918F018217930708F49C0140E021157E
:101FF000310509F03EC041113CC08091E80082FDEE
:10200000A1CF8091B201882309F49CCF853009F4D7
:1020100099CF8091E80083FFF0CF94CFE0E9F2E020
:10202000E4918E2F90E0E0E9F2E0D0CFE2E8F2E038
:10203000E4918E2F90E0E2E8F2E0C8CF211531055F
:1020400071F02130310509F089C089E090E0E0E6C7
:10205000F2E0BFCF82E190E0E0E7F2E0BACF89E0C2
:1020600090E0E7E4F2E0B5CF80E490E0E5EFF1E066
:10207000B0CF8091B201882309F464CF853009F490
:1020800061CF8091E80083FD5DCF8091E80082FD03
:10209000B4CF8091E80080FFAACF9091F3008091A7
:1020A000F2002115310519F08830910550F041E01A
:1020B000089709F040E08091E8008E778093E8006F
:1020C00096CF44914093F100319621503109019609
:1020D000E8CF803809F042C08091E800877F809384
:1020E000E800809186018093F1009DCE811136C079
:1020F00010918A01123090F58091E800877F8093DB
:10210000E800109386010E94E908112311F084E091
:1021100005C08091E30087FDFACF81E08093B20192
:1021200042E061EC81E00E94820942E261EC82E0DF
:102130000E94820913C080918A01813079F481E084
:10214000933009F080E08093B1011092E900809112
:10215000E800877F8093E8000E94E9088091E8000A
:1021600083FF0AC08091E800877F8093E800809118
:10217000EB0080628093EB00AA960FB6F894DEBF66
:102180000FBECDBFDF91CF911F9108956093ED01F8
:102190007093EE018093EF019093F0010C94EA0D9F
:1021A0006093F1017093F2018093F3019093F40135
:1021B0000C94EA0D0F931F93CF93DF9300D000D0C0
:1021C000CDB7DEB741E050E060E070E004C0440FFE
:1021D000551F661F771F8A95D2F78091F101909164
:1021E000F201A091F301B091F4018A019B01082B47
:1021F000192B2A2B3B2B09831A832B833C83C90180
:10220000B8010F900F900F900F90DF91CF911F9119
:102210000F910C94D0100F931F93CF93DF9300D0A6
:1022200000D0CDB7DEB741E050E060E070E004C020
:10223000440F551F661F771F8A95D2F7409550951A
:10224000609570958091F1019091F201A091F30158
:10225000B091F4018A019B01082319232A233B230F
:1022600009831A832B833C83C901B8010F900F9017
:102270000F900F90DF91CF911F910F910C94D01080
:102280009091F501809589238093F501282F27707F
:1022900071F4282F082E000C330B9217130639F017
:1022A0008595859585950E940B111092F5010895ED
:1022B000CF93C82F81E00E94CC06882349F083E0A9
:1022C0000E94CC06882321F084E0CF910C94DA1090
:1022D000C11104C084E0CF910C940B11CF910895EB
:1022E0000F931F93CF93DF9300D000D0CDB7DEB70D
:1022F00041E050E060E070E004C0440F551F661FED
:10230000771F8A95D2F78091F1019091F201A09107
:10231000F301B091F4018A019B01082719272A27AC
:102320003B2709831A832B833C83C901B8010F9093
:102330000F900F900F90DF91CF911F910F910C9400
:10234000D010FF920F931F93CF93DF93C62FD42FFC
:10235000122F8823A9F06093E4010E94770B9093D9
:10236000830180938201C77081E001C0880FCA9504
:10237000EAF7DF91CF911F910F91FF900C942C08F9
:102380008091E401681334C08091820190918301AF
:102390000E947D088C32914058F500E20D0FCD1758
:1023A000A9F0C770FF24F3948F2D01C0880FCA9540
:1023B000EAF70E943608083048F48D2F877001C074
:1023C000FF0C8A95EAF78F2D0E942C08812F0E941E
:1023D0005B0C0830A0F4D77081E001C0880FDA955B
:1023E000EAF7DF91CF911F910F91FF900C9436087F
:1023F000C77081E001C0880FCA95EAF7F2CFDF917C
:10240000CF911F910F91FF9008954F925F926F921D
:102410007F928F929F92AF92BF92CF92DF92EF9274
:10242000FF920F931F93CF93DF93CDB7DEB76897DB
:102430000FB6F894DEBF0FBECDBF6C01FC018381E7
:102440009481892B39F08181908189238F3F11F00C
:102450000C94D21D68960FB6F894DEBF0FBECDBFA8
:10246000DF91CF911F910F91FF90EF90DF90CF9070
:10247000BF90AF909F908F907F906F905F904F90A4
:102480000895882341F080EE0E949D0B8AE20E940D
:102490009D0B0E940A0E8091F5018770D9F2F6011A
:1024A00082818823B9F282E068960FB6F894DEBF85
:1024B0000FBECDBFDF91CF911F910F91FF90EF9095
:1024C000DF90CF90BF90AF909F908F907F906F9054
:1024D0005F904F900C944011882359F0E12C00E05C
:1024E00020E040E06CE470E08AE290E00E94F20BB1
:1024F000D2CF0E94010ECFCF8823D9F380915D0205
:1025000081FF04C085E00E94DA10C5CF83E00E94FD
:102510007011C1CF882309F4BECF83EE0E949D0BBA
:102520008EE10E949D0B0E940A0EB5CF882309F40C
:10253000B2CF83EE0E949D0B8FE10E949D0B0E9403
:102540000A0EA9CF882309F4A6CF83EE0E949D0B23
:1025500080E20E949D0B0E940A0E9DCF882309F401
:102560009ACF83EE0E949D0B81E20E949D0B0E94F8
:102570000A0E91CF882309F48ECF83EE0E949D0B23
:1025800082E20E949D0B0E940A0E85CF882309F4E7
:1025900082CF83EE0E949D0B83E20E949D0B0E94DE
:1025A0000A0E79CF882309F476CF83EE0E949D0B23
:1025B00084E20E949D0B0E940A0E6DCF882309F4CD
:1025C0006ACF83EE0E949D0B85E20E949D0B0E94C4
:1025D0000A0E61CF882309F45ECF81EE0E949D0B25
:1025E00083EE0E949D0B86E20E949D0B0E940A0EC4
:1025F00052CF882309F44FCF81EE0E949D0B83EECA
:102600000E949D0B87E20E949D0B0E940A0E43CF01
:10261000882309F440CF83EE0E949D0B82E40E9440
:102620009D0B0E940A0E37CF882309F434CF81EE28
:102630000E949D0B83EE0E949D0B8BE00E949D0BE0
:102640000E940A0E28CF882309F425CF81EE0E942C
:102650009D0B83EE0E949D0B89E10E949D0B0E94C1
:102660000A0E19CF882309F416CF83EE0E949D0B22
:102670008DE10E949D0B0E940A0E0DCF882309F464
:102680000ACF83EE0E949D0B89E00E949D0B0E9461
:102690000A0E01CF882309F4FECE81EE0E949D0B25
:1026A00083EE0E949D0B8AE00E949D0B0E940A0E01
:1026B000F2CE882309F4EFCE83EE0E949D0B85E1D4
:1026C0000E949D0B0E940A0EE6CE882309F4E3CEF9
:1026D00081EE0E949D0B83EE0E949D0B84E00E9480
:1026E0009D0B0E940A0ED7CE882309F4D4CE83EE28
:1026F0000E949D0B80E10E949D0B0E940A0ECBCE92
:10270000882309F4C8CE83EE0E949D0B88E30E94C3
:102710009D0B0E940A0EBFCE882309F4BCCE83EE27
:102720000E949D0B8BE20E949D0B0E940A0EB3CE6D
:10273000882309F4B0CE81EE0E949D0B83EE0E94A7
:102740009D0B84E10E949D0B0E940A0EA4CE88235B
:1027500059F081EE0E949D0B83EE0E949D0B8BE150
:102760000E949D0B0E940A0EF6018281882309F4C3
:1027700092CE81EE0E949D0B83EE0E949D0B86E01F
:102780000E949D0B0E940A0E81EE0E949D0B83EE1B
:102790000E949D0B85E10E949D0B0E940A0E7BCE3C
:1027A000882359F081EE0E949D0B83EE0E949D0BC1
:1027B0008CE20E949D0B0E940A0EF6018281882302
:1027C00009F497CEE12C00E020E040E06FE270E0F9
:1027D00084E390E00E94F20B5ECE882309F489CE58
:1027E000EE24E39400E021E040E061E270E080E26A
:1027F00090E00E94F20B4FCE882309F47ACEE12CB0
:1028000001E020E040E060E270E08DE290E00E94B4
:10281000F20B41CE882309F46CCEE12C01E020E0DC
:1028200041E064E370E08FE190E00E94F20B33CE70
:10283000882309F45ECEE12C01E020E041E06EE265
:1028400070E08DE290E00E94F20B25CE882309F41F
:1028500050CEE12C00E020E041E06EE270E08EE13D
:1028600090E00E94F20B17CE882309F442CEEE24AA
:10287000E39400E020E041E063E270E082E290E077
:102880000E94F20B08CE882309F433CEEE24E394A1
:1028900000E020E040E06FE170E080E390E00E9423
:1028A000F20BF9CD882309F424CEE12C01E020E0DD
:1028B00040E068E370E088E390E00E94F20BEBCD2B
:1028C000882309F416CEE12C01E020E041E06FE21C
:1028D00070E080E390E00E94F20BDDCD882309F4E4
:1028E00008CEEE24E39400E020E041E065E370E0F0
:1028F00084E290E00E94F20BCECD882309F4F9CD5A
:10290000E12C01E020E041E067E270E087E290E046
:102910000E94F20BC0CD882309F4EBCDEE24E394A2
:1029200000E020E040E06CE170E084E690E00E948E
:10293000F20BB1CD882309F4DCCDEE24E39400E062
:1029400020E041E06CE070E084E690E00E94F20B51
:10295000A2CD882309F4CDCDEE24E39400E020E05D
:1029600041E068E070E085E290E00E94F20B93CDD8
:10297000882309F4BECDE12C01E020E041E061E2D2
:1029800070E086E290E00E94F20B85CD882309F486
:10299000B0CDE12C01E020E041E065E370E083E2AE
:1029A00090E00E94F20B77CD882309F4A2CDE12CB0
:1029B00000E021E040E065E370E08EE190E00E94FD
:1029C000F20B69CD882309F494CDEE24E39400E062
:1029D00021E040E064E370E084E390E00E94F20BC9
:1029E0005ACD882309F485CDEE24E39400E021E05C
:1029F00040E062E370E082E390E00E94F20B4BCD96
:102A0000882309F476CDEE24E39400E021E040E051
:102A10006FE270E08FE290E00E94F20B3CCD8823E1
:102A200009F467CDEE24E39400E021E040E060E3A8
:102A300070E080E390E00E94F20B2DCD882309F432
:102A400058CDE12C00E020E040E066E070E086E058
:102A500090E00E94F20B20E040E064E070E08CE047
:102A600090E00E94F20B20E040E067E170E087E137
:102A700090E00E94F20B0FCD882309F43ACDE12CAF
:102A800000E020E040E066E070E086E090E00E9438
:102A9000F20B20E040E064E070E08CE090E00E9407
:102AA000F20B20E040E063E170E083E190E00E94FF
:102AB000F20BF1CC882309F41CCDE12C00E020E0DE
:102AC00040E066E070E086E090E00E94F20B20E0DB
:102AD00040E064E070E08CE090E00E94F20B20E0C7
:102AE00040E066E170E086E190E00E94F20BD3CC1A
:102AF000882309F4FECCE12C00E020E040E066E011
:102B000070E086E090E00E94F20B20E040E064E09C
:102B100070E08CE090E00E94F20B20E040E06AE17F
:102B200070E08AE190E00E94F20BB5CC882309F4B2
:102B3000E0CCE12C00E020E040E066E070E086E0E0
:102B400090E00E94F20B20E040E06CE070E08CE04E
:102B500090E00E94F20B20E041E065E070E085E04B
:102B600090E00E94F20B97CC882309F4C2CCE12CB0
:102B700000E020E040E069E170E089E190E00E943F
:102B8000F20B20E040E064E070E08CE090E00E9416
:102B9000F20B20E040E067E170E087E190E00E9406
:102BA000F20B79CC882309F4A4CCE12C00E020E0DE
:102BB00040E069E170E089E190E00E94F20B20E0E2
:102BC00040E064E070E08CE090E00E94F20B20E0D6
:102BD00040E063E170E083E190E00E94F20B5BCCA7
:102BE000882309F486CCE12C00E020E040E069E194
:102BF00070E089E190E00E94F20B20E040E064E0A8
:102C000070E08CE090E00E94F20B20E040E066E192
:102C100070E086E190E00E94F20B3DCC882309F43D
:102C200068CCE12C00E020E040E069E170E089E15F
:102C300090E00E94F20B20E040E064E070E08CE065
:102C400090E00E94F20B20E040E06AE170E08AE14F
:102C500090E00E94F20B1FCC882309F44ACCE12CAF
:102C600000E020E040E069E170E089E190E00E944E
:102C7000F20B20E040E06CE070E08CE090E00E941D
:102C8000F20B20E041E065E070E085E090E00E941A
:102C9000F20B01CC882309F42CCCE12C00E020E0DD
:102CA00040E067E070E087E090E00E94F20B20E0F7
:102CB00040E064E070E08CE090E00E94F20B20E0E5
:102CC00040E067E170E087E190E00E94F20BE3CB27
:102CD000882309F40ECCE12C00E020E040E067E01E
:102CE00070E087E090E00E94F20B20E040E064E0BA
:102CF00070E08CE090E00E94F20B20E040E063E1A5
:102D000070E083E190E00E94F20BC5CB882309F4C8
:102D1000F0CBE12C00E020E040E067E070E087E0ED
:102D200090E00E94F20B20E040E064E070E08CE074
:102D300090E00E94F20B20E040E066E170E086E166
:102D400090E00E94F20BA7CB882309F4D2CBE12CB0
:102D500000E020E040E067E070E087E090E00E9463
:102D6000F20B20E040E064E070E08CE090E00E9434
:102D7000F20B20E040E06AE170E08AE190E00E941E
:102D8000F20B89CB882309F4B4CBE12C00E020E0DE
:102D900040E067E070E087E090E00E94F20B20E006
:102DA00040E06CE070E08CE090E00E94F20B20E0EC
:102DB00041E065E070E085E090E00E94F20B6BCBB3
:102DC000882309F496CBEE24E39400E021E040E070
:102DD00060E370E080E390E00E94F20BE12C20E0E1
:102DE00040E060E170E080E190E00E94F20B53CBA4
:102DF000882309F47ECBEE24E39400E021E040E058
:102E00006FE270E08FE290E00E94F20BE12C20E094
:102E100040E060E170E080E190E00E94F20B3BCB8B
:102E2000882309F466CBEE24E39400E020E040E040
:102E300060E370E086E390E00E94F20B20E040E067
:102E400060E370E086E090E00E94F20BE12C20E06D
:102E500040E070E060E08EE190E00E94F20B1BCB5E
:102E6000882309F446CBEE24E39400E020E040E020
:102E70006FE270E086E390E00E94F20B20E040E019
:102E80006FE270E086E090E00E94F20BE12C20E01F
:102E900040E070E060E08FE190E00E94F20BFBCA3E
:102EA000882309F4F8CA83EE0E949D0B84E40E94F3
:102EB0009D0B0E940A0EEFCA882309F4ECCA80EE2B
:102EC0000E949D0B83EE0E949D0B85E00E949D0B4E
:102ED0000E940A0EE0CA882309F4DDCA83EE0E942C
:102EE0009D0B87E00E949D0B0E940A0ED4CA882386
:102EF00009F4D1CA80EE0E949D0B83EE0E949D0BC7
:102F000086E10E949D0B0E940A0EC5CA882309F41F
:102F1000C2CA80EE0E949D0B83EE0E949D0B88E04A
:102F20000E949D0B0E940A0EB6CA882309F4B3CAF8
:102F300083EE0E949D0B81E40E949D0B0E940A0E6D
:102F4000AACA882309F4A7CA80EE0E949D0B83EECB
:102F50000E949D0B80E10E949D0B0E940A0E9BCA5D
:102F6000882309F498CA80EE0E949D0B83EE0E948C
:102F70009D0B87E00E949D0B0E940A0E8CCA88233D
:102F800009F489CA80EE0E949D0B83EE0E949D0B7E
:102F900084E00E949D0B0E940A0E7DCA882309F4DA
:102FA0007ACA83EE0E949D0B8AE30E949D0B0E94C9
:102FB0000A0E71CA882309F46ECA83EE0E949D0B23
:102FC0008BE30E949D0B0E940A0E65CA882309F4B8
:102FD00062CA83EE0E949D0B83E40E949D0B0E94B7
:102FE0000A0E59CA882309F456CA80EE0E949D0B26
:102FF00083EE0E949D0B8AE10E949D0B0E940A0EA7
:103000004ACA882309F447CA61E083E090E00E943D
:10301000CC2F61E070E080E090E00E94C6103BCAD7
:10302000882321F082E00E94DA1035CA82E00E94F3
:103030000B1131CA882339F083E00E94DA1081E055
:103040000E94581128CA83E00E940B1180E00E9460
:10305000581121CA882321F086E00E94DA101BCA89
:1030600086E00E940B1117CA882351F081E00E946C
:10307000DA1081E00E94581185E00E940B110BCA02
:1030800081E00E940B1180E0F5CF0B316CE5160753
:1030900009F442C080910E018E7F0C317CE5170748
:1030A00009F054C580930E01F6018281882309F44A
:1030B0008BC51092E4010631FCE51F0708F04FC1F3
:1030C00002302CE5120708F40DC20E94420B9093C7
:1030D0005C0280935B0206313CE5130708F06AC18D
:1030E00002304CE5140708F058C160915B02109162
:1030F0005C0284E090E00E94CC2F612F81E290E09E
:103100000E94CC2F0E940A0EC6C990910E01892FF1
:103110008E7F90FF8160C6CF80910E018160C2CF0B
:1031200080910C0190910D01059790930D01809372
:103130000C01BACF80910D018F9380910C018F9378
:1031400087E191E09F938F931F9288E08F93CE0148
:1031500001967C019F938F930E9400300FB6F894E4
:10316000DEBF0FBECDBF3AE0432EF701808188233A
:1031700009F49ACF813009F048C091818281913061
:1031800031F4F2E0EF0EF11C0E945B0C07C09230AC
:1031900049F422E0E20EF11C0E949D0B2FEFE21A8F
:1031A000F20AE3CF933031F432E0E30EF11C0E94D7
:1031B000250CF4CF943021F04FEFE41AF40AEECF4F
:1031C00052E0E50EF11C20E030E0A7014F5F5F4FB9
:1031D0008053990B8A30910560F021153105F1F289
:1031E0008FE99FE00197F1F700C0000021503109FD
:1031F000F4CF429EB001439E700D11249C01260F16
:10320000371FF70181817A01E0CFE82FF0E0EA5221
:10321000FD4F5490282F26952695269530E0F901EC
:10322000EA53FD4F64908770712C082E02C075948C
:1032300067940A94E2F791E069227724F901EA544D
:10324000FD4F8490912C082E02C0959487940A9487
:10325000E2F7E1E08E229924F901EA55FD4FA490AE
:10326000B12C02C0B594A7948A95E2F7F1E0AF22A1
:10327000BB246114710419F081EE0E949D0B81142E
:10328000910419F086EE0E949D0B852D0E945B0C27
:10329000892819F086EE0E94250C672819F081EE26
:1032A0000E94250CAB2809F479CF8CE26DCF0B324C
:1032B000110509F45CC4F8CE0436110509F457C4AD
:1032C000043FFCE51F0799F1C8F4093D3CE51307ED
:1032D00041F10A3D4CE51407E1F1083D5CE51507B5
:1032E00009F0E2CE26E241EE61EE0E94A111D3C8C0
:1032F0006F2D7E2DC8010E947A0CCDC8063F6CE56B
:103300001607D9F0073F7CE51707E9F0053F9CE574
:10331000190709F0C9CE27E245EE64EE0E94A1111B
:10332000BAC827E245EE65EE0E94A111B4C826E2B4
:1033300041EE60EE0E94A111AEC829E240E062EECB
:103340000E94A111A8C827E245EE66EE0E94A111D5
:10335000A2C828E241E065EE0E94A1119CC8980134
:103360002B5F3C452930310508F4AFCE0631FCE532
:103370001F0709F0B7C080915D028A7A91E009F4D5
:1033800090E09093E50169E2811165E38AE791E0BD
:103390000E9443080E94FF077EC8F801E350FC45E5
:1033A00080915B028160E331F10590F4ED54FD4CB6
:1033B0000C94812F0B5F1C450930110508F095CE48
:1033C0000A531D4CF8010C94812F80915B0282609E
:1033D00080935B028ACE80915B028460F9CF8091FA
:1033E0005B028860F5CF80915C02816080935C0213
:1033F0007CCE80915C028260F9CF80915B0280611B
:10340000E7CF80915B028062E3CF80915B028064B2
:10341000DFCF0E940A0E80915B028068D9CF809135
:103420005B028C60D5CF80915C028360DFCF80919E
:103430005B028E7FCDCF80915B028D7FC9CF809163
:103440005B028B7FC5CF80915B02877FC1CF80916C
:103450005C028E7FCBCF80915C028D7FC7CF809145
:103460005B028F7EB5CF80915B028F7DB1CF809163
:103470005B028F7BADCF0E940A0E80915B028F773B
:10348000A7CF80915B02837FA3CF80915C028C7F6A
:10349000ADCF80915B0282FB992790F921E09227C2
:1034A00090FB82F990FB83F993CF80915C02982F77
:1034B000909591708E7F892B90FB81F997CF0E9418
:1034C0000A0E90915B02892F97FB87F9805880CF75
:1034D00061E08EE090E00E94CC2F07CE60E0F9CF53
:1034E00085E37BC30115FCE51F0709F443C00F3DCD
:1034F0001C4509F45BC0F601E080F180882309F4E3
:1035000059C0C7010E943D07182F682FC7010E94AC
:10351000E406B701812F0E94A6038C01F601F28018
:10352000E580E2942FE0E2228091F5018770A1F01E
:103530009F2CFF2091F0812F807F803421F080E24A
:10354000800F883048F082E00E9440118091F501A0
:103550008770992493948111912C812F82958F707B
:10356000A82EB12C8C3008F060C0F501E153FD4C61
:103570000C94812F0E940A0E3FEF44E35CE031502F
:1035800040405040E1F700C0000087E797E7909384
:1035900001088093000888E19AE00FB6F894A89596
:1035A000809360000FBE90936000FFCF0E94D80A06
:1035B0000C944B12C7010E941307182FAACFF12FAA
:1035C000FF70EF2E107F19F0E29490EFE922FF20B8
:1035D000C9F0EE2069F080E2800F883010F0011110
:1035E0000BC080915D02E82AE0925D020E94FF0715
:1035F000802F0E949D0B19C08091F601E82AE0926D
:10360000F601F4CF802F0E94250CEE2071F0E0949B
:1036100080E2800F883010F0011141C080915D027E
:10362000E822E0925D020E94FF07E8E0AE1AB108CE
:10363000F4E0AF16B10410F40E947B069920A9F0C3
:103640008091F50180FD11C0F60112828595859566
:1036500085950E94DA10C6010E9405128091F5013D
:103660008595859585950E940B1160E0C601689649
:103670000FB6F894DEBF0FBECDBFDF91CF911F9183
:103680000F91FF90EF90DF90CF90BF90AF909F9001
:103690008F907F906F905F904F900C947F078091F8
:1036A000F601E822E092F601BECF212F2F70822E84
:1036B000107F103219F0829480EF8822002339F0B5
:1036C000013031F1FF2089F1EE2041F191CFFF204F
:1036D00091F09091E601882D892BE11003C00E94A2
:1036E0002C08A3CF31E0E312FACF891709F49DCF5C
:1036F0008093E6019ACFE11006C00E94F907882D59
:103700000E94360892CF41E0E41609F48ECFF5CF3F
:10371000FF2031F055E05E1508F487CF882DDFCF0C
:1037200064E06E1508F481CFEACFEE2041F309334F
:1037300049F47FEF87EE93E0715080409040E1F7CD
:1037400000C00000802F0E94250C6FCF812F86952E
:103750008695837061F0813009F067CFC80193705E
:10376000F11002C090E080E00E94AC065ECFC8017C
:103770009370F11002C090E080E00E94960655CF51
:10378000802FFF20C1F10E94C605015F110B083098
:103790001105B8F581E090E001C0880F0A95EAF7BD
:1037A00026E0E7EEF1E0DE01199601900D922A95F0
:1037B000E1F72091E80136E0FE013996DE011F961F
:1037C00001900D923A95E1F7FF20C1F0822B888B92
:1037D00086E0FE013F96DE01119601900D928A95DA
:1037E000E1F786E0FE013196A7EEB1E001900D927F
:1037F0008A95E1F71ACF0E941B06C7CF80958223D6
:10380000E6CF0E94830B11CF812F837009F07AC01D
:10381000F1100BCF202F229526952770220F220F13
:10382000402F4F7050E070E060E0022E04C0440F63
:10383000551F661F771F0A94D2F780E090E0DC01E5
:1038400004FF0FC08FE090E0A0E0B0E004C0880F5C
:10385000991FAA1FBB1F2A95D2F780959095A09516
:10386000B095E12FE695E695E370E23059F1E3304B
:1038700009F441C00091ED011091EE012091EF019A
:103880003091F001E13099F0842B952BA62BB72BCA
:10389000AC01BD0140235123622373234D8B5E8B0A
:1038A0006F8B788FCB01BA010E94C610BECE042B5D
:1038B000152B262B372BB901A801482B592B6A2B26
:1038C0007B2BECCF842B952BA62BB72B4091ED01B6
:1038D0005091EE016091EF017091F0018C019D011A
:1038E00004271527262737270D8B1E8B2F8B388F04
:1038F000C901B801D9CF8A019B01082B192B2A2BAA
:103900003B2BF2CFFF2009F44DC010FF8ECE202FAD
:10391000229526952770220F220F402F4F7050E0DE
:1039200070E060E0022E04C0440F551F661F771F31
:103930000A94D2F780E090E0DC0104FF0FC08FE032
:1039400090E0A0E0B0E004C0880F991FAA1FBB1F41
:103950002A95D2F780959095A095B095E12FE695A0
:10396000E695E370E23061F1E33009F444C0009180
:10397000F1011091F2012091F3013091F401E13055
:10398000A1F0842B952BA62BB72BAC01BD014023B6
:103990005123622373234D8B5E8B6F8B788FCB010A
:1039A000BA0126C011FF41CEB2CF042B152B262B16
:1039B000372BB901A801482B592B6A2B7B2BEBCF56
:1039C000842B952BA62BB72B4091F1015091F2013E
:1039D0006091F3017091F4018C019D01042715277A
:1039E000262737270D8B1E8B2F8B388FC901B801E7
:1039F0000E94D0101ACE8A019B01082B192B2A2B6A
:103A00003B2BF0CF1F70FF2029F0812F0E94DA108E
:103A1000802F65CE802F0E943608812F0E940B11C7
:103A200004CE023FB9F160F4003FE9F0013F59F1E3
:103A3000FF2009F454C0E110DBCD812F8F7127C026
:103A4000033F69F1043FA1F7FF20F1F11F71812FBE
:103A50000E94DA1058E0159FC00111248360809302
:103A6000F501812F14C0FF2049F024E02E1508F441
:103A7000DCCD812F8F710E947011D7CD35E03E15BE
:103A800008F4D3CDF6CF812F8F71FF2039F20E9439
:103A9000DA10CBCD812F8F71FF20C9F3BFCF60E04B
:103AA00070E0CB01FF2009F4A3CF1F7181E090E00B
:103AB000A0E0B0E0AC01BD0104C0440F551F661F7B
:103AC000771F1A95D2F767CF81E00E94401161E01D
:103AD0006E1508F0AACD82E00E944011A6CDE1103B
:103AE00026CE812F8F719ACF0E94770BF82EE92E68
:103AF000F6018281882351F180910E0182FF06C078
:103B00006F2D7E2D90E080E00E947A0C8091F6016E
:103B10008D7F8093F6010A31FCE51F0709F4F5CA91
:103B200008F0B3CA08313CE5130709F4F9CA0931B2
:103B30004CE5140709F4FECA80910C0190910D0127
:103B4000059607315CE5150709F4EFCAF601828195
:103B50000933110508F0B0CB0D32110540F40E31D8
:103B6000110508F0A4CB0430110508F49DCA882380
:103B700009F4BECB80910E0180FF96CA90915D0240
:103B8000911192CA1093450200934402F0924602AA
:103B9000E0924702846080930E0182E00E9440110F
:103BA0000C944B1261E0C6010E947F078C01F60164
:103BB0008281F801E45CFC45E23CF10508F094CF19
:103BC000E552FD4C0C94812F06311C4509F093CC35
:103BD0008091E501811184CC89E20E94EC07DACB67
:103BE0001F93CF93DF9380912E02807FA9F4809161
:103BF0002B02882389F08091F801C091F701709120
:103C0000290260912A02A0912C02B0912D02D62F98
:103C1000D72316E0C81304C0DF91CF911F910895F8
:103C200090E0109711F0DF3F19F401968770F2CF02
:103C3000189F9001199F300D1124F901E750FE4F94
:103C400041816413F2CF40814713EFCF428141118C
:103C5000ECCF438154814A1B5B0B4C32514028F717
:103C600080912E028F70806180932E02F901E250C4
:103C7000FE4F80818F708061808389E292E00E9494
:103C80000512DF91CF911F910C94C206AF92BF92A3
:103C9000CF92DF92EF92FF920F931F93CF93DF9318
:103CA000CDB7DEB72B970FB6F894DEBF0FBECDBFF2
:103CB0008C0185E0F801DE01179601900D928A953E
:103CC000E1F7F801E28089E2A82E82E0B82E609147
:103CD0002C0270912D026115710549F09091290215
:103CE00040912A02892F84238F3F09F01DC1EE20C5
:103CF00009F42CC18F8198850E94BF07F82E882374
:103D000009F424C186E0F801A9E2B2E001900D9225
:103D10008A95E1F78091290290912A020E94B307C7
:103D20000E94F01D1DC080912E02582F507F6C32D2
:103D3000714008F078C0511194C0FE2C241322C0A9
:103D4000931320C0E1101EC08F70806180932E02FB
:103D500089E292E00E94051280912E02F80185838B
:103D60008F2D2B960FB6F894DEBF0FBECDBFDF911F
:103D7000CF911F910F91FF90EF90DF90CF90BF9068
:103D8000AF900895CD2829F0822F83238F3F09F02B
:103D900065C080E0F82FF170DF2EE091F8014091CE
:103DA000F70156E080FD1CC0EE20D1F280912E027A
:103DB000816080932E02F12CD3CF8E2F90E05E9FF6
:103DC000F0011124E750FE4F6181261306C0608187
:103DD000361303C062816E11E7CFFC013196E770A4
:103DE000E413EBCF8F8198850E94B307292F22958A
:103DF0002F70903260F0225F2F70223078F49F7025
:103E000051F0F8019581907F31F4D12C0AC09F7058
:103E100011F08823D1F3805E8830B8F3C8010E9486
:103E20000512FD2C9DCF51114DC089E292E00E94F8
:103E3000051286E0F50111928A95E9F7BCCF8F81D2
:103E400098850E94BF07811130C080912E02816049
:103E500080932E02C8010E94051282CF81E08E2538
:103E600099CF241306C0931304C0F801EE2009F47F
:103E70004EC08F8198850E94BF07882309F466C0D1
:103E8000EE2009F463C080912E02803270F0209100
:103E9000290230912A023A8329831B82DD82CC8257
:103EA0008E83CE0101960E94051286E0F801A9E2F8
:103EB000B2E001900D928A95E1F70E94F01DFF2477
:103EC000F3944ECF2413D5CF9313D3CFE110D1CF9A
:103ED000F8018583C8010E94051286E0F501119260
:103EE0008A95E9F73DCF2413AACF9313A8CF8091E9
:103EF0002E0280FD10C0982F907F69F0F801858315
:103F0000903F31F0982F907F905F8F70892B858341
:103F1000C8010E94051286E0F801A9E2B2E0019012
:103F20000D928A95E1F71CCF30812181C380D48026
:103F3000F0902B02F601E61BF70BBF01F110F3CE58
:103F40006C32714050F6FE2CE110CDCFC8010E94BA
:103F50000512B5CF1F93CF93DF93CDB7DEB7679729
:103F60000FB6F894DEBF0FBECDBF4B8B5C8B962F88
:103F70006D8B7E8B8F8B61111092F6011A8A85E012
:103F8000FE017396DE011D9601900D928A95E1F770
:103F90009F8786E0FE013D96DE01179601900D9207
:103FA0008A95E1F7CE0107960E94461E882389F084
:103FB00016E08091F8019091F701891349C0679646
:103FC0000FB6F894DEBF0FBECDBFDF91CF911F912A
:103FD000089586E0FE013796DE01119601900D925C
:103FE0008A95E1F78A859B85892B11F38F819885C6
:103FF00089238F3FE9F22091F70130E0C901019652
:10400000877099274091F8014817190671F40E94AA
:104010000A0E1092F7011092F80186E0E9E2F2E050
:10402000DF011D928A95E9F7C3CF96E0929FD001F8
:10403000939FB00D1124A750BE4FFE013196019001
:104040000D929A95E1F78093F7010E94C206B0CFD6
:10405000819FC001112487509E4F0E94461E8823D5
:1040600009F4ADCF8091F80190E00196877099270F
:104070008093F8019ECF78941F921FB61F9211244F
:104080008F939F93AF93BF938091C0019091C10193
:10409000A091C201B091C3010196A11DB11D8093F1
:1040A000C0019093C101A093C201B093C301BF911D
:1040B000AF919F918F911F901FBE1F901895CF9227
:1040C000DF92EF92FF92CF93DF9300D000D0CDB775
:1040D000DEB76B017C010E94310A81110EC00E9483
:1040E0005D08C61AD70AE80AF90AC092BC01D09244
:1040F000BD01E092BE01F092BF010F900F900F90B2
:104100000F90DF91CF91FF90EF90DF90CF900895C7
:10411000CF93DF9300D000D0CDB7DEB70E94310A35
:10412000882341F00F900F900F900F90DF91CF9167
:104130000C945D080E945D0869837A838B839C835D
:104140008091BC019091BD01A091BE01B091BF01D1
:1041500029813A814B815C81280F391F4A1F5B1FDF
:10416000CA01B9010F900F900F900F90DF91CF917E
:104170000895CDB7DEB7E7970FB6F894DEBF0FBE50
:10418000CDBF84B7877F84BF0FB6F894A895809180
:104190006000886180936000109260000FBE80E82C
:1041A00090E00FB6F89480936100909361000FBE89
:1041B00085B7806885BF85B7806885BF81E498E052
:1041C00090937901809378010E9439090E94B20985
:1041D0008091E20084608093E20078948091B20143
:1041E0008823A1F01091E9001F709091EC00892FB5
:1041F000817090FD80E8182B1092E9008091E80012
:1042000083FD0E940E0E1F701093E90082E084BDB2
:1042100093E095BD9AEF97BD80936E001092BC011C
:104220001092BD011092BE011092BF010E94310A8E
:1042300091E08927809300010E94310A81110E9438
:104240008727809100018091000194E0811190E026
:104250009093520284E0891B8093480284E90E9473
:10426000320586E60E94320587E90E94320586EC17
:104270000E94320584EF0E94320585EF0E943205CC
:1042800086EF0E94320587EF0E94320581E30E948B
:10429000320583E30E94320588E0E3E5F2E0DF01C6
:1042A000282F1D922A95E9F7EAE4F2E0DF011D923A
:1042B0008A95E9F790E080E00E94C62F8B3E9E4FE2
:1042C00011F00E94D80A0E94310A811102C00E9496
:1042D0008D2790E080E00E94C62F8B3E9E4F11F00C
:1042E0000E94D80A82E090E00E94BE2F8093A8012D
:1042F0000E94420B90935C0280935B0283E090E00B
:104300000E94BE2F282F30E050E040E02CA73DA7B0
:104310004EA75FA7CA01B9010E94C6100E94F627E6
:1043200020E04AE260E080E00E94130A81E091E030
:104330009093340280933302AE014F5F5F4F5DA3D1
:104340004CA3CE0103969FA38EA38091B20100E1FE
:1043500012E1853009F4E3C20E94C80C81110E9469
:104360005D08EAE4F2E0A9EAB1E010E000E0C02E66
:10437000E1908D918E1509F4E1C28E25D12CFF2498
:10438000F394982F9F2109F4D4C20E94310A882304
:1043900099F0D982CA82EF2081E009F480E08B8312
:1043A0000E94770B8160782F9D838C8349815A818D
:1043B0006B818D810E94AA1FF801E755FE4F808115
:1043C000F826F08286E0E9E3F2E0DE011196019042
:1043D0000D928A95E1F7C0903B02D0903C0200918B
:1043E0003D0210913E0210923B0210923C0210924C
:1043F0003D0210923E028C2D8D29FCA0EDA0882359
:10440000B1F080913702909138020E947D08E091CE
:104410003F02F0E0EE0FFF1FEC5DFE4F2081318187
:104420002817390720F4C0923B02D0923C02802F1B
:10443000812BB1F080913502909136020E947D0867
:10444000E0913F02F0E0EE0FFF1FE45EFE4F20819F
:1044500031812817390720F400933D0210933E0262
:1044600080913B0290913C02892B90913D02892BD7
:1044700090913E02892B11F00E94830B86E0EF2D74
:10448000FE2DA9E3B2E001900D928A95E1F786E056
:10449000E7EEF1E0DE01539601900D928A95E1F787
:1044A0004091E8014CA75091E9015EAB8091EA018F
:1044B0008FAB9091EB019CABA091EC01ADAB86E092
:1044C000FE017396AF2DBE2D01900D928A95E1F7F6
:1044D00086E0EF2DFE2DDE01599601900D928A9512
:1044E000E1F70E94310A882309F45DC2198204E6CB
:1044F00010E021E030E04F2D5E2D69EF84E10E9455
:10450000FC28898180FF36C280919E0190919F0195
:10451000009709F02AC20E94770B816090939F0157
:1045200080939E011A82198283E0EEA1FFA111926D
:104530008A95E9F704E610E025E030E04F2D5E2D86
:1045400064E084E10E94FC288B812C811A8109811E
:104550009D8190FD7BC2821B990B9C01990F440B9E
:10456000550B28A739A74AA75BA7CA01B9010E9422
:10457000E72E3B015C01412F401B550B9A01550F63
:10458000440B550B28A739A74AA75BA7CA01B90155
:104590000E94E72E68AB79AB8AAB9BAB9301A50178
:1045A00068A679A6AAA6BBA668A579A58AA59BA593
:1045B0000E94E12E6B018C0128A939A94AA95BA9A7
:1045C00088A988A799A999A7AAA9AAA7BBA9BBA79F
:1045D00068A579A58AA59BA50E94E12E9B01AC0147
:1045E000C8A6D9A60AA71BA768A579A58AA59BA5D1
:1045F0000E94502D68A779A78AA79BA768A579A5CF
:104600008AA59BA50E940B2D162F072FD82EC92EE9
:1046100020E030E040EC5FE368A779A78AA79BA77A
:1046200068A579A58AA59BA50E94AD2C1B012C012C
:1046300020E030E040E050E468A579A58AA59BA57C
:104640000E94582F18160CF012C280909C01909076
:104650009D01C4010E947D08892B09F001C20E94BE
:10466000770B90939D0180939C01212F302F4D2D2E
:104670005C2D18A709A7DAA6CBA668A579A58AA5F7
:104680009BA50E94502D20E030E040EC5FE368A73E
:1046900079A78AA79BA768A579A58AA59BA50E944B
:1046A000AD2C9B01AC0128A639A64AA65BA668A53D
:1046B00079A58AA59BA50E94502D6B018C019301C1
:1046C000A501F8A9F8A789A989A79AA99AA7ABA9CA
:1046D000ABA768A579A58AA59BA50E94B32A20E06F
:1046E00030E0A90168A779A78AA79BA768A579A543
:1046F0008AA59BA50E94502D2B013C0168A759A6B5
:104700008AA77BA668A579A58AA59BA50E94122BDE
:104710009B01AC01C8A6D9A60AA71BA768A579A5C5
:104720008AA59BA50E94E12E4B015C0180919A0114
:1047300090919B019C01990F440B550B28A739A719
:104740004AA75BA7CA01B9010E94E72E9401A501FF
:1047500068A779A78AA79BA768A579A58AA59BA51D
:104760000E94502D68A779A78AA79BA768A579A55D
:104770008AA59BA50E94222F70939B0160939A01AA
:1047800048A659A66AA67BA668A579A58AA59BA571
:104790000E94FD2C9B01AC01C8A6D9A60AA71BA7A5
:1047A00068A579A58AA59BA50E94E12E6B018C01C5
:1047B00080919801909199019C01990F440B550BA0
:1047C00028A739A74AA75BA7CA01B9010E94E72E0B
:1047D0009601A80168A779A78AA79BA768A579A5CC
:1047E0008AA59BA50E94502D68A779A78AA79BA799
:1047F00068A579A58AA59BA50E94222F709399018F
:104800006093980180919601909197019C01990F76
:10481000440B550B28A739A74AA75BA7CA01B901C2
:104820000E94E72E9601A80168A779A78AA79BA7EF
:1048300068A579A58AA59BA50E944F2D68A779A791
:104840008AA79BA768A579A58AA59BA50E94222F68
:1048500070939701609396018091940190919501D6
:104860009C01990F440B550B28A739A74AA75BA7B2
:10487000CA01B9010E94E72E9401A50168A779A792
:104880008AA79BA768A579A58AA59BA50E94502DFC
:1048900068A779A78AA79BA768A579A58AA59BA5DC
:1048A0000E94222F709395016093940163C08091C0
:1048B000B201843021F11092C401A8E1B0E0E0E43B
:1048C0000FB6F894A895A09360000FBEE093600027
:1048D00083B7817F846083BF83B7816083BF78940F
:1048E000889583B78E7F83BF0FB6F894A895809183
:1048F0006000886180936000109260000FBE80911C
:10490000B101882361F00E94C80CEAE4F2E08191D1
:104910008111C8C122E532E02E173F07C1F780910F
:10492000B201853009F4C3CF0E940A0E0E947B06B3
:1049300013CDD394FF0C36E0D31223CD0F5F1F4F5E
:104940000830110509F013CD8FEF8F8F88A319A2BE
:104950000E94770B8160782F9BA38AA34F8D58A16B
:1049600069A18BA10E94AA1F2DCD0E947D080697E8
:1049700008F0D1CD80919A0190919B0120919801EE
:1049800030919901822B932B2091940130919501C4
:10499000822B932B2091960130919701822B932BA0
:1049A000892B09F06DC08091F1019091F201A091E5
:1049B000F301B091F401AD0166277727E0E04115DE
:1049C00051056105710519F0DB01CA01E0E1492FCC
:1049D0005A2F6B2F7727411551056105710519F085
:1049E000E85FDB01CA01AC01BD01F4E07695679593
:1049F00057954795FA95D1F7411551056105710510
:104A000019F0EC5FDB01CA01AC01BD0132E0769523
:104A10006795579547953A95D1F741155105610529
:104A2000710519F0EE5FDB01CA01B695A795979560
:104A30008795892B8A2B8B2B09F0EF5FE73008F0E5
:104A400003C1F0E0E356FC4C0C94812F97FF04C0A7
:104A5000FCA5F160FCA78ECF2CA52E7F2CA78ACFBA
:104A6000C4010E947D088035934C08F4F8CD0E9463
:104A7000770B90939D0180939C019101A20113CE2D
:104A80006AE971E083E991E00E94440368E971E01A
:104A900082E991E00E94440366E971E081E991E0D6
:104AA0000E94440364E971E080E991E00E944403BC
:104AB000309193013EAB409192014FAB50919101E7
:104AC0005CAB809190018DAB55CF20E240E0AFC050
:104AD00020E040E060E080E20E94130A83E00E9450
:104AE000CC06811106C082E00E94CC06882309F41E
:104AF000ADC01092A6019CA59A8FAEA9AB8FBFA99D
:104B0000BC8FECA9ED8FFDA9FE8F86E0FE017996A2
:104B1000AF2DBE2D01900D928A95E1F786E0EF2D25
:104B2000FE2DA7EEB1E001900D928A95E1F786E0A7
:104B3000E7EEF1E0DE01179601900D928A95E1F71C
:104B400086E0FE013796AF2DBE2D01900D928A951D
:104B5000E1F786E0EF2DFE2DDE011D9601900D920E
:104B60008A95E1F70E94310A882379F13F852889E7
:104B70009A8989891F86188A1A8A198A4091A601FA
:104B8000411168C03F87288B9E858091A1019813B1
:104B90009FC08F859091A201882311F0891398C03E
:104BA00088899091A301882311F0891391C08A8983
:104BB0009091A501882311F089138AC089898823DF
:104BC00021F09091A401891383C01F86188A198A45
:104BD0001A8A86E0FE013D96A0EAB1E001900D92AE
:104BE0008A95E1F786E0FE013D96AF2DBE2D01903E
:104BF0000D928A95E1F786E0EF2DFE2DA7EEB1E04C
:104C000001900D928A95E1F70E947B069091A70191
:104C1000891709F49ACB0E947B068093A70195CB54
:104C200020E040E060E280E057CF20E040E260E03A
:104C3000FACF20E040E24ECF20E040E160E14BCFF0
:104C400020E040E060E247CF20E040CF81E0809369
:104C5000A60151CF9A8B282F880F330B440B550B8D
:104C60002CA73DA74EA75FA7CA01B9010E94E72E56
:104C700020E030E040E05FE36CA77DA78EA79FA710
:104C80006CA57DA58EA59FA50E94E12E6CA77DA792
:104C90008EA79FA76CA57DA58EA59FA50E94222FFC
:104CA000698B72CF09BD19BD09B400FEFDCF80919B
:104CB000D8008F7D8093D8008091E000826080933F
:104CC000E0008091E00081FDFCCF0E940A0E27CE1B
:104CD000CE010D960E94870678CF1F920F920FB6D5
:104CE0000F9211242F933F934F935F936F937F9372
:104CF0008F939F93AF93BF93EF93FF938091E100C6
:104D000082FF09C08091E20082FF05C08091E1002E
:104D10008B7F8093E1008091DA0080FF24C0809136
:104D2000D80080FF20C08091DA008E7F8093DA0067
:104D30008091D90080FF99C080E189BD82E189BD61
:104D400009B400FEFDCF81E08093B201809187011C
:104D5000811109C00E9439090E94B2098091E200C4
:104D600084608093E2008091E10080FF17C0809111
:104D7000E20080FF13C08091E2008E7F8093E2000A
:104D80008091E20080618093E2008091D80080628F
:104D90008093D80019BC85E08093B2018091E10036
:104DA00084FF27C08091E20084FF23C080E189BD99
:104DB00082E189BD09B400FEFDCF8091D8008F7DCE
:104DC0008093D8008091E1008F7E8093E1008091F4
:104DD000E2008F7E8093E2008091E2008160809308
:104DE000E20080918601882309F445C084E0809325
:104DF000B2018091E10083FF27C08091E20083FF30
:104E000023C08091E100877F8093E10082E080935E
:104E1000B201109286018091E1008E7F8093E100C3
:104E20008091E2008E7F8093E2008091E2008061B9
:104E30008093E20042E060E080E00E94820980917D
:104E4000F00088608093F000FF91EF91BF91AF91E7
:104E50009F918F917F916F915F914F913F912F9192
:104E60000F900FBE0F901F90189519BC1092B201B1
:104E70001092870178CF8091E30087FD02C081E026
:104E8000B6CF83E0B4CF1F920F920FB60F921124CA
:104E90002F933F934F935F936F937F938F939F9342
:104EA000AF93BF93CF93DF93EF93FF93D091E9003C
:104EB000DF708091EC00C82FC17080FDC0E81092B7
:104EC000E9008091F000877F8093F00078940E9441
:104ED0000E0E1092E9008091F00088608093F0003F
:104EE000CD2BCF70C093E900FF91EF91DF91CF916F
:104EF000BF91AF919F918F917F916F915F914F91F2
:104F00003F912F910F900FBE0F901F90189561E069
:104F100070E08FE091E00C94B22961E070E08FE0E6
:104F200091E00C94B929CF93DF9300D000D00F9279
:104F3000CDB7DEB76D8379830E94532A9C0180E050
:104F400021153105E1F4ED81F981D901AC59BD4F4D
:104F50008C9181932F5F3F4F24303105B1F70E9430
:104F60008820DC01CB010296A11DB11D8093600257
:104F700090936102A0936202B093630281E00F906C
:104F80000F900F900F900F90DF91CF910895CF93D6
:104F9000DF9300D000D000D0CDB7DEB76E837D8325
:104FA0008091600290916102A0916202B0916302CF
:104FB00089839A83AB83BC83BC01CD010E945F20AF
:104FC000EE81FD8190E080E02191DC01AC59BD4F84
:104FD0002C93019684309105B9F726960FB6F89474
:104FE000DEBF0FBECDBFDF91CF9108951092B90003
:104FF0008CE08093B8000895EF92FF920F931F9377
:10500000CF93DF93182FEB011092BC0084EA8093BA
:10501000BC000E94770B7C018091BC0087FF27C0F9
:105020008091B900887F883029F08091B900887F0D
:105030008031D9F51093BB0084E88093BC000E94B6
:10504000770B8C018091BC0087FF24C02091B900B0
:10505000287F90E080E02831B1F081E090E02034BA
:1050600011F490E080E09195819591090CC0CF3FBB
:10507000DC0791F20E94770B8E199F098C179D0710
:1050800058F28EEF9FEFDF91CF911F910F91FF901C
:10509000EF900895CF3FDC07A9F20E94770B801BA9
:1050A000910B8C179D0770F2ECCF8FEF9FEFEBCF3A
:1050B0000F931F93CF93DF93EB018093BB0084E8A2
:1050C0008093BC000E94770B8C018091BC0087FF0D
:1050D00011C02091B900287F81E090E0283211F4BE
:1050E00090E080E0919581959109DF91CF911F919A
:1050F0000F910895CF3FDC0741F30E94770B801B8F
:10510000910B8C179D0708F38EEF9FEFEECF0F9357
:105110001F93CF93DF93EC0184EC8093BC000E943B
:10512000770B8C018091BC0087FF08C08091BB0089
:1051300090E0DF91CF911F910F910895CF3FDC0751
:1051400089F30E94770B801B910B8C179D0750F3FE
:105150008EEF9FEFEECF0F931F93CF93DF93EC0172
:1051600084E88093BC000E94770B8C018091BC0086
:1051700087FF08C08091BB0090E0DF91CF911F9125
:105180000F910895CF3FDC0789F30E94770B801BB6
:10519000910B8C179D0750F38EEF9FEFEECFCF92C0
:1051A000DF92EF92FF920F931F93CF93DF936B01E8
:1051B0008A01F22EE32E622F732F0E94FC27AC018E
:1051C000E6010C0D1D1DC017D10711F057FF0DC0D2
:1051D00084E98093BC00CA01DF91CF911F910F91A8
:1051E000FF90EF90DF90CF9008956F2D7E2D8991E5
:1051F0000E945828AC01E7CFCF92DF92EF92FF9246
:105200000F931F93CF93DF93D82EC62EEA01790117
:10521000B8010E94FC279C0197FD17C0B8018C2D96
:105220000E9458289C0197FD10C0B8018D2D816007
:105230000E94FC279C01D12CC12C81E0E81AF108C6
:10524000CE14DF0410F537FF12C084E98093BC0050
:10525000C9011816190614F490E080E0DF91CF918F
:105260001F910F91FF90EF90DF90CF900895C801AC
:105270000E9487289C0197FD04C0FE01EC0DFD1DD6
:1052800080838FEFC81AD80ADBCF37FDDECFC80185
:105290000E94AB289C0197FDD8CFCE0DDF1D8883DF
:1052A000D4CF8EE14A9B02C08150E1F74A9BFECFEA
:1052B00008955A9880E28A95F1F75A9A0895FC0168
:1052C0003BE03A95F1F798E020E080E031E040E102
:1052D0004A95F1F7880F4A9B02C08160232742E07C
:1052E0004A95F1F7000040E14A95F1F7915079F7BE
:1052F00090E19A95F1F799B132E03A95F1F7000013
:1053000040E14A95F1F792FB992790F99227208185
:10531000920F90830895EF92FF920F931F93CF9374
:10532000DF930F92CDB7DEB719828C017C01E60EB8
:10533000F11C0E151F0561F481E09981911180E047
:105340000F90DF91CF911F910F91FF90EF900895F3
:105350000E945129CE0101960E945F29F801819394
:105360008F01E7CF9093690280936802529A5A9A0C
:105370000895909369028093680252985A9AEA9A23
:10538000E9E6F0E080818F7C808308956150770B9F
:1053900091E001C0990F6A95EAF720E031E09111A0
:1053A00008C0222391F05A9A80E28A95F1F75A9820
:1053B0000895492F482339F05A9A232740E24A9505
:1053C000F1F79695ECCF5A98F9CF5A98EDCFFF9216
:1053D0000F931F93CF93DF93EC018C01060F111DE8
:1053E000C017D10731F4DF91CF911F910F91FF903A
:1053F0000895F9900E94592968E08F2D0E94C629CE
:10540000EFCF1F920F920FB60F9211242F933F935D
:105410004F935F936F937F938F939F93AF93BF93BC
:10542000CF93DF93EF93FF935A98529AC0916802FB
:10543000D09169026D81662321F08E819F810E9447
:10544000E7290E94592980E18A95F1F75A985298E4
:105450005A9A80E18A95F1F76A81662309F18B8176
:105460009C810E948B29E881F981882311F088E0D2
:1054700001C082E080830E945129FF91EF91DF916A
:10548000CF91BF91AF919F918F917F916F915F91DC
:105490004F913F912F910F900FBE0F901F90189535
:1054A000E881F981E4CFCF93DF93C0916802D09176
:1054B0006902F894529A5A9885E08A95F1F70000AB
:1054C00052985A9A80E28A95F1F74A9B0CC0529AF8
:1054D0005A9AE881F98181E08083789481E090E0B4
:1054E000DF91CF9108956D81662381F08E819F8138
:1054F0000E948B2981110AC0529A5A9AE881F98137
:1055000082E08083789482E090E0EACF0E94512983
:1055100080E28A95F1F75A98529A80E18A95F1F7DC
:105520006A81662321F08B819C810E94E7290E9479
:105530005929E881F9811082789490E080E0D0CFF9
:105540000E94B52B60F080E891E009F49EEF0E9484
:10555000BC2B28F040E851E071F45EEF0CC00C94D5
:105560008B2B0C94352CE92FE0780E94132C40F300
:10557000092E052AB1F3261737074807590738F0CF
:105580000E2E07F8E02569F0E025E0640AC0EF631D
:1055900007F8009407FADB01B9019D01DC01CA019B
:1055A000AD01EF930E942A2B0E94EE2B0E94E32A6A
:1055B0005F91552339F02BED3FE049E450FD49EC74
:1055C0000C94502D0895DF93DD27B92FBF7740E865
:1055D0005FE31616170648075B0718F4D92F0E94D9
:1055E0003C2C9F938F937F936F930E944B2DECEAFB
:1055F000F0E00E948E2B0E94EE2B2F913F914F9155
:105600005F910E94532CDD2351F09058A2EA2AEDBD
:105610003FE049EC5FE3D0785D270E94672DDF9182
:105620000C94EE2B0E94C52BE3950C94FF2B0E944B
:10563000BC2B58F00E94B52B40F029F45F3F29F0B5
:105640000C94852B51110C94362C0C948B2B0E94AE
:10565000132C68F39923B1F3552391F3951B550B44
:10566000BB27AA2762177307840738F09F5F5F4F35
:10567000220F331F441FAA1FA9F335D00E2E3AF074
:10568000E0E832D091505040E695001CCAF72BD08C
:10569000FE2F29D0660F771F881FBB1F26173707DD
:1056A0004807AB07B0E809F0BB0B802DBF01FF270F
:1056B00093585F4F3AF09E3F510578F00C94852B3C
:1056C0000C94362C5F3FE4F3983ED4F3869577959F
:1056D0006795B795F7959F5FC9F7880F911D9695C8
:1056E000879597F90895E1E0660F771F881FBB1F24
:1056F000621773078407BA0720F0621B730B840BD1
:10570000BA0BEE1F88F7E095089597F99F6780E838
:1057100070E060E008959FEF80EC0895DF93CF93F1
:105720001F930F93FF92EF92DF927B018C0168949D
:1057300006C0DA2EEF010E94532CFE01E894A591D9
:105740002591359145915591A6F3EF010E94672D62
:10575000FE019701A801DA9469F7DF90EF90FF90BE
:105760000F911F91CF91DF91089500240A9416168E
:10577000170618060906089500240A94121613063F
:105780001406050608950C948B2B0E941B2CD8F34D
:10579000E894E0E0BB279F57F0F02AED3FE049ECAA
:1057A00006C0EE0FBB0F661F771F881F28F0B23AA6
:1057B00062077307840728F0B25A620B730B840BDD
:1057C000E3959A9572F7803830F49A95BB0F661F6F
:1057D000771F881FD2F790480C94FC2D092E039454
:1057E000000C11F4882352F0BB0F40F4BF2B11F4CE
:1057F00060FF04C06F5F7F4F8F4F9F4F0895EF93FF
:10580000E0FF07C0A2EA2AED3FE049EC5FEB0E940F
:10581000672D0E94EE2B0F90039401FC9058E9ED48
:10582000F0E00C940F2E57FD9058440F551F59F07F
:105830005F3F71F04795880F97FB991F61F09F3F7D
:1058400079F087950895121613061406551FF2CFA6
:105850004695F1DF08C0161617061806991FF1CFF6
:1058600086957105610508940895E894BB2766271D
:105870007727CB0197F908959B01AC0160E070E0B8
:1058800080E89FE30C94BC2D0E94B52B38F00E9459
:10589000BC2B20F0952311F00C94852B0C948B2BB2
:1058A00011240C94362C0E94132C70F3959FC1F395
:1058B000950F50E0551F629FF001729FBB27F00DBE
:1058C000B11D639FAA27F00DB11DAA1F649F662713
:1058D000B00DA11D661F829F2227B00DA11D621F62
:1058E000739FB00DA11D621F839FA00D611D221F1C
:1058F000749F3327A00D611D231F849F600D211D00
:10590000822F762F6A2F11249F5750409AF0F1F082
:1059100088234AF0EE0FFF1FBB1F661F771F881FEB
:1059200091505040A9F79E3F510580F00C94852B73
:105930000C94362C5F3FE4F3983ED4F3869577952C
:105940006795B795F795E7959F5FC1F7FE2B880F91
:10595000911D9695879597F90895FA01EE0FFF1F0F
:10596000309621053105A1F16115710561F480388A
:10597000BFE39B0749F168949038810561F0803856
:10598000BFEF9B0741F099234AF5FF3FE105310541
:10599000210519F1E8940894E795D901AA2329F47F
:1059A000AB2FBE2FF85FD0F310C0FF5F70F4A69549
:1059B000E0F7F73950F019F0FF3A38F49F779F93EA
:1059C0000DD00F9007FC9058089546F00C948B2B47
:1059D00060E070E080E89FE308954FE79F775F9372
:1059E0004F933F932F930E94652E2F913F914F919C
:1059F0005F910E94E12E0C94C82D9F930E94C52BAD
:105A00000F9007FCEE5F0C94FF2B19F416F40C9426
:105A10008B2B0C94FA2D0E941B2CB8F39923C9F3FD
:105A2000B6F39F57550B87FF0E94082E0024A0E66F
:105A300040EA900180585695979528F4805C660F4F
:105A4000771F881F20F026173707480730F4621B9E
:105A5000730B840B202931294A2BA69517940794A0
:105A6000202531254A2758F7660F771F881F20F019
:105A700026173707480730F4620B730B840B200D91
:105A8000311D411DA09581F7B901842F9158880FD0
:105A90009695879508959B01AC010C94E12E505882
:105AA000BB27AA270E94672D0C94EE2B0E94B52BD2
:105AB00038F00E94BC2B20F039F49F3F19F426F4F3
:105AC0000C948B2B0EF4E095E7FB0C94852BE92FBF
:105AD0000E94132C58F3BA176207730784079507BF
