:100000000C94A3020C94EA020C94EA020C94572874
:100010000C94EA020C94EA020C94EA020C94EA02B0
:100020000C94EA020C94EA020C94BE240C949425DD
:100030000C94F60A0C94EA020C94EA020C94EA027C
:100040000C94EA020C94EA020C94EA020C94EA0280
:100050000C94EA020C946C1E0C94EA020C94EA02D2
:100060000C94EA020C94EA020C94EA020C94EA0260
:100070000C94EA020C94EA020C94EA020C94EA0250
:100080000C94EA020C94EA020C94EA020C94EA0240
:100090000C94EA020C94EA020C94EA020C94EA0230
:1000A0000C94EA020C94EA020C94EA02084AD73B48
:1000B0003BCE016E84BCBFFDC12F3D6C74319ABD37
:1000C00056833DDA3D00C77F11BED9E4BB4C3E915B
:1000D0006BAAAABE000000803F05A84CCDB2D44E4A
:1000E000B93836A9020C50B9918688083CA6AAAA4C
:1000F0002ABE000000803F07634236B79BD8A71A8C
:1001000039685618AEBAAB558C1D3CB7CC5763BD99
:100110006DEDFD753EF6177231BF000000803F089F
:10012000000000BE922449123EABAAAA2ABECDCC42
:10013000CC4C3E00000080BEABAAAAAA3E00000044
:1001400000BF000000803F0000000000084178D39D
:10015000BB4387D1133D190E3CC3BD4282AD2B3E3C
:1001600068EC8276BED98FE1A93E4C80EFFFBE01DC
:10017000C4FF7F3F00000000000005010902A1014B
:1001800085020901A10005091901290815002501A9
:100190009508750181020501093009311581257F16
:1001A00095027508810609381581257F9501750826
:1001B0008106050C0A38021581257F950175088195
:1001C00006C0C005010980A101850319012AB700F5
:1001D000150126B700950175108100C0050C0901B5
:1001E000A101850419012AA002150126A00295018A
:1001F00075108100C005010906A101050719E02954
:10020000E7150025019508750181029501750881A2
:10021000010507190029FF150026FF00950675083E
:1002200081000508190129059505750191029501BF
:1002300075039101C009023B00020100A0FA090404
:100240000000010301010009211101000122400009
:100250000705810308000A090401000103000000EA
:10026000092111010001227B000705820320000AF9
:1002700012011001000000085346010001000102B4
:1002800000010C0343006F0072006E006500000067
:10029000100366006F006F007300740061006E0051
:1002A0000000040309042B001400070015001A00C5
:1002B0000500E000040016000B0017000A00E10032
:1002C0001D001B00100006001900000000000000C7
:1002D0002A5D2B5D2C00355D3300130018000900EA
:1002E0000D00565D0C001200080011001C00375D67
:1002F0005A5D370036000F000E00000000000000BD
:10030000F65C2C5D2800E300445DAA00A900A8006B
:10031000515DE0003E5D385D395D3A5D495DE1006B
:100320004A5D4C5D4D5D4E5D465D00000000000085
:100330002A5D2B5D305DE600455DAB00AC00AE0094
:10034000525D00003F5D3D5D3C5D3B5D505D375D56
:10035000555D4B5D545D535D4F5D00000000000036
:100360004C002C5D0000E300210020001F001E0057
:100370002200E0005B5D575D585D595D5C5DE1000A
:10038000635D625D645D655D665D000000000000A8
:100390002A5D2B5D2B00E6002600250024002300AB
:1003A0002700F65C615D605D5F5D5E5D5D5D375D94
:1003B0006A5D6B5D685D695D675D0000000000005F
:1003C0004C002C5D2B00E300765D775D785D795DF8
:1003D0007A5DE0006C5D6D5D6E5D6F5D705DE1008E
:1003E000715D725D735D745D755D000000000000FD
:1003F0002A5D2B5D345D000000004B004E004D0077
:100400004A0000001A5C4F00520051005000375D56
:100410007B5D7C5D7E5D7D5D000000000000000076
:1004200000002C5D345D8B5D7F5D805D825D835D52
:10043000895DE0004400865D875D815D845DE1004B
:100440003D003C003B003A003E0000000000000080
:10045000FF002B5D0000855D8A5DF300ED00F2007A
:10046000885DFE004500F000EE00EF00F100375D12
:100470004200410040003F00430000000000000037
:10048000F65CFE00FF002F5D000000000000000091
:1004900000002F5D000000000000000000002F5D44
:1004A00000000000000000005200000000000000FA
:1004B000500051004F002F5D0000000000000000C0
:1004C00000002F5D000000000000000000002F5D14
:1004D00000000000000000005200000000000000CA
:1004E0004F0051005000005C0000CC5CC65CC85C52
:1004F000CA5C00000000CD5CC75CC95CCB5CC55C1D
:100500000000000000000000C35C000000000000CC
:1005100000000000000000000000000000000000DB
:10052000335D000000000000485D475D00000000F2
:1005300000000000000000000000000000000000BB
:1005400000000000000011241FBECFEFDAE0DEBF84
:10055000CDBF04B603FE27C080915E0290915F027A
:10056000A0916002B09161028730904BA740B04BE0
:10057000D1F410925E0210925F021092600210920B
:10058000610214BE84B7877F84BF0FB6F894A89524
:1005900080916000886180936000109260000FBEBF
:1005A000E0E0F8E3099511E0A0E0B1E0E6E6FEE561
:1005B00002C005900D92A037B107D9F722E0A0E75D
:1005C000B1E001C01D92AE35B207E1F70E94EA1E0C
:1005D0000C941F2E0C940000DC01FB0180819181A2
:1005E000803891054CF08FE78C93808191818F57F3
:1005F000910991838083089581382FEF92073CF40D
:1006000081E88C938081918181589F4FF2CF8C93A8
:1006100090E080E0EECF90914F0292FF06C0282F2D
:1006200028712830F9F4877F846093FF06C0282F53
:1006300028712831F1F4877E84612091500220FFD7
:1006400006C0382F38713830D9F4877F816021FF98
:1006500006C0282F28712831D1F4877E816194FD4E
:10066000877E0895282F24712430F9F68B7F8860C7
:10067000DCCF282F2471243101F78B7E8861DDCFF8
:10068000382F3171313019F78E7F8860E0CF282FF5
:100690002171213121F78E7E8861E1CF0F931F9365
:1006A000CF93DF93972F70E026E0929F600D711D2E
:1006B0001124FB0190E3899FE00DF11D1124EE0F41
:1006C000FF1FEA55FD4F05911491E801003E110509
:1006D00009F464C070F50133110509F4ACC098F455
:1006E0000932110509F4A0C00A32110509F4AAC0A3
:1006F0000130110509F465C004501109013A1105D2
:1007000008F058C05EC00933110509F440C0023832
:100710001105E9F10533110509F47FC0083A110507
:1007200008F097C0053A110518F3E801A497D064C2
:1007300048C0043E110509F455C068F4023E110595
:10074000E1F1033E110509F442C0005E11090830D1
:10075000110580F536C0063E110509F44EC0073E6E
:10076000110509F44FC0011523E5120708F09CC0DC
:10077000011582E5180708F001C10F3F110511F0BE
:1007800008F076C00D3E110548F2D0651AC0809180
:100790004F028370B1F0C0EED0E013C080914F02E1
:1007A00080FD15C19091500290FF0BC0C3EED0E0C8
:1007B00084FF07C0D0E0C0E004C080914F0282FDFA
:1007C000F5CFCE01DF91CF911F910F9108958091C8
:1007D0004F0282FDFFC09091500290FDDCCF84FF5C
:1007E000F0CFE8CF8091500281FFEBCF80914F0294
:1007F000C7EED0E084FDDECFE4CF80914F0283FDD1
:10080000F7CFDFCF80914F0283FDE7C09091500278
:1008100091FFE5CFC4EED0E0D4CF80914F0285FFA9
:10082000D0CFC9E2D0E0CDCF80914F0285FFC9CFB4
:10083000C5E3D0E0C6CF80914F0286FFC2CFCAE2A7
:10084000D0E0BFCF80914F0286FFBBCFC1E3D0E0A5
:10085000B8CF0F3B110508F078CF085AE02FF0E031
:10086000EE0FFF1FEE5BFE4FC081D181D464A9CF94
:10087000011591E5190798F4011520E5120708F014
:1008800062C0011580E2180708F49BCFC80190549C
:100890008115904108F08ECFDF70D06A92CFD02FB3
:1008A000CC27C16FD06A8DCF011589E51807A0F557
:1008B000011598E5190708F077C0011525E512071D
:1008C000C8F4011584E5180708F069C0C8018370F1
:1008D0009927C1E0D0E002C0CC0FDD1F8A95E2F776
:1008E0000695069590E2099F80011124C02BD12B1B
:1008F000DA6867CFC80195558F3F910511F008F070
:1009000059CF802F0E940B03C82FD0E0DC2FCC27BB
:10091000CC27DF71D06255CF01152AE5120708F404
:1009200048C0C80190568115904208F043CF812FEE
:100930008F710E940B03C82FD0E0DC2FCC27CC276F
:10094000DF71C02BE7CFC80154E0969587955A9583
:10095000E1F78370C695C695C37090E2C99FE00128
:100960001124D82B037081E090E002C0880F991FFA
:100970000A95E2F7C82BD92BDC6823CF98012370A6
:10098000332781E090E002C0880F991F2A95E2F793
:10099000C695C69520E2C29FE0011124EBCFD02F6F
:1009A000CC27C46FD06A0DCFD02FCC27C06FD06AB0
:1009B00008CF802F8F700E940B0394E0D695C795C7
:1009C0009A95E1F7CF709C2FEC01D069FACEC9E37C
:1009D000D0E0F7CEC2EED0E0F4CEC6EED0E0F1CE5D
:1009E000F894E82FE295EF70F0E041A18F7021E0DC
:1009F00030E0B90102C0660F771F8A95E2F7CB019C
:100A0000962F9095942391A392A1892B82A37894F9
:100A100008958091370290E0880F991FFC01E45DF2
:100A2000FE4F20818C5D9E4FFC01808190913302AE
:100A3000191614F4209333029091330297FF04C0E7
:100A4000922F91959093330290913402191614F4D9
:100A5000209334029091340297FF03C02195209394
:100A6000340290913602191614F480933602909154
:100A7000360297FF04C0982F91959093360290917B
:100A80003502191614F4809335029091350297FFC0
:100A900003C0819580933502309133023323A1F056
:100AA00020913402222381F045EB3403C00111244C
:100AB0009923F1F09093330245EB24039001112424
:100AC0003323D1F03093340230913602332379F05E
:100AD00040913502442359F025EB3203C001112423
:100AE0009093360242039001112430933502089509
:100AF00081E080933302E0CF81E080933402E4CF41
:100B000060913702462F50E0440F551FFA01E45D13
:100B1000FE4F20814C5D5E4FFA0190818D3E49F47D
:100B200021952093340280913702681769F10C9463
:100B30000905E2E1E80FE231B0F7F0E0EF5DF14DD9
:100B40000C94D72D219520933302EDCF919590935E
:100B50003502E9CF919590933602E5CF815F990BED
:100B600021E030E001C0220F8A95EAF7809132023D
:100B7000822B80933202D7CF81E080933702D3CF8C
:100B800082E0FBCF83E0F9CF0895909137028D3E4C
:100B900039F48091340287FF29C0109234020895FD
:100BA0008E3E29F4809134021816BCF308958F3ECE
:100BB00039F48091330287FF19C0109233020895EF
:100BC000803F29F4809133021816BCF30895893FC1
:100BD00039F48091350218164CF4109235020895BC
:100BE0008A3F29F48091350287FDF7CF08958B3F26
:100BF00039F48091360287FFF9CF109236020895BA
:100C00008C3F29F4809136021816BCF308952FE02A
:100C1000280F283090F4815F990B21E030E0A90182
:100C200002C0440F551F8A95E2F7CA018095909142
:100C3000320289238093320208958D3FB8F21092D8
:100C40003702992399F20C940905E0912B02F09157
:100C50002C02309721F00190F081E02D099480E082
:100C60000895DC01E0912B02F0912C02309739F0CD
:100C700082E08C930480F581E02DCD0109940895E4
:100C80002091290230912A022817390771F0909398
:100C90002A0280932902E0912B02F0912C023097D6
:100CA00021F00680F781E02D099408952091270214
:100CB000309128022817390771F090932802809309
:100CC0002702E0912B02F0912C02309721F0008452
:100CD000F185E02D099408958091F0019091EF0144
:100CE000981301C008958F5F8770FACF282F8091E5
:100CF000E9019091EA01A091EB01B091EC0100971C
:100D0000A105B10549F004C0B695A79597958795BB
:100D10002A95D2F78170089580E00895E92FEE0FAB
:100D2000E90FEE0FE80F8E2F877041E001C0440FEE
:100D30008A95EAF7E695E695E69585E0E89FF00165
:100D40001124E354FE4F30E020E070E05191DF01C8
:100D50001197CB01022E02C0969587950A94E2F76F
:100D6000817081958527842385278C932F5F3F4F42
:100D70002530310559F70895E92FEE0FE90FEE0FF1
:100D8000E80F9E2F9770E695E695E69585E0E89F3B
:100D9000F0011124E354FE4F50E040E080E0219147
:100DA00030E0092E02C0369527950A94E2F72170AB
:100DB0003327042E01C0220F0A94EAF7822B4F5FDB
:100DC0005F4F4530510559F70895BF92CF92DF929A
:100DD000EF92FF920F931F93CF93DF938C01C090FC
:100DE000E901D090EA01E090EB01F090EC018091F4
:100DF000E5019091E601A091E701B091E801C82AD0
:100E0000D92AEA2AFB2ACFE1D0E0BC2ED701C601BD
:100E10000C2E04C0B695A795979587950A94D2F79E
:100E200080FD0EC0219788F7B12C8B2DDF91CF91DB
:100E30001F910F91FF90EF90DF90CF90BF9008959A
:100E4000B8018C2F0E944E03019761F3EECFFF9201
:100E50000F931F93CF93DF93FC0182810081118157
:100E6000C081F180882311F1662301F1C8010E943D
:100E7000E506D82F682FC8010E948E06EC2FF0E0FF
:100E800086E0F89EE00DF11D112480E3D89FE00D6F
:100E9000F11D1124EE0FFF1FEA55FD4F859194912E
:100EA000DF91CF911F910F91FF900895C8010E948B
:100EB000BC06D82FE3CFCF93DF93D82FC92F0E9442
:100EC000E5066D2F7C2FDF91CF910C944E030E948D
:100ED0005B07282F892F8F70392F32953F70903CF8
:100EE00080F43A30B0F4343020F4323090F480E0C2
:100EF00008953630E1F781E0283E88F0213FB9F7C8
:100F00000EC03C3011F03F3091F78695869586955E
:100F1000089581E0203F39F018F4283E40F7089505
:100F2000243F29F7FCCF0895E4E7F1E0919189137C
:100F300003C0DF0111971C9291E0EA37F907B1F77E
:100F400008958091DE0181111092DE010895809153
:100F500051029091EE01892B9091DB01892B8093B6
:100F600072019091DE01992391F0892B8093720197
:100F700020E084E791E0FC013081019631112F5F80
:100F800031E08A379307B9F721110E94A107E09158
:100F90002B02F0912C02309731F00280F381E02D8A
:100FA00082E791E009940895882339F090915102E5
:100FB000892B809351020C94A7070895882341F050
:100FC0008095909151028923809351020C94A70738
:100FD000089580E008959C01FC0132968FEF90E027
:100FE0004191461751F08F3F19F4411101C0892FEB
:100FF0009F5F9630A9F78F3F09F40895280F311DA0
:1010000087FD3A95F90162830895CF93DF9300D06D
:1010100000D0CDB7DEB78FB7F8942091B8013091EA
:10102000B9014091BA015091BB0129833A834B83A6
:101030005C838FBF69817A818B819C810F900F9037
:101040000F900F90DF91CF9108959C014FB7F894C6
:101050008091B8019091B901A091BA01B091BB0102
:101060004FBF821B930B08958091B3010895FC013B
:10107000CB0120918601309187012617370790F028
:10108000009729F42091E8002E772093E80040E0B3
:10109000009751F4411108C08091E80082FF31C0EF
:1010A00080E00895C901F3CF2091AA012223A9F17C
:1010B0002530A9F12091E80023FD2DC02091E80002
:1010C00022FDEACF2091E80020FFE2CF3091F3002B
:1010D0002091F200009719F02830310558F041E0D6
:1010E0002830310509F040E02091E8002E77209368
:1010F000E800CECF41914093F10001972F5F3F4F21
:10110000E9CF8091AA01882341F0853041F0809198
:10111000E80083FFC1CF81E0089582E0089583E075
:1011200008958091800187FF13C08091E80082FFBD
:1011300006C08091E8008B778093E80004C080911E
:10114000AA018111F2CF08958091AA018823D9F3D1
:101150008091E80080FFF8CF8091E8008E77ECCF97
:101160002091E4003091E50095E6A9012091EC0082
:10117000822F817020FF06C08091E80080FF06C0AA
:1011800080E008952091E80022FD1AC08091AA0114
:10119000882389F0853089F08091EB0085FD0FC0B0
:1011A0002091E4003091E50042175307F9F2915085
:1011B000E1F684E0089582E0089583E0089581E0F7
:1011C0000895E8EDF0E080818E7F80831092E20048
:1011D0001092DA001092E100A0EEB0E08C918160F4
:1011E0008C9380818F77808319BCA7EDB0E08C91C0
:1011F0008E7F8C9380818F7E808310927F010895F3
:10120000EF92FF920F931F93CF937C018B010E946B
:10121000B008C82F811117C08091E80085FD0BC070
:101220008091E8008E778093E8000E94B0088823C0
:1012300099F3C82F08C0F70181917F018093F100D5
:101240000150110949F78C2FCF911F910F91FF90F9
:10125000EF900895982F9093E900242F762F50E077
:10126000891731F07091EC002091ED005091F00061
:1012700021FD06C09F5F973071F78093E9000895C4
:101280003091EB003E7F3093EB003091ED003D7FDD
:101290003093ED003091EB0031603093EB007093B0
:1012A000EC002093ED005093F0002091EE0027FD1C
:1012B000E1CF0895CF92DF92EF92FF920F931F93A9
:1012C000CF93DF93C8EDD0E088818F7E8883E7EDF0
:1012D000F0E080818160808384E082BF81E0809340
:1012E0007F0188818E7F888302EE10E0F8011082F2
:1012F0001092DA0081EEC82ED12CF601108288817E
:101300008F77888388818068888388818F7D8883B0
:1013100019BC1092AA0110927E011092A90110929C
:101320007D0190EEE92EF12CF70180818B7F808387
:1013300088818160888342E060E080E00E942A0921
:10134000F60180818E7F8083F801808181608083B7
:10135000808188608083F70180818E7F808388818F
:1013600080618883DF91CF911F910F91FF90EF9063
:10137000DF90CF900895CF93DF9300D000D00F92ED
:10138000CDB7DEB719828A836B834C832D8324E625
:1013900030E045E050E0BE016F5F7F4F84E10E9486
:1013A00025270F900F900F900F900F90DF91CF9106
:1013B000089580913802811110C08091D800806119
:1013C0008093D8008AE18A95F1F700C09091D90006
:1013D000917082E0891B8093380281E090913802FD
:1013E000913009F080E00895CF93DF93D82FC92F73
:1013F00081E08093E9008FEF9091E800815095FDA6
:1014000006C095ED9A95F1F700008111F5CF809116
:10141000E80085FF16C050E040E068E070E08D2FE6
:101420009C2F0E9400098091E8008E778093E8004D
:1014300088E0ED2FFC2FABEAB1E001900D928A9588
:10144000E1F7DF91CF91089522E02093E9002FEF9B
:101450003091E800215035FD06C035ED3A95F1F7A1
:1014600000002111F5CF2091E80025FF0BC050E0CE
:1014700040E066E070E00E9400098091E8008E770D
:101480008093E8000895CF93DF9300D00F92CDB7FB
:10149000DEB79091AA01943019F589836A837B8322
:1014A00082E08093E9008FEF9091E800815095FDF4
:1014B00006C095ED9A95F1F700008111F5CF809166
:1014C000E80085FF0DC050E040E063E070E0CE0131
:1014D00001960E9400098091E8008E778093E800D1
:1014E0000F900F900F90DF91CF910895BC0183E092
:1014F0000C94430ABC0184E00C94430A6BEE7EEF2B
:1015000090E080E00E94092E60E082E090E00E947E
:10151000EB2D60E083E090E00E94EB2D1092E5015E
:101520001092E6011092E7011092E80160E084E079
:1015300090E00E94EB2D60E081E290E00E94EB2DB4
:1015400060E085E090E00E94EB2D60E086E090E0B6
:101550000E94EB2D6FEF87E090E00E94EB2D40E0C2
:1015600050E0BA0188E090E00E94FD2D60E08DE03F
:1015700090E00E94EB2D40E050E0BA0188E190E05D
:101580000E94FD2D60E087E190E00E94EB2D40E09D
:1015900050E0BA018CE190E00E94FD2D60E080E215
:1015A00090E00E94EB2D40E050E0BA0188E190E02D
:1015B0000E94FD2D40E050E0BA018FE090E00E94D3
:1015C000FD2D40E050E0BA0183E190E00C94FD2D48
:1015D000CF9384E090E00E94DD2DC82F81E290E05F
:1015E0000E94DD2D982F8C2FCF9108951F921FB64A
:1015F0001F9211248F939F93AF93BF938091BC014F
:10160000811113C08091B8019091B901A091BA01E4
:10161000B091BB014196A11DB11D8093B80190937B
:10162000B901A093BA01B093BB01BF91AF919F9153
:101630008F911F901FBE1F9018952FB7F89480911F
:10164000B8019091B901A091BA01B091BB012FBF2F
:101650000895AF92BF92CF92DF92EF92FF920F93D5
:101660001F93CF93DF9300D000D0CDB7DEB784E3D4
:10167000E82E81E0F82E97E4A92E92E0B92E00E042
:10168000CC24C394D12CD7018D917D01F894E82FFF
:10169000E295EF70F0E021A18F70A60102C0440F27
:1016A000551F8A95E2F7CA01922F982B91A392A118
:1016B0008095892382A3789400C0ECE3F1E030E0C8
:1016C00020E010E04191A42FA295AF70A05EB0E0A1
:1016D0008C9190E04F7002C0959587954A95E2F7FE
:1016E00080FD47C08C2D022E01C0880F0A94EAF7B6
:1016F000182B2F5F3F4F2630310521F7F701319727
:1017000080810E94F00450EA5A95F1F7D5018D913D
:101710005D01181781F1FD013197108381E0082BDD
:10172000B8E3EB16B1E0FB0609F0ADCF109146022D
:10173000002319F181E080933B020E941D0B9093DE
:101740003A02809339028091390290913A020E94C4
:1017500025080697B0F0A12FB0E0A25CBD4F84E051
:10176000E7E4F2E001900D928A95E1F710923B02D6
:1017700008C080E0BDCF80E0D2CF80913B028111D4
:10178000E2CF0E94D909182F60914602882309F4FC
:1017900053C01A8219821C821B82862F90E0BE01E0
:1017A0006F5F7F4F825C9D4F0E94E925811124C0AD
:1017B00080913D028F5F80933D028630D8F1E091A9
:1017C0003C02F0E0E25CFD4F84E0DF011D928A956F
:1017D000E9F7011101C0012F802F0F900F900F909A
:1017E0000F90DF91CF911F910F91FF90EF90DF90BD
:1017F000CF90BF90AF90089510923D02E0913C02CF
:10180000F0E0BF01625C7D4FDE0111969E012B5F0F
:101810003F4F10E0FB014191BF019D91491731F00D
:10182000AF0141505109FA019083182FA217B30755
:1018300089F7CFCF10E0CDCF70E0625C7D4F809113
:101840003C0290E0825C9D4F0E941D26C2CF0E9408
:101850001D0B2091330230913402232B21F0809311
:101860002F02909330022091350230913602232BC3
:1018700021F080932D0290932E0281E392E00C944C
:101880003106CF93C82F882309F44EC08CEF8C0FFC
:10189000813A90F4E4E7F1E08AE791E02191C21700
:1018A000E9F18E179F07D1F76C2F82E791E00E9434
:1018B000EB07CF910C94A70780E28C0F883068F477
:1018C000C77021E030E001C0220FCA95EAF780918D
:1018D0005102822B80935102ECCF8BE58C0F833029
:1018E00038F42C2F2452330BC901CF910C944006AD
:1018F000E8E5EC0FE73150F4F0E0EE0FFF1FEE5B90
:10190000FE4F80819181CF910C945606CD3E60F0C0
:101910008C2F0E948005CF910C94270C8C2F0E9455
:1019200094070E94A707C0CFCF910895EF920F931D
:101930001F93CF93DF93D82FC62F122F9091510270
:10194000909352029272B9F4442319F081EE0E94EE
:10195000410C112319F086EE0E94410C8D2F0E943C
:10196000410C8091520280935102DF91CF911F91DF
:101970000F91EF90089510925102002319F081EE1B
:101980000E94410CEE2019F086EE0E94410C8C2F33
:10199000E6CF882399F19CEF980F913A20F40E94AA
:1019A00094070C94A70790E2980F983088F48770FA
:1019B00021E030E0A90102C0440F551F8A95E2F7EB
:1019C000CA01809590915102892380935102E9CFF9
:1019D0009BE5980F933020F490E080E00C94400653
:1019E00098E5980F973120F490E080E00C9456062B
:1019F0008D3E20F00E94C5050C94270C089590E0C0
:101A000080E00E94400690E080E00E94560610921E
:101A1000EE011092DB010E94A70786E0E1E3F2E00D
:101A2000DF011D928A95E9F70C94270CE4E7F1E0B9
:101A300086E0DF011D928A95E9F70C94FF0C109265
:101A400051020C94160D1F93CF93DF93CDB7DEB7E1
:101A5000AA970FB6F894DEBF0FBECDBF80E891E025
:101A6000FC0101962091F100208321E08838920743
:101A7000B9F780918101893009F456C0C8F48230E9
:101A800009F4B1C0833009F480C0813071F18091D4
:101A9000E80083FF78C280918001909181019A30A3
:101AA00008F071C2E92FF0E0ED5CF14D0C94D72DF8
:101AB0008A3009F487C08B3051F7809180018132E0
:101AC00031F78091840190918501892B01F78091F4
:101AD000E800877F8093E8000E949108809182014E
:101AE00080930B010E941F0DD2CF80918001813A1B
:101AF00071F68091E800877F8093E80080918401EF
:101B000090918501892B61F468E08BEA91E070E0A7
:101B10000E9437088091E8008B778093E800B7CF68
:101B200060E090E080E0F3CF80918001813209F0A5
:101B3000AECF8091840190918501029708F0A7CFE4
:101B40008091E800877F8093E8008091E80082FF21
:101B500017C09091F3008091F200029729F48091D0
:101B6000F1008B7F813021F48091F1008093B301EB
:101B70008091E8008B778093E8000E94910887CFDE
:101B80008091AA018111E1CF82CF80918001813AB9
:101B900009F07DCF8091840190918501892B09F016
:101BA00076CF8091E800877F8093E8008091E800FD
:101BB00080FFFCCF80910B018093F1008091E800C1
:101BC0008E77D9CF80918001813209F060CF8091EA
:101BD000E800877F8093E8000E949108809183014C
:101BE00080937C0154CF80918001813A09F04FCFDE
:101BF0008091E800877F8093E8008091E80080FF73
:101C0000FCCF80917C01D8CF803899F0823809F0E0
:101C1000BAC1809184018F70873008F0B4C180937D
:101C2000E9008091EB0085FB882780F91092E9009C
:101C300006C080917D019091A901911182609091DF
:101C4000E800977F9093E8008093F1001092F100F4
:101C50008091E8008E7793C1882309F481C1823096
:101C600009F091C180918201811184C18091840128
:101C70008F702FEF280F263008F085C18093E90080
:101C80002091EB0020FF76C1933031F48091EB007E
:101C900080628093EB006EC19091EB009061909315
:101CA000EB0021E030E001C0220F8A95EAF7209393
:101CB000EA001092EA008091EB008860EACF81117F
:101CC00062C1109182011F778091E3008078812B9F
:101CD0008093E3008091E800877F8093E8000E9472
:101CE00091088091E80080FFFCCF8091E30080683C
:101CF0008093E30082E0111183E08093AA0143C145
:101D00008058823008F03FC1409182015091830198
:101D10004C3D83E0580799F583E08A838AE2898302
:101D20004FB7F894DE01139620E03EE051E2E32F36
:101D3000F0E050935700849120FF03C082958F708C
:101D40003F5F8F708A30C8F0895C90E08D939D93DF
:101D50002F5F243161F74FBF8091E800877F809328
:101D6000E8006AE270E0CE0101960E943708809197
:101D7000E8008B778093E80006C1805DE6CF209174
:101D8000840130918501852F99278330910509F1D0
:101D900060F48130910509F472C0029709F0F3C034
:101DA0008BE390E0E5E3F2E029C08132910509F48C
:101DB0005AC0829709F0E7C02115310509F469C0BE
:101DC0002130310509F0DFC08BE790E0EAE7F1E070
:101DD00015C0CA0199274130B1F18230910509F44B
:101DE0003AC0892B09F0CFC0E2EAF2E0E4918E2FED
:101DF00090E0E2EAF2E0009709F4C5C02091E80023
:101E0000277F2093E8002091860130918701821777
:101E1000930708F49C0140E02115310509F03EC00C
:101E200041113CC08091E80082FDA1CF8091AA01C0
:101E3000882309F49CCF853009F499CF8091E8007C
:101E400083FFF0CF94CFE0E9F2E0E4918E2F90E0B1
:101E5000E0E9F2E0D0CFE2E8F2E0E4918E2F90E00A
:101E6000E2E8F2E0C8CF2115310571F021303105EB
:101E700009F089C089E090E0E0E6F2E0BFCF82E1BE
:101E800090E0E0E7F2E0BACF89E090E0E7E4F2E04A
:101E9000B5CF80E490E0E5EFF1E0B0CF8091AA010A
:101EA000882309F464CF853009F461CF8091E8007C
:101EB00083FD5DCF8091E80082FDB4CF8091E80082
:101EC00080FFAACF9091F3008091F2002115310597
:101ED00019F08830910550F041E0089709F040E092
:101EE0008091E8008E778093E80096CF44914093EC
:101EF000F1003196215031090196E8CF803809F080
:101F000042C08091E800877F8093E80080917E0145
:101F10008093F1009DCE811136C010918201123064
:101F200090F58091E800877F8093E80010937E0110
:101F30000E949108112311F084E005C08091E30014
:101F400087FDFACF81E08093AA0142E061EC81E055
:101F50000E942A0942E261EC82E00E942A0913C031
:101F600080918201813079F481E0933009F080E042
:101F70008093A9011092E9008091E800877F809307
:101F8000E8000E9491088091E80083FF0AC08091D8
:101F9000E800877F8093E8008091EB008062809367
:101FA000EB00AA960FB6F894DEBF0FBECDBFDF914F
:101FB000CF911F9108956093E5017093E60180939E
:101FC000E7019093E8010C94FF0C6093E901709392
:101FD000EA018093EB019093EC010C94FF0C0F93BA
:101FE0001F93CF93DF9300D000D0CDB7DEB741E091
:101FF00050E060E070E004C0440F551F661F771F7B
:102000008A95D2F78091E9019091EA01A091EB01C4
:10201000B091EC018A019B01082B192B2A2B3B2B39
:1020200009831A832B833C83C901B8010F900F9059
:102030000F900F90DF91CF911F910F910C94E50FAE
:102040000F931F93CF93DF9300D000D0CDB7DEB7AF
:1020500041E050E060E070E004C0440F551F661F8F
:10206000771F8A95D2F7409550956095709580912D
:10207000E9019091EA01A091EB01B091EC018A0194
:102080009B01082319232A233B2309831A832B83CB
:102090003C83C901B8010F900F900F900F90DF9112
:1020A000CF911F910F910C94E50F9091ED018095C8
:1020B00089238093ED01282F277071F4282F082E93
:1020C000000C330B9217130639F08595859585958D
:1020D0000E9420101092ED010895CF93C82F81E047
:1020E0000E947606882349F083E00E9476068823C2
:1020F00021F084E0CF910C94EF0FC11104C084E073
:10210000CF910C942010CF9108950F931F93CF93EC
:10211000DF9300D000D0CDB7DEB741E050E060E003
:1021200070E004C0440F551F661F771F8A95D2F7D1
:102130008091E9019091EA01A091EB01B091EC014D
:102140008A019B01082719272A273B2709831A831D
:102150002B833C83C901B8010F900F900F900F9013
:10216000DF91CF911F910F910C94E50FFF920F9388
:102170001F93CF93DF93C62FD42F122F8823A9F05C
:102180006093DC010E941D0B90937B0180937A0188
:10219000C77081E001C0880FCA95EAF7DF91CF913F
:1021A0001F910F91FF900C94D4078091DC0168136C
:1021B00037C080917A0190917B010E9425088C3272
:1021C000914070F500E20D0FCD17A9F0C770FF2404
:1021D000F3948F2D01C0880FCA95EAF70E94DE079D
:1021E000083048F48D2F877001C0FF0C8A95EAF7FC
:1021F0008F2D0E94D407812F0E94410C812F0E94B5
:10220000C90C0830A0F4D77081E001C0880FDA95BE
:10221000EAF7DF91CF911F910F91FF900C94DE07A9
:10222000C77081E001C0880FCA95EAF7F2CFDF914D
:10223000CF911F910F91FF9008958F929F92AF922F
:10224000BF92CF92DF92EF92FF920F931F93CF93A3
:10225000DF93CDB7DEB766970FB6F894DEBF0FBE3B
:10226000CDBF6C01FC019081818123813481232BBE
:1022700029F089238F3F11F00C940F1C66960FB63E
:10228000F894DEBF0FBECDBFDF91CF911F910F91AC
:10229000FF90EF90DF90CF90BF90AF909F908F9086
:1022A00008958823D1F18091510280935202827265
:1022B00039F580EE0E94410C8AE20E94410C809127
:1022C0005202809351028091ED018770B9F2F601BC
:1022D0008281882399F282E066960FB6F894DEBF79
:1022E0000FBECDBFDF91CF911F910F91FF90EF9067
:1022F000DF90CF90BF90AF909F908F900C9455102F
:102300001092510280EE0E94410C8CE40E94410C1C
:102310008091520280935102D6CF0E94160DD3CFE6
:102320008823D9F3E12C00E020E040E06CE470E089
:102330008AE290E00E94960CC6CF882371F38091C8
:10234000510281FF04C085E00E94EF0FBCCF83E003
:102350000E948510B8CF882301F38091510281FF3C
:10236000B2CFF1CF882309F4AECF83EE0E94410CA7
:102370008EE10E94410C0E941F0DA5CF882309F415
:10238000A2CF83EE0E94410C8FE10E94410C0E947B
:102390001F0D99CF882309F496CF83EE0E94410C3C
:1023A00080E20E94410C0E941F0D8DCF882309F40A
:1023B0008ACF83EE0E94410C81E20E94410C0E9470
:1023C0001F0D81CF882309F47ECF83EE0E94410C3C
:1023D00082E20E94410C0E941F0D75CF882309F4F0
:1023E00072CF83EE0E94410C83E20E94410C0E9456
:1023F0001F0D69CF882309F466CF83EE0E94410C3C
:1024000084E20E94410C0E941F0D5DCF882309F4D5
:102410005ACF83EE0E94410C85E20E94410C0E943B
:102420001F0D51CF882309F44ECF83EE0E94410C3B
:1024300080E50E94410C0E941F0D45CF882309F4BE
:1024400042CF83EE0E94410C81E50E94410C0E9424
:102450001F0D39CF882309F436CF83EE0E94410C3B
:1024600082E50E94410C0E941F0D2DCF882309F4A4
:102470002ACF83EE0E94410C8FE40E94410C0E94FF
:102480001F0D21CF882309F41ECF81EE0E94410C3D
:1024900083EE0E94410C8FE00E94410C0E941F0DB0
:1024A00012CF882309F40FCF81EE0E94410C83EEF6
:1024B0000E94410C88E00E94410C0E941F0D03CF36
:1024C000882309F400CF83EE0E94410C82E40E942D
:1024D000410C0E941F0DF7CE882309F4F4CE81EE43
:1024E0000E94410C83EE0E94410C8BE00E94410C43
:1024F0000E941F0DE8CE882309F4E5CE81EE0E94EC
:10250000410C83EE0E94410C89E10E94410C0E9423
:102510001F0DD9CE882309F4D6CE83EE0E94410C3C
:1025200089E00E94410C0E941F0DCDCE882309F442
:10253000CACE81EE0E94410C83EE0E94410C87E0DE
:102540000E94410C0E941F0DBECE882309F4BBCE11
:1025500081EE0E94410C83EE0E94410C86E10E94B4
:10256000410C0E941F0DAFCE882309F4ACCE83EE40
:102570000E94410C85E10E94410C0E941F0DA3CED8
:10258000882309F4A0CE81EE0E94410C83EE0E94C4
:10259000410C84E00E94410C0E941F0D94CE8823C0
:1025A00009F491CE83EE0E94410C88E30E94410C15
:1025B0000E941F0D88CE882309F485CE83EE0E94E9
:1025C000410C8BE20E94410C0E941F0D7CCE88239F
:1025D00009F479CE8091510280935202827281F483
:1025E00081EE0E94410C83EE0E94410C80E00E942B
:1025F000410C80915202809351020E941F0D63CEC4
:102600001092510281EE0E94410C83EE0E94410C17
:1026100084E1EDCF882359F081EE0E94410C83EED6
:102620000E94410C8BE10E94410C0E941F0DF6019B
:102630008281882309F447CE83EE0E94410C8BE40B
:102640000E94410C0E941F0D3ECE882309F43BCE10
:1026500083EE0E94410C8EE40E94410C0E941F0DEB
:1026600032CE882309F42FCE81EE0E94410C83EEF6
:102670000E94410C86E00E94410C0E941F0D81EED9
:102680000E94410C83EE0E94410C85E10E94410CA6
:102690000E941F0D18CE882359F081EE0E94410C34
:1026A00083EE0E94410C8CE20E94410C0E941F0D9F
:1026B000F6018281882309F430CEE12C00E020E08D
:1026C00040E06FE270E084E390E00E94960CFBCD66
:1026D000882309F422CEEE24E39400E021E040E0D8
:1026E00061E270E080E290E00E94960CECCD8823DD
:1026F00009F413CEE12C01E020E040E060E270E05C
:102700008DE290E00E94960CDECD882309F405CE80
:10271000E12C01E020E041E064E370E08FE190E033
:102720000E94960CD0CD882309F4F7CDE12C01E06E
:1027300020E041E06EE270E08DE290E00E94960CB5
:10274000C2CD882309F4E9CDE12C00E020E041E08E
:102750006EE270E08EE190E00E94960CB4CD88238A
:1027600009F4DBCDEE24E39400E020E041E063E2F5
:1027700070E082E290E00E94960CA5CD882309F4D7
:10278000CCCDEE24E39400E020E040E06FE170E087
:1027900080E390E00E94960C96CD882309F4BDCD8D
:1027A000E12C01E020E040E068E370E088E390E0A5
:1027B0000E94960C88CD882309F4AFCDE12C01E06E
:1027C00020E041E06FE270E080E390E00E94960C30
:1027D0007ACD882309F4A1CDEE24E39400E020E033
:1027E00041E065E370E084E290E00E94960C6BCDDE
:1027F000882309F492CDE12C01E020E041E067E27A
:1028000070E087E290E00E94960C5DCD882309F489
:1028100084CDEE24E39400E020E040E06CE170E041
:1028200084E690E00E94960C4ECD882309F475CD85
:10283000EE24E39400E020E041E06CE070E084E608
:1028400090E00E94960C3FCD882309F466CDEE24DB
:10285000E39400E020E041E068E070E085E290E091
:102860000E94960C30CD882309F457CDE12C01E06D
:1028700020E041E061E270E086E290E00E94960C88
:1028800022CD882309F449CDE12C01E020E041E08C
:1028900065E370E083E290E00E94960C14CD8823FB
:1028A00009F43BCDE12C00E021E040E065E370E07D
:1028B0008EE190E00E94960C06CD882309F42DCD80
:1028C000EE24E39400E021E040E064E370E084E380
:1028D00090E00E94960CF7CC882309F41ECDEE24DC
:1028E000E39400E021E040E062E370E082E390E006
:1028F0000E94960CE8CC882309F40FCDEE24E394D3
:1029000000E021E040E06FE270E08FE290E00E94A2
:10291000960CD9CC882309F400CDEE24E39400E092
:1029200021E040E060E370E080E390E00E94960CDC
:10293000CACC882309F4F1CCE12C00E020E040E08F
:1029400066E070E086E090E00E94960C20E040E0B7
:1029500064E070E08CE090E00E94960C20E040E0A3
:1029600067E170E087E190E00E94960CACCC882390
:1029700009F4D3CCE12C00E020E040E066E070E018
:1029800086E090E00E94960C20E040E064E070E079
:102990008CE090E00E94960C20E040E063E170E063
:1029A00083E190E00E94960C8ECC882309F4B5CC8C
:1029B000E12C00E020E040E066E070E086E090E09E
:1029C0000E94960C20E040E064E070E08CE090E033
:1029D0000E94960C20E040E066E170E086E190E025
:1029E0000E94960C70CC882309F497CCE12C00E06F
:1029F00020E040E066E070E086E090E00E94960C07
:102A000020E040E064E070E08CE090E00E94960CF2
:102A100020E040E06AE170E08AE190E00E94960CDC
:102A200052CC882309F479CCE12C00E020E040E08E
:102A300066E070E086E090E00E94960C20E040E0C6
:102A40006CE070E08CE090E00E94960C20E041E0A9
:102A500065E070E085E090E00E94960C34CC88231D
:102A600009F45BCCE12C00E020E040E069E170E09B
:102A700089E190E00E94960C20E040E064E070E084
:102A80008CE090E00E94960C20E040E067E170E06E
:102A900087E190E00E94960C16CC882309F43DCC87
:102AA000E12C00E020E040E069E170E089E190E0A5
:102AB0000E94960C20E040E064E070E08CE090E042
:102AC0000E94960C20E040E063E170E083E190E03A
:102AD0000E94960CF8CB882309F41FCCE12C00E06F
:102AE00020E040E069E170E089E190E00E94960C0E
:102AF00020E040E064E070E08CE090E00E94960C02
:102B000020E040E066E170E086E190E00E94960CF3
:102B1000DACB882309F401CCE12C00E020E040E08E
:102B200069E170E089E190E00E94960C20E040E0CD
:102B300064E070E08CE090E00E94960C20E040E0C1
:102B40006AE170E08AE190E00E94960CBCCB882399
:102B500009F4E3CBE12C00E020E040E069E170E023
:102B600089E190E00E94960C20E040E06CE070E08B
:102B70008CE090E00E94960C20E041E065E070E07F
:102B800085E090E00E94960C9ECB882309F4C5CB8B
:102B9000E12C00E020E040E067E070E087E090E0BA
:102BA0000E94960C20E040E064E070E08CE090E051
:102BB0000E94960C20E040E067E170E087E190E041
:102BC0000E94960C80CB882309F4A7CBE12C00E06F
:102BD00020E040E067E070E087E090E00E94960C23
:102BE00020E040E064E070E08CE090E00E94960C11
:102BF00020E040E063E170E083E190E00E94960C09
:102C000062CB882309F489CBE12C00E020E040E08E
:102C100067E070E087E090E00E94960C20E040E0E2
:102C200064E070E08CE090E00E94960C20E040E0D0
:102C300066E170E086E190E00E94960C44CB882328
:102C400009F46BCBE12C00E020E040E067E070E0AD
:102C500087E090E00E94960C20E040E064E070E0A5
:102C60008CE090E00E94960C20E040E06AE170E089
:102C70008AE190E00E94960C26CB882309F44DCB84
:102C8000E12C00E020E040E067E070E087E090E0C9
:102C90000E94960C20E040E06CE070E08CE090E058
:102CA0000E94960C20E041E065E070E085E090E055
:102CB0000E94960C08CB882309F42FCBEE24E394D2
:102CC00000E021E040E060E370E080E390E00E94FB
:102CD000960CE12C20E040E060E170E080E190E0C3
:102CE0000E94960CF0CA882309F417CBEE24E394D3
:102CF00000E021E040E06FE270E08FE290E00E94AF
:102D0000960CE12C20E040E060E170E080E190E092
:102D10000E94960CD8CA882309F4FFCAEE24E394D3
:102D200000E020E040E060E370E086E390E00E9495
:102D3000960C20E040E060E370E086E090E00E94C6
:102D4000960CE12C20E040E070E060E08EE190E045
:102D50000E94960CB8CA882309F4DFCAEE24E394D3
:102D600000E020E040E06FE270E086E390E00E9447
:102D7000960C20E040E06FE270E086E090E00E9478
:102D8000960CE12C20E040E070E060E08FE190E004
:102D90000E94960C98CA882309F495CA83EE0E9473
:102DA000410C84E40E94410C0E941F0D8CCA8823B0
:102DB00009F489CA80EE0E94410C83EE0E94410C06
:102DC00085E00E94410C0E941F0D7DCA882309F4F2
:102DD0007ACA83EE0E94410C87E00E94410C0E9457
:102DE0001F0D71CA882309F46ECA80EE0E94410C3F
:102DF00083EE0E94410C86E10E94410C0E941F0D4F
:102E000062CA882309F45FCA80EE0E94410C83EEF7
:102E10000E94410C88E00E94410C0E941F0D53CA81
:102E2000882309F450CA83EE0E94410C81E40E9479
:102E3000410C0E941F0D47CA882309F444CA80EE42
:102E40000E94410C83EE0E94410C80E10E94410CE3
:102E50000E941F0D38CA882309F435CA81EE0E94EA
:102E6000410C83EE0E94410C87E10E94410C0E94BC
:102E70001F0D29CA882309F426CA83EE0E94410C3B
:102E800087E10E94410C0E941F0D1DCA882309F48E
:102E90001ACA83EE0E94410C8AE30E94410C0E94F0
:102EA0001F0D11CA882309F40ECA83EE0E94410C3B
:102EB0008BE30E94410C0E941F0D05CA882309F470
:102EC00002CA83EE0E94410C83E40E94410C0E94DE
:102ED0001F0DF9C9882309F4F6C980EE0E94410C40
:102EE00083EE0E94410C8AE10E94410C0E941F0D5A
:102EF000EAC9882309F4E7C961E083E090E00E9411
:102F0000EB2D61E070E080E090E00E94DB0FDBC918
:102F1000882321F082E00E94EF0FD5C982E00E9451
:102F20002010D1C9882339F083E00E94EF0F81E09F
:102F30000E946D10C8C983E00E94201080E00E94AA
:102F40006D10C1C9882321F086E00E94EF0FBBC934
:102F500086E00E942010B7C9882351F081E00E94CA
:102F6000EF0F81E00E946D1085E00E942010ABC938
:102F700081E00E94201080E0F5CF26E241EE61EE74
:102F80000E94B610A0C927E245EE65EE0E94B61079
:102F90009AC926E241EE60EE0E94B61094C929E279
:102FA00040E062EE0E94B6108EC927E245EE66EE62
:102FB0000E94B61088C928E241E065EE0E94B61072
:102FC00082C998012B5F3C452930310508F4F1C3D3
:102FD00006315CE5150709F0C8C0909151028823BD
:102FE00009F4B9C0892F8A7A91E009F490E09093AE
:102FF000DD0169E2811165E382E791E00E94EB0760
:103000000E94A70760C9F801E350FC4580914F0278
:103010008160E331F105B8F4E35CF14D0C94D72DF8
:10302000C8018B5F9C45099708F0D3C3F801EC5F9A
:10303000FC45E830F10590F4E05BF14D0C94D72DA0
:1030400080914F02826080934F02C3C380914F02F0
:103050008460F9CF80914F028860F5CF8091500253
:10306000816080935002B5C3809150028260F9CF95
:1030700080914F028061E7CF80914F028062E3CF61
:1030800080914F028064DFCF0E941F0D80914F021C
:103090008068D9CF80914F028C60D5CF809150024B
:1030A0008360DFCF80914F028E7FCDCF80914F0222
:1030B0008D7FC9CF80914F028B7FC5CF80914F020A
:1030C000877FC1CF809150028E7FCBCF80915002FD
:1030D0008D7FC7CF80914F028F7EB5CF80914F02F9
:1030E0008F7DB1CF80914F028F7BADCF0E941F0D9E
:1030F00080914F028F77A7CF80914F02837FA3CF1C
:10310000809150028C7FADCF80914F0282FB992736
:1031100090F921E0922790FB82F990FB83F993CFFD
:1031200080915002982F909591708E7F892B90FB03
:1031300081F997CF0E941F0D90914F02892F97FB25
:1031400087F9805880CF61E08EE090E00E94EB2DFF
:1031500040C360E0F9CF8091DD01811104C089E2B4
:103160000E9494074DCF85E3FBCF882349F00115DA
:103170006CE5160709F443C00F3D1C4509F45BC01C
:10318000F601E080F180882309F458C0C7010E944D
:10319000E506182F682FC7010E948E06B701812F00
:1031A0000E944E038C01F6019280858082942FE06C
:1031B00082228091ED018770A1F0B92C992091F0C5
:1031C000812F807F803421F080E2800F883048F0AA
:1031D00082E00E9455108091ED018770BB24B3946A
:1031E0008111B12C812F82958F70E82EF12C8C30BB
:1031F00008F05FC0F701E85AF14D0C94D72D0E94FA
:103200001F0D8FEF94E3ECE081509040E040E1F738
:1032100000C0000087E797E79093010880930008BB
:1032200088E19AE00FB6F894A895809360000FBEED
:1032300090936000FFCF0E947E0A45C8C7010E949C
:10324000BC06182FABCFF12FFF70AF2E107F19F0F7
:10325000A29490EFA9229920C9F0AA2069F080E2F7
:10326000800F883010F001110BC0809151028A2923
:10327000809351020E94A707802F0E94410C19C021
:103280008091EE018A298093EE01F4CF802F0E9475
:10329000C90CAA2071F0A09480E2800F883010F051
:1032A00001113DC0809151028A21809351020E94F8
:1032B000A707E8E0EE1AF108F4E0EF16F10410F4C5
:1032C0000E942506BB20A9F08091ED0180FD11C070
:1032D000F60112828595859585950E94EF0FC601AE
:1032E0000E941D118091ED018595859585950E941F
:1032F000201060E0C60166960FB6F894DEBF0FBEE0
:10330000CDBFDF91CF911F910F91FF90EF90DF9094
:10331000CF90BF90AF909F908F900C942707809193
:10332000EE018A218093EE01C2CF212F2F70A22EB1
:10333000107F103219F0A29480EFA822002339F0F8
:10334000013031F1992089F1882041F195CF992000
:1033500091F09091DE018A2D892B811003C00E948B
:10336000D407A7CF31E08312FACF981709F4A1CF81
:103370008093DE019ECF811006C00E94A1078A2D96
:103380000E94DE0796CF41E0841609F492CFF5CF74
:10339000992031F055E0581508F48BCF8A2DDFCFF6
:1033A00064E0681508F485CFEACF882041F309333B
:1033B00049F47FEF87EE93E0715080409040E1F751
:1033C00000C00000802F0E94C90C73CF812F86950A
:1033D0008695837061F0813009F06BCFC8019370DE
:1033E000911002C090E080E00E94560662CFC801B2
:1033F0009370911002C090E080E00E94400659CF87
:10340000802F9920C1F10E948005015F110B0830C7
:103410001105B8F581E090E001C0880F0A95EAF740
:1034200026E0EFEDF1E0DE01179601900D922A956E
:10343000E1F72091E00136E0FE013796DE011D96AE
:1034400001900D923A95E1F79920C1F0282B2E8733
:1034500086E0FE013D96DE01119601900D928A955F
:10346000E1F786E0FE013196AFEDB1E001900D92FB
:103470008A95E1F71ECF0E94C505C7CF8095282306
:10348000E6CF0E94270C15CF812F837009F07AC0F8
:1034900091100FCF202F229526952770220F220FF3
:1034A000402F4F7050E070E060E0022E04C0440FE7
:1034B000551F661F771F0A94D2F780E090E0DC0169
:1034C00004FF0FC08FE090E0A0E0B0E004C0880FE0
:1034D000991FAA1FBB1F2A95D2F780959095A0959A
:1034E000B095E12FE695E695E370E23059F1E330CF
:1034F00009F441C00091E5011091E6012091E70136
:103500003091E801E13099F0842B952BA62BB72B55
:10351000AC01BD0140235123622373234B8B5C8B91
:103520006D8B7E8BCB01BA010E94DB0FC2CE042BC8
:10353000152B262B372BB901A801482B592B6A2BA9
:103540007B2BECCF842B952BA62BB72B4091E50141
:103550005091E6016091E7017091E8018C019D01B5
:1035600004271527262737270B8B1C8B2D8B3E8B8B
:10357000C901B801D9CF8A019B01082B192B2A2B2D
:103580003B2BF2CF992009F44DC010FF92CE202F93
:10359000229526952770220F220F402F4F7050E062
:1035A00070E060E0022E04C0440F551F661F771FB5
:1035B0000A94D2F780E090E0DC0104FF0FC08FE0B6
:1035C00090E0A0E0B0E004C0880F991FAA1FBB1FC5
:1035D0002A95D2F780959095A095B095E12FE69524
:1035E000E695E370E23061F1E33009F444C0009104
:1035F000E9011091EA012091EB013091EC01E130F9
:10360000A1F0842B952BA62BB72BAC01BD01402339
:103610005123622373234B8B5C8B6D8B7E8BCB0191
:10362000BA0126C011FF45CEB2CF042B152B262B95
:10363000372BB901A801482B592B6A2B7B2BEBCFD9
:10364000842B952BA62BB72B4091E9015091EA01D1
:103650006091EB017091EC018C019D01042715270D
:10366000262737270B8B1C8B2D8B3E8BC901B8016E
:103670000E94E50F1ECE8A019B01082B192B2A2BD5
:103680003B2BF0CF1F70992029F0812F0E94EF0F64
:10369000802F65CE802F0E94DE07812F0E94201090
:1036A00008CE023FB9F160F4003FE9F0013F59F163
:1036B000992009F454C08110DFCD812F8F7127C06C
:1036C000033F69F1043FA1F79920F1F11F71812FA8
:1036D0000E94EF0F58E0159FC00111248360809372
:1036E000ED01812F14C0992049F024E0281508F439
:1036F000E0CD812F8F710E948510DBCD35E038152C
:1037000008F4D7CDF6CF812F8F71992039F20E941E
:10371000EF0FCFCD812F8F719920C9F3BFCF60E01C
:1037200070E0CB01992009F4A3CF1F7181E090E0F4
:10373000A0E0B0E0AC01BD0104C0440F551F661FFE
:10374000771F1A95D2F767CF81E00E94551061E08C
:10375000681508F0AECD82E00E945510AACD811008
:1037600026CE812F8F719ACF043FFCE51F0709F405
:1037700010CC08F03FC0093D3CE5130709F403CC29
:103780000A3D4CE5140709F416CC083D5CE5150725
:1037900009F4F3CB882309F41BCC1092DC01063129
:1037A000FCE51F0708F00DCC02302CE5120708F4E9
:1037B000DECC0E94E80A9093500280934F020631BB
:1037C0003CE5130708F02CCC02304CE5140708F058
:1037D0001ACC60914F021091500284E090E00E9458
:1037E000EB2D612F81E290E00E94EB2D0E941F0DD6
:1037F0000C946311063F6CE5160709F4D0CB073F24
:103800007CE5170709F4D1CB053F9CE5190711F6B4
:1038100027E245EE64EE0E94B6100C94631161E05D
:10382000C6010E9427078C01F6018281F801E45C41
:10383000FC45E83CF10508F097CFEC59F14D0C94AC
:10384000D72D1F93CF93DF9380912602807FA9F419
:1038500080912302882389F08091F001C091EF01CB
:103860007091210260912202A0912402B091250260
:10387000D62FD72316E0C81304C0DF91CF911F9134
:10388000089590E0109711F0DF3F19F401968770CA
:10389000F2CF189F9001199F300D1124F901EF50BC
:1038A000FE4F41816413F2CF40814713EFCF428135
:1038B0004111ECCF438154814A1B5B0B4C32514088
:1038C00028F7809126028F70806180932602F9018B
:1038D000EA50FE4F80818F708061808381E292E0A8
:1038E0000E941D11DF91CF911F910C946C06AF9235
:1038F000BF92CF92DF92EF92FF920F931F93CF93DD
:10390000DF93CDB7DEB72B970FB6F894DEBF0FBEAF
:10391000CDBF8C0185E0F801DE01179601900D9274
:103920008A95E1F7F801E28030812181C380D4805B
:1039300081E2A82E82E0B82E9091210240912202CD
:1039400060912402709125026115710529F0892F7B
:1039500084238F3F09F01DC1EE2009F428C18F8117
:1039600098850E946707F82E882309F420C186E015
:10397000F801A1E2B2E001900D928A95E1F7809101
:103980002102909122020E945B070E94211C1DC00F
:1039900080912602582F507F6C32714008F078C019
:1039A000511194C0FE2C241322C0931320C0E110A7
:1039B0001EC08F7080618093260281E292E00E9497
:1039C0001D1180912602F80185838F2D2B960FB64D
:1039D000F894DEBF0FBECDBFDF91CF911F910F9145
:1039E000FF90EF90DF90CF90BF90AF900895CD28DB
:1039F00029F0822F83238F3F09F065C080E0F82FE4
:103A0000F170DF2EE091F0014091EF0156E080FD72
:103A10001CC0EE20D1F280912602816080932602A4
:103A2000F12CD3CF8E2F90E05E9FF0011124EF5048
:103A3000FE4F6181261306C06081361303C0628188
:103A40006E11E7CF0196E82FE770E413EBCF8F817B
:103A500098850E945B07292F22952F70903260F085
:103A6000225F2F70223078F49F7051F0F801958119
:103A7000907F31F4D12C0AC09F7011F08823D1F3CC
:103A8000805E8830B8F3C8010E941D11FD2C9DCFC7
:103A900051114DC081E292E00E941D1186E0F501B6
:103AA00011928A95E9F7BCCF8F8198850E946707AC
:103AB000811130C080912602816080932602C80166
:103AC0000E941D1182CF81E08E2599CF241306C05C
:103AD000931304C0F801EE2009F44EC08F8198853D
:103AE0000E946707882309F462C0EE2009F45FC0D2
:103AF00080912602803270F02091210230912202C2
:103B00003A8329831B82DD82CC828E83CE0101968B
:103B10000E941D1186E0F801A1E2B2E001900D9231
:103B20008A95E1F70E94211CFF24F3944ECF2413C1
:103B3000D5CF9313D3CFE110D1CFF8018583C8013E
:103B40000E941D1186E0F50111928A95E9F73DCF9B
:103B50002413AACF9313A8CF8091260280FD10C012
:103B6000982F907F69F0F8018583903F31F0982F6E
:103B7000907F905F8F70892B8583C8010E941D11F3
:103B800086E0F801A1E2B2E001900D928A95E1F79A
:103B90001CCFF0902302F601E61BF70BBF01F110DA
:103BA000F7CE6C32714070F6FE2CE110D1CFC80117
:103BB0000E941D11B9CF1F93CF93DF93CDB7DEB70E
:103BC00067970FB6F894DEBF0FBECDBF4B8B5C8BF3
:103BD000962F6D8B7E8B8F8B61111092EE011A8A5E
:103BE00085E0FE017396DE011D9601900D928A9587
:103BF000E1F79F8786E0FE013D96DE011796019072
:103C00000D928A95E1F7CE0107960E94771C8823D2
:103C100089F016E08091F0019091EF01891349C07D
:103C200067960FB6F894DEBF0FBECDBFDF91CF9180
:103C30001F91089586E0FE013796DE0111960190EE
:103C40000D928A95E1F78F8198852091EF0140913F
:103C5000F0016A857B85672BE1F289238F3FC9F2EA
:103C600030E0C9010196877099274817190671F449
:103C70000E941F0D1092EF011092F00186E0E1E228
:103C8000F2E0DF011D928A95E9F7C3CF96E0929F9B
:103C9000D001939FB00D1124AF50BE4FFE0131965D
:103CA00001900D929A95E1F78093EF010E946C06C6
:103CB000B0CF819FC00111248F509E4F0E94771C6E
:103CC000882309F4ADCF8091F00190E001968770D0
:103CD00099278093F0019ECF78941F921FB61F9270
:103CE00011248F939F93AF93BF938091B8019091CC
:103CF000B901A091BA01B091BB010196A11DB11DFE
:103D00008093B8019093B901A093BA01B093BB011D
:103D1000BF91AF919F918F911F901FBE1F901895DB
:103D2000CF92DF92EF92FF92CF93DF9300D000D03B
:103D3000CDB7DEB76B017C010E94D90981110EC09D
:103D40000E940508C61AD70AE80AF90AC092B40107
:103D5000D092B501E092B601F092B7010F900F90AA
:103D60000F900F90DF91CF91FF90EF90DF90CF9069
:103D70000895CF93DF9300D000D0CDB7DEB70E9477
:103D8000D909882341F00F900F900F900F90DF9189
:103D9000CF910C9405080E94050869837A838B8370
:103DA0009C838091B4019091B501A091B601B0912E
:103DB000B70129813A814B815C81280F391F4A1F45
:103DC0005B1FCA01B9010F900F900F900F90DF9108
:103DD000CF910895CDB7DEB7E7970FB6F894DEBF61
:103DE0000FBECDBF84B7877F84BF0FB6F894A89568
:103DF00080916000886180936000109260000FBE27
:103E000080E890E00FB6F894809361009093610091
:103E10000FBE85B7806885BF85B7806885BF89EE8E
:103E200097E090937101809370010E94E1080E94D5
:103E30005A098091E20084608093E2007894809136
:103E4000AA01882399F08091E9001091EC00179560
:103E5000112717958F70182B1092E9008091E800B8
:103E600083FD0E94230D1F701093E90082E084BD42
:103E700093E095BD9AEF97BD80936E001092B401C8
:103E80001092B5011092B6011092B7010E94D909A3
:103E900091E08927809300010E94D90981110E9435
:103EA000DD25809100018091000191E08927880F34
:103EB000880F8093460294E0981B90933C0284E91B
:103EC0000E94F00486E60E94F00487E90E94F00454
:103ED00086EC0E94F00484EF0E94F00485EF0E94BB
:103EE000F00486EF0E94F00487EF0E94F00481E363
:103EF0000E94F00483E30E94F00488E0E7E4F2E02B
:103F0000DF01282F1D922A95E9F7EEE3F2E0DF01A9
:103F10001D928A95E9F790E080E00E94E52D8B3EA6
:103F20009E4F11F00E947E0A0E94D909811102C0A1
:103F30000E94E32590E080E00E94E52D8B3E9E4F9D
:103F400011F00E947E0A82E090E00E94DD2D8093B5
:103F5000A0010E94E80A9093500280934F0283E0F0
:103F600090E00E94DD2D282F30E050E040E02CA7AB
:103F70003DA74EA75FA7CA01B9010E94DB0F0E94AF
:103F80004C2620E04AE260E080E00E94BB0981E02C
:103F900091E090932C0280932B02AE014F5F5F4F14
:103FA0005DA34CA3CE0103969FA38EA38091AA018B
:103FB00000E112E1853009F4E4C20E94290B81116D
:103FC0000E940508EEE3F2E0A1EAB1E010E000E0B3
:103FD000C02EE1908D918E1509F4E2C28E25D12C70
:103FE000FF24F394982F9F2109F4D5C20E94D90988
:103FF000882399F0D982CA82EF2081E009F480E019
:104000008B830E941D0B8160782F9D838C83498157
:104010005A816B81892F0E94DB1DF801EF55FE4FFD
:1040200080818F25808386E0E1E3F2E0DE01119656
:1040300001900D928A95E1F7C0903302D09034023E
:104040000091350210913602109233021092340220
:1040500010923502109236028C2D8D29FCA0EDA015
:104060008823B1F080912F02909130020E942508A0
:10407000E0913702F0E0EE0FFF1FE45EFE4F20817B
:1040800031812817390720F4C0923302D0923402CC
:10409000802F812BB1F080912D0290912E020E94F1
:1040A0002508E0913702F0E0EE0FFF1FEC5EFE4FB7
:1040B000208131812817390720F4009335021093AD
:1040C00036028091330290913402892B909135020F
:1040D000892B90913602892B11F00E94270C86E0E3
:1040E000EF2DFE2DA1E3B2E001900D928A95E1F74C
:1040F00086E0EFEDF1E0DE01539601900D928A9596
:10410000E1F74091E0014CA75091E1015CAB809157
:10411000E2018EAB9091E3019DABA091E401AFABC6
:1041200086E0FE017396AF2DBE2D01900D928A950B
:10413000E1F786E0EF2DFE2DDE01599601900D92FC
:104140008A95E1F70E94D909882309F45EC2198291
:1041500004E610E021E030E04F2D5E2D69EF84E1B0
:104160000E945227898180FF37C2809196019091E9
:104170009701009709F02BC20E941D0B816090935C
:104180009701809396011A82198283E0EEA1FFA124
:1041900011928A95E9F704E610E025E030E04F2D12
:1041A0005E2D64E084E10E9452278B812C811A816C
:1041B00009819D8190FD7CC2821B990B9C01990F06
:1041C000440B550B28A739A74AA75BA7CA01B90119
:1041D0000E943D2D3B015C01412F401B550B9A0174
:1041E000550F440B550B28A739A74AA75BA7CA014F
:1041F000B9010E943D2D68AB79AB8AAB9BAB9301B3
:10420000A50168A679A6AAA6BBA668A579A58AA5D0
:104210009BA50E94372D6B018C0128A939A94AA9B9
:104220005BA988A988A799A999A7AAA9AAA7BBA9A0
:10423000BBA768A579A58AA59BA50E94372D9B01E0
:10424000AC01C8A6D9A60AA71BA768A579A58AA507
:104250009BA50E94A62B68A779A78AA79BA768A5FC
:1042600079A58AA59BA50E94612B162F072FD82E12
:10427000C92E20E030E040EC5FE368A779A78AA769
:104280009BA768A579A58AA59BA50E94032B1B0166
:104290002C0120E030E040E050E468A579A58AA533
:1042A0009BA50E94AE2D18160CF013C280909401AD
:1042B00090909501C4010E942508892B09F002C243
:1042C0000E941D0B4C01212F302F4D2D5C2D18A766
:1042D00009A7DAA6CBA668A579A58AA59BA50E9401
:1042E000A62B20E030E040EC5FE368A779A78AA71F
:1042F0009BA768A579A58AA59BA50E94032B9B0176
:10430000AC0128A639A64AA65BA668A579A58AA508
:104310009BA50E94A62B6B018C019301A501F8A916
:10432000F8A789A989A79AA99AA7ABA9ABA768A555
:1043300079A58AA59BA50E94092920E030E0A90162
:1043400068A779A78AA79BA768A579A58AA59BA531
:104350000E94A62B2B013C01809294019092950122
:1043600068A759A68AA77BA668A579A58AA59BA553
:104370000E9468299B01AC01C8A6D9A60AA71BA761
:1043800068A579A58AA59BA50E94372D4B015C01E4
:1043900080919201909193019C01990F440B550BD0
:1043A00028A739A74AA75BA7CA01B9010E943D2DDA
:1043B0009401A50168A779A78AA79BA768A579A5F5
:1043C0008AA59BA50E94A62B68A779A78AA79BA769
:1043D00068A579A58AA59BA50E94782D7093930165
:1043E0006093920148A659A66AA67BA668A579A5FE
:1043F0008AA59BA50E94532B9B01AC01C8A6D9A6F8
:104400000AA71BA768A579A58AA59BA50E94372D99
:104410006B018C0180919001909191019C01990F09
:10442000440B550B28A739A74AA75BA7CA01B901B6
:104430000E943D2D9601A80168A779A78AA79BA78E
:1044400068A579A58AA59BA50E94A62B68A779A730
:104450008AA79BA768A579A58AA59BA50E94782D08
:10446000709391016093900180918E0190918F01E2
:104470009C01990F440B550B28A739A74AA75BA7A6
:10448000CA01B9010E943D2D9601A80168A779A72C
:104490008AA79BA768A579A58AA59BA50E94A52B9D
:1044A00068A779A78AA79BA768A579A58AA59BA5D0
:1044B0000E94782D70938F0160938E0180918C0102
:1044C00090918D019C01990F440B550B28A739A79A
:1044D0004AA75BA7CA01B9010E943D2D9401A5011D
:1044E00068A779A78AA79BA768A579A58AA59BA590
:1044F0000E94A62B68A779A78AA79BA768A579A57C
:104500008AA59BA50E94782D70938D0160938C01E4
:1045100063C08091AA01843021F11092BC01A8E10E
:10452000B0E0E0E40FB6F894A895A09360000FBE49
:10453000E093600083B7817F846083BF83B781602D
:1045400083BF7894889583B78E7F83BF0FB6F89426
:10455000A89580916000886180936000109260004F
:104560000FBE8091A901882361F00E94290BEEE320
:10457000F2E081918111E7C126E432E02E173F0776
:10458000C1F78091AA01853009F4C3CF0E941F0DA5
:104590000E94250612CDD394FF0C36E0D31222CD13
:1045A0000F5F1F4F0830110509F012CD8FEF8F8F6D
:1045B00088A319A20E941D0B8160782F9BA38AA358
:1045C0004F8D58A169A1892F0E94DB1D2CCD0E941F
:1045D0002508069708F0D0CD809192019091930123
:1045E0002091900130919101822B932B20918C018D
:1045F00030918D01822B932B20918E0130918F0170
:10460000822B932B892B09F06AC08091E90190914C
:10461000EA01A091EB01B091EC01AD01662777278B
:10462000E0E0411551056105710519F0DB01CA0192
:10463000E0E1492F5A2F6B2F77274115510561056E
:10464000710519F0E85FDB01CA01AC01BD01F4E0BE
:104650007695679557954795FA95D1F74115510588
:104660006105710519F0EC5FDB01CA01AC01BD0108
:1046700032E076956795579547953A95D1F741156C
:1046800051056105710519F0EE5FDB01CA01B695B0
:10469000A79597958795892B8A2B8B2B09F0EF5F30
:1046A000E73008F0FFC0F0E0E45DF04D0C94D72D4A
:1046B00097FF04C0FCA5F160FCA78ECF2CA52E7F30
:1046C0002CA78ACFC4010E9425088035934C08F49A
:1046D000F7CD0E941D0B4C019101A20112CE62E99F
:1046E00071E08BE891E00E94EC0260E971E08AE8F9
:1046F00091E00E94EC026EE871E089E891E00E948E
:10470000EC026CE871E088E891E00E94EC023091E4
:104710008B013CAB40918A014EAB509189015DAB5E
:10472000809188018FAB58CF20E240E0AEC020E0FE
:1047300040E060E080E20E94BB0983E00E947606D0
:104740008111B2C082E00E94760691E089278093B1
:104750009E019CA59A8FACA9AB8FBEA9BC8FEDA979
:10476000ED8FFFA9FE8F86E0FE017996AF2DBE2D5D
:1047700001900D928A95E1F786E0EF2DFE2DAFEDC9
:10478000B1E001900D928A95E1F786E0EFEDF1E05E
:10479000DE01179601900D928A95E1F786E0FE0101
:1047A0003796AF2DBE2D01900D928A95E1F786E0E8
:1047B000EF2DFE2DDE011D9601900D928A95E1F7F9
:1047C0000E94D909882379F12F8598898A891989C6
:1047D0001F86188A1A8A198A30919E01311166C083
:1047E0002F87988B3F85288989899A8970919A01AA
:1047F00060919B0140919C0150919D01FE85E0914B
:104800009901FE13B6C0332311F03713B2C022232F
:1048100011F02613AEC0992311F09513AAC0882376
:1048200011F08413A6C01F86188A198A1A8A86E096
:10483000FE013D96A8E9B1E001900D928A95E1F75D
:1048400086E0FE013D96AF2DBE2D01900D928A951A
:10485000E1F786E0EF2DFE2DAFEDB1E001900D9276
:104860008A95E1F70E94250690919F01891709F426
:104870009DCB0E94250680939F0198CB20E040E0CD
:1048800060E280E058CF20E040E260E0FACF20E034
:1048900040E24FCF20E040E160E14CCF20E040E03B
:1048A00060E248CF20E041CF80E051CF282F880F31
:1048B000330B440B550B2CA73DA74EA75FA7CA018E
:1048C000B9010E943D2D20E030E040E05FE36CA79D
:1048D0007DA78EA79FA76CA57DA58EA59FA50E94ED
:1048E000372D6CA77DA78EA79FA76CA57DA58EA54C
:1048F0009FA50E94782D6A8B812F110F990BAA0B0F
:10490000BB0B8CA79DA7AEA7BFA7BC01CD010E9482
:104910003D2D20E030E040E05FE36CA77DA78EA74F
:104920009FA76CA57DA58EA59FA50E94372D6CA77E
:104930007DA78EA79FA76CA57DA58EA59FA50E948C
:10494000782D698B4FCF09BD19BD09B400FEFDCF8D
:104950008091D8008F7D8093D8008091E0008260A4
:104960008093E0008091E00081FDFCCF0E941F0D4C
:1049700008CECE010D960E94310655CF1F920F92A0
:104980000FB60F9211242F933F934F935F936F9322
:104990007F938F939F93AF93BF93EF93FF938091F8
:1049A000E10082FF09C08091E20082FF05C0809192
:1049B000E1008B7F8093E1008091DA0080FF24C0CA
:1049C0008091D80080FF20C08091DA008E7F809394
:1049D000DA008091D90080FF99C080E189BD82E131
:1049E00089BD09B400FEFDCF81E08093AA018091CA
:1049F0007F01811109C00E94E1080E945A0980913B
:104A0000E20084608093E2008091E10080FF17C0A3
:104A10008091E20080FF13C08091E2008E7F80933E
:104A2000E2008091E20080618093E2008091D800F2
:104A300080628093D80019BC85E08093AA018091A0
:104A4000E10084FF27C08091E20084FF23C080E161
:104A500089BD82E189BD09B400FEFDCF8091D800F7
:104A60008F7D8093D8008091E1008F7E8093E1005C
:104A70008091E2008F7E8093E2008091E20081606D
:104A80008093E20080917E01882309F445C084E090
:104A90008093AA018091E10083FF27C08091E2000A
:104AA00083FF23C08091E100877F8093E10082E053
:104AB0008093AA0110927E018091E1008E7F809305
:104AC000E1008091E2008E7F8093E2008091E2001D
:104AD00080618093E20042E060E080E00E942A0969
:104AE0008091F00088608093F000FF91EF91BF917A
:104AF000AF919F918F917F916F915F914F913F9176
:104B00002F910F900FBE0F901F90189519BC109207
:104B1000AA0110927F0178CF8091E30087FD02C047
:104B200081E0B6CF83E0B4CF1F920F920FB60F9201
:104B30001124FF920F931F932F933F934F935F93F3
:104B40006F937F938F939F93AF93BF93CF93DF9395
:104B5000EF93FF9309EE10E0F8018081C091EC0023
:104B6000C795CC27C7958F70FC2EF82A1082C0EF0E
:104B7000D0E08881877F888378940E94230DF80194
:104B80001082888188608883CF2DCF70C083FF9189
:104B9000EF91DF91CF91BF91AF919F918F917F91D5
:104BA0006F915F914F913F912F911F910F91FF90C6
:104BB0000F900FBE0F901F90189561E070E08CE091
:104BC00091E00C94082861E070E08CE091E00C9496
:104BD0000F28CF93DF9300D000D00F92CDB7DEB770
:104BE0006D8379830E94A9289C0180E021153105FD
:104BF000E1F4ED81F981D901A85ABD4F8C918193DF
:104C00002F5F3F4F24303105B1F70E94B91EDC0100
:104C1000CB010296A11DB11D8093540290935502C1
:104C2000A0935602B093570281E00F900F900F901F
:104C30000F900F90DF91CF910895CF93DF9300D025
:104C400000D000D0CDB7DEB76E837D838091540253
:104C500090915502A0915602B091570289839A8390
:104C6000AB83BC83BC01CD010E94901EEE81FD810F
:104C700090E080E02191DC01A85ABD4F2C93019671
:104C800084309105B9F726960FB6F894DEBF0FBEB3
:104C9000CDBFDF91CF9108951092B9008CE0809341
:104CA000B8000895EF92FF920F931F93CF93DF9375
:104CB000182FEB011092BC0084EA8093BC000E9484
:104CC0001D0B7C018091BC0087FF27C08091B9003B
:104CD000887F883029F08091B900887F8031D9F5AC
:104CE0001093BB0084E88093BC000E941D0B8C01D4
:104CF0008091BC0087FF24C02091B900287F90E0FC
:104D000080E02831B1F081E090E0203411F490E0AF
:104D100080E09195819591090CC0CF3FDC0791F21D
:104D20000E941D0B8E199F098C179D0758F28EEF5C
:104D30009FEFDF91CF911F910F91FF90EF9008951A
:104D4000CF3FDC07A9F20E941D0B801B910B8C1733
:104D50009D0770F2ECCF8FEF9FEFEBCF0F931F9378
:104D6000CF93DF93EB018093BB0084E88093BC007A
:104D70000E941D0B8C018091BC0087FF11C0209107
:104D8000B900287F81E090E0283211F490E080E0C3
:104D9000919581959109DF91CF911F910F91089580
:104DA000CF3FDC0741F30E941D0B801B910B8C173A
:104DB0009D0708F38EEF9FEFEECF0F931F93CF93D6
:104DC000DF93EC0184EC8093BC000E941D0B8C01EE
:104DD0008091BC0087FF08C08091BB0090E0DF910C
:104DE000CF911F910F910895CF3FDC0789F30E9467
:104DF0001D0B801B910B8C179D0750F38EEF9FEFBF
:104E0000EECF0F931F93CF93DF93EC0184E8809351
:104E1000BC000E941D0B8C018091BC0087FF08C064
:104E20008091BB0090E0DF91CF911F910F91089589
:104E3000CF3FDC0789F30E941D0B801B910B8C1761
:104E40009D0750F38EEF9FEFEECFCF92DF92EF9260
:104E5000FF920F931F93CF93DF936B018A01F22E82
:104E6000E32E622F732F0E945226AC01E6010C0D37
:104E70001D1DC017D10711F057FF0DC084E98093A5
:104E8000BC00CA01DF91CF911F910F91FF90EF906D
:104E9000DF90CF9008956F2D7E2D89910E94AE26D0
:104EA000AC01E7CFCF92DF92EF92FF920F931F9367
:104EB000CF93DF93D82EC62EEA017901B8010E9464
:104EC00052269C0197FD17C0B8018C2D0E94AE267A
:104ED0009C0197FD10C0B8018D2D81600E94522663
:104EE0009C01D12CC12C81E0E81AF108CE14DF041A
:104EF00010F537FF12C084E98093BC00C901181671
:104F0000190614F490E080E0DF91CF911F910F918A
:104F1000FF90EF90DF90CF900895C8010E94DD26AA
:104F20009C0197FD04C0FE01EC0DFD1D80838FEFF9
:104F3000C81AD80ADBCF37FDDECFC8010E9401278F
:104F40009C0197FDD8CFCE0DDF1D8883D4CF8EE195
:104F50004A9B02C08150E1F74A9BFECF08955A98C0
:104F600080E28A95F1F75A9A0895FC013BE03A9560
:104F7000F1F798E020E080E031E040E14A95F1F778
:104F8000880F4A9B02C08160232742E04A95F1F7CF
:104F9000000040E14A95F1F7915079F790E19A9538
:104FA000F1F799B132E03A95F1F7000040E14A9506
:104FB000F1F792FB992790F992272081920F908325
:104FC0000895EF92FF920F931F93CF93DF930F9269
:104FD000CDB7DEB719828C017C01E60EF11C0E15EF
:104FE0001F0561F481E09981911180E00F90DF91BC
:104FF000CF911F910F91FF90EF9008950E94A727E6
:10500000CE0101960E94B527F80181938F01E7CF69
:1050100090935D0280935C02529A5A9A08959093FD
:105020005D0280935C0252985A9AEA9AE9E6F0E0AF
:1050300080818F7C808308956150770B91E001C05F
:10504000990F6A95EAF720E031E0911108C0222318
:1050500091F05A9A80E28A95F1F75A980895492F6B
:10506000482339F05A9A232740E24A95F1F796955A
:10507000ECCF5A98F9CF5A98EDCFFF920F931F9328
:10508000CF93DF93EC018C01060F111DC017D107E0
:1050900031F4DF91CF911F910F91FF900895F99016
:1050A0000E94AF2768E08F2D0E941C28EFCF1F922F
:1050B0000F920FB60F9211242F933F934F935F934C
:1050C0006F937F938F939F93AF93BF93CF93DF9310
:1050D000EF93FF935A98529AC0915C02D0915D026F
:1050E0006D81662321F08E819F810E943D280E9460
:1050F000AF2780E18A95F1F75A9852985A9A80E141
:105100008A95F1F76A81662309F18B819C810E945F
:10511000E127E881F981882311F088E001C082E06D
:1051200080830E94A727FF91EF91DF91CF91BF91DC
:10513000AF919F918F917F916F915F914F913F912F
:105140002F910F900FBE0F901F901895E881F98155
:10515000E4CFCF93DF93C0915C02D0915D02F894CD
:10516000529A5A9885E08A95F1F7000052985A9A17
:1051700080E28A95F1F74A9B0CC0529A5A9AE881CC
:10518000F98181E08083789481E090E0DF91CF9194
:1051900008956D81662381F08E819F810E94E127B1
:1051A00081110AC0529A5A9AE881F98182E080837B
:1051B000789482E090E0EACF0E94A72780E28A9567
:1051C000F1F75A98529A80E18A95F1F76A8166233D
:1051D00021F08B819C810E943D280E94AF27E881AD
:1051E000F9811082789490E080E0D0CF0E940B2A61
:1051F00060F080E891E009F49EEF0E94122A28F006
:1052000040E851E071F45EEF0CC00C94E1290C947D
:105210008B2AE92FE0780E94692A40F3092E052A9B
:10522000B1F3261737074807590738F00E2E07F84D
:10523000E02569F0E025E0640AC0EF6307F8009418
:1052400007FADB01B9019D01DC01CA01AD01EF9351
:105250000E9480290E94442A0E9439295F91552387
:1052600039F02BED3FE049E450FD49EC0C94A62BBE
:105270000895DF93DD27B92FBF7740E85FE3161667
:10528000170648075B0718F4D92F0E94922A9F93AC
:105290008F937F936F930E94A12BECEAF0E00E9422
:1052A000E4290E94442A2F913F914F915F910E94DF
:1052B000A92ADD2351F09058A2EA2AED3FE049ECFB
:1052C0005FE3D0785D270E94BD2BDF910C94442AC8
:1052D0000E941B2AE3950C94552A0E94122A58F02A
:1052E0000E940B2A40F029F45F3F29F00C94DB293F
:1052F00051110C948C2A0C94E1290E94692A68F3BC
:105300009923B1F3552391F3951B550BBB27AA277E
:1053100062177307840738F09F5F5F4F220F331FB8
:10532000441FAA1FA9F335D00E2E3AF0E0E832D080
:1053300091505040E695001CCAF72BD0FE2F29D083
:10534000660F771F881FBB1F261737074807AB0755
:10535000B0E809F0BB0B802DBF01FF2793585F4FCA
:105360003AF09E3F510578F00C94DB290C948C2A7E
:105370005F3FE4F3983ED4F3869577956795B795AC
:10538000F7959F5FC9F7880F911D9695879597F9B7
:105390000895E1E0660F771F881FBB1F6217730730
:1053A0008407BA0720F0621B730B840BBA0BEE1F45
:1053B00088F7E095089597F99F6780E870E060E0CE
:1053C00008959FEF80EC0895DF93CF931F930F9381
:1053D000FF92EF92DF927B018C01689406C0DA2E77
:1053E000EF010E94A92AFE01E894A591259135912B
:1053F00045915591A6F3EF010E94BD2BFE01970147
:10540000A801DA9469F7DF90EF90FF900F911F9158
:10541000CF91DF91089500240A94161617061806F6
:105420000906089500240A941216130614060506A8
:1054300008950C94E1290E94712AD8F3E894E0E0E1
:10544000BB279F57F0F02AED3FE049EC06C0EE0F76
:10545000BB0F661F771F881F28F0B23A62077307D9
:10546000840728F0B25A620B730B840BE3959A956C
:1054700072F7803830F49A95BB0F661F771F881F2C
:10548000D2F790480C94522C092E0394000C11F47E
:10549000882352F0BB0F40F4BF2B11F460FF04C00F
:1054A0006F5F7F4F8F4F9F4F0895EF93E0FF07C0CF
:1054B000A2EA2AED3FE049EC5FEB0E94BD2B0E947F
:1054C000442A0F90039401FC9058E9EDF0E00C940D
:1054D000652C57FD9058440F551F59F05F3F71F0F0
:1054E0004795880F97FB991F61F09F3F79F087954B
:1054F0000895121613061406551FF2CF4695F1DFD4
:1055000008C0161617061806991FF1CF8695710563
:10551000610508940895E894BB2766277727CB0197
:1055200097F908959B01AC0160E070E080E89FE38B
:105530000C94122C0E940B2A38F00E94122A20F0A0
:10554000952311F00C94DB290C94E12911240C947F
:105550008C2A0E94692A70F3959FC1F3950F50E041
:10556000551F629FF001729FBB27F00DB11D639F15
:10557000AA27F00DB11DAA1F649F6627B00DA11DBB
:10558000661F829F2227B00DA11D621F739FB00D61
:10559000A11D621F839FA00D611D221F749F3327D1
:1055A000A00D611D231F849F600D211D822F762F6A
:1055B0006A2F11249F5750409AF0F1F088234AF047
:1055C000EE0FFF1FBB1F661F771F881F91505040B3
:1055D000A9F79E3F510580F00C94DB290C948C2A8E
:1055E0005F3FE4F3983ED4F3869577956795B7953A
:1055F000F795E7959F5FC1F7FE2B880F911D969554
:10560000879597F90895FA01EE0FFF1F309621054F
:105610003105A1F16115710561F48038BFE39B0785
:1056200049F168949038810561F08038BFEF9B079D
:1056300041F099234AF5FF3FE1053105210519F1B4
:10564000E8940894E795D901AA2329F4AB2FBE2F3B
:10565000F85FD0F310C0FF5F70F4A695E0F7F7395C
:1056600050F019F0FF3A38F49F779F930DD00F90C8
:1056700007FC9058089546F00C94E12960E070E032
:1056800080E89FE308954FE79F775F934F933F93A1
:105690002F930E94BB2C2F913F914F915F910E94BD
:1056A000372D0C941E2C9F930E941B2A0F9007FCF1
:1056B000EE5F0C94552A19F416F40C94E1290C941D
:1056C000502C0E94712AB8F39923C9F3B6F39F575F
:1056D000550B87FF0E945E2C0024A0E640EA900153
:1056E00080585695979528F4805C660F771F881F21
:1056F00020F026173707480730F4621B730B840B22
:10570000202931294A2BA695179407942025312565
:105710004A2758F7660F771F881F20F0261737078C
:10572000480730F4620B730B840B200D311D411DB3
:10573000A09581F7B901842F9158880F9695879588
:1057400008959B01AC010C94372D5058BB27AA2714
:105750000E94BD2B0C94442A0E940B2A38F00E9410
:10576000122A20F039F49F3F19F426F40C94E12911
:105770000EF4E095E7FB0C94DB29E92F0E94692ADF
:1057800058F3BA17620773078407950720F079F476
:10579000A6F50C948B2A0EF4E0950B2EBA2FA02DB3
:1057A0000B01B90190010C01CA01A0011124FF27CE
:1057B000591B99F0593F50F4503E68F11A16F040C9
:1057C000A22F232F342F4427585FF3CF46953795C8
:1057D0002795A795F0405395C9F77EF41F16BA0B8D
:1057E000620B730B840BBAF09150A1F0FF0FBB1F3B
:1057F000661F771F881FC2F70EC0BA0F621F731F84
:10580000841F48F4879577956795B795F7959E3FE0
:1058100008F0B0CF9395880F08F09927EE0F979571
:10582000879508950E947D290C94442A29F416F046
:105830000C94DB290C948B2A0C94E1290E94712A88
:10584000A8F39638A0F707F80F92E8942BE33AEA0A
:1058500048EB5FE70E94AC2A0F920F920F924DB770
:105860005EB70F920E94032DE7EFF0E00E94E4295B
:105870004F915F91EF91FF91E595EE1FFF1F49F06A
:10588000FE57E0684427EE0F441FFA95E1F7419573
:10589000550B0E947D2C0F9007FE0C94922A0895C0
:1058A0009F3F31F0915020F4879577956795B79594
:1058B000880F911D9695879597F9089591505040BE
:1058C000660F771F881FD2F708959F938F937F935A
:1058D0006F93FF93EF939B01AC010E94372DEF91E3
:1058E000FF910E94E4292F913F914F915F910C9479
:1058F000372D0C94DB290C94502C0E94712AD8F37C
:105900009923C9F3940F511DA3F39150504094F083
:1059100059F0882332F0660F771F881F915050404E
:10592000C1F79E3F51052CF7880F911D96958795DD
:1059300097F908955F3FACF0983E9CF0BB278695A1
:1059400077956795B79508F4B1609395C1F7BB0F4C
:1059500058F711F460FFE8CF6F5F7F4F8F4F9F4F75
:10596000E3CF0C948C2A16F00C94502C0C94E12963
:1059700068940C94DB290E94712AA8F39923C1F33F
:10598000AEF3DF93CF931F930F93FF92C92FDD27C1
:1059900088232AF02197660F771F881FDAF720E007
:1059A00030E040E85FEB9FE3883920F0803E38F03C
:1059B00021968F770E94A62BEFE1F1E004C00E94B0
:1059C000A62BECE4F1E00E94E4298B01BE01EC017E
:1059D000FB2E6F5771097595771F880B990B0E94E5
:1059E0003D2D28E132E741E35FE30E94A92AAF2D74
:1059F0009801AE01FF900F911F91CF91DF910E940E
:105A0000BD2B0C94442AFA01DC01AA0FBB1F9B0199
:105A1000AC01BF5728F4222733274427507820C0F1
:105A2000B75190F4AB2F0024469537952795011C6C
:105A3000A395D2F3002071F0220F331F441FB395BA
:105A4000DAF30ED00C94A52B61307105A0E88A071B
:105A5000B94630F49B01AC016627772788279078F8
:105A6000309621F0208331834283538308950E942E
:105A7000A92A0C94442AE89409C097FB3EF4909517
:105A80008095709561957F4F8F4F9F4F9923A9F017
:105A9000F92F96E9BB279395F695879577956795A6
:105AA000B795F111F8CFFAF4BB0F11F460FF1BC0EA
:105AB0006F5F7F4F8F4F9F4F16C0882311F096E97D
:105AC00011C0772321F09EE8872F762F05C066232B
:105AD00071F096E8862F70E060E02AF09A95660FE4
