:100000000C941F050C9466050C9466050C94D4287A
:100010000C9466050C9466050C9466050C946605B4
:100020000C9466050C9466050C9433260C940927F1
:100030000C94D00E0C9466050C9466050C94660521
:100040000C9466050C9466050C9466050C94660584
:100050000C9466050C94A41E0C9466050C9466051D
:100060000C9466050C9466050C9466050C94660564
:100070000C9466050C9466050C9466050C94660554
:100080000C9466050C9466050C9466050C94660544
:100090000C9466050C9466050C9466050C94660534
:1000A0000C9466050C9466050C946605084AD73BCB
:1000B0003BCE016E84BCBFFDC12F3D6C74319ABD37
:1000C00056833DDA3D00C77F11BED9E4BB4C3E915B
:1000D0006BAAAABE000000803F05A84CCDB2D44E4A
:1000E000B93836A9020C50B9918688083CA6AAAA4C
:1000F0002ABE000000803F07634236B79BD8A71A8C
:1001000039685618AEBAAB558C1D3CB7CC5763BD99
:100110006DEDFD753EF6177231BF000000803F089F
:10012000000000BE922449123EABAAAA2ABECDCC42
:10013000CC4C3E00000080BEABAAAAAA3E00000044
:1001400000BF000000803F0000000000084178D39D
:10015000BB4387D1133D190E3CC3BD4282AD2B3E3C
:1001600068EC8276BED98FE1A93E4C80EFFFBE01DC
:10017000C4FF7F3F000000000000000000000000FE
:100180003E5B4F5B3E003E6B4F6B3E001C3E7C3E39
:100190001C00183C7E3C18001C577D571C001C5E40
:1001A0007F5E1C0000183C180000FFE7C3E7FF005B
:1001B000001824180000FFE7DBE7FF0030483A068C
:1001C0000E00262979292600407F05050700407F7B
:1001D00005253F005A3CE73C5A007F3E1C1C0800A6
:1001E000081C1C3E7F0014227F2214005F5F005F0A
:1001F0005F0006097F017F00006689956A006060E4
:100200006060600094A2FFA2940008047E040800CD
:1002100010207E20100008082A1C0800081C2A084C
:1002200008001E10101010000C1E0C1E0C003038A0
:100230003E383000060E3E0E0600000000000000B2
:1002400000005F000000000700070000147F147F1B
:100250001400242A7F2A12002313086462003649FE
:1002600056205000000807030000001C2241000037
:100270000041221C00002A1C7F1C2A0008083E089E
:10028000080000807030000008080808080000001E
:10029000606000002010080402003E5149453E0005
:1002A00000427F4000007249494946002141494DC2
:1002B00033001814127F10002745454539003C4A89
:1002C00049493100412111090700364949493600A1
:1002D000464949291E000000140000000040340077
:1002E00000000008142241001414141414000041EA
:1002F000221408000201590906003E415D594E00D2
:100300007C1211127C007F49494936003E4141412F
:1003100022007F4141413E007F49494941007F0918
:10032000090901003E41415173007F0808087F0020
:1003300000417F4100002040413F01007F0814221E
:1003400041007F40404040007F021C027F007F044C
:1003500008107F003E4141413E007F090909060027
:100360003E4151215E007F0919294600264949492D
:10037000320003017F0103003F4040403F001F2047
:1003800040201F003F4038403F00631408146300C2
:100390000304780403006159494D4300007F414143
:1003A0004100020408102000004141417F00040286
:1003B00001020400404040404000000307080000E4
:1003C0002054547840007F28444438003844444442
:1003D0002800384444287F0038545454180000083A
:1003E0007E0902001824241C78007F080404780089
:1003F00000447D4000002040403D00007F10284424
:10040000000000417F4000007C04780478007C08F4
:10041000040478003844444438007C18242418002C
:10042000182424187C007C08040408004854545400
:10043000240004043F4424003C4040207C001C2055
:1004400040201C003C4030403C0044281028440020
:100450004C9090907C004464544C44000008364119
:100460000000000077000000004136080000020193
:10047000020402003C2623263C000000000000008D
:1004800000000000000000000000C0E0F0F8F818D4
:1004900000C0F0FCFEFFFFFFFFFFFFFF7E0000003B
:1004A00000000000000080C0E0E0E0E0E0E0E0E00C
:1004B000C0800000000080C0E0E0E0E0E0E0E0E0BC
:1004C000C080000000E0E0C0C0E0E0E0E00000E04C
:1004D000E0C0C0E0E0E0E0E0C0800000000080C0DC
:1004E000E0E0E0E0E0E0E0E0C080000000000000CC
:1004F0000000000000000000E0F0F0F0E0ECEEF79B
:10050000F37020007C7C7C7E007E7E7E7F7F7F007F
:100510000080C0E07E5B4F5BFEC00000C000DCD707
:10052000DEDEDED7DC00C0000000000000000000BE
:1005300000000000000000000000000000000000BB
:10054000000000F8FCFEFFE000FFFFFFFFFFFF8060
:10055000FFFFFFFFFFFFFFFFFF1F0701000000007D
:100560000000000000FFFFFF81000000000000818C
:10057000C3C3C30000FFFFFF810000000000008133
:10058000FFFFFF0000FFFFFF01000000000000FF71
:10059000FFFF010000000001FFFFFF0000FFFFFF61
:1005A0009D1C1C1C1C1C1C9DDFDFDF0000000000CC
:1005B00000000000000000000F1F3F7F7F7F7F7F53
:1005C0003F1E0C001F1F1F3F003F3F3F7F7F7F00EC
:1005D000307B7F7830202030787F3B0003000F7F16
:1005E0000F0F0F7F0F00030000000000000000004D
:1005F00000000000000000000000000000000000FB
:10060000000000030F1F3F3F3F3F1F1F3F3F7F7F03
:100610007F3F3F1F3F7F7F7F7F7C7878381C0F00B4
:10062000000000000000010307070707070707078E
:10063000030100000000010307070707070707077A
:10064000030100000007070700000000000000078A
:100650000707000000000000070707000000010373
:10066000070707070707070703010000000000004E
:10067000000000000000000000000000000000007A
:10068000000000000000000000000000000000006A
:10069000000000000000000000000000000000005A
:1006A000000000000000000000000000000000004A
:1006B0000000000000000000000005010902A10187
:1006C00085020901A1000509190129081500250164
:1006D0009508750181020501093009311581257FD1
:1006E00095027508810609381581257F95017508E1
:1006F0008106050C0A38021581257F950175088150
:1007000006C0C005010980A101850319012AB700AF
:10071000150126B700950175108100C0050C09016F
:10072000A101850419012AA002150126A002950144
:1007300075108100C005010906A101050719E0290E
:10074000E71500250195087501810295017508815D
:10075000010507190029FF150026FF0095067508F9
:10076000810005081901290595057501910295017A
:1007700075039101C009023B00020100A0FA0904BF
:1007800000000103010100092111010001224000C4
:100790000705810308000A090401000103000000A5
:1007A000092111010001227B000705820320000AB4
:1007B000120110010000000853460100010001026F
:1007C00000010C0343006F0072006E006500000022
:1007D000100366006F006F007300740061006E000C
:1007E00000000403090400DA0281FFD9F1DB20A430
:1007F000A62EAF00A0C000A1C800AED580A81FD310
:1008000000408D14200080818283848586878889BA
:100810008A8B8C8D8E8F9091929394A0A1A2A3A489
:10082000A5A6A7A8A9AAABACADAEAFB0B1B2B3B400
:10083000C0C1C2C3C4C5C6C7C8C9CACBCCCDCECF40
:10084000D0D1D2D3D40041646A7573740052616907
:100850007365004C6F7765720044656661756C74F2
:10086000004C617965723A20000000000000000031
:100870000000000000000000000000000000000078
:10088000000000000000000000000000007E0F00DB
:10089000D4FFFFFFC7000000780000000000000048
:1008A000002A2B28000000000000000000000000CB
:1008B0000000000029000000002C1E34202122240A
:1008C000342627252E362D3738271E1F2021222398
:1008D0002425263333362E37381F0405060708092A
:1008E0000A0B0C0D0E0F10111213141516171819F0
:1008F0001A1B1C1D2F3130232D350405060708094E
:100900000A0B0C0D0E0F10111213141516171819CF
:100910001A1B1C1D2F3130354C00AE00AF2B0014BC
:10092000001A00080015001700E000040016000778
:100930000009000A00E1001D001B00060019000567
:1009400000000000000000E30001512C002A001309
:100950000012000C0018001C00340033000F000EC1
:10096000000D000B00290038003700360010001180
:1009700000000000000000E600025128002B001ECD
:10098000001F00200021002200E000000000000005
:100990000000000000E10000000000000000000076
:1009A00000000000000000E30001002C002A0027E6
:1009B000002600250024002300000000004F005204
:1009C0000051005000000000000000000000000086
:1009D00000000000000000E600035128002B001E6C
:1009E000021F02200221022202E00000000000009B
:1009F0000000000000E10000000000000000000016
:100A000000000000000000E30003512C002A002732
:100A10000226022502240223023500310030002F75
:100A2000002E002D003502310230022F022E022D41
:100A300002000000000000E6000100280000112470
:100A40001FBECFEFDAE0DEBFCDBF04B603FE27C086
:100A50008091030890910408A0910508B0910608C0
:100A60008730904BA740B04BD1F4109203081092FE
:100A70000408109205081092060814BE84B7877FF8
:100A800084BF0FB6F894A895809160008861809328
:100A90006000109260000FBEE0E0F8E3099511E0FD
:100AA000A0E0B1E0EEE2F7E602C005900D92A83BAF
:100AB000B107D9F728E0A8EBB1E001C01D92A3303F
:100AC000B207E1F70E94C81E0C9454330C94000046
:100AD000DC01FB0180819181803891054CF08FE72A
:100AE0008C93808191818F579109918380830895A0
:100AF00081382FEF92073CF481E88C9380819181BB
:100B000081589F4FF2CF8C9311821082089590915B
:100B1000EC0792FF06C0282F28712830F9F4877F50
:100B2000846093FF06C0282F28712831F1F4877E56
:100B300084612091ED0720FF06C0382F38713830CE
:100B4000D9F4877F816021FF06C0282F28712831C2
:100B5000D1F4877E816194FD877E0895282F2471CA
:100B60002430F9F68B7F8860DCCF282F2471243164
:100B700001F78B7E8861DDCF382F3171313019F765
:100B80008E7F8860E0CF282F2171213121F78E7E62
:100B90008861E1CFCF93DF93972F70E026E0929F9B
:100BA000600D711D1124FB0130E3839FE00DF11DE9
:100BB0001124EE0FFF1FE35EF64FC591D491CE01D5
:100BC000C03ED10509F46DC060F5C133D10509F40B
:100BD000B2C088F4C932D10509F4A6C0CA32D10521
:100BE00009F4B0C0C130D10549F12497C13AD1050B
:100BF00008F063C023C0C933D10509F44BC0C23823
:100C0000D10509F447C0C533D10509F486C0C83AF7
:100C1000D10508F09EC0C53AD10520F384979064B1
:100C20000DC0C43ED10509F45BC058F4C23ED105E5
:100C300009F446C0C33ED10509F447C0DF91CF9106
:100C40000895C63ED10509F456C0C73ED10509F442
:100C500059C0C11542E5D40708F0AEC0C11521E561
:100C6000D20708F0F8C0C83ED10540F3C11530E501
:100C7000D30708F086C0C11540E4D40708F0E8C0E7
:100C8000CF3FD10511F008F076C09065CD3ED1057B
:100C9000A8F613C02091EC07237081F280EE90E05B
:100CA000CDCF2091EC0720FDF8C03091ED0730FF4B
:100CB000C5CF83EE90E024FFC1CF90E080E0BECFAF
:100CC0002091EC0722FDF5CFB9CF2091EC0722FD52
:100CD000E7C03091ED0730FDE1CF24FFAFCFEDCF7E
:100CE0002091ED0721FFAACF8091EC0784FDE5CF8D
:100CF00087EE90E0A3CF2091EC0723FF9FCF24FD48
:100D0000DCCFF6CF2091EC0723FDCDC03091ED076D
:100D100031FFE3CF84EE90E091CF2091EC0725FFE7
:100D20008DCF89E290E08ACF2091EC0725FF86CF16
:100D300085E390E083CF2091EC0726FF7FCF8AE206
:100D400090E07CCF2091EC0726FF78CF81E390E004
:100D500075CF9E01285A31092731310508F0ADCFF2
:100D6000885AE82FF0E0EE0FFF1FE657FE4F808114
:100D70009181946463CFDA95C115DF4108F45ECFA9
:100D80009CCF9E01F4E036952795FA95E1F7237004
:100D900086958695837030E2839FC0011124922B43
:100DA000C37021E030E002C0220F331FCA95E2F782
:100DB000822B932B9C6842CFC11546E5D40718F5CA
:100DC000C11525E5D20708F052C0C11534E5D30797
:100DD000A8F49C2F96959695AE014370552721E077
:100DE00030E002C0220F331F4A95E2F740E2C115FE
:100DF000D345B0F5949FC0011124DACF9C2F8827EA
:100E0000846F906A1BCFC1158AE5D80780F4C1159D
:100E100099E5D907A8F5CE0198558F3F910511F0B6
:100E200008F04BCF9C2F8827806F906A07CFCE01A8
:100E300090568115904208F040CF8D2F8F710E94FF
:100E4000870590E0982F882788279F718C2B16C0E4
:100E50009F70906AF3CE9C2F8827816F906AEECEA8
:100E6000949FC0011124822B932B9A68E7CE0E9495
:100E7000870590E0982F882788279F719062DECEA3
:100E80008C2F8F700E94870534E0D695C7953A95D0
:100E9000E1F7CF709C2F9069D1CE89E390E0CECE60
:100EA00082EE90E0CBCE86EE90E0C8CEF894E82FAC
:100EB000E295EF70A1E2AE0FB0E04C918F7021E0AF
:100EC00030E0B90102C0660F771F8A95E2F7CB01C7
:100ED000962F909594239C93EE5DF0E09081892B62
:100EE0008083789408958091D00780FD14C081FD9F
:100EF00014C082FD16C08091CF07882381F0843111
:100F000080F422E3829FC001112464E170E00E941A
:100F10000430862F08958CE0089589E1089585E0D6
:100F2000089582E308958091D00780FD16C081FD69
:100F300016C082FD16C08091CE078823A1F08832AA
:100F400080F428E0829FC001112468E270E00E94D2
:100F50000430862F672B39F0089582E0089584E0ED
:100F6000089588E0089581E008958D3E31F40E944F
:100F7000730781958093CB0708958E3E19F40E94E4
:100F80007307F8CF8F3E31F40E94730781958093E9
:100F9000CA070895803F19F40E947307F8CF893F6C
:100FA00029F40E9493078093CC0708958A3F21F487
:100FB0000E9493078195F7CF8B3F31F40E949307EE
:100FC00081958093CD0708958C3F19F40E94930773
:100FD000F8CF9FE0980F983070F4815F990B21E073
:100FE00030E001C0220F8A95EAF78091C907822B71
:100FF0008093C90708958D3F31F48091D0078160B7
:101000008093D00708958E3F21F48091D0078260AD
:10101000F7CF8F3FB9F78091D0078460F1CF40912F
:10102000CA078D3E59F48091CB0787FF0DC01092FF
:10103000CB0741110BC01092CF0708C08E3E81F440
:101040008091CB0718169CF3442381F08091CC0744
:101050009091CD07892B09F05AC01092CE070895C0
:101060008F3E49F447FFF0CF1092CA078091CB071B
:101070008111ECCFE0CF803F19F41416ACF3E4CF2C
:101080009091CC07893F29F41916F4F61092CC07F9
:10109000DBCF8A3F19F497FFD7CFF8CF9091CD07D8
:1010A0008B3F29F497FFD0CF1092CD07CDCF8C3F47
:1010B00019F41916CCF3C8CF9FE0980F983090F42C
:1010C000815F990B21E030E0B90102C0660F771F04
:1010D0008A95E2F7CB0180959091C9078923809387
:1010E000C907B2CF8D3F31F48091D0078E7F8093B6
:1010F000D007AACF8E3F21F48091D0078D7FF7CF04
:101100008F3F09F0A1CF8091D0078B7FF0CF08955A
:10111000E091B305F091B405309721F00190F08192
:10112000E02D099480E00895DC01E091B305F09191
:10113000B405309739F082E08C930480F581E02D7E
:10114000CD01099408952091B1053091B205281779
:10115000390771F09093B2058093B105E091B30522
:10116000F091B405309721F00680F781E02D0994C5
:1011700008952091AF053091B0052817390771F017
:101180009093B0058093AF05E091B305F091B4055D
:10119000309721F00084F185E02D09940895809125
:1011A000780590917705981301C008958F5F877037
:1011B000FACF292F220FE22FE90FEE0FE80F8E2F23
:1011C000877041E001C0440F8A95EAF7E695E695FD
:1011D000E69585E0E89FF0011124E15DFD4F30E0E8
:1011E00020E070E05191DF011197CB01022E02C087
:1011F000969587950A94E2F78170819585278423D7
:1012000085278C932F5F3F4F2530310559F708957F
:10121000292F220FE22FE90FEE0FE80F9E2F977074
:10122000E695E695E69585E0E89FF0011124E15DFD
:10123000FD4F50E040E080E0219130E0092E02C0F7
:10124000369527950A94E2F721703327042E01C0C2
:10125000220F0A94EAF7822B4F5F5F4F453051050A
:1012600059F70895BF92CF92DF92EF92FF920F93BA
:101270001F93CF93DF938C01C0907105D0907205BE
:10128000E0907305F090740580916D0590916E0566
:10129000A0916F05B0917005C82AD92AEA2AFB2AC5
:1012A000CFE1D0E0BC2ED701C6010C2E04C0B6950C
:1012B000A795979587950A94D2F780FD0EC0219740
:1012C00088F7B12C8B2DDF91CF911F910F91FF905B
:1012D000EF90DF90CF90BF900895B8018C2F0E94BF
:1012E000CA05019761F3EECFFF920F931F93CF933F
:1012F000DF93FC01828100811181C081F18088230C
:1013000011F1662301F1C8010E943209D82F682F1C
:10131000C8010E94D908EC2FF0E086E0F89EE00DAD
:10132000F11D112480E3D89FE00DF11D1124EE0F73
:10133000FF1FE35EF64F85919491DF91CF911F914E
:101340000F91FF900895C8010E940809D82FE3CF9C
:10135000CF93DF93D82FC92F0E9432096D2F7C2F96
:10136000DF91CF910C94CA050E94A809282F892FDC
:101370008F70392F32953F70903C80F43A30B0F442
:10138000343020F4323090F480E008953630E1F7C4
:1013900081E0283E88F0213FB9F70EC03C3011F0C3
:1013A0003F3091F7869586958695089581E0203F98
:1013B00039F018F4283E40F70895243F29F7FCCF70
:1013C0000895ECEBF1E09191891303C0DF011197CF
:1013D0001C9291E0E23CF907B1F7089580916C0509
:1013E000811110926C05089580916B05909176059E
:1013F000892B90914D02892B8093BA0190916C05B5
:10140000992391F0892B8093BA0120E08CEB91E035
:10141000FC013081019631112F5F31E0823C93074E
:10142000B9F721110E94EE09E091B305F091B405DE
:10143000309731F00280F381E02D8AEB91E009943E
:101440000895882339F090916B05892B80936B0563
:101450000C94F4090895882341F0809590916B05D0
:10146000892380936B050C94F409089580E0089516
:101470009C01FC0132968FEF90E04191461751F0AC
:101480008F3F19F4411101C0892F9F5F9630A9F752
:101490008F3F09F40895280F311D87FD3A95F90112
:1014A00062830895CF93DF9300D000D0CDB7DEB72D
:1014B0008FB7F89420912A0230912B0240912C0290
:1014C00050912D0229833A834B835C838FBF6981BE
:1014D0007A818B819C810F900F900F900F90DF91FC
:1014E000CF9108959C014FB7F89480912A02909172
:1014F0002B02A0912C02B0912D024FBF821B930BA7
:101500000895809129020895FC01CB012091D40116
:101510003091D5012617370790F0009729F42091D4
:10152000E8002E772093E80040E0009751F4411145
:1015300008C08091E80082FF31C080E00895C901B1
:10154000F3CF209120022223A9F12530A9F1209187
:10155000E80023FD2DC02091E80022FDEACF209174
:10156000E80020FFE2CF3091F3002091F2000097D5
:1015700019F02830310558F041E02830310509F0E4
:1015800040E02091E8002E772093E800CECF4191F3
:101590004093F10001972F5F3F4FE9CF80912002E8
:1015A000882341F0853041F08091E80083FFC1CF6E
:1015B00081E0089582E0089583E008958091CE014E
:1015C00087FF13C08091E80082FF06C08091E80089
:1015D0008B778093E80004C0809120028111F2CFC4
:1015E0000895809120028823D9F38091E80080FF3C
:1015F000F8CF8091E8008E77ECCF2091E400309115
:10160000E50095E6A9012091EC00822F817020FF72
:1016100006C08091E80080FF06C080E00895209118
:10162000E80022FD1AC080912002882389F08530CD
:1016300089F08091EB0085FD0FC02091E40030918E
:10164000E50042175307F9F29150E1F684E008955E
:1016500082E0089583E0089581E00895E8EDF0E0E8
:1016600080818E7F80831092E2001092DA001092C7
:10167000E100A0EEB0E08C9181608C9380818F7747
:10168000808319BCA7EDB0E08C918E7F8C93808114
:101690008F7E80831092CD010895EF92FF920F9379
:1016A0001F93CF937C018B010E94FD0AC82F8111EB
:1016B00017C08091E80085FD0BC08091E8008E770F
:1016C0008093E8000E94FD0A882399F3C82F08C080
:1016D000F70181917F018093F1000150110949F7D1
:1016E0008C2FCF911F910F91FF90EF900895982F1D
:1016F0009093E900242F762F50E0891731F07091F4
:10170000EC002091ED005091F00021FD06C09F5F9C
:10171000973071F78093E90008953091EB003E7F98
:101720003093EB003091ED003D7F3093ED00309130
:10173000EB0031603093EB007093EC002093ED00F0
:101740005093F0002091EE0027FDE1CF0895CF9255
:10175000DF92EF92FF920F931F93CF93DF93C8ED29
:10176000D0E088818F7E8883E7EDF0E08081816022
:10177000808384E082BF81E08093CD0188818E7F69
:10178000888302EE10E0F80110821092DA0081EEF8
:10179000C82ED12CF601108288818F7788838881AA
:1017A0008068888388818F7D888319BC109220028D
:1017B0001092CC0110921F021092CB0190EEE92EF4
:1017C000F12CF70180818B7F808388818160888301
:1017D00042E060E080E00E94770BF60180818E7F1E
:1017E0008083F8018081816080838081886080832C
:1017F000F70180818E7F8083888180618883DF917B
:10180000CF911F910F91FF90EF90DF90CF900895AF
:10181000CF93DF9300D000D00F92CDB7DEB71982FF
:101820008A836B834C832D8324E630E045E050E0CF
:10183000BE016F5F7F4F84E10E944C2A0F900F9092
:101840000F900F900F90DF91CF9108958091D10765
:10185000811110C08091D80080618093D8008AE106
:101860008A95F1F700C08091D90080FD0AC082E01E
:101870008093D10781E09091D107913009F080E009
:10188000089581E0F5CFCF93DF93D82FC92F81E062
:101890008093E9008FEF9091E800815095FD06C09C
:1018A00095ED9A95F1F700008111F5CF8091E80050
:1018B00085FF16C050E040E068E070E08D2F9C2F5F
:1018C0000E944D0B8091E8008E778093E80088E0BD
:1018D000ED2FFC2FA1E2B2E001900D928A95E1F785
:1018E000DF91CF91089522E02093E9002FEF30910E
:1018F000E800215035FD06C035ED3A95F1F70000BE
:101900002111F5CF2091E80025FF0BC050E040E009
:1019100066E070E00E944D0B8091E8008E77809326
:10192000E8000895CF93DF9300D00F92CDB7DEB7D4
:1019300090912002943019F589836A837B8382E039
:101940008093E9008FEF9091E800815095FD06C0EB
:1019500095ED9A95F1F700008111F5CF8091E8009F
:1019600085FF0DC050E040E063E070E0CE010196DD
:101970000E944D0B8091E8008E778093E8000F90D5
:101980000F900F90DF91CF910895BC0183E00C94EC
:10199000920CBC0184E00C94920C6BEE7EEF90E014
:1019A00080E00E943E3360E082E090E00E942033BD
:1019B00060E083E090E00E94203310926D05109269
:1019C0006E0510926F051092700560E084E090E063
:1019D0000E94203360E081E290E00E94203360E0CA
:1019E00085E090E00E94203360E086E090E00E9475
:1019F00020336FEF87E090E00E94203340E050E01A
:101A0000BA0188E090E00E94323360E08DE090E01F
:101A10000E94203340E050E0BA0188E190E00E944B
:101A2000323360E087E190E00E94203340E050E0F4
:101A3000BA018CE190E00E94323360E080E290E0F5
:101A40000E94203340E050E0BA0188E190E00E941B
:101A5000323340E050E0BA018FE090E00E94323330
:101A600040E050E0BA0183E190E00C943233CF9330
:101A700084E090E00E941233C82F81E290E00E943F
:101A80001233982F8C2FCF910895CF92DF92EF923F
:101A9000FF920F931F93CF93DF936C017B0164E65A
:101AA00070E088E70E947929EC018601EC0CFD1CAE
:101AB00097FD0EC0F801849164E670E00E94D5297C
:101AC000EC01892B29F40F5F1F4FE016F10691F707
:101AD0000E94FF2ACE01DF91CF911F910F91FF90BD
:101AE000EF90DF90CF900895CF93DF93682F81E040
:101AF0006A3019F06D3029F480E0DF91CF910C94B9
:101B0000F50D8091BC079091BD0726E0FC01A4EC87
:101B1000B1E001900D922A95E1F7603E08F45AC0B9
:101B200026E0FC0111922A95E9F7C091BC07D091FB
:101B3000BD0746E050E0BE0184EC91E00E945E30BB
:101B40009E012C5B3540892B41F1C90145E09695FA
:101B500087954A95E1F741E050E0BA0102C0660F6F
:101B6000771F8A95E2F7CB016091FC017091FD012E
:101B7000862B972BB9016B5F7F4FE5E076956795D4
:101B8000EA95E1F702C0440F551F6A95E2F7842BEE
:101B9000952B9093FD018093FC012A5F3F4F40916C
:101BA000BB05642F70E0C9010E94F02F481B46302E
:101BB00010F4240F311D211572E0370710F030E0CA
:101BC00020E024543A4F3093BD072093BC07DF91A7
:101BD000CF910895F6E06F9FB001112466587E4FB3
:101BE00046E050E00E945530A0CFCF93E82F2091DF
:101BF000BC073091BD072C5B35404091BB05642F7D
:101C000070E0C9010E94F02F481B842FEE2361F081
:101C100066E00E94E42FC82FC15010F4CF910895C0
:101C200080E20E94740DF8CFA901480F511D4115A3
:101C3000524018F080E030E020E0280F311D24549D
:101C40003A4F3093BD072093BC07E8CFCF93DF9383
:101C5000EC01FE018491811103C0DF91CF910895C1
:101C60000E94740D2196F5CF0E94260C91E08927E1
:101C70000895CF93DF9300D000D000D0CDB7DEB76A
:101C800086E0EEEBF7E0DE01119601900D928A9569
:101C9000E1F729813A814B815C816D817E8180E011
:101CA00090E026960FB6F894DEBF0FBECDBFDF9151
:101CB000CF910895CF93DF9300D000D000D0CDB75F
:101CC000DEB749835A836B837C838D839E8386E052
:101CD000FE013196AEEBB7E001900D928A95E1F7E7
:101CE00026960FB6F894DEBF0FBECDBFDF91CF9121
:101CF0000895CF93DF9300D000D00F92CDB7DEB719
:101D00008091B9058D838091BA058823F1F00E94F6
:101D1000520ADC01CB01805A9541AF4FBF4F8093EF
:101D2000B5059093B605A093B705B093B8058D811E
:101D3000811108C062E070E08BE199E00E94450DDE
:101D4000892B61F08091B9058D838D810F900F9063
:101D50000F900F900F90DF91CF91089581E08093C5
:101D6000B905F0CF8091B9059091BA05911103C0E2
:101D700091E089270895882369F062E070E089E1A5
:101D800099E00E94450D892B19F08091B9050895BD
:101D90001092B9058091B905EBCF8091B9050895EE
:101DA0001F921FB61F9211248F939F93AF93BF93DF
:101DB00080912E02811113C080912A0290912B02F2
:101DC000A0912C02B0912D024196A11DB11D8093CE
:101DD0002A0290932B02A0932C02B0932D02BF9164
:101DE000AF919F918F911F901FBE1F9018952FB795
:101DF000F89480912A0290912B02A0912C02B0912C
:101E00002D022FBF08950E94F70E2091CA0730912E
:101E1000CB07232B21F08093C6079093C70720910F
:101E2000CC073091CD07232B21F08093C4079093EA
:101E3000C50788EC97E00C949408CF93C82F8823AB
:101E400009F44EC08CEF8C0F813A90F4ECEBF1E08A
:101E500082EC91E02191C217E9F18E179F07D1F72B
:101E60006C2F8AEB91E00E94380ACF910C94F40910
:101E700080E28C0F883068F4C77021E030E001C048
:101E8000220FCA95EAF780916B05822B80936B0530
:101E9000ECCF8BE58C0F833038F42C2F2452330B8E
:101EA000C901CF910C94A308E8E5EC0FE73150F499
:101EB000F0E0EE0FFF1FE657FE4F80819181CF913A
:101EC0000C94B908CD3E60F08C2F0E94B507CF91DD
:101ED0000C94030F8C2F0E94E1090E94F409C0CFDB
:101EE000CF910895882399F19CEF980F913A20F4AF
:101EF0000E94E1090C94F40990E2980F983088F45C
:101F0000877021E030E0A90102C0440F551F8A9577
:101F1000E2F7CA01809590916B05892380936B0548
:101F2000E9CF9BE5980F933020F490E080E00C948B
:101F3000A30898E5980F973120F490E080E00C9486
:101F4000B9088D3E20F00E940F080C94030F0895ED
:101F50000F931F93CF93C82F10E000E0893311F443
:101F600000E510E08C2F0E941D0F0115110531F4C2
:101F70008C2FCF911F910F910C94720F8FE99FE0DE
:101F80000197F1F700C0000001501109EECF0F9347
:101F90001F93CF93DF938C01EB018091190182FF96
:101FA0002FC08B7F809319018091D5072091D7078F
:101FB0003091D807AB01421B530B20911701309190
:101FC00018014217530788F40E941D0F80911901D0
:101FD0008D7F809319018091D5070E94720F8091A7
:101FE00076058D7F8093760515C090917605926079
:101FF000909376050E941D0F809119018260E9CFB0
:10200000802F0E94720F8091D5079091D6070817F4
:10201000190729F30E94F409D093D807C093D70772
:10202000DF91CF911F910F910895AF92BF92CF9200
:10203000DF92EF92FF920F931F93CF93DF9300D025
:1020400000D0CDB7DEB78CE7E82E81E0F82E94EE15
:10205000C92E97E0D92E00E0AA24A394B12CD70171
:102060008D917D01F894E82FE295EF70A1E2AE0F1B
:10207000B0E02C918F70A50102C0440F551F8A95C6
:10208000E2F7CA01922F982B9C93EE5DF0E09081CD
:10209000809589238083789400C0E4E8F1E030E003
:1020A00020E010E04191A42FA295AF70A05EB0E0B7
:1020B0008C9190E04F7002C0959587954A95E2F714
:1020C00080FD47C08A2D022E01C0880F0A94EAF7CE
:1020D000182B2F5F3F4F2630310521F7F70131973D
:1020E00080810E94560750EA5A95F1F7D6018C91EB
:1020F000181789F11C9381E0082BBFEFCB1ADB0A7C
:10210000E0E8EE16E1E0FE0609F0A9CF1091E30742
:10211000002319F181E08093D4070E94F70E909379
:10212000D3078093D2078091D2079091D3070E9462
:10213000720A0697B0F0A12FB0E0A552B84F84E024
:10214000E4EEF7E001900D928A95E1F71092D40742
:1021500008C080E0BDCF80E0CFCF8091D40781114F
:10216000E2CF0E94260C182F6091E307882309F420
:1021700073C01A8219821C821B82862F90E09E01F6
:102180002F5F3F4F7901B9018552984F0E9459271F
:10219000811145C08091DA078F5F8093DA0786301E
:1021A00008F458C0E091D907F0E0E552F84F84E018
:1021B000DF01282F1D922A95E9F7D7011D928A95F4
:1021C000E9F78091190182FF17C00E94F70EBC0148
:1021D0008091D7079091D8079B01281B390B8091DC
:1021E0001701909118012817390730F08091D50711
:1021F0009091D6070E94C70F011101C0012F802FB7
:102200000F900F900F900F90DF91CF911F910F9132
:10221000FF90EF90DF90CF90BF90AF900895109215
:10222000DA07A091D907B0E0A552B84F9E012B5F05
:102230003F4F10E04D91F70191917F01491731F027
:10224000AD0141505109FA019083182FE216F306AF
:1022500089F7B7CF10E0B5CF70E06552784F809125
:10226000D90790E08552984F0E94BB27C5CF90E0D8
:1022700080E00E94A30890E080E00E94B9081092DC
:10228000760510924D020E94F40986E0E8ECF7E032
:10229000DF011D928A95E9F71092CF071092CE07C1
:1022A0001092D0070C94030F10926B05ECEBF1E049
:1022B00086E0DF011D928A95E9F70C9437111F9390
:1022C000CF93DF93CDB7DEB7AA970FB6F894DEBFF2
:1022D0000FBECDBF8EEC91E0FC0101962091F10084
:1022E000208321E0863D9207B9F78091CF018930A4
:1022F00009F456C0C8F4823009F4B1C0833009F43F
:1023000080C0813071F18091E80083FF78C28091B4
:10231000CE019091CF019A3008F071C2E92FF0E020
:10232000EA5AFC4C0C9418308A3009F487C08B3080
:1023300051F78091CE01813231F78091D201909195
:10234000D301892B01F78091E800877F8093E80013
:102350000E94DE0A8091D001809312010E945411E4
:10236000D2CF8091CE01813A71F68091E800877FCB
:102370008093E8008091D2019091D301892B61F480
:1023800068E081E292E070E00E94840A8091E800B7
:102390008B778093E800B7CF60E090E080E0F3CFE8
:1023A0008091CE01813209F0AECF8091D20190911F
:1023B000D301029708F0A7CF8091E800877F809330
:1023C000E8008091E80082FF17C09091F3008091AF
:1023D000F200029729F48091F1008B7F813021F483
:1023E0008091F100809329028091E8008B7780939F
:1023F000E8000E94DE0A87CF809120028111E1CFA0
:1024000082CF8091CE01813A09F07DCF8091D201B7
:102410009091D301892B09F076CF8091E800877FD6
:102420008093E8008091E80080FFFCCF809112014A
:102430008093F1008091E8008E77D9CF8091CE0112
:10244000813209F060CF8091E800877F8093E800B7
:102450000E94DE0A8091D1018093CA0154CF8091FD
:10246000CE01813A09F04FCF8091E800877F8093B9
:10247000E8008091E80080FFFCCF8091CA01D8CFAE
:10248000803899F0823809F0BAC18091D2018F70FA
:10249000873008F0B4C18093E9008091EB0085FBA0
:1024A000882780F91092E90006C08091CB019091B5
:1024B0001F02911182609091E800977F9093E8004D
:1024C0008093F1001092F1008091E8008E7793C123
:1024D000882309F481C1823009F091C18091D00133
:1024E000811184C18091D2018F702FEF280F263087
:1024F00008F085C18093E9002091EB0020FF76C1B0
:10250000933031F48091EB0080628093EB006EC1D8
:102510009091EB0090619093EB0021E030E001C0DE
:10252000220F8A95EAF72093EA001092EA00809140
:10253000EB008860EACF811162C11091D0011F7752
:102540008091E3008078812B8093E3008091E80004
:10255000877F8093E8000E94DE0A8091E80080FF78
:10256000FCCF8091E30080688093E30082E011114A
:1025700083E08093200243C18058823008F03FC13D
:102580004091D0015091D1014C3D83E0580799F51D
:1025900083E08A838AE289834FB7F894DE01139639
:1025A00020E03EE051E2E32FF0E0509357008491A9
:1025B00020FF03C082958F703F5F8F708A30C8F014
:1025C000895C90E08D939D932F5F243161F74FBF1D
:1025D0008091E800877F8093E8006AE270E0CE0196
:1025E00001960E94840A8091E8008B778093E8002E
:1025F00006C1805DE6CF2091D2013091D301852FB5
:1026000099278330910509F160F48130910509F42F
:1026100072C0029709F0F3C08BE390E0E5E7F7E0C2
:1026200029C08132910509F45AC0829709F0E7C0A8
:102630002115310509F469C02130310509F0DFC0E9
:102640008BE790E0EAEBF6E015C0CA01992741302C
:10265000B1F18230910509F43AC0892B09F0CFC05D
:10266000E2EEF7E0E4918E2F90E0E2EEF7E00097E3
:1026700009F4C5C02091E800277F2093E80020914D
:10268000D4013091D5018217930708F49C0140E0F2
:102690002115310509F03EC041113CC08091E80090
:1026A00082FDA1CF80912002882309F49CCF853040
:1026B00009F499CF8091E80083FFF0CF94CFE0ED4B
:1026C000F7E0E4918E2F90E0E0EDF7E0D0CFE2EC80
:1026D000F7E0E4918E2F90E0E2ECF7E0C8CF21150F
:1026E000310571F02130310509F089C089E090E0B1
:1026F000E0EAF7E0BFCF82E190E0E0EBF7E0BACFAD
:1027000089E090E0E7E8F7E0B5CF80E490E0E5E32A
:10271000F7E0B0CF80912002882309F464CF8530A0
:1027200009F461CF8091E80083FD5DCF8091E800DE
:1027300082FDB4CF8091E80080FFAACF9091F30092
:102740008091F2002115310519F08830910550F083
:1027500041E0089709F040E08091E8008E7780938F
:10276000E80096CF44914093F10031962150310911
:102770000196E8CF803809F042C08091E800877F59
:102780008093E8008091CC018093F1009DCE81116F
:1027900036C01091D001123090F58091E800877F0B
:1027A0008093E8001093CC010E94DE0A112311F0FF
:1027B00084E005C08091E30087FDFACF81E080933B
:1027C000200242E061EC81E00E94770B42E261EC82
:1027D00082E00E94770B13C08091D001813079F4A0
:1027E00081E0933009F080E080931F021092E900AD
:1027F0008091E800877F8093E8000E94DE0A809144
:10280000E80083FF0AC08091E800877F8093E8009A
:102810008091EB0080628093EB00AA960FB6F8944B
:10282000DEBF0FBECDBFDF91CF911F9108956093A2
:102830006D0570936E0580936F05909370050C94F1
:1028400037116093710570937205809373059093AF
:1028500074050C94371160E070E0CB010C942114E6
:102860000F931F93CF93DF9300D000D0CDB7DEB787
:1028700041E050E060E070E004C0440F551F661F67
:10288000771F8A95D2F78091710590917205A0917A
:102890007305B09174058A019B01082B192B2A2B13
:1028A0003B2B09831A832B833C83C901B8010F900A
:1028B0000F900F900F90DF91CF911F910F910C947B
:1028C00021140F931F93CF93DF9300D000D0CDB787
:1028D000DEB741E050E060E070E004C0440F551FF7
:1028E000661F771F8A95D2F7409550956095709531
:1028F0008091710590917205A0917305B091740556
:102900008A019B01082319232A233B2309831A8365
:102910002B833C83C901B8010F900F900F900F904B
:10292000DF91CF911F910F910C9421149091750517
:102930008095892380937505282F277071F4282F9F
:10294000082E000C330B9217130639F085958595E8
:1029500085950E946114109275050895FF920F935A
:102960001F93CF93DF93C62FD42F122F8823A9F064
:10297000609369050E94F70E9093C3018093C20192
:10298000C77081E001C0880FCA95EAF7DF91CF9147
:102990001F910F91FF900C94210A80916905681393
:1029A00034C08091C2019091C3010E94720A8331A8
:1029B000914058F500E20D0FCD17A9F0C770FF2424
:1029C000F3948F2D01C0880FCA95EAF70E942B0A55
:1029D000083048F48D2F877001C0FF0C8A95EAF704
:1029E0008F2D0E94210A812F0E94A80F0830A0F489
:1029F000D77081E001C0880FDA95EAF7DF91CF91B7
:102A00001F910F91FF900C942B0AC77081E001C0B9
:102A1000880FCA95EAF7F2CFDF91CF911F910F91FE
:102A2000FF9008954F925F926F927F928F929F9244
:102A3000AF92BF92CF92DF92EF92FF920F931F93CC
:102A4000CF93DF93CDB7DEB72C970FB6F894DEBFE8
:102A50000FBECDBF7C01FC0183819481892B31F0B5
:102A60008181908189238F3F09F0C4C62C960FB6CF
:102A7000F894DEBF0FBECDBFDF91CF911F910F91B4
:102A8000FF90EF90DF90CF90BF90AF909F908F908E
:102A90007F906F905F904F900895911111C0073013
:102AA000FDE51F0709F4F5C008F096C004303DE5C8
:102AB000130709F4B2C005304DE5140709F4DDC071
:102AC000F7018281882389F140813181C8019056C4
:102AD0008115F0E29F0728F0905E8115904108F083
:102AE00071C1C801992720E28C33910520F4FC01C3
:102AF000E05CFE4F20811F922F939F938F931F9234
:102B00004F931F923F9382E291E09F938F931F9286
:102B100088E18F9381E595E09F938F930E946B30BE
:102B20000FB6F894DEBF0FBECDBF0E94F70E6C014A
:102B3000F7018281882349F18091190182FF05C044
:102B4000B60190E080E00E94C70F809176058D7FEE
:102B5000809376050A31FCE51F0709F475C108F07A
:102B600033C108313CE5130709F479C109314CE55B
:102B7000140709F47EC18091170190911801059600
:102B800007315CE5150709F46FC1F701828109334C
:102B9000110508F02BC20D32110520F40B3211057E
:102BA00009F021C1882309F43DC28091190180FFF9
:102BB0001AC190916B05911116C11093D60700931D
:102BC000D507C092D707D092D807846080931901A7
:102BD00082E00E9496142EC008305DE5150709F0CA
:102BE0006FCFC0901301D090140180907105909028
:102BF0007205A0907305B09074050E9454110E9454
:102C00002B1408E415E0C016D10609F457C0C8011A
:102C10000E94121506501109F6CF0E9454110E940D
:102C20002B148EE492E090934F0580934E0581E043
:102C30008093500580917505877009F417CFF701CF
:102C40008281882309F412CF82E02C960FB6F89483
:102C5000DEBF0FBECDBFDF91CF911F910F91FF90CF
:102C6000EF90DF90CF90BF90AF909F908F907F902C
:102C70006F905F904F900C9496140E9454110E9494
:102C80002B1488E495E090934F0580934E0582E0E5
:102C9000CFCFC0901501D090160180907105909013
:102CA0007205A0907305B09074050E9454110E94A3
:102CB0002B140EE412E0C016D10659F40E945411F0
:102CC0008092710590927205A0927305B09274057E
:102CD000B1CFC8010E9412150A5F1F4FECCF80913F
:102CE0004E0590914F0572E08E34970729F0FC0154
:102CF00036972281211105C090931601809315010A
:102D00009AC5CF01F0CF80914E0590914F05E5E037
:102D100088349E0729F0FC0136962281211105C0D6
:102D2000909314018093130186C5CF01F0CF8130B9
:102D300021F1823009F0C4CE2091150130911601A5
:102D4000A0914E05B0914F05911105C045E0A83402
:102D5000B40709F4B5CECD0106962817390709F452
:102D6000AFCE86E0F70101900D928A95E1F7809150
:102D70004E0590914F05069720C020911301309188
:102D80001401A0914E05B0914F05911105C0F2E0DC
:102D9000AE34BF0709F494CECD0106972817390742
:102DA00009F48ECE86E0F70101900D928A95E1F745
:102DB00080914E0590914F05069690934F05809314
:102DC0004E057ECEC8018FCE0B316CE5160709F497
:102DD00042C0809119018E7F0C317CE5170709F004
:102DE000D4CE80931901F7018281882309F426C586
:102DF000109269050631FCE51F0708F03AC1023060
:102E00002CE5120708F4F8C10E94370D9093ED07E6
:102E10008093EC0706313CE5130708F055C10230FA
:102E20004CE5140708F043C16091EC071091ED07E1
:102E300084E090E00E942033612F81E290E00E94C4
:102E400020330E945411F6CE90911901892F8E7F64
:102E500090FF8160C6CF809119018160C2CF8091BF
:102E6000170190911801059790931801809317010D
:102E7000BACF809118018F93809117018F9383E3CC
:102E800091E09F938F931F9288E08F93CE010196DC
:102E90006C019F938F930E946B300FB6F894DEBF46
:102EA0000FBECDBF3AE0432EF6018081882309F49E
:102EB0009ACF813009F048C091818281913031F4FC
:102EC000F2E0CF0ED11C0E94A80F07C0923049F447
:102ED00022E0C20ED11C0E941D0F2FEFC21AD20A8F
:102EE000E3CF933031F432E0C30ED11C0E94720F55
:102EF000F4CF943021F04FEFC41AD40AEECF52E051
:102F0000C50ED11C20E030E0A6014F5F5F4F80531B
:102F1000990B8A30910560F021153105F1F28FE9A6
:102F20009FE00197F1F700C0000021503109F4CF74
:102F3000429EB001439E700D11249C01260F371F45
:102F4000F60181816A01E0CFE82FF0E0E756F74F04
:102F50005490282F26952695269530E0F901E757BD
:102F6000F74F64908770712C082E02C07594679497
:102F70000A94E2F791E069227724F901E758F74FC4
:102F80008490912C082E02C0959487940A94E2F7BD
:102F9000E1E08E229924F901E759F74FA490B12C72
:102FA00002C0B594A7948A95E2F7F1E0AF22BB2462
:102FB0006114710419F081EE0E941D0F81149104B7
:102FC00019F086EE0E941D0F852D0E94A80F8928FA
:102FD00019F086EE0E94720F672819F081EE0E94A8
:102FE000720FAB2809F479CF8CE26DCF043611054E
:102FF00009F4D8CD043FFCE51F0781F1C0F4093D79
:103000003CE5130739F10A3D4CE5140779F126E256
:1030100041EE61EE083D5CE5150709F0E4CE0E9443
:10302000AE1408CEB601C8010E94C70F03CE063FFA
:103030006CE51607B9F027E245EE66EE073F7CE542
:10304000170769F327E245EE64EE053F9CE5190793
:1030500031F3C9CE27E245EE65EEE1CF26E241EE3F
:1030600060EEDDCF26E241EE62EED9CF28E241E00C
:10307000F3CF98012B5F3C452930310508F4C4CECD
:103080000631FCE51F0709F0B7C080916B058A7A0D
:1030900091E009F490E090936A0569E2811165E39B
:1030A0008AEB91E00E94380A0E94F409C3CDF8012E
:1030B000E350FC458091EC078160E331F10590F429
:1030C000E05AFC4C0C9418300B5F1C45093011057C
:1030D00008F0AACE0D581C4CF8010C9418308091C1
:1030E000EC0782608093EC079FCE8091EC078460B0
:1030F000F9CF8091EC078860F5CF8091ED07816072
:103100008093ED0791CE8091ED078260F9CF809199
:10311000EC078061E7CF8091EC078062E3CF80917C
:10312000EC078064DFCF0E9454118091EC07806827
:10313000D9CF8091EC078C60D5CF8091ED0783606B
:10314000DFCF8091EC078E7FCDCF8091EC078D7F14
:10315000C9CF8091EC078B7FC5CF8091EC07877F2B
:10316000C1CF8091ED078E7FCBCF8091ED078D7F12
:10317000C7CF8091EC078F7EB5CF8091EC078F7D14
:10318000B1CF8091EC078F7BADCF0E94541180911D
:10319000EC078F77A7CF8091EC07837FA3CF809137
:1031A000ED078C7FADCF8091EC0782FB992790F9DA
:1031B00021E0922790FB82F990FB83F993CF8091D5
:1031C000ED07982F909591708E7F892B90FB81F958
:1031D00097CF0E9454119091EC07892F97FB87F9A4
:1031E000805880CF61E08EE090E00E9420331CCEBA
:1031F00060E0F9CF85E32BC30115FCE51F0709F457
:1032000043C00F3D1C4509F45BC0F701C080D1806D
:10321000882309F458C0C6010E943209182F682F6C
:10322000C6010E94D908B601812F0E94CA058C01EF
:10323000F701D280C580C2942FE0C222809175052B
:103240008770A1F09D2CDD2091F0812F807F80344C
:1032500021F080E2800F883048F082E00E949614CE
:10326000809175058770992493948111912C812FF9
:1032700082958F70A82EB12C8C3008F05FC0F501BC
:10328000E458FC4C0C9418300E9454113FEF44E376
:103290005CE0315040405040E1F700C0000087E75B
:1032A00097E7909301088093000888E19AE00FB6B1
:1032B000F894A895809360000FBE90936000FFCFB4
:1032C0000E94CD0CB7CCC6010E940809182FABCFC5
:1032D000F12FFF70CF2E107F19F0C29490EFC9220A
:1032E000DD20C9F0CC2069F080E2800F883010F03A
:1032F00001110BC080916B05C82AC0926B050E941A
:10330000F409802F0E941D0F19C080917605C82AEC
:10331000C0927605F4CF802F0E94720FCC2071F0FE
:10332000C09480E2800F883010F0011141C080917C
:103330006B05C822C0926B050E94F409E8E0AE1A42
:10334000B108F4E0AF16B10410F40E948808992087
:10335000A9F08091750580FD11C0F7011282859555
:10336000859585950E943014C7010E9412158091A1
:1033700075058595859585950E94611460E0C70166
:103380002C960FB6F894DEBF0FBECDBFDF91CF9164
:103390001F910F91FF90EF90DF90CF90BF90AF9073
:1033A0009F908F907F906F905F904F900C947409D6
:1033B00080917605C822C0927605BECF212F2F704E
:1033C000822E107F103219F0829480EF8822002321
:1033D00069F0013061F1DD20B9F1CC2071F1F70124
:1033E000858180FF8ECF8F70858327C0DD2091F08F
:1033F00090916C05892F8829C11003C00E94210A71
:103400009DCF31E0C312FACF981709F497CF80937C
:103410006C0594CFC11006C00E94EE09882D0E9451
:103420002B0A8CCF41E0C41609F488CFF5CFDD20FC
:1034300031F055E05C1508F481CF882DDFCF64E0D2
:103440006C1508F47BCFEACFCC2041F3093349F463
:10345000FFEF17EE23E0F15010402040E1F700C0ED
:103460000000802F0E94720F69CF812F869586956C
:10347000837061F0813009F061CFC8019370D11081
:1034800002C090E080E00E94B90858CFC801937054
:10349000D11002C090E080E00E94A3084FCF802F9F
:1034A000DD2029F10E94B507402F415F550B4830C0
:1034B000510500F501E010E001C0000F4A95EAF760
:1034C0000E94390E29834B835C836D837E83532F47
:1034D000502BD11003C0502F509553235A8349814C
:1034E0006B817C818D819E810E945A0E27CF0E9424
:1034F0000F08DACF0E94030F21CF812F837009F0CC
:103500007AC0D1101BCF202F229526952770220F2D
:10351000220F402F4F7050E070E060E0022E04C098
:10352000440F551F661F771F0A94D2F780E090E082
:10353000DC0104FF0FC08FE090E0A0E0B0E004C029
:10354000880F991FAA1FBB1F2A95D2F780959095C7
:10355000A095B095E12FE695E695E370E23059F13C
:10356000E33009F441C000916D0510916E05209182
:103570006F0530917005E13099F0842B952BA62BC7
:10358000B72BAC01BD01402351236223732349872C
:103590005A876B877C87CB01BA010E941714CECE65
:1035A000042B152B262B372BB901A801482B592B9F
:1035B0006A2B7B2BECCF842B952BA62BB72B409122
:1035C0006D0550916E0560916F05709170058C01CD
:1035D0009D01042715272627372709871A872B8758
:1035E0003C87C901B801D9CF8A019B01082B192B4F
:1035F0002A2B3B2BF2CFDD2009F44CC010FF9ECECE
:10360000202F229526952770220F220F402F4F70D2
:1036100050E070E060E0022E04C0440F551F661FAA
:10362000771F0A94D2F780E090E0DC0104FF0FC01E
:103630008FE090E0A0E0B0E004C0880F991FAA1FBF
:10364000BB1F2A95D2F780959095A095B095E12F54
:10365000E695E695E370E23059F1E330E1F100914F
:103660007105109172052091730530917405E13058
:10367000A1F0842B952BA62BB72BAC01BD014023C9
:1036800051236223732349875A876B877C87CB0139
:10369000BA012DC011FF52CEB3CF042B152B262B10
:1036A000372BB901A801482B592B6A2B7B2BEBCF69
:1036B000842B952BA62BB72B409171055091720549
:1036C00060917305709174058C019D010427152785
:1036D0002627372706C08A019B01082B192B2A2B86
:1036E0003B2B09871A872B873C87C901B8010E94A9
:1036F000211424CE1F70DD2029F0812F0E94301468
:10370000802F7CCE802F0E942B0A812F0E94611473
:1037100015CE023FD9F160F4003FF1F0013F79F19D
:10372000DD2009F457C0C110ECCD812F8F712BC063
:10373000033F89F1043FA1F7DD2009F440C01F7168
:10374000812F0E94301458E0159FC001112483601E
:1037500080937505812F17C025E0D11024E02C152A
:1037600008F4ECCD1F7181E090E0A0E0B0E004C06F
:10377000880F991FAA1FBB1F1A95D2F79DCF812FC3
:103780008F71DD2019F20E943014D8CD812F8F71F6
:10379000DD20C9F3BBCFDD2079F01F7181E090E01F
:1037A000A0E0B0E0AC01BD0104C0440F551F661F8E
:1037B000771F1A95D2F767CF0E942B14BFCD81E0F7
:1037C0000E94961461E06C1508F0B8CD82E00E946A
:1037D0009614B4CDCC2059F0093309F042CE7FEFD6
:1037E00087EE93E0715080409040E1F738CE812F12
:1037F0008F718CCF61E0C7010E9474098C018091A8
:103800005005F7019281882309F447C99801245093
:103810003D452330310508F08ACA21E006301D45B8
:1038200009F420E0291709F405CA813009F457CAC0
:10383000823009F468CA10925005FCC906311C4553
:1038400009F0E3CC80916A058111D4CC89E20E9411
:10385000E1092ACC1F93CF93DF938091AE05807F3F
:10386000A9F48091AB05882389F080917805C091F7
:1038700077057091A9056091AA05A091AC05B0915A
:10388000AD05D62FD72316E0C81304C0DF91CF9122
:103890001F91089590E0109711F0DF3F19F4019601
:1038A0008770F2CF189F9001199F300D1124F901F4
:1038B000E758FA4F41816413F2CF40814713EFCFAD
:1038C00042814111ECCF438154814A1B5B0B433150
:1038D000514028F78091AE058F7080618093AE05CE
:1038E000F901E258FA4F80818F708061808389EA04
:1038F00095E00E941215DF91CF911F910C94CF0893
:10390000AF92BF92CF92DF92EF92FF920F931F93ED
:10391000CF93DF93CDB7DEB72B970FB6F894DEBF0A
:103920000FBECDBF8C0185E0F801DE011796019036
:103930000D928A95E1F7D8011296EC9089EAA82EAB
:1039400085E0B82E6091AC057091AD0561157105EB
:1039500049F03091A9054091AA05832F84238F3F18
:1039600009F04AC1EE2009F45AC18F8198850E945E
:10397000B409F82E882309F452C186E0F801A9EAB7
:10398000B5E001900D928A95E1F78091A90590919B
:10399000AA050E94A8090E942A1C1DC02091AE05FC
:1039A000522F507F6331714008F0C8C05111E9C0F7
:1039B000FE2C841322C0391320C0E1101EC02F70CA
:1039C00020612093AE0589EA95E00E94121580914E
:1039D000AE05F80185838F2D2B960FB6F894DEBFC8
:1039E0000FBECDBFDF91CF911F910F91FF90EF9050
:1039F000DF90CF90BF90AF900895C114D10429F00B
:103A0000282F29232F3F09F0B9C020E0E091780545
:103A10004091770556E020FD2EC0CD2829F0282FB3
:103A200029232F3F09F0A7C020E0F22FF170DF2EED
:103A3000E09178054091770556E020FD32C0EE20F8
:103A400051F28091AE0581608093AE05F12CC3CF19
:103A50002E2F30E05E9FF0011124E758FA4F61816C
:103A6000861306C06081961303C062816E1168C020
:103A7000F9013196E770E413EBCFCFCF2E2F30E072
:103A80005E9FF0011124E758FA4F6181861306C04A
:103A90006081961303C062816E11D1CFF901319616
:103AA000E770E413EBCF8F8198850E94A809292F36
:103AB00022952F70903268F0225F2F70223080F4B0
:103AC0009F7059F0D80115969C91907F31F4D12CBC
:103AD0000AC09F7011F08823D1F3805E8830B8F35C
:103AE000C8010E941215FD2C76CF8F8198850E9407
:103AF000B409882309F493C0EE2009F490C08091A2
:103B0000AE05803270F02091A9053091AA053A8364
:103B100029831B82DD82CC828E83CE0101960E9496
:103B2000121586E0F801A9EAB5E001900D928A9598
:103B3000E1F70E942A1CFF24F3944DCF511135C0A8
:103B400089EA95E00E94121586E0E9EAF5E0DF01D6
:103B50001D928A95E9F77ACF8F8198850E94B409E2
:103B60008111DFCF8091AE0581608093AE05C801E1
:103B70000E94121530CF21E02E2557CF21E02E25AF
:103B800045CF8413B2CF3913B0CFE110AECFF801D7
:103B90002583C8010E94121586E0F801A9EAB5E064
:103BA00001900D928A95E1F716CF84139ECF3913B9
:103BB0009CCFE1109ACFF8012583C8010E9412150D
:103BC00086E0D5011D928A95E9F705CF8413C4CF0D
:103BD0003913C2CF8091AE0580FDDECF982F907F44
:103BE000D9F2F8018583903FA1F2982F907F905FE2
:103BF0008F70892B8583CDCFF80190818181C3801F
:103C0000D480F090AB05D601A61BB70BBD01F11017
:103C1000C5CE63317140A0F6FE2CE110D7CFC801AC
:103C20000E94121588CF1F93CF93DF93CDB7DEB7D5
:103C300067970FB6F894DEBF0FBECDBF4B8B5C8B82
:103C4000962F6D8B7E8B8F8B6111109276051A8A61
:103C500085E0FE017396DE011D9601900D928A9516
:103C6000E1F79F8786E0FE013D96DE011796019001
:103C70000D928A95E1F7CE0107960E94801C882359
:103C800089F016E08091780590917705891349C0F5
:103C900067960FB6F894DEBF0FBECDBFDF91CF9110
:103CA0001F91089586E0FE013796DE01119601907E
:103CB0000D928A95E1F78A859B85892B11F38F8177
:103CC000988589238F3FE9F22091770530E0C9017B
:103CD000019687709927409178054817190671F465
:103CE0000E945411109277051092780586E0E9EA57
:103CF000F5E0DF011D928A95E9F7C3CF96E0929F28
:103D0000D001939FB00D1124A758BA4FFE013196F0
:103D100001900D929A95E1F7809377050E94CF0864
:103D2000B0CF819FC001112487589A4F0E94801CF8
:103D3000882309F4ADCF8091780590E001968770D3
:103D40009927809378059ECF78941F921FB61F9273
:103D500011248F939F93AF93BF9380912A029091E8
:103D60002B02A0912C02B0912D020196A11DB11D34
:103D700080932A0290932B02A0932C02B0932D02E1
:103D8000BF91AF919F918F911F901FBE1F9018956B
:103D9000CDB7DEB76E970FB6F894DEBF0FBECDBFBE
:103DA00084B7877F84BF0FB6F894A8958091600090
:103DB000886180936000109260000FBE80E890E000
:103DC0000FB6F89480936100909361000FBE85B7A1
:103DD000806885BF85B7806885BF86E39AE0909349
:103DE000B9018093B8010E942E0B0E94A70B80910D
:103DF000E20084608093E20078948091200288231E
:103E0000A1F01091E9001F709091EC00892F817052
:103E100090FD80E8182B1092E9008091E80083FD66
:103E20000E945F111F701093E90082E084BD93E04F
:103E300095BD9AEF97BD80936E001092D6011092B7
:103E4000D7011092D8011092D9010E94340E8093AC
:103E500000010E94260C81110E944D2780910001D3
:103E60008091000194E0811190E09093E30784E059
:103E7000891B8093D90784E90E94560786E60E9431
:103E8000560787E90E94560786EC0E94560784EF82
:103E90000E94560785EF0E94560786EF0E9456073C
:103EA00087EF0E94560781E30E94560783E30E9432
:103EB000560788E0E4EEF7E0DF01282F1D922A95EF
:103EC000E9F7EBEDF7E0DF011D928A95E9F790E065
:103ED00080E00E941A338B3E9E4F11F00E94CD0C61
:103EE0000E94260C811102C00E9453270E94260CBA
:103EF000882309F4D7C382E08093FA0180E8809395
:103F0000BB050E9473296DE070E089EF97E00E9485
:103F1000450D892B09F03FC08091FA0163E070E004
:103F200081FDC2C386EF97E00E94450D892B99F56C
:103F30006DE070E086EE97E00E94450D892B59F503
:103F40000E94520ADC01CB01805A9541AF4FBF4F0E
:103F50008093B5059093B605A093B705B093B805C7
:103F6000ECEBF5E080E092E0DF019C011D92215036
:103F70003040E1F7F093BD07E093BC078FEF9FEF70
:103F80009093FD018093FC0181E08093BA058093BA
:103F9000B9051092FB0190E080E00E941A338B3E3D
:103FA0009E4F11F00E94CD0C82E090E00E941233EF
:103FB000809316020E94370D9093ED078093EC07D3
:103FC00083E090E00E941233282F30E050E040E080
:103FD0002E8B3F8B488F598FCA01B9010E9417144D
:103FE0000E94732920E04AE260E080E00E94080C11
:103FF00088E091E09093B4058093B305AE014F5FE4
:104000005F4F5B8B4A8BCE0103969D8B8C8B80918F
:10401000200200E112E1853009F481C30E941510ED
:10402000D82E81110E94520AABEDB7E0E7E1F2E031
:1040300010E000E0B02EED9081918E1509F47EC362
:104040008E25C12CFF24F394982F9F2109F471C36E
:104050000E94260C882399F0C982BA82EF2081E061
:1040600009F480E08B830E94F70E8160782F9D8396
:104070008C8349815A816B818D810E94131EF801C6
:10408000E95EFD4F8081F826F0828091BA05882391
:1040900009F444C08CEB95E09093BD078093BC0776
:1040A0000E94260C882309F460C386E098E00E94F1
:1040B000260E8091BA05882371F02091FC01309181
:1040C000FD012115310539F08091FB0161E070E0BF
:1040D000882309F488C38091B9058823F9F00E94E8
:1040E000520A6E8B7F8B888F998F8091B505909146
:1040F000B605A091B705B091B8052E893F89488DC6
:10410000598D281B390B4A0B5B0BDA01C9018F3F14
:104110009F4FAF4FBF4710F40E94B20ED1100E94C4
:10412000790E86E0E8ECF7E0DE01119601900D9241
:104130008A95E1F7F090CA07E090CB071091CC0781
:104140000091CD071092CA071092CB071092CC07AE
:104150001092CD078F2D8E29DA88CB88882309F419
:1041600048C08091C6079091C7070E94720A9C01BF
:104170008091CF07882309F4EEC42D313105C8F1B1
:104180008F3F19F08F5F8093CF07FF2059F00E9477
:1041900073079FEF1F140CF491E0899F802D112469
:1041A0008093CA07EE2059F00E9473079FEF1E14F8
:1041B0000CF491E0899F802D11248093CB073091DE
:1041C000CA073323B1F02091CB07222391F045EBAE
:1041D0003403C0011124992309F4D0C39093CA0772
:1041E00055EB250390011124332309F4CBC33093FD
:1041F000CB07812F802B09F448C08091C407909190
:10420000C5070E94720A9C018091CE07882309F499
:104210009DC425363105C8F18F3F19F08F5F80931B
:10422000CE07112359F00E9493079FEF11160CF44B
:1042300091E0899F802D11248093CC07002359F0B1
:104240000E9493079FEF10160CF491E0899F802D38
:1042500011248093CD073091CC073323B1F0209106
:10426000CD07222391F045EB3403C001112499239B
:1042700009F48CC39093CC0755EB250390011124CE
:10428000332309F487C33093CD078091CA079091F7
:10429000CB07892B9091CC07892B9091CD07892B47
:1042A00011F00E94030F86E0ED2DFC2DA8ECB7E085
:1042B00001900D928A95E1F70E94390EF32E2F831B
:1042C00049875A876B877C873A8F0E94260C882300
:1042D00009F482C3198204E610E021E030E04D2D9C
:1042E0005C2D69EF84E10E94AA2A898180FF5BC36B
:1042F00080910C0290910D02009709F04FC30E942B
:10430000F70E816090930D0280930C021A8219823D
:1043100083E0AC89BD891D928A95E9F704E610E037
:1043200025E030E04D2D5C2D64E084E10E94AA2A56
:104330008B812C811A8109819D8190FD9FC3821BF5
:10434000990B9C01990F440B550B2E8B3F8B488F7B
:10435000598FCA01B9010E944A2F762EA72EB82E76
:104360009B8F412F401B550B9A01550F440B550B4A
:104370002E8B3F8B488F598FCA01B9010E944A2F5B
:104380006C8F7D8F8E8F492E272D3A2D4B2D5B8D77
:104390007E8AAF8AB88E8B8D898F6E897F89888D52
:1043A000998D0E94442F7B018C012C8D3D8D4E8D6B
:1043B000542D9C8D9E8BAD8DAF8BBE8DB88F498E4D
:1043C0006E897F89888D998D0E94442F9B01AC0155
:1043D000EE8AFF8A088F198F6E897F89888D998D63
:1043E0000E94B32D6E8B7F8B888F998F6E897F890A
:1043F000888D998D0E946E2D162F072FF82EE92E8D
:1044000020E030E040EC5FE36E8B7F8B888F998FEC
:104410006E897F89888D998D0E94102D1B01582EE1
:10442000692E20E030E040E050E46E897F89888D7D
:10443000998D0E94BB2F18160CF030C380900A0291
:1044400090900B02C4010E94720A892B09F01FC3CD
:104450000E94F70E90930B0280930A02212F302FB7
:104460004F2D5E2D1E8B0F8BF88EE98E6E897F8906
:10447000888D998D0E94B32D20E030E040EC5FE301
:104480006E8B7F8B888F998F6E897F89888D998DB0
:104490000E94102D9B01AC012E8A3F8A588E698E96
:1044A0006E897F89888D998D0E94B32D7B018C0147
:1044B000272D3A2D4B2D5B8DFC8DFE8B8D8D8F8B9B
:1044C0009E8D988F498E6E897F89888D998D0E94E7
:1044D000162B20E030E0A9016E8B7F8B888F998F9F
:1044E0006E897F89888D998D0E94B32D362E572E27
:1044F0003C016E8B7F8B888F798E6E897F89888D4A
:10450000998D0E94752B9B01AC01EE8AFF8A088F62
:10451000198F6E897F89888D998D0E94442F4B0158
:104520005C0180910802909109029C01990F440B53
:10453000550B2E8B3F8B488F598FCA01B9010E94B2
:104540004A2F9401A5016E8B7F8B888F998F6E897E
:104550007F89888D998D0E94B32D6E8B7F8B888F7C
:10456000998F6E897F89888D998D0E94852F709390
:104570000902609308023E8A5F8A688E798E6E898E
:104580007F89888D998D0E94602D9B01AC01EE8AF8
:10459000FF8A088F198F6E897F89888D998D0E9477
:1045A000442F7B018C0180910602909107029C01AF
:1045B000990F440B550B2E8B3F8B488F598FCA0197
:1045C000B9010E944A2F9701A8016E8B7F8B888FBB
:1045D000998F6E897F89888D998D0E94B32D6E8BFE
:1045E0007F8B888F998F6E897F89888D998D0E94A6
:1045F000852F7093070260930602809104029091C8
:1046000005029C01990F440B550B2E8B3F8B488F55
:10461000598FCA01B9010E944A2F9701A8016E8BD8
:104620007F8B888F998F6E897F89888D998D0E9465
:10463000B22D6E8B7F8B888F998F6E897F89888D45
:10464000998D0E94852F70930502609304028091DA
:104650000202909103029C01990F440B550B2E8B83
:104660003F8B488F598FCA01B9010E944A2F94018C
:10467000A5016E8B7F8B888F998F6E897F89888D3E
:10468000998D0E94B32D6E8B7F8B888F998F6E8949
:104690007F89888D998D0E94852F70930302609386
:1046A000020281C180E028CC83EF97E03DCC80916D
:1046B0002002843021F110922E02A8E1B0E0E0E463
:1046C0000FB6F894A895A09360000FBEE093600029
:1046D00083B7817F846083BF83B7816083BF789411
:1046E000889583B78E7F83BF0FB6F894A895809185
:1046F0006000886180936000109260000FBE80911E
:104700001F02882361F00E941510EBEDF7E0819104
:10471000811101C223EE37E02E173F07C1F78091C8
:104720002002853009F4C3CF0E9454110E948808EA
:1047300075CCC394FF0C36E0C31286CC0F5F1F4FBD
:104740000830110509F076CC8FEF8D878E871F8694
:104750000E94F70E8160782F998B888B4D855E853E
:104760006F8589890E94131E90CC81E698E00E9493
:10477000260E8091710590917205A0917305B091FC
:1047800074058F309105A105B10560F4FC01E8576F
:10479000FC4C0C94183089E598E00E94260E81E0CC
:1047A0000E94F50D01E515E0D8010D900020E9F714
:1047B0008D010150110951E5E52E55E0F52EE01669
:1047C000F10608F076CCF70181917F010E94740D0B
:1047D000F6CF83E598E0E1CF8DE498E0DECF86E484
:1047E00098E0DBCF8F5F082F10E07B01082E02C01E
:1047F000EE0CFF1C0A94E2F7A9014E215F21452B24
:1048000089F39091FA0190FD43C08295880F8076DC
:104810008093030198013695279536952795209327
:104820000601815E809304011092070124E630E0C6
:1048300047E050E061E071E088E70E944C2A892B54
:1048400009F049CCA80135E0440F551F3A95E1F72E
:104850008091FA0180FD2AC044545A4F04E610E0CA
:1048600020E230E060E488E70E94792A892B09F091
:1048700032CC0E94790EE094F0948091FC019091EA
:10488000FD01E822F922F092FD01E092FC0123CC27
:10489000880F880F880F8093030110920601895FAB
:1048A0008093040183E080930701C0CFEAEDF1E03B
:1048B00080E2DF011D928A95E9F7ECE3F1E0FF8BDE
:1048C000EE8B88E3A82E81E0B82E90E4492E91E08B
:1048D000592E27E0922E88248394AE89BF899D911A
:1048E000BF8BAE8BF50181915F018A01080F111D0D
:1048F00004541A4FE92FF0E0E652FE4F30E020E07A
:10490000692C621AC82C022E01C0CC0C0A94EAF75A
:10491000180180E0D1019D911D019C21662D681B2D
:104920006770762E062E000C770BB92F01C0BB0FD7
:104930007A94EAF77B2E71956195710967707727F4
:1049400001C096956A95EAF7792A9081792A708252
:104950008F5F8830F9F62F5F3F4F31962830310551
:1049600079F6EE89FF894E165F0609F0B6CF04E6A8
:1049700010E020E230E04AED51E074CF81E0809316
:10498000CA072ECC81E08093CB0733CC81E08093A3
:10499000CC0772CC81E08093CD0777CC0E94720A5D
:1049A000069708F0ACCC8091080290910902209102
:1049B000060230910702822B932B20910202309144
:1049C0000302822B932B2091040230910502822B4B
:1049D000932B892B09F06CC0809171059091720521
:1049E000A0917305B0917405AD016627772720E08B
:1049F000411551056105710519F0DB01CA0120E17E
:104A0000492F5A2F6B2F77274115510561057105E5
:104A100019F0285FDB01CA01AC01BD01F4E0769515
:104A2000679557954795FA95D1F741155105610559
:104A3000710519F02C5FDB01CA01AC01BD01E2E098
:104A40007695679557954795EA95D1F741155105A4
:104A50006105710519F02E5FDB01CA01B695A795B6
:104A600097958795892B8A2B8B2B09F478C0211178
:104A70004AC020E04FE569E980E077C097FF04C0B5
:104A80006894F0F8FA8E8FCFE894F0F8FBCFC40169
:104A90000E94720A8035934C08F4DACC0E94F70E1B
:104AA00090930B0280930A029101452D562DF4CC70
:104AB00068E072E081E092E00E94680566E072E0E2
:104AC00080E092E00E94680564E072E08FEF91E080
:104AD0000E94680562E072E08EEF91E00E94680536
:104AE000809101028987809100028A878091FF016D
:104AF0008B878091FE018C8756CF211104C020E561
:104B000040E060E0B9CF20E0FBCF1092140245C036
:104B10009E838D8366C009BD19BD09B400FEFDCF1B
:104B20008091D8008F7D8093D8008091E0008260D2
:104B30008093E0008091E00081FDFCCF0E94541141
:104B4000EECD8D2D9C2D0E9494086CC02D323140ED
:104B500008F064CB9ACB232B09F014CB4ACB22303C
:104B600061F620E040E061E789E90E94080C80914D
:104B7000710590917205A0917305B091740500972D
:104B8000A105B10511F2B695A79597958795817006
:104B900009F4BBCF81E0809314023A8D38874F81AE
:104BA000532F69857A858B859C850E945A0E0E94B9
:104BB000390E29833A834B835C836D837E830E9405
:104BC000260C882379F13B812C819E818D811B826B
:104BD0001C821E821D8240911402411199CF3B8399
:104BE0002C839A8180910F029813ABCF8B81909187
:104BF0001002882311F08913A4CF8C8190911102A7
:104C0000882311F089139DCF8E8190911302882300
:104C100011F0891396CF8D81882321F09091120293
:104C200089138FCF1B821C821D821E8286E0ED2D90
:104C3000FC2DAEE0B2E001900D928A95E1F749813A
:104C40005A816B817C818D819E810E945A0E0E94C7
:104C5000880890911502891709F4D9C90E9488081B
:104C600080931502D4C91F920F920FB60F92112490
:104C70002F933F934F935F936F937F938F939F9364
:104C8000AF93BF93EF93FF938091E10082FF09C040
:104C90008091E20082FF05C08091E1008B7F8093CC
:104CA000E1008091DA0080FF24C08091D80080FF6D
:104CB00020C08091DA008E7F8093DA008091D90045
:104CC00080FF99C080E189BD82E189BD09B400FE01
:104CD000FDCF81E0809320028091CD01811109C038
:104CE0000E942E0B0E94A70B8091E20084608093AB
:104CF000E2008091E10080FF17C08091E20080FF18
:104D000013C08091E2008E7F8093E2008091E200E8
:104D100080618093E2008091D80080628093D80007
:104D200019BC85E0809320028091E10084FF27C0B8
:104D30008091E20084FF23C080E189BD82E189BDCA
:104D400009B400FEFDCF8091D8008F7D8093D800FC
:104D50008091E1008F7E8093E1008091E2008F7E60
:104D60008093E2008091E20081608093E200809174
:104D7000CC01882309F445C084E08093200280910F
:104D8000E10083FF27C08091E20083FF23C0809170
:104D9000E100877F8093E10082E0809320021092FF
:104DA000CC018091E1008E7F8093E1008091E20050
:104DB0008E7F8093E2008091E20080618093E20028
:104DC00042E060E080E00E94770B8091F000886014
:104DD0008093F000FF91EF91BF91AF919F918F91E0
:104DE0007F916F915F914F913F912F910F900FBEE7
:104DF0000F901F90189519BC109220021092CD01AF
:104E000078CF8091E30087FD02C081E0B6CF83E0D8
:104E1000B4CF1F920F920FB60F9211242F933F938E
:104E20004F935F936F937F938F939F93AF93BF93B2
:104E3000CF93DF93EF93FF93D091E900DF708091E0
:104E4000EC00C82FC17080FDC0E81092E90080918D
:104E5000F000877F8093F00078940E945F11109299
:104E6000E9008091F00088608093F000CD2BCF7036
:104E7000C093E900FF91EF91DF91CF91BF91AF9186
:104E80009F918F917F916F915F914F913F912F9162
:104E90000F900FBE0F901F90189561E070E08AE1AF
:104EA00091E00C94852861E070E08AE191E00C9437
:104EB0008C280F931F93CF93DF9300D000D000D0A6
:104EC000CDB7DEB78C010E9426299C0180E0211518
:104ED000310509F045C0F801D901A750B84F8C91B0
:104EE00081932F5F3F4F24303105B1F70E94340E7C
:104EF000811111C00E94390ECB0129833A834B8363
:104F00005C836D839E836091FD076B837091FE07C8
:104F1000A9010E945A0E8091710590917205A0918D
:104F20007305B09174058093F0079093F107A093F7
:104F3000F207B093F30780916D0590916E05A091F3
:104F40006F05B09170058093F4079093F507A093D7
:104F5000F607B093F7070E94CD0E8093EF0781E02C
:104F600026960FB6F894DEBF0FBECDBFDF91CF916E
:104F70001F910F910895FC0190E080E02191DC01E8
:104F8000A750B84F2C93019684309105B9F70E9431
:104F9000340E882341F0809100088093FD078091B2
:104FA000FF078093FE074091F0075091F107609151
:104FB000F2077091F3078091710590917205A091AD
:104FC0007305B0917405481759076A077B0781F08C
:104FD0008091F0079091F107A091F207B091F3074B
:104FE0008093710590937205A0937305B093740537
:104FF0004091F4075091F5076091F6077091F7071B
:1050000080916D0590916E05A0916F05B09170052E
:10501000481759076A077B0781F08091F407909140
:10502000F507A091F607B091F70780936D0590936F
:105030006E05A0936F05B09370058091EF07811105
:105040000C94790E0C94B20E8EE14A9B02C08150F2
:10505000E1F74A9BFECF08955A9880E28A95F1F7CE
:105060005A9A0895FC013BE03A95F1F798E020E068
:1050700080E031E040E14A95F1F7880F4A9B02C099
:105080008160232742E04A95F1F7000040E14A950C
:10509000F1F7915079F790E19A95F1F799B132E0F3
:1050A0003A95F1F7000040E14A95F1F792FB992714
:1050B00090F992272081920F90830895EF92FF92AA
:1050C0000F931F93CF93DF930F92CDB7DEB7198263
:1050D0008C017C01E60EF11C0E151F0561F481E0C8
:1050E0009981911180E00F90DF91CF911F910F91E5
:1050F000FF90EF9008950E942428CE0101960E940F
:105100003228F80181938F01E7CF909302088093B2
:105110000108529A5A9A08959093020880930108C0
:1051200052985A9AEA9AE9E6F0E080818F7C80836F
:1051300008956150770B91E001C0990F6A95EAF7E5
:1051400020E031E0911108C0222391F05A9A80E2C8
:105150008A95F1F75A980895492F482339F05A9AB9
:10516000232740E24A95F1F79695ECCF5A98F9CF6C
:105170005A98EDCFFF920F931F93CF93DF93EC01DB
:105180008C01060F111DC017D10731F4DF91CF91AB
:105190001F910F91FF900895F9900E942C2868E0CC
:1051A0008F2D0E949928EFCF1F920F920FB60F926A
:1051B00011242F933F934F935F936F937F938F931C
:1051C0009F93AF93BF93CF93DF93EF93FF935A983F
:1051D000529AC0910108D09102086D81662321F096
:1051E0008E819F810E94BA280E942C2880E18A9596
:1051F000F1F75A9852985A9A80E18A95F1F76A81A4
:10520000662309F18B819C810E945E28E881F981E7
:10521000882311F088E001C082E080830E94242866
:10522000FF91EF91DF91CF91BF91AF919F918F91BE
:105230007F916F915F914F913F912F910F900FBE92
:105240000F901F901895E881F981E4CFCF93DF93F9
:10525000C0910108D0910208F894529A5A9885E0BA
:105260008A95F1F7000052985A9A80E28A95F1F7F0
:105270004A9B0CC0529A5A9AE881F98181E0808356
:10528000789481E090E0DF91CF9108956D8166235D
:1052900081F08E819F810E945E2881110AC0529AFE
:1052A0005A9AE881F98182E08083789482E090E0E4
:1052B000EACF0E94242880E28A95F1F75A98529A00
:1052C00080E18A95F1F76A81662321F08B819C81C8
:1052D0000E94BA280E942C28E881F98110827894D3
:1052E00090E080E0D0CF1092B9008CE08093B800BD
:1052F0000895EF92FF920F931F93CF93DF93182F90
:10530000EB011092BC0084EA8093BC000E94F70E6F
:105310007C018091BC0087FF27C08091B900887F05
:10532000883029F08091B900887F8031D9F51093B9
:10533000BB0084E88093BC000E94F70E8C01809132
:10534000BC0087FF24C02091B900287F90E080E056
:105350002831B1F081E090E0203411F490E080E059
:105360009195819591090CC0CF3FDC0791F20E9485
:10537000F70E8E199F098C179D0758F28EEF9FEF3D
:10538000DF91CF911F910F91FF90EF900895CF3F44
:10539000DC07A9F20E94F70E801B910B8C179D076A
:1053A00070F2ECCF8FEF9FEFEBCF0F931F93CF9364
:1053B000DF93EB018093BB0084E88093BC000E94E4
:1053C000F70E8C018091BC0087FF11C02091B900BD
:1053D000287F81E090E0283211F490E080E0919500
:1053E00081959109DF91CF911F910F910895CF3F42
:1053F000DC0741F30E94F70E801B910B8C179D0771
:1054000008F38EEF9FEFEECF0F931F93CF93DF93B1
:10541000EC0184EC8093BC000E94F70E8C0180911B
:10542000BC0087FF08C08091BB0090E0DF91CF9166
:105430001F910F910895CF3FDC0789F30E94F70E6B
:10544000801B910B8C179D0750F38EEF9FEFEECFD3
:105450000F931F93CF93DF93EC0184E88093BC00FC
:105460000E94F70E8C018091BC0087FF08C08091DC
:10547000BB0090E0DF91CF911F910F910895CF3F36
:10548000DC0789F30E94F70E801B910B8C179D0798
:1054900050F38EEF9FEFEECFCF92DF92EF92FF921D
:1054A0000F931F93CF93DF936B018A01F22EE32EAC
:1054B000622F732F0E947929AC01E6010C0D1D1D8E
:1054C000C017D10711F057FF0DC084E98093BC00CD
:1054D000CA01DF91CF911F910F91FF90EF90DF9064
:1054E000CF9008956F2D7E2D89910E94D529AC0112
:1054F000E7CFCF92DF92EF92FF920F931F93CF935C
:10550000DF93C62F6A017901B8010E9479299C01B5
:1055100097FD0DC0B8018C2F0E94D5299C01E60192
:10552000EC0CFD1CCE15DF0511F037FF0DC084E932
:105530008093BC00C901DF91CF911F910F91FF9023
:10554000EF90DF90CF900895B80189910E94D529FE
:105550009C01E8CFCF92DF92EF92FF920F931F93BF
:10556000CF93DF93D82EC62EEA017901B8010E94AD
:1055700079299C0197FD17C0B8018C2D0E94D5296F
:105580009C0197FD10C0B8018D2D81600E94792982
:105590009C01D12CC12C81E0E81AF108CE14DF0463
:1055A00010F537FF12C084E98093BC00C9011816BA
:1055B000190614F490E080E0DF91CF911F910F91D4
:1055C000FF90EF90DF90CF900895C8010E94042AC9
:1055D0009C0197FD04C0FE01EC0DFD1D80838FEF43
:1055E000C81AD80ADBCF37FDDECFC8010E94282AAF
:1055F0009C0197FDD8CFCE0DDF1D8883D4CF84E9E1
:105600008093BC0008950E94182C60F080E891E01F
:1056100009F49EEF0E941F2C28F040E851E071F43D
:105620005EEF0CC00C94EE2B0C94982CE92FE078D4
:105630000E94762C40F3092E052AB1F3261737076E
:105640004807590738F00E2E07F8E02569F0E025E5
:10565000E0640AC0EF6307F8009407FADB01B901C0
:105660009D01DC01CA01AD01EF930E948D2B0E94C8
:10567000512C0E94462B5F91552339F02BED3FE0D2
:1056800049E450FD49EC0C94B32D0895DF93DD27D8
:10569000B92FBF7740E85FE31616170648075B0788
:1056A00018F4D92F0E949F2C9F938F937F936F9311
:1056B0000E94AE2DECEAF0E00E94F12B0E94512CEA
:1056C0002F913F914F915F910E94B62CDD2351F0B5
:1056D0009058A2EA2AED3FE049EC5FE3D0785D27DD
:1056E0000E94CA2DDF910C94512C0E94282CE39526
:1056F0000C94622C0E941F2C58F00E94182C40F031
:1057000029F45F3F29F00C94E82B51110C94992C4B
:105710000C94EE2B0E94762C68F39923B1F3552359
:1057200091F3951B550BBB27AA27621773078407B4
:1057300038F09F5F5F4F220F331F441FAA1FA9F34A
:1057400035D00E2E3AF0E0E832D091505040E69538
:10575000001CCAF72BD0FE2F29D0660F771F881F99
:10576000BB1F261737074807AB07B0E809F0BB0B8C
:10577000802DBF01FF2793585F4F3AF09E3F5105A0
:1057800078F00C94E82B0C94992C5F3FE4F3983E4E
:10579000D4F3869577956795B795F7959F5FC9F789
:1057A000880F911D9695879597F90895E1E0660F0A
:1057B000771F881FBB1F621773078407BA0720F083
:1057C000621B730B840BBA0BEE1F88F7E0950895EC
:1057D00097F99F6780E870E060E008959FEF80ECA4
:1057E0000895DF93CF931F930F93FF92EF92DF9271
:1057F0007B018C01689406C0DA2EEF010E94B62C62
:10580000FE01E894A5912591359145915591A6F316
:10581000EF010E94CA2DFE019701A801DA9469F7F1
:10582000DF90EF90FF900F911F91CF91DF9108953E
:1058300000240A941616170618060906089500246F
:105840000A94121613061406050608950C94EE2BFE
:105850000E947E2CD8F3E894E0E0BB279F57F0F03D
:105860002AED3FE049EC06C0EE0FBB0F661F771F25
:10587000881F28F0B23A62077307840728F0B25AEB
:10588000620B730B840BE3959A9572F7803830F4B2
:105890009A95BB0F661F771F881FD2F790480C940C
:1058A0005F2E092E0394000C11F4882352F0BB0FD5
:1058B00040F4BF2B11F460FF04C06F5F7F4F8F4F28
:1058C0009F4F0895EF93E0FF07C0A2EA2AED3FE063
:1058D00049EC5FEB0E94CA2D0E94512C0F9003945B
:1058E00001FC9058E9EDF0E00C94722E57FD9058B1
:1058F000440F551F59F05F3F71F04795880F97FB94
:10590000991F61F09F3F79F087950895121613064D
:105910001406551FF2CF4695F1DF08C0161617067C
:105920001806991FF1CF86957105610508940895B1
:10593000E894BB2766277727CB0197F908959B0149
:10594000AC0160E070E080E89FE30C941F2E0E94A1
:10595000182C38F00E941F2C20F0952311F00C9485
:10596000E82B0C94EE2B11240C94992C0E94762C8D
:1059700070F3959FC1F3950F50E0551F629FF001A2
:10598000729FBB27F00DB11D639FAA27F00DB11DBB
:10599000AA1F649F6627B00DA11D661F829F222744
:1059A000B00DA11D621F739FB00DA11D621F839FCB
:1059B000A00D611D221F749F3327A00D611D231FA1
:1059C000849F600D211D822F762F6A2F11249F57EF
:1059D00050409AF0F1F088234AF0EE0FFF1FBB1FF2
:1059E000661F771F881F91505040A9F79E3F5105B1
:1059F00080F00C94E82B0C94992C5F3FE4F3983ED4
:105A0000D4F3869577956795B795F795E7959F5F5A
:105A1000C1F7FE2B880F911D9695879597F90895EC
:105A2000FA01EE0FFF1F309621053105A1F1611536
:105A3000710561F48038BFE39B0749F168949038A1
:105A4000810561F08038BFEF9B0741F099234AF54B
:105A5000FF3FE1053105210519F1E8940894E79528
:105A6000D901AA2329F4AB2FBE2FF85FD0F310C0C1
:105A7000FF5F70F4A695E0F7F73950F019F0FF3AA0
:105A800038F49F779F930DD00F9007FC905808959E
:105A900046F00C94EE2B60E070E080E89FE3089500
:105AA0004FE79F775F934F933F932F930E94C82EAA
:105AB0002F913F914F915F910E94442F0C942B2E78
:105AC0009F930E94282C0F9007FCEE5F0C94622C91
:105AD00019F416F40C94EE2B0C945D2E0E947E2C7F
