:100000000C94FB020C9442030C9442030C941329AD
:100010000C9442030C9442030C9442030C9442034C
:100020000C9442030C9442030C94FE0A0C94DE0FD1
:100030000C949C260C9442030C9442030C944203AF
:100040000C9442030C9442030C9442030C9442031C
:100050000C9442030C940D0C0C9442030C94420338
:100060000C9442030C9442030C9442030C944203FC
:100070000C9442030C9442030C9442030C944203EC
:100080000C9442030C9442030C9442030C944203DC
:100090000C9442030C9442030C9442030C944203CC
:1000A0000C9442030C9442030C944203084AD73B3D
:1000B0003BCE016E84BCBFFDC12F3D6C74319ABD37
:1000C00056833DDA3D00C77F11BED9E4BB4C3E915B
:1000D0006BAAAABE000000803F05A84CCDB2D44E4A
:1000E000B93836A9020C50B9918688083CA6AAAA4C
:1000F0002ABE000000803F07634236B79BD8A71A8C
:1001000039685618AEBAAB558C1D3CB7CC5763BD99
:100110006DEDFD753EF6177231BF000000803F089F
:10012000000000BE922449123EABAAAA2ABECDCC42
:10013000CC4C3E00000080BEABAAAAAA3E00000044
:1001400000BF000000803F0000000000084178D39D
:10015000BB4387D1133D190E3CC3BD4282AD2B3E3C
:1001600068EC8276BED98FE1A93E4C80EFFFBE01DC
:10017000C4FF7F3F000000000000000000000000FE
:10018000000000000000000000000000000000006F
:1001900000000000000000000000000000007E0FD2
:1001A00000D4FFFFFFC7000000780000000000003F
:1001B00000002A2B280000000000000000000000C2
:1001C000000000000029000000002C1E3420212225
:1001D00024342627252E362D3738271E1F2021228E
:1001E000232425263333362E37381F040506070807
:1001F000090A0B0C0D0E0F101112131415161718F7
:10020000191A1B1C1D2F3130232D35040506070834
:10021000090A0B0C0D0E0F101112131415161718D6
:10022000191A1B1C1D2F3130354C2B0014000700F0
:1002300015001A000500E000040016000B0017006E
:100240000A00E1001D001B0010000600190000005C
:10025000000000002A5D2B5D2C00355D330013008B
:10026000180009000D00555D0C0012000800110077
:100270001C00365D595D370036000F000E0000008F
:1002800000000000F65C2C5D2800E300435DAA003E
:10029000A900A800505DE0003D5D375D385D395D27
:1002A000485DE100495D4B5D4C5D4D5D455D000085
:1002B000000000002A5D2B5D305DE600445DAB0070
:1002C000AC00AE00515D00003E5D3C5D3B5D3A5DC3
:1002D0004F5D365D545D4A5D535D525D4E5D00007D
:1002E000000000004C002C5D0000E3002100200015
:1002F0001F001E002200E0005A5D565D575D585DEC
:100300005B5DE100625D615D635D645D655D000094
:10031000000000002A5D2B5D2B00E6002600250072
:10032000240023002700F65C605D5F5D5E5D5D5D1F
:100330005C5D365D695D6A5D675D685D665D000098
:10034000000000004C002C5D2B00E300755D765D25
:10035000775D785D795DE0006B5D6C5D6D5D6E5D18
:100360006F5DE100705D715D725D735D745D0000D5
:10037000000000002A5D2B5D345D000000004B0092
:100380004E004D004A0000001A5C4F005200510020
:100390005000365D7A5D7B5D7D5D7C5D0000000018
:1003A0000000000000002C5D345D8A5D7E5D7F5D95
:1003B000815D825D885DE0004400855D865D805DD5
:1003C000835DE1003D003C003B003A003E00000040
:1003D00000000000FF002B5D0000845D895DF300DC
:1003E000ED00F200875DFE004500F000EE00EF003A
:1003F000F100365D4200410040003F004300000034
:1004000000000000F65CFE00FF002F5D0000000011
:100410000000000000002F5D000000000000000050
:1004200000002F5D000000000000000052000000EE
:1004300000000000500051004F002F5D0000000040
:100440000000000000002F5D000000000000000020
:1004500000002F5D000000000000000052000000BE
:10046000000000004F0051005000005C0000CC5C18
:10047000C65CC85CCA5C00000000CD5CC75CC95C9F
:10048000CB5CC55C0000000000000000C35C000005
:10049000000000000000000000000000000000005C
:1004A00000000000335D000000000000475D465D75
:1004B000000000000000000000000000000000003C
:1004C0000000000000000000000005010902A10179
:1004D00085020901A1000509190129081500250156
:1004E0009508750181020501093009311581257FC3
:1004F00095027508810609381581257F95017508D3
:100500008106050C0A38021581257F950175088141
:1005100006C0C005010980A101850319012AB700A1
:10052000150126B700950175108100C0050C090161
:10053000A101850419012AA002150126A002950136
:1005400075108100C005010906A101050719E02900
:10055000E71500250195087501810295017508814F
:10056000010507190029FF150026FF0095067508EB
:10057000810005081901290595057501910295016C
:1005800075039101C009023B00020100A0FA0904B1
:1005900000000103010100092111010001224000B6
:1005A0000705810308000A09040100010300000097
:1005B000092111010001227B000705820320000AA6
:1005C0001201100100000008534601000100010261
:1005D00000010C0343006F0072006E006500000014
:1005E000100366006F006F007300740061006E00FE
:1005F00000000403090411241FBECFEFDAE0DEBFC0
:10060000CDBF04B603FE27C080916E0290916F02A9
:10061000A0917002B09171028730904BA740B04B0F
:10062000D1F410926E0210926F021092700210922A
:10063000710214BE84B7877F84BF0FB6F894A89563
:1006400080916000886180936000109260000FBE0E
:10065000E0E0F8E3099511E0A0E0B1E0EAE5F5E6B5
:1006600002C005900D92AC37B107D9F722E0ACE794
:10067000B1E001C01D92AE36B207E1F70E94D92168
:100680000C94B9310C940000E8EDF0E080818E7F8D
:1006900080831092E2001092DA001092E100A0EE46
:1006A000B0E08C9181608C9380818F77808319BCBE
:1006B000A7EDB0E08C918E7F8C9380818F7E8083BC
:1006C0001092490208952091E4003091E50095E6EA
:1006D000A9012091EC00822F817020FF06C080913B
:1006E000E80080FF06C080E008952091E80022FD28
:1006F0001AC080915602882389F0853089F0809154
:10070000EB0085FD0FC02091E4003091E500421719
:100710005307F9F29150E1F684E0089582E00895DC
:1007200083E0089581E00895EF92FF920F931F9365
:10073000CF937C018B010E946303C82F811117C0E6
:100740008091E80085FD0BC08091E8008E77809352
:10075000E8000E946303882399F3C82F08C0F701BB
:1007600081917F018093F1000150110949F78C2F8D
:10077000CF911F910F91FF90EF90089580915802B3
:1007800087FF13C08091E80082FF06C08091E800D7
:100790008B778093E80004C0809156028111F2CFDC
:1007A0000895809156028823D9F38091E80080FF54
:1007B000F8CF8091E8008E77ECCF982F9093E900E6
:1007C000242F762F50E0891731F07091EC002091A2
:1007D000ED005091F00021FD07C09F5F973071F749
:1007E0008093E90081E008953091EB003E7F3093E3
:1007F000EB003091ED003D7F3093ED003091EB0048
:1008000031603093EB007093EC002093ED00509337
:10081000F0002091EE0027FDE0CF80E00895CF9218
:10082000DF92EF92FF920F931F93CF93DF93C8ED68
:10083000D0E088818F7E8883E7EDF0E08081816061
:10084000808384E082BF81E08093490288818E7F2B
:10085000888302EE10E0F80110821092DA0081EE37
:10086000C82ED12CF601108288818F7788838881E9
:100870008068888388818F7D888319BC1092560296
:1008800010925702109255021092540290EEE92EE7
:10089000F12CF70180818B7F808388818160888340
:1008A00042E060E080E00E94DD03F60180818E7FFF
:1008B0008083F8018081816080838081886080836B
:1008C000F70180818E7F8083888180618883DF91BA
:1008D000CF911F910F91FF90EF90DF90CF900895EF
:1008E000FC0180915E0290915F0286179707A0F04D
:1008F0006115710529F49091E8009E779093E800C6
:1009000090E06115710551F4911108C08091E800E3
:1009100082FF34C080E00895BC01F2CF809156027E
:100920008823C1F18530C1F18091E80083FD30C09A
:100930008091E80082FDEACF8091E80080FFE1CF5E
:100940008091F3002091F200382F6115710519F0A4
:100950002830310558F091E02830310509F090E059
:100960002091E8002E772093E800CBCF81918093EF
:10097000F100615071092F5F3F4FE7CF8091560220
:10098000882341F0853041F08091E80083FFBECF9D
:1009900081E0089582E0089583E0089580E008955D
:1009A00080914B0208959C014FB7F8948091F40117
:1009B0009091F501A091F601B091F7014FBF821B14
:1009C000930B08952FB7F8946091F4017091F5019D
:1009D0008091F6019091F7012FBF08959C01FC01D1
:1009E00032969FEF80E04191461751F09F3F19F4F6
:1009F000411101C0982F8F5F8630A9F79F3F09F4FE
:100A00000895290F311D97FD3A95F90162830895E4
:100A10008091EF0181111092EF0108958091EE0114
:100A20009091ED01892B9091EC01892B80937E01AF
:100A30009091EF01992391F0892B80937E0120E022
:100A400080E891E0FC013191CF0131112F5FF1E09D
:100A500086389F07B9F721110E940805E091080226
:100A6000F0910902309731F00280F381E02D8EE79A
:100A700091E009940895E92FEE0FE90FEE0F8E0F24
:100A8000982F977086958695869525E0829FF00130
:100A90001124E353FE4F50E040E080E0219130E02C
:100AA000092E02C0369527950A94E2F72170332764
:100AB000042E01C0220F0A94EAF7822B4F5F5F4F8A
:100AC0004530510559F70895E92FEE0FE90FEE0F64
:100AD0008E0F982F977041E001C0440F9A95EAF766
:100AE00086958695869595E0899FF0011124E353BC
:100AF000FE4F30E020E070E05191DF011197CB0113
:100B0000022E02C0969587950A94E2F7817081952E
:100B10008527842385278C932F5F3F4F2530310510
:100B200059F70895282F80913B0290913C02A091A3
:100B30003D02B0913E020097A105B10549F004C005
:100B4000B695A795979587952A95D2F781700895C0
:100B500080E008958091CC0190919B01981301C091
:100B600008958F5F8770FACF882341F08095909128
:100B7000EE0189238093EE010C940E0508958823DD
:100B800039F09091EE01982B9093EE010C940E05A4
:100B9000089520918E0130918F012817390771F047
:100BA00090938F0180938E01E0910802F0910902E9
:100BB000309721F00084F185E02D0994089520916B
:100BC0008C0130918D012817390771F090938D01B8
:100BD00080938C01E0910802F0910902309721F096
:100BE0000680F781E02D09940895E0910802F091C4
:100BF0000902309739F022E0DC012C930480F58162
:100C0000E02D09940895E0910802F09109023097CF
:100C100021F00190F081E02D099480E00895809109
:100C2000150290E0880F991FFC01EC5DFE4F2081BA
:100C3000845E9E4FFC01808190911A02191614F473
:100C400020931A0290911A0297FF04C0922F919557
:100C500090931A0290911B02191614F420931B0210
:100C600090911B0297FF03C0219520931B02909146
:100C70001D02191614F480931D0290911D0297FF16
:100C800004C0982F919590931D0290911C02191603
:100C900014F480931C0290911C0297FF03C081956D
:100CA00080931C0230911A023323A1F020911B0281
:100CB000222381F045EB3403C00111249923F1F084
:100CC00090931A0245EB2403900111243323D1F0B1
:100CD00030931B0240911D02442379F030911C0295
:100CE000332359F025EB4203A001112450931D0238
:100CF00032039001112430931C02089581E0809307
:100D00001A02E0CF81E080931B02E4CF8D3E39F4DC
:100D100090911B0297FF09C010921B0208958E3E0E
:100D200081F490911B021916BCF38D3F08F450C05A
:100D30008091150210921502882309F449C00C9481
:100D40000F068F3E39F490911A0297FFEECF109262
:100D50001A020895803F29F490911A021916BCF3E3
:100D6000E4CF893F39F490911C021916F4F61092E1
:100D70001C0208958A3F29F490911C0297FFD5CF59
:100D8000F6CF8B3F39F480911D0287FF21C010926E
:100D90001D0208958C3F29F480911D021816BCF3A2
:100DA00008959FE0980F983008F0BFCF815F990BAE
:100DB00021E030E0A90102C0440F551F8A95E2F7F7
:100DC000CA01809590911902892380931902089590
:100DD000089540911502242F30E0220F331FF901AE
:100DE000EC5DFE4F90818D3E21F4919590931B0216
:100DF00008958E3ED9F38F3E21F4919590931A0277
:100E00000895803FD9F3245E3E4FF9019081893FD8
:100E100019F490931C0208958A3F11F49195F9CF2B
:100E20008B3F21F4919590931D0208958C3FD9F347
:100E30009FE0980F983070F4815F990B21E030E0CB
:100E400001C0220F8A95EAF780911902822B8093C4
:100E5000190208958D3F49F481E080931502809135
:100E60001502481751F00C940F068E3F11F482E0E2
:100E7000F4CF8F3F11F483E0F0CF0895F894E82F7A
:100E8000E295EF70F0E031A1282F2F7081E090E023
:100E900001C0880F2A95EAF7982F9095932391A384
:100EA00092A1892B82A3789408959091060292FFD3
:100EB00006C0282F28712830F9F4877F846093FFBB
:100EC00006C0282F28712831F1F4877E8461209193
:100ED000070220FF06C0382F38713830D9F4877FD9
:100EE000816021FF06C0282F28712831D1F4877E28
:100EF000816194FD877E0895282F24712430F9F6AE
:100F00008B7F8860DCCF282F2471243101F78B7E02
:100F10008861DDCF382F3171313019F78E7F8860CD
:100F2000E0CF282F2171213121F78E7E8861E1CF1A
:100F3000CF93DF93972F70E026E0929F600D711D95
:100F40001124FB0130E3839FE00DF11D1124EE0F0E
:100F5000FF1FE65DFD4FC591D491CE01C238D1058A
:100F6000B9F1E8F5C133D10509F499C050F5C9329A
:100F7000D10509F48DC0CA32D10509F497C0C11555
:100F800021E5D20708F0BFC0C11530E5D30708F04E
:100F900016C1C83ED10508F09DC0C03ED10568F518
:100FA000C83AD10508F089C0C53AD10508F0FFC09C
:100FB000C130D10511F1209709F443C02497E8F41A
:100FC00040C0C533D10509F45CC0C933D105B9F6B9
:100FD00020910602237089F080EE90E00EC0C33E9F
:100FE000D10591F168F4C03ED105F9F0C23ED105BA
:100FF00031F62091060222FD20C0DF91CF910895A5
:10100000C63ED10561F1C73ED10581F1C43ED1058F
:1010100009F0B5CF2091070221FFEFCF80910602A2
:1010200084FD0FC087EE90E0E8CF2091060220FDFE
:1010300012C13091070230FFE0CF83EE90E024FF31
:10104000DCCF90E080E0D9CF2091060222FD06C1DE
:101050003091070230FDC0CF24FFCFCFF2CF2091D7
:10106000060223FFCACF24FDECCFDCCF209106027D
:1010700023FDF7C03091070231FFEECF84EE90E000
:10108000BCCF2091060225FFB8CF89E290E0B5CF12
:101090002091060225FFB1CF85E390E0AECF2091ED
:1010A000060226FFAACF8AE290E0A7CF209106028F
:1010B00026FFA3CF81E390E0A0CFCF3BD10508F678
:1010C000C85AD0E0CC0FDD1FC15DDE4F8881998109
:1010D000946493CFC11520E2D20760F4C11531E0CA
:1010E000D30708F08ACFCE019065CD3ED10508F038
:1010F00084CFA7CFC11580E4D80708F4A2CFCE01D2
:101100009F70906A7ACFC11595E5D90710F5C11582
:1011100024E5D20708F088C0C11533E5D30708F0ED
:101120006FC0C11582E5D80708F465C09E01237021
:10113000332781E090E002C0880F991F2A95E2F7DB
:10114000C695C69520E2C29FE00111248C2B9D2BF1
:1011500050C0C11599E5D907A0F4C11528E5D207FB
:1011600008F067C0C11536E5D30708F06ACF8C2FA9
:101170000E94550790E0982F882788279F719062DA
:101180003CCFC1158AE5D80708F458C0CE01905667
:101190008115904208F055CF8D2F8F710E94550711
:1011A00090E0982F882788279F718C2BE8CFC55A0D
:1011B000D0E0C45DDE4F888190E090641ECF9E0138
:1011C000E4E036952795EA95E1F723708C2F869514
:1011D0008695837030E2839FC0011124922BC370E7
:1011E00021E030E002C0220F331FCA95E2F7822BC4
:1011F000932B9C6802CF9C2F8827816F906AFDCE2D
:101200009E012370332781E090E002C0880F991F70
:101210002A95E2F7C695C69530E2C39FE0011124F6
:101220008C2B9D2B9A68E9CE9C2F8827846F906A1F
:10123000E4CE9C2F8827806F906ADFCE8C2F8F7032
:101240000E94550734E0D695C7953A95E1F7CF70DF
:101250009C2F9069D2CE89E390E0CFCE82EE90E0D1
:10126000CCCE86EE90E0C9CEBF92CF92DF92EF92C5
:10127000FF920F931F93CF93DF938C01C0903B029B
:10128000D0903C02E0903D02F0903E028091F0014F
:101290009091F101A091F201B091F301C82AD92AED
:1012A000EA2AFB2ACFE1D0E0BC2ED701C6010C2EE2
:1012B00004C0B695A795979587950A94D2F780FDB7
:1012C0000EC0219788F7B12C8B2DDF91CF911F9104
:1012D0000F91FF90EF90DF90CF90BF900895B801ED
:1012E0008C2F0E949807019761F3EECFCF93DF9385
:1012F000EC010E943409BE01DF91CF910C94980754
:101300000E947609292F2F7092959F7092509E30DF
:1013100078F4E92FF0E0E554FE4C0C94B229803FBC
:1013200019F020F4883E20F481E00895843FE1F331
:1013300080E00895883EC0F3813FD1F7F5CF822F3A
:101340008695869586950895DC01FB0180819181C3
:10135000803891054CF08FE78C93808191818F5775
:10136000910991838083089581382FEF92073CF48F
:1013700081E88C938081918181589F4FF2CF8C932B
:10138000118210820895CF9384E090E00E94EF29AB
:10139000C82F81E290E00E94EF29982F8C2FCF91E7
:1013A0000895CF93DF9300D00F92CDB7DEB7909121
:1013B0005602943019F589837B836A8382E0809397
:1013C000E9008FEF9091E800815095FD06C095ED02
:1013D0009A95F1F700008111F5CF8091E80085FF23
:1013E0000DC050E040E063E070E0CE0101960E9445
:1013F00094038091E8008E778093E8000F900F901F
:101400000F90DF91CF910895BC0184E00C94D10935
:10141000BC0183E00C94D1099C0182E08093E90037
:101420009FEF8091E800915085FD06C085ED8A957B
:10143000F1F700009111F5CF8091E80085FF0CC015
:1014400050E040E066E070E0C9010E9494038091A2
:10145000E8008E778093E8000895CF93DF93EC0146
:1014600081E08093E9008FEF9091E800815095FD35
:1014700006C095ED9A95F1F700008111F5CF8091A6
:10148000E80085FF14C050E040E068E070E0CE0165
:101490000E9494038091E8008E778093E80088E0B2
:1014A000FE01ACE4B2E001900D928A95E1F7DF9184
:1014B000CF91089580918B01811111C08091D80046
:1014C00080618093D8008AE18A95F1F700C09091FD
:1014D000D900892F817090FF82E080938B0181E099
:1014E00090918B01913009F080E008956BEE7EEFD2
:1014F00090E080E00E941B2A60E082E090E00E9481
:10150000FD2960E083E090E00E94FD291092F00147
:101510001092F1011092F2011092F30160E084E068
:1015200090E00E94FD2960E081E290E00E94FD29A8
:1015300060E085E090E00E94FD2960E086E090E0B8
:101540000E94FD296FEF87E090E00E94FD2940E0B6
:1015500050E0BA0188E090E00E940F2A60E08DE040
:1015600090E00E94FD2940E050E0BA0188E190E05F
:101570000E940F2A60E087E190E00E94FD2940E090
:1015800050E0BA018CE190E00E940F2A60E080E216
:1015900090E00E94FD2940E050E0BA0188E190E02F
:1015A0000E940F2A40E050E0BA018FE090E00E94D4
:1015B0000F2A40E050E0BA0183E190E00C940F2A3A
:1015C000CF93DF9300D000D00F92CDB7DEB7198252
:1015D0008A836B834C832D8324E630E045E050E022
:1015E000BE016F5F7F4F84E10E94ED270F900F9047
:1015F0000F900F900F90DF91CF9108951F920F924F
:101600000FB60F9211242F933F934F935F936F93D5
:101610007F938F939F93AF93BF93EF93FF938091AB
:10162000E10082FF09C08091E20082FF05C0809145
:10163000E1008B7F8093E1008091DA0080FF24C07D
:101640008091D80080FF20C08091DA008E7F809347
:10165000DA008091D90080FF9BC080E189BD82E1E2
:1016600089BD09B400FEFDCF81E0809356028091D0
:101670004902811109C00E9444030E940F04809115
:10168000E20084608093E2008091E10080FF17C057
:101690008091E20080FF13C08091E2008E7F8093F2
:1016A000E2008091E20080618093E2008091D800A6
:1016B00080628093D80019BC85E0809356028091A7
:1016C000E10084FF29C08091E20084FF25C080E111
:1016D00089BD82E189BD89B5982F917080FFFBCFCC
:1016E0008091D8008F7D8093D8008091E1008F7E1B
:1016F0008093E1008091E2008F7E8093E2008091F0
:10170000E20081608093E20080915702882309F40F
:1017100045C084E0809356028091E10083FF27C09A
:101720008091E20083FF23C08091E100877F809356
:10173000E10082E080935602109257028091E1000E
:101740008E7F8093E1008091E2008E7F8093E200A3
:101750008091E20080618093E20042E060E080E0FE
:101760000E94DD038091F00088608093F000FF917B
:10177000EF91BF91AF919F918F917F916F915F9109
:101780004F913F912F910F900FBE0F901F90189582
:1017900019BC109256021092490276CF8091E30054
:1017A00087FD93E090935602B7CF0F931F930E944B
:1017B0005A0A882321F01F910F910C94E2040E9491
:1017C000E2040091F8011091F9012091FA013091A1
:1017D000FB01600F711F821F931F1F910F910895CE
:1017E000CF92DF92EF92FF926B017C010E945A0A26
:1017F00081110EC00E94E204C61AD70AE80AF90A4B
:10180000C092F801D092F901E092FA01F092FB0146
:10181000FF90EF90DF90CF90089578941F921FB6BD
:101820001F9211248F939F93AF93BF938091F401E4
:101830009091F501A091F601B091F7010196A11DDB
:10184000B11D8093F4019093F501A093F601B0933C
:10185000F701BF91AF919F918F911F901FBE1F9075
:1018600018952FB7F8948091F4019091F501A0910B
:10187000F601B091F7012FBF08950E94310C9C0131
:1018800090911A0280911B02982B21F0309317023D
:101890002093160290911C0280911D02982B21F03A
:1018A000309314022093130288E192E00C94F50522
:1018B00090E080E00E94DF0590E080E00E94C90592
:1018C0001092ED011092EC010E940E0586E0E8E115
:1018D000F2E0DF011D928A95E9F70C943D0C6093CC
:1018E0003B0270933C0280933D0290933E020C9425
:1018F000580C0F931F9341E050E060E070E004C08B
:10190000440F551F661F771F8A95D2F780913B02BF
:1019100090913C02A0913D02B0913E028A019B0150
:10192000082719272A273B27C901B8011F910F91C2
:101930000C946F0C0F931F9341E050E060E070E057
:1019400004C0440F551F661F771F8A95D2F7CB013D
:10195000BA01609570958095909500913B02109129
:101960003C0220913D0230913E026023712382238C
:1019700093231F910F910C946F0C9091EB01809524
:1019800089238093EB01282F277071F4282F082ECC
:10199000000C330B9217130639F0859585958595C4
:1019A0000E949A0C1092EB0108950F931F9341E04F
:1019B00050E060E070E004C0440F551F661F771FC1
:1019C0008A95D2F780913B0290913C02A0913D0212
:1019D000B0913E028A019B01082B192B2A2B3B2B2D
:1019E000C901B8011F910F910C946F0CCF93C82FB0
:1019F00081E00E949205882349F083E00E949205CD
:101A0000882321F084E0CF910C94D50CC11104C03F
:101A100084E0CF910C949A0CCF9108956093F001DB
:101A20007093F1018093F2019093F3010C94580CA0
:101A3000E0E8F1E086E0DF011D928A95E9F70C9479
:101A4000580C1092EE010C94180D1F93CF93DF9356
:101A5000CDB7DEB7AA970FB6F894DEBF0FBECDBFE5
:101A600088E592E02091F100FC012193CF01F2E0A2
:101A700080369F07B9F780915902833009F46FC00F
:101A8000B8F4813009F446C0823009F4B0C08091C6
:101A9000E80083FF7BC280915802909159029A30EE
:101AA00008F074C2E92FF0E0E753FE4C0C94B22921
:101AB0008A3009F48BC08B3009F46EC0893039F755
:101AC00080915802813219F780915C0290915D02F9
:101AD0000297E8F68091E800877F8093E800809184
:101AE000E80082FF37C09091F3008091F2000297E6
:101AF00029F48091F1008B7F813021F48091F100F5
:101B000080934B028091E8008B778093E8000E94DD
:101B1000BE03BDCF80915802813A09F0B8CF8091C1
:101B2000E800877F8093E80080915C0290915D02DD
:101B3000892B61F468E08CE492E070E00E9470040C
:101B40008091E8008B778093E800A1CF60E090E07F
:101B500080E0F3CF809156028111C1CF98CF809160
:101B60005802813A09F093CF80915C0290915D0216
:101B7000892B09F08CCF8091E800877F8093E80063
:101B80008091E80080FFFCCF80910E018093F100EE
:101B90008091E8008E77B9CF80915802813209F0A8
:101BA00076CF80915C0290915D02892B09F06FCF16
:101BB0008091E800877F8093E8000E94BE038091B7
:101BC0005A0280930E010E94210D61CF809158022C
:101BD000813209F05CCF8091E800877F8093E80034
:101BE0000E94BE0380915B0280934A0250CF809195
:101BF0005802813A09F04BCF8091E800877F8093AB
:101C0000E8008091E80080FFFCCF80914A02BECFBF
:101C1000803899F0823809F0B9C180915C028F70E8
:101C2000873008F0B3C18093E9008091EB0085FB19
:101C3000882780F91092E90006C0809154029091A3
:101C40005502911182609091E800977F9093E8008F
:101C50008093F1001092F1008091E8008E7792C19C
:101C6000882309F480C1823009F090C180915A0222
:101C7000811183C180915C028F702FEF280F263075
:101C800008F084C18093E9002091EB0020FF75C12A
:101C9000933031F48091EB0080628093EB006DC152
:101CA0009091EB0090619093EB0021E030E001C057
:101CB000220F8A95EAF72093EA001092EA008091B9
:101CC000EB008860EACF811161C110915A021F7741
:101CD0008091E3008078812B8093E3008091E8007D
:101CE000877F8093E8000E94BE038091E80080FF18
:101CF000FCCF8091E30080688093E30082E01111C3
:101D000083E08093560242C18058823008F03EC181
:101D100080915A0290915B028C3D23E09207A1F5DD
:101D200083E08A838AE289834FB7F894DE011396B1
:101D300020E03EE051E2E32FF0E050935700E491C1
:101D400020FF03C0E295EF703F5FEF708E2F90E0B1
:101D5000EA30C0F0C7968D939D932F5F243159F7D9
:101D60004FBF8091E800877F8093E8006AE270E0CF
:101D7000CE0101960E9470048091E8008B778093D9
:101D8000E80004C1C096E7CF40915C0250915D022B
:101D9000292F33272330310509F444C078F5213049
:101DA000310509F46FC08BE390E0E5E8F5E02230FF
:101DB000310509F0EBC02091E800277F2093E8006F
:101DC00020915E0230915F028217930708F49C0114
:101DD00040E02115310509F064C0411162C08091D5
:101DE000E80082FDC9CF80915602882329F2853010
:101DF00019F28091E80083FFF2CFBECF2132310586
:101E0000A9F12232310509F0C1C04115510509F48B
:101E100043C04130510509F0B9C08BE790E0EAECCE
:101E2000F4E0C9CF992781309105C1F0009759F0AE
:101E3000029709F0ABC0E2EDF5E0E4918E2F90E05F
:101E4000E2EDF5E007C0E2EFF5E0E4918E2F90E0DF
:101E5000E2EFF5E0009709F499C0ADCFE0EEF5E0D0
:101E6000E4918E2F90E0E0EEF5E0F4CF41155105BE
:101E700071F04130510509F089C089E090E0E0EB54
:101E8000F5E099CF82E190E0E0ECF5E094CF89E0D5
:101E900090E0E7E9F5E08FCF80E490E0E5E4F5E05D
:101EA0008ACF80915602882309F466CF853009F4E1
:101EB00063CF8091E80083FD5FCF8091E80082FDD1
:101EC0008ECF8091E80080FF84CF9091F3008091C5
:101ED000F2002115310519F08830910550F041E0EC
:101EE000089709F040E08091E8008E778093E80041
:101EF00070CF44914093F100319621503109019601
:101F0000E8CF803809F042C08091E800877F809355
:101F1000E800809157028093F1009ECE811136C077
:101F200010915A02123090F58091E800877F8093DB
:101F3000E800109357020E94BE03112311F084E0C1
:101F400005C08091E30087FDFACF81E080935602BF
:101F500042E061EC81E00E94DD0342E261EC82E05C
:101F60000E94DD0313C080915A02813079F481E030
:101F7000933009F080E0809355021092E90080913F
:101F8000E800877F8093E8000E94BE038091E8000C
:101F900083FF0AC08091E800877F8093E8008091EA
:101FA000EB0080628093EB00AA960FB6F894DEBF38
:101FB0000FBECDBFDF91CF911F9108951F920F9259
:101FC0000FB60F9211242F933F934F935F936F930C
:101FD0007F938F939F93AF93BF93CF93DF93EF93B1
:101FE000FF93D091E900DF708091EC00C82FC170A1
:101FF00080FDC0E81092E9008091F000877F809317
:10200000F00078940E94250D1092E9008091F00074
:1020100088608093F000CD2BCF70C093E900FF91D2
:10202000EF91DF91CF91BF91AF919F918F917F9170
:102030006F915F914F913F912F910F900FBE0F9035
:102040001F9018958823F1F19CEF980F913A78F43E
:10205000E0E8F1E026E831E09191891303C0DF0167
:1020600011971C922E173F07B9F70C940E0590E2BA
:10207000980F983088F4877021E030E0A90102C001
:10208000440F551F8A95E2F7CA0180959091EE01A1
:1020900089238093EE01E9CF9BE5980F933020F4DC
:1020A00090E080E00C94DF0598E5980F973120F4DC
:1020B00090E080E00C94C9058D3E20F00E948606D9
:1020C0000C943D0C0895CF93C82F882309F456C073
:1020D0008CEF8C0F813AF8F4E0E8F1E086E891E0CB
:1020E000DF012D91C21759F08A179B07D1F76C2F8A
:1020F0008EE791E00E94EE04CF910C940E052191A1
:10210000C21303C0DF0111971C928E179F07B9F706
:102110000E940E05ECCF80E28C0F883068F4C77007
:1021200021E030E001C0220FCA95EAF78091EE016C
:10213000822B8093EE01E0CFEBE5EC0FE33040F42F
:10214000F0E0E45DFE4F808190E0CF910C94DF05DC
:10215000E8E5EC0FE73150F4F0E0EE0FFF1FE15D32
:10216000FE4F80819181CF910C94C905CD3E30F016
:102170008C2F0E94E906CF910C943D0CCF910895CD
:102180001F93CF93DF93182FD0E0C0E0893311F471
:10219000C0E5D0E0812F0E946310209731F4812F99
:1021A000DF91CF911F910C9422108FE99FE001974E
:1021B000F1F700C000002197F0CF0F931F93CF934A
:1021C000DF93C62FD42F022FFC0182818823A1F038
:1021D000609362020E94310C9093610280936002CE
:1021E000C77081E001C0880FCA95EAF7DF91CF91EF
:1021F0001F910F910C94BF0580916202681335C046
:1022000080916002909161020E94D3048C329140CF
:1022100060F510E21D0FCD17B9F080E28C0F883009
:1022200040F4C77081E001C0880FCA95EAF70E94A8
:10223000B405183048F481E09D2F977001C0880FD5
:102240009A95EAF70E94BF05802F0E94C0101830AF
:1022500098F4D77081E001C0880FDA95EAF7DF9132
:10226000CF911F910F910C94B405C77081E001C00C
:10227000880FCA95EAF7F3CFDF91CF911F910F91A5
:1022800008950F931F93CF93DF938C01EB018091FF
:10229000020182FF2FC08B7F809302018091920107
:1022A0002091900130919101AB01421B530B209181
:1022B0000001309101014217530788F40E94631016
:1022C000809102018D7F80930201809192010E9492
:1022D00022108091ED018D7F8093ED0115C09091CA
:1022E000ED0192609093ED010E94631080910201D4
:1022F0008260E9CF802F0E942210809192019091FC
:1023000093010817190729F30E940E05D093910134
:10231000C0939001DF91CF911F910F910895EF929B
:102320000F931F93CF93DF93D82FC62F122F809137
:10233000EE01809386018272B9F4442319F081EE94
:102340000E946310112319F086EE0E9463108D2FF6
:102350000E946310809186018093EE01DF91CF91FE
:102360001F910F91EF9008951092EE01002319F044
:1023700081EE0E946310EE2019F086EE0E94631039
:102380008C2FE6CF2F923F924F925F926F927F9267
:102390008F929F92AF92BF92CF92DF92EF92FF9275
:1023A0000F931F93CF93DF93CDB7DEB764970FB62C
:1023B000F894DEBF0FBECDBF6C01FC018381948118
:1023C000892B41F01081F180812F8F218F3F11F0F7
:1023D0000C94D01D64960FB6F894DEBF0FBECDBF2F
:1023E000DF91CF911F910F91FF90EF90DF90CF90F1
:1023F000BF90AF909F908F907F906F905F904F9025
:102400003F902F9008950E943409082F682F8981EA
:102410009A810E946405E12FF0E026E0F29EE00D33
:10242000F11D112430E3039FE00DF11D1124EE0F87
:10243000FF1FE65DFD4F05911491F6018281F801C1
:10244000E45CFC45E73CF10510F00C94831DED5273
:10245000FE4C0C94B229882341F080EE0E94631058
:102460008AE20E9463100E94210D8091EB01877027
:1024700009F4B0CFF6018281882309F4ABCF82E062
:102480000E94BD0CA7CF882359F0E12C00E020E08A
:1024900040E06CE470E08AE290E00E948F11E5CFAA
:1024A0000E94180DE2CF8823D9F38091EE0181FFBD
:1024B00004C085E00E94D50CD8CF83E00E94790C3F
:1024C000D4CF882391F283EE0E9463108EE10E94A4
:1024D00063100E94210DC9CF882339F283EE0E9438
:1024E00063108FE10E9463100E94210DBECF8823EC
:1024F00009F4BBCF83EE0E94631080E20E94631058
:102500000E94210DB2CF882309F4AFCF83EE0E9441
:10251000631081E20E9463100E94210DA6CF8823E0
:1025200009F4A3CF83EE0E94631082E20E9463103D
:102530000E94210D9ACF882309F497CF83EE0E9441
:10254000631083E20E9463100E94210D8ECF8823C6
:1025500009F48BCF83EE0E94631084E20E94631023
:102560000E94210D82CF882309F47FCF83EE0E9441
:10257000631085E20E9463100E94210D76CF8823AC
:1025800009F473CF83EE0E94631080E50E9463100C
:102590000E94210D6ACF882309F467CF83EE0E9441
:1025A000631081E50E9463100E94210D5ECF882395
:1025B00009F45BCF83EE0E94631082E50E946310F2
:1025C0000E94210D52CF882309F44FCF83EE0E9441
:1025D00063108FE40E9463100E94210D46CF882370
:1025E00009F443CF81EE0E94631083EE0E946310D2
:1025F0008FE00E9463100E94210D37CF882309F4D9
:1026000034CF81EE0E94631083EE0E94631088E055
:102610000E9463100E94210D28CF882309F425CF42
:1026200083EE0E94631082E40E9463100E94210DD9
:102630001CCF882309F419CF81EE0E94631083EE2A
:102640000E9463108BE00E9463100E94210D0DCF49
:10265000882309F40ACF81EE0E94631083EE0E9462
:10266000631089E10E9463100E94210DFECE882331
:1026700009F4FBCE83EE0E94631089E00E94631090
:102680000E94210DF2CE882309F4EFCE81EE0E9444
:10269000631083EE0E94631087E00E9463100E9423
:1026A000210DE3CE882309F4E0CE81EE0E94631071
:1026B00083EE0E94631086E10E9463100E94210D48
:1026C000D4CE882309F4D1CE83EE0E94631085E135
:1026D0000E9463100E94210DC8CE882309F4C5CE44
:1026E00081EE0E94631083EE0E94631084E00E94DA
:1026F00063100E94210DB9CE882309F4B6CE83EE73
:102700000E94631088E30E9463100E94210DADCEE9
:10271000882309F4AACE83EE0E9463108BE20E9404
:1027200063100E94210DA1CE882309F49ECE81EE74
:102730000E94631083EE0E94631084E10E94631084
:102740000E94210D92CE882359F081EE0E946310E1
:1027500083EE0E9463108BE10E9463100E94210DA2
:10276000F6018281882309F480CE83EE0E946310F3
:102770008BE40E9463100E94210D77CE882309F418
:1027800074CE83EE0E9463108EE40E9463100E9458
:10279000210D6BCE882309F468CE81EE0E94631070
:1027A00083EE0E94631086E00E9463100E94210D58
:1027B00081EE0E94631083EE0E94631085E10E9407
:1027C00063100E94210D51CE882359F081EE0E94A2
:1027D000631083EE0E9463108CE20E9463100E94DB
:1027E000210DF6018281882309F45ACEE12C00E004
:1027F00020E040E06FE270E084E390E00E948F11FF
:1028000034CE882309F44CCEEE24E39400E021E09A
:1028100040E061E270E080E290E00E948F1125CEFE
:10282000882309F43DCEE12C01E020E040E060E2A5
:1028300070E08DE290E00E948F1117CE882309F49A
:102840002FCEE12C01E020E041E064E370E08FE175
:1028500090E00E948F1109CE882309F421CEE12C4B
:1028600001E020E041E06EE270E08DE290E00E9445
:102870008F11FBCD882309F413CEE12C00E020E07A
:1028800041E06EE270E08EE190E00E948F11EDCDAC
:10289000882309F405CEEE24E39400E020E041E033
:1028A00063E270E082E290E00E948F11DECD882327
:1028B00009F4F6CDEE24E39400E020E040E06FE17F
:1028C00070E080E390E00E948F11CFCD882309F45F
:1028D000E7CDE12C01E020E040E068E370E088E330
:1028E00090E00E948F11C1CD882309F4D9CDE12C4D
:1028F00001E020E041E06FE270E080E390E00E94C0
:102900008F11B3CD882309F4CBCDEE24E39400E0FE
:1029100020E041E065E370E084E290E00E948F11E6
:10292000A4CD882309F4BCCDE12C01E020E041E0F6
:1029300067E270E087E290E00E948F1196CD8823D5
:1029400009F4AECDEE24E39400E020E040E06CE139
:1029500070E084E690E00E948F1187CD882309F40F
:102960009FCDEE24E39400E020E041E06CE070E0D5
:1029700084E690E00E948F1178CD882309F490CDF1
:10298000EE24E39400E020E041E068E070E085E2BE
:1029900090E00E948F1169CD882309F481CDE12C4C
:1029A00001E020E041E061E270E086E290E00E9418
:1029B0008F115BCD882309F473CDE12C01E020E079
:1029C00041E065E370E083E290E00E948F114DCD1D
:1029D000882309F465CDE12C00E021E040E065E3C7
:1029E00070E08EE190E00E948F113FCD882309F4C2
:1029F00057CDEE24E39400E021E040E064E370E092
:102A000084E390E00E948F1130CD882309F448CDF3
:102A1000EE24E39400E021E040E062E370E082E332
:102A200090E00E948F1121CD882309F439CDEE2446
:102A3000E39400E021E040E06FE270E08FE290E09C
:102A40000E948F1112CD882309F42ACDEE24E3943D
:102A500000E021E040E060E370E080E390E00E946D
:102A60008F1103CD882309F41BCDE12C00E020E079
:102A700040E066E070E086E090E00E948F1120E088
:102A800040E064E070E08CE090E00E948F1120E074
:102A900040E067E170E087E190E00E948F11E5CCB3
:102AA000882309F4FDCCE12C00E020E040E066E062
:102AB00070E086E090E00E948F1120E040E064E04A
:102AC00070E08CE090E00E948F1120E040E063E134
:102AD00070E083E190E00E948F11C7CC882309F455
:102AE000DFCCE12C00E020E040E066E070E086E032
:102AF00090E00E948F1120E040E064E070E08CE004
:102B000090E00E948F1120E040E066E170E086E1F5
:102B100090E00E948F11A9CC882309F4C1CCE12C4C
:102B200000E020E040E066E070E086E090E00E9497
:102B30008F1120E040E064E070E08CE090E00E94C3
:102B40008F1120E040E06AE170E08AE190E00E94AD
:102B50008F118BCC882309F4A3CCE12C00E020E07A
:102B600040E066E070E086E090E00E948F1120E097
:102B700040E06CE070E08CE090E00E948F1120E07B
:102B800041E065E070E085E090E00E948F116DCC3F
:102B9000882309F485CCE12C00E020E040E069E1E5
:102BA00070E089E190E00E948F1120E040E064E055
:102BB00070E08CE090E00E948F1120E040E067E13F
:102BC00070E087E190E00E948F114FCC882309F4D8
:102BD00067CCE12C00E020E040E069E170E089E1B1
:102BE00090E00E948F1120E040E064E070E08CE013
:102BF00090E00E948F1120E040E063E170E083E10B
:102C000090E00E948F1131CC882309F449CCE12C4B
:102C100000E020E040E069E170E089E190E00E949E
:102C20008F1120E040E064E070E08CE090E00E94D2
:102C30008F1120E040E066E170E086E190E00E94C4
:102C40008F1113CC882309F42BCCE12C00E020E079
:102C500040E069E170E089E190E00E948F1120E09E
:102C600040E064E070E08CE090E00E948F1120E092
:102C700040E06AE170E08AE190E00E948F11F5CBBC
:102C8000882309F40DCCE12C00E020E040E069E16C
:102C900070E089E190E00E948F1120E040E06CE05C
:102CA00070E08CE090E00E948F1120E041E065E050
:102CB00070E085E090E00E948F11D7CB882309F463
:102CC000EFCBE12C00E020E040E067E070E087E03F
:102CD00090E00E948F1120E040E064E070E08CE022
:102CE00090E00E948F1120E040E067E170E087E112
:102CF00090E00E948F11B9CB882309F4D1CBE12C4D
:102D000000E020E040E067E070E087E090E00E94B3
:102D10008F1120E040E064E070E08CE090E00E94E1
:102D20008F1120E040E063E170E083E190E00E94D9
:102D30008F119BCB882309F4B3CBE12C00E020E07A
:102D400040E067E070E087E090E00E948F1120E0B3
:102D500040E064E070E08CE090E00E948F1120E0A1
:102D600040E066E170E086E190E00E948F117DCB4B
:102D7000882309F495CBE12C00E020E040E067E0F7
:102D800070E087E090E00E948F1120E040E064E076
:102D900070E08CE090E00E948F1120E040E06AE15A
:102DA00070E08AE190E00E948F115FCB882309F4E4
:102DB00077CBE12C00E020E040E067E070E087E0C6
:102DC00090E00E948F1120E040E06CE070E08CE029
:102DD00090E00E948F1120E041E065E070E085E026
:102DE00090E00E948F1141CB882309F459CBEE2447
:102DF000E39400E021E040E060E370E080E390E0F5
:102E00000E948F11E12C20E040E060E170E080E161
:102E100090E00E948F1129CB882309F441CBEE2446
:102E2000E39400E021E040E06FE270E08FE290E0A8
:102E30000E948F11E12C20E040E060E170E080E131
:102E400090E00E948F1111CB882309F429CBEE2446
:102E5000E39400E020E040E060E370E086E390E08F
:102E60000E948F1120E040E060E370E086E090E097
:102E70000E948F11E12C20E040E070E060E08EE1E4
:102E800090E00E948F11F1CA882309F409CBEE2447
:102E9000E39400E020E040E06FE270E086E390E041
:102EA0000E948F1120E040E06FE270E086E090E049
:102EB0000E948F11E12C20E040E070E060E08FE1A3
:102EC00090E00E948F11D1CA882309F4CECA83EE04
:102ED0000E94631084E40E9463100E94210DC5CA01
:102EE000882309F4C2CA80EE0E94631083EE0E9418
:102EF000631085E00E9463100E94210DB6CA8823EA
:102F000009F4B3CA83EE0E94631087E00E94631045
:102F10000E94210DAACA882309F4A7CA80EE0E9444
:102F2000631083EE0E94631086E10E9463100E948A
:102F3000210D9BCA882309F498CA80EE0E94631071
:102F400083EE0E94631088E00E9463100E94210DAE
:102F50008CCA882309F489CA83EE0E94631081E435
:102F60000E9463100E94210D80CA882309F47DCA43
:102F700080EE0E94631083EE0E94631080E10E9445
:102F800063100E94210D71CA882309F46ECA80EE75
:102F90000E94631083EE0E94631087E00E9463101A
:102FA0000E94210D62CA882309F45FCA80EE0E9444
:102FB000631083EE0E94631084E00E9463100E94FD
:102FC000210D53CA882309F450CA83EE0E9463106E
:102FD0008AE30E9463100E94210D47CA882309F4E6
:102FE00044CA83EE0E9463108BE30E9463100E9428
:102FF000210D3BCA882309F438CA83EE0E9463106E
:1030000083E40E9463100E94210D2FCA882309F4D3
:103010002CCA80EE0E94631083EE0E9463108AE146
:103020000E9463100E94210D20CA882309F41DCA42
:1030300061E083E090E00E94FD2961E070E080E0C3
:1030400090E00E940E0D11CA882321F082E00E94B8
:10305000D50C0BCA82E00E949A0C07CA882339F06B
:1030600083E00E94D50C81E00E94F60CFEC983E04B
:103070000E949A0C80E00E94F60CF7C9882321F088
:1030800086E00E94D50CF1C986E00E949A0CEDC939
:10309000882351F081E00E94D50C81E00E94F60C5B
:1030A00085E00E949A0CE1C981E00E949A0C80E0C0
:1030B000F5CF0B319CE5190709F45EC008F455C043
:1030C000809102018E7F0C31FCE51F0709F041C59C
:1030D00080930201F6018281882309F477C510925A
:1030E00062020230FCE51F0708F44EC206312CE5EF
:1030F000120738F098012B5F3C452930310508F064
:1031000043C20E94C30990930702809306020031D4
:103110003CE5130709F407C208F095C108309CE5A7
:10312000190709F4F6C108F064C10430FCE51F0773
:1031300009F4E7C108F04AC102303CE5130709F47D
:10314000D6C103301C4509F4D8C160910602109124
:10315000070284E090E00E94FD29612F81E290E067
:103160000E94FD290E94210D80C990910201892FA2
:103170008E7F90FF8160ACCF809102018160A8CFEB
:103180008091000190910101059690930101809337
:103190000001A0CF80910001909101010597F5CF2A
:1031A000809101018F93809100018F9387E191E0DD
:1031B0009F938F931F9288E08F939F928F920E948C
:1031C000122F0FB6F894DEBF0FBECDBF74015AE0C8
:1031D000252EF7012081222309F47CCF213009F02C
:1031E00046C091818281913031F4F2E0EF0EF11C02
:1031F0000E94C01007C0923049F422E0E20EF11C98
:103200000E9463103FEFE31AF30AE3CF933031F4E7
:1032100032E0E30EF11C0E942210F4CF943021F032
:103220008FEFE81AF80AEECF92E0E90EF11C30E0D9
:1032300020E0A7014F5F5F4F8053990B8A309105C3
:1032400050F021503109F0F28FE99FE00197F1F73A
:1032500000C00000F6CF229EB001239E700D112405
:103260009C01260F371FF70181817A01E2CFE22FFF
:10327000F0E0E655FE4F3490822F86958695869530
:1032800090E0FC01E656FE4F44902770512C022E30
:1032900002C0559447940A94E2F7E1E04E22552487
:1032A000FC01E657FE4F6490712C022E02C075940B
:1032B00067940A94E2F7F1E06F227724FC01E65864
:1032C000FE4FA490B12C02C0B594A7942A95E2F7C2
:1032D00021E0A222BB244114510419F081EE0E9486
:1032E00063106114710419F086EE0E946310832D3F
:1032F0000E94C010672819F086EE0E94221045280F
:1033000019F081EE0E942210AB2809F47BCF8CE2E9
:103310006FCF0D32110540F00933110508F423C4B5
:103320000436110509F41FC4043FFCE51F0791F1A1
:10333000C8F4093D3CE5130731F10A3D8CE5180757
:10334000F1F1083D9CE5190709F0C4CE26E241EEF3
:1033500061EEC6010E94DD1088C8B701C8010E9455
:10336000411183C8063FECE51E0711F1D0F0073F7D
:103370002CE5120709F0AECE27E245EE66EEC60157
:103380000E94DD1072C827E245EE65EEC6010E947C
:10339000DD106BC826E241EE60EEC6010E94DD1032
:1033A00064C827E245EE64EEC6010E94DD105DC8E8
:1033B00029E240E062EEC6010E94DD1056C828E214
:1033C00041E065EEC6010E94DD104FC88091060203
:1033D000806106309CE5190709F48CC080910602D3
:1033E000886007301C4508F485C080910602806221
:1033F00081C0809106028D7F0C30FCE51F0709F427
:1034000079C070F4809106028C600A303CE51307A5
:1034100009F470C008F481C0809106028E7F6AC0F2
:1034200080910602877F0E309CE5190709F462C07F
:10343000809106028B7F0F301C4508F45BC08091A1
:1034400006028F7E57C00C3FFCE51F0709F45DC0E4
:1034500030F503313CE5130709F46DC078F4013110
:103460009CE5190709F463C002311C4509F06DCED3
:103470000E94210D809106028F773CC00531FCE54A
:103480001F0709F460C008F474C0809107028160CE
:103490000B3F1C4509F059CE8093070256CE01150B
:1034A0008DE5180709F44BC088F4809107028D7FE1
:1034B0000E3FECE51E0781F3809107028E7F0F3FE0
:1034C0001C4550F3809107028360E6CF02302DE562
:1034D000120709F457C008F442C060E003301D45EC
:1034E00009F033CE8EE090E00E94FD292ECE80912F
:1034F000060281608093060228CE809106028260D7
:10350000F9CF809106028460F5CF80910702826036
:10351000C3CF809106028064EDCF0E94210D80917F
:1035200006028068E7CF809106028F7DE3CF80910D
:1035300006028F7BDFCF80910602837FDBCF8091F5
:1035400007028C7FA9CF8091060282FB992790F910
:1035500021E0922790FB82F990FB83F9CBCF8091F9
:103560000702982F909591708E7F892B90FB81F99F
:1035700093CF0E94210D90910602892F97FB87F926
:103580008058B8CF61E0AECF06319CE5190709F04D
:1035900033C38091EE018A7A91E009F490E0909330
:1035A000940169E2811165E38EE791E00E94EE04E7
:1035B0000E940E050C94351285E310C30E94210D64
:1035C000EFEFF4E32CE0E150F0402040E1F700C0E1
:1035D000000087E797E7909301088093000888E14F
:1035E0009AE00FB6F894A895809360000FBE909370
:1035F0006000FFCF0E94760A0C943512C8010E9429
:103600003B05F82E10C3212F2F70A22E107F19F02A
:10361000A29420EFA222FF20C9F0AA2069F080E244
:10362000800F883010F061100BC08091EE01A82A45
:10363000A092EE010E940E05802F0E94631018C018
:103640008091ED01A82AA092ED01F4CF802F0E9475
:103650002210AA2069F0A094005E083010F06110DA
:1036600045C08091EE01A822A092EE010E940E05B5
:10367000EB2DE850FF0B349710F40E940306EE2068
:10368000A9F08091EB0180FD11C0F60112828595B1
:10369000859585950E94D50CC6010E94C211809126
:1036A000EB018595859585950E949A0C85E0F6013C
:1036B000D40101900D928A95E1F789819A810E9447
:1036C0003B059A81E981F0E026E0929FE00DF11D33
:1036D000112430E3839FE00DF11D1124EE0FFF1F35
:1036E000E65DFD4F859194910C94EA118091ED0176
:1036F000A822A092ED01BACF312F3F70732E107F18
:10370000103219F0729490EF7922662041F081E036
:10371000681631F1FF2089F1AA2041F18DCFFF20F9
:1037200091F09091EF01872D892BA11003C00E9489
:10373000BF059ECFE1E0AE12FACF981709F498CFFB
:103740008093EF0195CFA11006C00E940805872D38
:103750000E94B4058DCFF1E0AF1609F489CFF5CF03
:10376000FF2031F025E02A1508F482CF872DDFCF26
:1037700034E03A1508F47CCFEACFAA2041F389E37C
:10378000681209C09FEFE7EEF3E09150E040F0408F
:10379000E1F700C00000802F0E94221069CF812F26
:1037A00086958695837061F0813009F061CFC801FC
:1037B0009370F11002C090E080E00E94C90558CFDC
:1037C000C8019370F11002C090E080E00E94DF0514
:1037D0004FCF802FFF20A9F10E94E906015F110B56
:1037E00008301105A0F581E090E001C0880F0A952E
:1037F000EAF726E0EEE2F2E0DE01199601900D9282
:103800002A95E1F726E0FE013996DE011F96019028
:103810000D922A95E1F72A85FF20B1F0822B888B43
:1038200086E0FE013F96D40101900D928A95E1F762
:1038300086E0F401AEE2B2E001900D928A95E1F7E4
:1038400017CF0E948606CACF80958223E8CF0E94B8
:103850003D0C0ECF812F837009F066C0F11008CFA8
:10386000802F829586958770880F880F602F6F70E4
:10387000462E512C712C612C082E04C0440C551C72
:10388000661C771C0A94D2F740E050E0BA0104FFAE
:103890000FC04FE050E060E070E004C0440F551FDF
:1038A000661F771F8A95D2F7409550956095709561
:1038B000812F869586958370823019F1D8F4009116
:1038C000F0011091F1012091F2013091F30181306A
:1038D00069F04429552966297729CB01BA0160236B
:1038E0007123822393230E940E0DC2CE402A512AB7
:1038F000622A732ACB01BA0164297529862997297E
:10390000F2CF44295529662977290091F0011091B9
:10391000F1012091F2013091F301CB01BA0160274E
:10392000712782279327DFCF8695FF2011F0812F03
:103930008170882309F49CCE802F829586958770AC
:10394000880F880F602F6F70462E512C712C612CC0
:10395000082E04C0440C551C661C771C0A94D2F730
:1039600040E050E0BA0104FF0FC04FE050E060E0DB
:1039700070E004C0440F551F661F771F8A95D2F769
:103980004095509560957095812F869586958370AA
:10399000823019F1D8F400913B0210913C02209141
:1039A0003D0230913E02813069F044295529662953
:1039B0007729CB01BA0160237123822393230E94CC
:1039C0006F0C56CE402A512A622A732ACB01BA01C3
:1039D0006429752986299729F2CF44295529662912
:1039E000772900913B0210913C0220913D023091D9
:1039F0003E02CB01BA016027712782279327DFCFD0
:103A00001F70FF2029F0812F0E94D50C802F8FCEB0
:103A1000802F0E94B405812F0E949A0C29CE802FFE
:103A200022EF6216E9F1261570F030EF631601F10E
:103A300091EF691669F1FF2009F455C0A110FCCD82
:103A4000812F8F712AC0E3EF6E1679F1F4EF6F12B8
:103A5000F2CFFF20E9F11F71812F0E94D50CE8E021
:103A60001E9FC001112483608093EB01812F15C03C
:103A7000FF2049F024E02A1508F4FACD812F8F7138
:103A80000E94790CF5CD35E03A1508F4F1CDF6CF6A
:103A9000812F8F71FF2009F4BFCF0E94D50CE8CD94
:103AA000812F8F71FF20C9F3B7CF60E070E0CB01A9
:103AB000FF2009F484CF1F7161E070E080E090E0A6
:103AC00004C0660F771F881F991F1A95D2F777CF0A
:103AD00081E00E94BD0CF1E0FA1508F0C9CD82E04A
:103AE0000E94BD0CC5CDAA2059F0893309F053CEF0
:103AF0002FEF37EE83E0215030408040E1F749CE90
:103B0000812F8F7189CF0E94310C7C01F601828157
:103B10008823F9F08091020182FF05C0B70190E08F
:103B200080E00E9441118091ED018D7F8093ED0135
:103B30000931FCE51F0709F433CB08F0BACA073195
:103B40003CE5130709F41CCB08318CE5180709F490
:103B500021CB0B32110539F008F0DBCBC8010497FB
:103B60004A9708F0E1CBF6018281882309F4F5CB6E
:103B70008091020180FFAECA9091EE019111AACA14
:103B80001093930100939201F0929101E0929001C1
:103B900084608093020182E00E94BD0C0C94351277
:103BA00085E09E012F5F3F4F4901D90101900D92A1
:103BB0008A95E1F7F601228189819A8121110C947D
:103BC00003120E943B05082F0C940B1206311C4572
:103BD000E1F4809194018111EFCC89E2E0E8F1E019
:103BE00026E831E09191891303C0DF0111971C92FF
:103BF0002E173F07B9F7DCCC01152CE5120709F4A5
:103C0000DDCC0F3D1C4509F4F5CCF6010081118196
:103C1000882309F4F3CCC8010E943409F82E682FD8
:103C2000C8010E946405B8018F2D0E9498078C017D
:103C3000682EF601F280A580A2944FE0A422809124
:103C4000EB018770A1F0EF2CFF2091F0812F807F96
:103C5000803421F080E2800F883048F082E00E94BA
:103C6000BD0C8091EB018770EE24E3948111E12C6F
:103C7000B12EB2943FE0B322FBE0FB1508F4F8CC80
:103C8000EB2DF0E0E656FD4C0C94B2291F93CF9338
:103C9000DF9380919A01807FA9F480919701882316
:103CA00089F08091CC01D0919B0160919501709138
:103CB0009601A0919801B0919901C62FC72316E0F3
:103CC000D81304C0DF91CF911F91089590E0109711
:103CD00011F0CF3F19F401968770F2CF189F900131
:103CE000199F300D1124F901E456FE4F418147130D
:103CF000F2CF40814613EFCF42814111ECCF438197
:103D000054814A1B5B0B4C32514028F780919A0139
:103D10008F70806180939A01F901EF55FE4F808189
:103D20008F708061808385E991E00E94C211DF91EC
:103D3000CF911F910C94AA05AF92BF92CF92DF92C0
:103D4000EF92FF920F931F93CF93DF93CDB7DEB720
:103D500061970FB6F894DEBF0FBECDBF8C0185E032
:103D6000F801DE011D9601900D928A95E1F7F801A8
:103D700080819181E28025E9A22E21E0B22E60911E
:103D80009801709199016115710509F43FC1309155
:103D9000950140919601232F24232F3F09F436C12A
:103DA000C380D480F0909701F601E61BF70BBF01AA
:103DB000FF2009F4FBC020919A01522F507F6C32F2
:103DC000714008F0BBC0511178C0FE2C491321C0CE
:103DD00038131FC0E1101DC02F70206120939A017D
:103DE000C5010E94C21180919A01F80185838F2D2F
:103DF00061960FB6F894DEBF0FBECDBFDF91CF91B5
:103E00001F910F91FF90EF90DF90CF90BF90AF90F8
:103E10000895CD2829F0282F29232F3F09F014C118
:103E200020E0F22FF170DF2E20FF3DC02091CC0169
:103E300040919B0156E0241315C08D879E878D8588
:103E40009E850E947609292F22952F702230F8F046
:103E5000243020F59F70F9F0F8019581907FD9F416
:103E6000D12C1FC030E0529FF001539FF00D112460
:103E7000E456FE4F6181961306C06081861303C02D
:103E80006281E61210C02F5F3F4F2770D4CF9F7022
:103E900011F0882329F3805E883010F3C8010E9456
:103EA000C211FD2CA4CFEE2009F4A1CF80919A017C
:103EB000816080939A01F12C9ACF491312C0381374
:103EC00010C0E1100EC0F8012583C8010E94C21184
:103ED00086E0F801A5E9B1E001900D928A95E1F73D
:103EE00086CF8D879E878D859E850E948009882339
:103EF00009F1EE20F9F080919A01803270F0209162
:103F000095013091960138872F831986DB86CA8602
:103F10008C87CE0107960E94C21186E0F801A5E9C0
:103F2000B1E001900D928A95E1F70E94461EFF24B0
:103F3000F3945DCFC8010E94C211F9CF51110AC09C
:103F400085E991E00E94C21186E0F50111928A95FF
:103F5000E9F7B1CF49130FC038130DC0E1100BC002
:103F6000F8012583C8010E94C21186E0F501119273
:103F70008A95E9F73CCF8D879E878D859E850E9427
:103F800080098823B9F2EE20A9F280919A0180324B
:103F900020F220919501309196013A8329831B826A
:103FA000DD82CC828E83CE010196B5CF6C3271401A
:103FB000E0F6FE2CEE2009F4BDCF491316C03813ED
:103FC00014C080919A0180FD83CF982F907F09F4CF
:103FD0007FCFF8018583903F09F477CF982F907FAA
:103FE000905F8F70892B858370CF8D879E878D859D
:103FF0009E850E948009811190CF80919A018160F5
:1040000080939A01C8010E94C211F1CEEE2009F4FA
:1040100091CF8D879E878D859E850E948009F82E81
:10402000882309F487CF86E0F801A5E9B1E0019083
:104030000D928A95E1F780919501909196010E94E9
:1040400076090E94461ED3CE21E02E25EACE1F938C
:10405000CF93DF93CDB7DEB767970FB6F894DEBF87
:104060000FBECDBF342F4B8B252F5C8B6D8B7E8B82
:104070008F8B8E899F8961111092ED011A8A198A9E
:104080003D872E876F87998B888B86E0FE013D9652
:10409000DE01179601900D928A95E1F7CE01079601
:1040A0000E949C1E811112C086E0FE013796DE013F
:1040B000119601900D928A95E1F78A859B85892B4F
:1040C00029F08F81988589238F3FB1F516E0809183
:1040D000CC0190919B0189131DC067960FB6F8948F
:1040E000DEBF0FBECDBFDF91CF911F91089596E047
:1040F000929FD001939FB00D1124A456BE4FFE0194
:10410000319601900D929A95E1F780939B010E9460
:10411000AA05DCCF819FC001112484569E4F0E94C6
:104120009C1E8823D1F28091CC0190E0019687708B
:1041300099278093CC01CBCF20919B0130E0C9011E
:104140000196877099274091CC014817190679F696
:104150000E94210D10929B011092CC0186E0E5E9AE
:10416000F1E0DF011D928A95E9F7B0CFAF92BF92DF
:10417000CF92DF92EF92FF920F931F93CF93DF9333
:1041800000D000D0CDB7DEB78DE5E82E81E0F82E67
:104190009CEFA92E91E0B92E00E0CC24C394D12C41
:1041A000F70181917F01F894E82FE295EF70F0E03C
:1041B00021A18F70A60102C0440F551F8A95E2F716
:1041C000CA01922F982B91A392A18095892382A353
:1041D000789400C0E5E6F1E030E020E010E04191A5
:1041E000A42FA295AF70B0E090968C9190E04F70A4
:1041F00002C0959587954A95E2F780FD4CC08C2DBD
:10420000022E01C0880F0A94EAF7182B2F5F3F4F48
:104210002630310521F7F701319780810E943E0752
:1042200050EA5A95F1F7F50180811817B1F1108322
:1042300081E0082BFFEFAF1ABF0A41E6E41641E028
:10424000F40609F0ADCF10910502002341F181E0A1
:10425000809389010E94310C90938801809387019B
:1042600080918701909188010E94D3040697D8F02D
:10427000E12FF0E0E55FFD4F8091FC0180838091AC
:10428000FD0181838091FE0182838091FF01838300
:104290001092890108C080E0B8CF80E0CACF809139
:1042A00089018111DDCF0E945A0A182F6091050201
:1042B000882309F473C019821A821B821C82862FFC
:1042C00090E0BE016F5F7F4F855F9D4F0E94CF26BC
:1042D000811144C080918A018F5F80938A0186306A
:1042E00008F45AC0E0910402F0E0E55FFD4FDE0102
:1042F0001196CE01059611921D92A817B907D9F70C
:104300008091020182FF17C00E94310C2091900120
:1043100030919101AC01421B530B2091000130916F
:1043200001014217530738F0BC018091920190912E
:1043300093010E944111011101C0012F802F0F90A4
:104340000F900F900F90DF91CF911F910F91FF90E1
:10435000EF90DF90CF90BF90AF90089510928A01B8
:10436000A0910402B0E0A55FBD4FBE016F5F7F4F1B
:104370009E012B5F3F4F10E04D91FB019191BF01DA
:10438000491731F0AD0141505109FA019083182FBE
:104390006217730789F7B4CF10E0B2CF70E0655FA2
:1043A0007D4F8091040290E0855F9D4F0E94F6262C
:1043B000C2CFCDB7DEB7E2970FB6F894DEBF0FBE1F
:1043C000CDBF84B7877F84BF0FB6F894A89580913E
:1043D0006000886180936000109260000FBE80E8EA
:1043E00090E00FB6F89480936100909361000FBE47
:1043F00085B7806885BF85B7806885BF8EEC94E0FF
:1044000090937D0180937C010E9444030E940F04DD
:104410008091E20084608093E2007894809156025B
:104420008823A1F01091E9001F709091EC00892F72
:10443000817090FD80E8182B1092E9008091E800CF
:1044400083FD0E94250D1F701093E90082E084BD5A
:1044500093E095BD9AEF97BD80936E001092F8019E
:104460001092F9011092FA011092FB010E945A0A6F
:1044700091E08927809303010E945A0A81110E94CA
:10448000C326809103018091030194E0811190E0A3
:104490009093050284E0891B8093040284E90E94C2
:1044A0003E0786E60E943E0787E90E943E0786ECAB
:1044B0000E943E0784EF0E943E0785EF0E943E0760
:1044C00086EF0E943E0787EF0E943E0781E30E942D
:1044D0003E0783E30E943E07ECEFF1E084E092E0C8
:1044E000ABE0B2E011921D928E179F07D9F790E0D2
:1044F00080E00E94F7298B3E9E4F11F00E94760AC1
:104500000E945A0A811102C00E94C92690E080E0F0
:104510000E94F7298B3E9E4F11F00E94760A82E09E
:1045200090E00E94EF29809340020E94C30990937B
:1045300007028093060283E090E00E94EF29682F33
:1045400070E090E080E00E940E0D0E94142720E0B1
:104550004AE260E080E00E94E00A84E091E090930B
:104560000902809308028BE092E0F8E0F80FFAABC2
:10457000CE0101961C018091560200E112E18530C6
:1045800009F403C20E94B62081110E94E204A1E452
:10459000B2E0EBE0F2E010E000E0C02EE1908D919F
:1045A0008E1509F401C2D12CFF24F3948E25982F87
:1045B0009F2109F4F4C10E945A0A882399F0DF8EE2
:1045C000C8A2EF2081E009F480E089A30E94310CA9
:1045D0008160782F9BA38AA34F8D58A169A18BA1DD
:1045E0000E942720F801EF5BFD4F8081F826F082C2
:1045F00086E0E8E1F2E0D10101900D928A95E1F7C1
:10460000E0901A02F0901B0200911C0210911D0212
:1046100010921A0210921B0210921C0210921D029C
:104620008E2D8F29B1F080911602909117020E9471
:10463000D304E0911502F0E0EE0FFF1FED58FE4F9E
:10464000208131812817390720F4E0921A02F09274
:104650001B02802F812BB1F08091130290911402E4
:104660000E94D304E0911502F0E0EE0FFF1FE55920
:10467000FE4F208131812817390720F400931C0256
:1046800010931D0280911A0290911B02892B909128
:104690001C02892B90911D02892B11F00E943D0C68
:1046A00086E0F101A8E1B2E001900D928A95E1F770
:1046B00086E0EEE2F2E0DE01539601900D928A95DB
:1046C000E1F786E0FE017396D10101900D928A9583
:1046D000E1F786E0F101DE01599601900D928A958D
:1046E000E1F7EA81E9A7FB81F9AB2C812EA78D8147
:1046F0008FA79E8198AB0E945A0A882309F489C12A
:10470000198204E610E021E030E0A10169EF84E1C4
:104710000E941428898180FF63C180912C029091AE
:104720002D02009709F057C10E94310C81609093CF
:104730002D0280932C0285E0F10111928A95E9F710
:1047400004E610E025E030E0A10164E084E10E948D
:1047500014286B819C811A8109818D8180FDACC1F7
:10476000691B770B072E000C880B990B0E94BB2B43
:104770006AA77BA78CA79DA7812F801B990BBC01E3
:10478000072E000C880B990B0E94BB2B4B015C0180
:104790002AA53BA54CA55DA5CA01B9010E94BA2C6A
:1047A0006B017C01A5019401C501B4010E94BA2CE2
:1047B0009B01AC01C701B6010E94322A0E94852DDF
:1047C0006B017C0120E030E040EC5FE30E94272D8C
:1047D0002B013C0120E030E040E050E4C701B6018D
:1047E0000E94AD2C18160CF078C100912A0210918D
:1047F0002B02C8010E94D304892B09F067C10E94D3
:10480000310C90932B0280932A02A7019601C701D5
:10481000B6010E94322A20E030E040EC5FE30E94C3
:10482000272D9B01AC01C301B2010E94322A6B010A
:104830007C012AA53BA54CA55DA5C501B4010E943C
:10484000B12A20E030E0A9010E94322A2B013C016C
:104850000E94102B9B01AC01C701B6010E94BA2C2B
:104860004B015C016091280270912902072E000C17
:10487000880B990B0E94BB2BA50194010E94322A40
:104880000E94832B7093290260932802C301B20116
:104890000E94772D9B01AC01C701B6010E94BA2C82
:1048A0006B017C016091260270912702072E000C9B
:1048B000880B990B0E94BB2BA70196010E94322AFC
:1048C0000E94832B7093270260932602609124023A
:1048D00070912502072E000C880B990B0E94BB2BB0
:1048E000A70196010E94312A0E94832B7093250212
:1048F000609324026091220270912302072E000C23
:10490000880B990B0E94BB2BA50194010E94322AAF
:104910000E94832B709323026093220261C08091D6
:104920005602843021F110920A02E8E1F0E020E41E
:104930000FB6F894A895E09360000FBE2093600036
:1049400083B7817F846083BF83B7816083BF78949E
:10495000889583B78E7F83BF0FB6F894A895809112
:104960006000886180936000109260000FBE8091AB
:104970005502882351F00E94B620EBE0F2E08191CD
:104980008111C4C18AA98E13FACF80915602853055
:1049900009F4C5CF0E94210D0E940306F3CDD394E4
:1049A000FF0C96E0D91203CE0F5F1F4F08301105A0
:1049B00009F0F3CD8FEF8CA38DA31EA20E94310CC2
:1049C0008160782F98A78FA34CA15DA16EA188A5C7
:1049D0000E9427200DCE0E94D304069708F0A4CE93
:1049E000809128029091290220912602309127027D
:1049F000822B932B2091220230912302822B932B26
:104A00002091240230912502822B932B892B09F0CF
:104A10006DC080913B0290913C02A0913D02B0910B
:104A20003E02AD0166277727E0E04115510561059B
:104A3000710519F0DB01CA01E0E1492F5A2F6B2FF4
:104A40007727411551056105710519F0E85FDB0114
:104A5000CA01AC01BD01F4E076956795579547957D
:104A6000FA95D1F7411551056105710519F0EC5F13
:104A7000DB01CA01AC01BD0132E07695679557951F
:104A800047953A95D1F7411551056105710519F022
:104A9000EE5FDB01CA01B695A79597958795892B9F
:104AA0008A2B8B2B09F0EF5FE73008F0D8C0F0E0DD
:104AB000EA55FD4C0C94B22987FF04C0F9A5F160BA
:104AC000F9A78ECF29A52E7F29A78ACFC8010E94DA
:104AD000D3048035934C08F492CE0E94310C90930D
:104AE0002B0280932A02A30192019DCE68E272E01C
:104AF00081E292E00E94A40966E272E080E292E024
:104B00000E94A40964E272E08FE192E00E94A4098D
:104B100062E272E08EE192E00E94A409F09121022B
:104B2000F9AB209120022EA780911F028FA79091B0
:104B30001E0298AB55CF20E240E084C020E040E068
:104B400060E080E20E94E00A83E00E949205811109
:104B500006C082E00E949205882309F482C0109268
:104B60003A02E9A5EA8FF9A9FB8F2EA52C8F8FA514
:104B70008D8F98A99E8F86E0FE017996D1010190D4
:104B80000D928A95E1F786E0F101AEE2B2E0019084
:104B90000D928A95E1F786E0EEE2F2E0DE011796EB
:104BA00001900D928A95E1F786E0FE013796D101DA
:104BB00001900D928A95E1F786E0F101DE011D96E4
:104BC00001900D928A95E1F70E945A0A882309F410
:104BD00074C09F8588896A8919891F86188A1A8AEC
:104BE000198A20913A02211140C09F87888B3F8506
:104BF000288999898A89709136026091370240919B
:104C0000380250913902F0913502EE85FE134EC004
:104C1000332311F073134AC0222311F0261346C028
:104C2000882311F0581342C0992319F081E04913E9
:104C30003EC080E03CC020E040E060E280E082CF07
:104C400020E040E260E0FACF20E040E279CF20E0CF
:104C500040E160E176CF20E040E060E272CF20E00A
:104C60006BCF81E080933A027CCF062E000C770B4D
:104C7000880B990B0E94BB2B20E030E040E05FE303
:104C80000E94BA2C0E94832B6A8B612F110F770B25
:104C9000880B990B0E94BB2B20E030E040E05FE3E3
:104CA0000E94BA2C0E94832B698BA1CF81E080FFE8
:104CB00004C0CE010D960E94F5051F86188A198A38
:104CC0001A8A86E0FE013D96A4E3B2E001900D92BF
:104CD0008A95E1F786E0FE013D96D10101900D92A3
:104CE0008A95E1F786E0F101AEE2B2E001900D9223
:104CF0008A95E1F70E94030690913F02891709F413
:104D00003ACC0E94030680933F0235CC09BD19BD01
:104D100009B400FEFDCF8091D8008F7D8093D8002C
:104D20008091E00082608093E0008091E00081FD4E
:104D3000FCCF0E94210D29CE1F921FB61F92112475
:104D40008F939F93AF93BF9380910A02811113C0F9
:104D50008091F4019091F501A091F601B091F701D5
:104D60004196A11DB11D8093F4019093F501A0938C
:104D7000F601B093F701BF91AF919F918F911F9072
:104D80001FBE1F90189561E070E08FE091E00C94D9
:104D9000C42861E070E08FE091E00C94CB28CF93C1
:104DA000DF93D62FC72F0E9465290097E9F4ED2FD6
:104DB000FC2FDC01A859BD4F2C9121930196843022
:104DC0009105B9F70E94D50B6E5F7F4F8F4F9F4FB4
:104DD0006093640270936502809366029093670209
:104DE00081E0DF91CF91089580E0FBCFCF93DF93F7
:104DF000D62FC72F60916402709165028091660280
:104E0000909167020E94F00BED2FFC2F90E080E064
:104E10002191DC01A859BD4F2C9301968430910556
:104E2000B9F7DF91CF9108951092B9008CE080938B
:104E3000B8000895EF92FF920F931F93CF93DF93E3
:104E4000182FEB011092BC0084EA8093BC000E94F2
:104E5000310C7C018091BC0087FF27C08091B90094
:104E6000887F883029F08091B900887F8031D9F51A
:104E70001093BB0084E88093BC000E94310C8C012D
:104E80008091BC0087FF24C02091B900287F90E06A
:104E900080E02831B1F081E090E0203411F490E01E
:104EA00080E09195819591090CC0CF3FDC0791F28C
:104EB0000E94310C8E199F098C179D0758F28EEFB6
:104EC0009FEFDF91CF911F910F91FF90EF90089589
:104ED000CF3FDC07A9F20E94310C801B910B8C178D
:104EE0009D0770F2ECCF8FEF9FEFEBCF0F931F93E7
:104EF000CF93DF93EB018093BB0084E88093BC00E9
:104F00000E94310C8C018091BC0087FF11C0209160
:104F1000B900287F81E090E0283211F490E080E031
:104F2000919581959109DF91CF911F910F910895EE
:104F3000CF3FDC0741F30E94310C801B910B8C1793
:104F40009D0708F38EEF9FEFEECF0F931F93CF9344
:104F5000DF93EC0184EC8093BC000E94310C8C0147
:104F60008091BC0087FF08C08091BB0090E0DF917A
:104F7000CF911F910F910895CF3FDC0789F30E94D5
:104F8000310C801B910B8C179D0750F38EEF9FEF18
:104F9000EECF0F931F93CF93DF93EC0184E88093C0
:104FA000BC000E94310C8C018091BC0087FF08C0BE
:104FB0008091BB0090E0DF91CF911F910F910895F8
:104FC000CF3FDC0789F30E94310C801B910B8C17BB
:104FD0009D0750F38EEF9FEFEECFCF92DF92EF92CF
:104FE000FF920F931F93CF93DF936B018A01790197
:104FF000B9010E941A27E6010C0D1D1DC017D1072B
:1050000061F424E92093BC00DF91CF911F910F91AF
:10501000FF90EF90DF90CF90089597FDF2CFB7010A
:1050200089910E947627EACFCF92DF92EF92FF928A
:105030000F931F93CF93DF93F82EE62EEA016901B9
:10504000B8010E941A2797FD15C0B8018E2D0E9445
:10505000762797FD0FC0B8018F2D81600E941A2717
:10506000F12CE12C21E0C21AD108EC14FD0400F56A
:1050700097FF11C024E92093BC001816190614F4F8
:1050800090E080E0DF91CF911F910F91FF90EF9022
:10509000DF90CF900895C8010E94A52797FD04C016
:1050A000FE01EE0DFF1D80832FEFE21AF20ADDCF25
:1050B00097FDE0CFC8010E94C92797FDDBCFCC0D3B
:1050C000DD1D8883D7CF8EE14A9B02C08150E1F776
:1050D0004A9BFECF08955A9880E28A95F1F75A9A32
:1050E0000895FC013BE03A95F1F798E020E080E07C
:1050F00031E040E14A95F1F7880F4A9B02C0816098
:10510000232742E04A95F1F7000040E14A95F1F784
:10511000915079F790E19A95F1F799B132E03A958B
:10512000F1F7000040E14A95F1F792FB992790F9D9
:1051300092272081920F90830895EF92FF920F9310
:105140001F93CF93DF930F92CDB7DEB719828C01F7
:105150007C01E60EF11C0E151F0561F481E09981BA
:10516000911180E00F90DF91CF911F910F91FF90EF
:10517000EF9008950E946328CE0101960E94712845
:10518000F80181938F01E7CF90936D0280936C02B9
:10519000529A5A9A089590936D0280936C02529895
:1051A0005A9AEA9AE9E6F0E080818F7C808308953C
:1051B0006150770B91E001C0990F6A95EAF720E002
:1051C00031E0911108C0222391F05A9A80E28A9529
:1051D000F1F75A980895492F482339F05A9A23270E
:1051E00040E24A95F1F79695ECCF5A98F9CF5A9844
:1051F000EDCFFF920F931F93CF93DF93EC018C01C0
:10520000060F111DC017D10731F4DF91CF911F9107
:105210000F91FF900895F9900E946B2868E08F2D00
:105220000E94D828EFCF1F920F920FB60F92112431
:105230002F933F934F935F936F937F938F939F939E
:10524000AF93BF93CF93DF93EF93FF935A98529A04
:10525000C0916C02D0916D026D81662321F08E8128
:105260009F810E94F9280E946B2880E18A95F1F7BE
:105270005A9852985A9A80E18A95F1F76A81662382
:1052800009F18B819C810E949D28E881F981882306
:1052900011F088E001C082E080830E946328FF91C2
:1052A000EF91DF91CF91BF91AF919F918F917F91BE
:1052B0006F915F914F913F912F910F900FBE0F9083
:1052C0001F901895E881F981E4CFCF93DF93C091C7
:1052D0006C02D0916D02F894529A5A9885E08A95A2
:1052E000F1F7000052985A9A80E28A95F1F74A9BAA
:1052F0000CC0529A5A9AE881F98181E080837894AF
:1053000081E090E0DF91CF9108956D81662381F077
:105310008E819F810E949D2881110AC0529A5A9ABB
:10532000E881F98182E08083789482E090E0EACF9E
:105330000E94632880E28A95F1F75A98529A80E198
:105340008A95F1F76A81662321F08B819C810E9406
:10535000F9280E946B28E881F9811082789490E006
:1053600080E0D0CFEE0FFF1F0590F491E02D09945F
:105370002F923F924F925F926F927F928F929F9265
:10538000AF92BF92CF92DF92EF92FF920F931F9353
:10539000CF93DF93CDB7DEB7CA1BDB0B0FB6F89404
:1053A000DEBF0FBECDBF09942A88398848885F8444
:1053B0006E847D848C849B84AA84B984C884DF80B5
:1053C000EE80FD800C811B81AA81B981CE0FD11D99
:1053D0000FB6F894DEBF0FBECDBFED010895F99969
:1053E000FECF92BD81BDF89A992780B50895A8E1B6
:1053F000B0E042E050E00C94232A262FF999FECF2A
:1054000092BD81BDF89A019700B4021639F01FBA17
:1054100020BD0FB6F894FA9AF99A0FBE0895039634
:10542000272F0E94FE290E94FD29252F0E94FE2978
:10543000242F0C94FE290196272F0E94FE290C94FC
:10544000FD29DC01CB01FC01F999FECF06C0F2BDBC
:10545000E1BDF89A319600B40D9241505040B8F732
:1054600008955058BB27AA270E94492A0C945F2C04
:105470000E94262C38F00E942D2C20F039F49F3FFA
:1054800019F426F40C94FC2B0EF4E095E7FB0C9435
:10549000F62BE92F0E94842C58F3BA176207730782
:1054A0008407950720F079F4A6F50C94A62C0EF449
:1054B000E0950B2EBA2FA02D0B01B90190010C0124
:1054C000CA01A0011124FF27591B99F0593F50F43C
:1054D000503E68F11A16F040A22F232F342F442794
:1054E000585FF3CF469537952795A795F04053958C
:1054F000C9F77EF41F16BA0B620B730B840BBAF05C
:105500009150A1F0FF0FBB1F661F771F881FC2F7C6
:105510000EC0BA0F621F731F841F48F487957795DA
:105520006795B795F7959E3F08F0B0CF9395880F94
:1055300008F09927EE0F9795879508950E94262CDD
:1055400060F080E891E009F49EEF0E942D2C28F095
:1055500040E851E071F45EEF0CC00C94FC2B0C940D
:10556000A62CE92FE0780E94842C40F3092E052A0E
:10557000B1F3261737074807590738F00E2E07F8FA
:10558000E02569F0E025E0640AC0EF6307F80094C5
:1055900007FADB01B9019D01DC01CA01AD01EF93FE
:1055A0000E94282B0E945F2C0E94E12A5F915523C4
:1055B00039F02BED3FE049E450FD49EC0C94322AE0
:1055C0000895DF93DD27B92FBF7740E85FE3161614
:1055D000170648075B0718F4D92F0E94B22C9F9337
:1055E0008F937F936F930E94C52DECEAF0E00E94A9
:1055F000FF2B0E945F2C2F913F914F915F910E9452
:10560000CD2CDD2351F09058A2EA2AED3FE049EC81
:105610005FE3D0785D270E94492ADF910C945F2CCC
:105620000E94362CE3950C94702C0E942D2C58F07F
:105630000E94262C40F029F45F3F29F00C94F62BB1
:1056400051110C94A72C0C94FC2B0E94842C68F311
:105650009923B1F3552391F3951B550BBB27AA272B
:1056600062177307840738F09F5F5F4F220F331F65
:10567000441FAA1FA9F335D00E2E3AF0E0E832D02D
:1056800091505040E695001CCAF72BD0FE2F29D030
:10569000660F771F881FBB1F261737074807AB0702
:1056A000B0E809F0BB0B802DBF01FF2793585F4F77
:1056B0003AF09E3F510578F00C94F62B0C94A72CF1
:1056C0005F3FE4F3983ED4F3869577956795B79559
:1056D000F7959F5FC9F7880F911D9695879597F964
:1056E0000895E1E0660F771F881FBB1F62177307DD
:1056F0008407BA0720F0621B730B840BBA0BEE1FF2
:1057000088F7E09508950E948A2B6894B1110C9453
:10571000A72C08950E948C2C88F09F5798F0B92FE1
:105720009927B751B0F0E1F0660F771F881F991FD6
:105730001AF0BA95C9F714C0B13091F00E94A62CA6
:10574000B1E008950C94A62C672F782F8827B85FB6
:1057500039F0B93FCCF3869577956795B395D9F72E
:105760003EF490958095709561957F4F8F4F9F4F38
:105770000895E89409C097FB3EF490958095709544
:1057800061957F4F8F4F9F4F9923A9F0F92F96E98D
:10579000BB279395F695879577956795B795F11102
:1057A000F8CFFAF4BB0F11F460FF1BC06F5F7F4F9F
:1057B0008F4F9F4F16C0882311F096E911C07723B1
:1057C00021F09EE8872F762F05C0662371F096E8BA
:1057D000862F70E060E02AF09A95660F771F881F89
:1057E000DAF7880F9695879597F9089597F99F6747
:1057F00080E870E060E008959FEF80EC0895DF930B
:10580000CF931F930F93FF92EF92DF927B018C0156
:10581000689406C0DA2EEF010E94CD2CFE01E894B8
:10582000A5912591359145915591A6F3EF010E94DF
:10583000492AFE019701A801DA9469F7DF90EF90F9
:10584000FF900F911F91CF91DF91089500240A944A
:105850001616170618060906089500240A9412164B
:1058600013061406050608950C94FC2B0E948C2C3C
:10587000D8F3E894E0E0BB279F57F0F02AED3FE033
:1058800049EC06C0EE0FBB0F661F771F881F28F07C
:10589000B23A62077307840728F0B25A620B730B9F
:1058A000840BE3959A9572F7803830F49A95BB0F84
:1058B000661F771F881FD2F790480C942D2E092E53
:1058C0000394000C11F4882352F0BB0F40F4BF2B5B
:1058D00011F460FF04C06F5F7F4F8F4F9F4F08959B
:1058E000EF93E0FF07C0A2EA2AED3FE049EC5FEB4F
:1058F0000E94492A0E945F2C0F90039401FC90584B
:10590000E9EDF0E00C94402E57FD9058440F551FE0
:1059100059F05F3F71F04795880F97FB991F61F031
:105920009F3F79F087950895121613061406551FA8
:10593000F2CF4695F1DF08C0161617061806991F14
:10594000F1CF86957105610508940895E894BB2709
:1059500066277727CB0197F908950E94072E08F450
:105960008FEF08959B01AC0160E070E080E89FE359
:105970000C94C92D0E94CD2C0C945F2C0E94262CD7
:1059800038F00E942D2C20F0952311F00C94F62B6A
:105990000C94FC2B11240C94A72C0E94842C70F3E3
:1059A000959FC1F3950F50E0551F629FF001729FC4
:1059B000BB27F00DB11D639FAA27F00DB11DAA1FD3
:1059C000649F6627B00DA11D661F829F2227B00D20
:1059D000A11D621F739FB00DA11D621F839FA00DAB
:1059E000611D221F749F3327A00D611D231F849FFB
:1059F000600D211D822F762F6A2F11249F57504052
:105A00009AF0F1F088234AF0EE0FFF1FBB1F661FCC
:105A1000771F881F91505040A9F79E3F510580F095
:105A20000C94F62B0C94A72C5F3FE4F3983ED4F330
:105A3000869577956795B795F795E7959F5FC1F739
:105A4000FE2B880F911D9695879597F90895FA0179
:105A5000EE0FFF1F309621053105A1F1611571058B
:105A600061F48038BFE39B0749F168949038810561
:105A700061F08038BFEF9B0741F099234AF5FF3F63
:105A8000E1053105210519F1E8940894E795D9015C
:105A9000AA2329F4AB2FBE2FF85FD0F310C0FF5F0D
:105AA00070F4A695E0F7F73950F019F0FF3A38F4A2
:105AB0009F779F930DD00F9007FC9058089546F064
:105AC0000C94FC2B60E070E080E89FE308954FE7C2
:105AD0009F775F934F933F932F930E94962E2F9122
