:100000000C9494020C94DB020C94DB020C941724E5
:100010000C94DB020C94DB020C94DB020C94DB02EC
:100020000C94DB020C94DB020C94C81F0C94841F0C
:100030000C94EF220C94DB020C94DB020C94DB0298
:100040000C94DB020C94DB020C94DB020C94DB02BC
:100050000C94DB020C94CB220C94DB020C94DB029C
:100060000C94DB020C94DB020C94DB020C94DB029C
:100070000C94DB020C94DB020C94DB020C94DB028C
:100080000C94DB020C94DB020C94DB020C94DB027C
:100090000C94DB020C94DB020C94DB020C94DB026C
:1000A0000C94DB020C94DB020C94DB0200000000D9
:1000B0000000000000000000000000000000000040
:1000C0000000000000000000000000000000000030
:1000D0007E0F00D4FFFFFFC7000000780000000083
:1000E000000000002A2B2800000000000000000093
:1000F0000000000000000029000000002C1E342039
:10010000212224342627252E362D3738271E1F205E
:100110002122232425263333362E37381F040506A3
:100120000708090A0B0C0D0E0F10111213141516E7
:100130001718191A1B1C1D2F3130232D35040506E5
:100140000708090A0B0C0D0E0F10111213141516C7
:100150001718191A1B1C1D2F3130354C2B00140099
:10016000070015001A000500E000040016000B004F
:1001700017000A00E1001D001B0010000600190016
:100180000000000000002A5D2B5D2C00355D33006F
:100190001300180009000D00555D0C001200080046
:1001A00011001C00365D595D370036000F000E004F
:1001B000000000000000F65C2C5D2800E300435DB9
:1001C000AA00A900A800505DE0003D5D375D385DE4
:1001D000395D485DE100495D4B5D4C5D4D5D455DC0
:1001E0000000000000002A5D2B5D305DE600445DEC
:1001F000AB00AC00AE00515D00003E5D3C5D3B5D80
:100200003A5D4F5D365D545D4A5D535D525D4E5DB6
:100210000000000000004C002C5D0000E300210005
:1002200020001F001E002200E0005A5D565D575D51
:10023000585D5B5DE100625D615D635D645D655DB0
:100240000000000000002A5D2B5D2B00E600260068
:100250002500240023002700F65C605D5F5D5E5D85
:100260005D5D5C5D365D695D6A5D675D685D665DAF
:100270000000000000004C002C5D2B00E300755DC9
:10028000765D775D785D795DE0006B5D6C5D6D5DE1
:100290006E5D6F5DE100705D715D725D735D745DDB
:1002A0000000000000002A5D2B5D345D00000000AE
:1002B0004B004E004D004A0000001A5C4F005200F7
:1002C00051005000365D7A5D7B5D7D5D7C5D000098
:1002D00000000000000000002C5D345D8A5D7E5D42
:1002E0007F5D815D825D885DE0004400855D865DA7
:1002F000805D835DE1003D003C003B003A003E0034
:10030000000000000000FF002B5D0000845D895D9F
:10031000F300ED00F200875DFE004500F000EE0006
:10032000EF00F100365D4200410040003F00430015
:10033000000000000000F65CFE00FF002F5D0000E2
:1003400000000000000000002F5D00000000000021
:10035000000000002F5D00000000000000005200BF
:10036000000000000000500051004F002F5D000011
:1003700000000000000000002F5D000000000000F1
:10038000000000002F5D000000000000000052008F
:100390000000000000004F0051005000005C000011
:1003A000CC5CC65CC85CCA5C00000000CD5CC75C6D
:1003B000C95CCB5CC55C0000000000000000C35CB1
:1003C000000000000000000000000000000000002D
:1003D000000000000000335D000000000000475DE9
:1003E000465D00000000000000000000000000006A
:1003F00000000000000000000000000005010902EC
:10040000A10185020901A1000509190129081500AA
:100410002501950875018102050109300931158111
:10042000257F95027508810609381581257F95017C
:1004300075088106050C0A38021581257F9501751E
:10044000088106C0C005010980A101850319012AA0
:10045000B700150126B700950175108100C0050C85
:100460000901A101850419012AA002150126A00293
:10047000950175108100C005010906A10105071944
:10048000E029E715002501950875018102950175A0
:100490000881010507190029FF150026FF009506B0
:1004A0007508810005081901290595057501910256
:1004B000950175039101C009023B00020100A0FAF9
:1004C00009040000010301010009211101000122BA
:1004D00040000705810308000A0904010001030028
:1004E0000000092111010001227B00070582032081
:1004F000000A12011001000000085346010001002B
:10050000010200010C0343006F0072006E006500E1
:100510000000100366006F006F007300740061003C
:100520006E0000000403090411241FBECFEFDAE0BF
:10053000DEBFCDBF04B603FE27C08091510290916B
:100540005202A0915302B09154028730904BA740C1
:10055000B04BD1F4109251021092520210925302F9
:100560001092540214BE84B7877F84BF0FB6F894EC
:10057000A89580916000886180936000109260006F
:100580000FBEE0E0F8E3099511E0A0E0B1E0E2E998
:10059000F1E502C005900D92AC37B107D9F722E022
:1005A000ACE7B1E001C01D92A135B207E1F70E94AE
:1005B0009F200C94DC270C940000E8EDF0E0808193
:1005C0008E7F80831092E2001092DA001092E10098
:1005D000A0EEB0E08C9181608C9380818F778083D6
:1005E00019BCA7EDB0E08C918E7F8C9380818F7EBB
:1005F00080831092280208952091E4003091E50054
:1006000095E6A9012091EC00822F817020FF06C0A1
:100610008091E80080FF06C080E008952091E80006
:1006200022FD1AC080913502882389F0853089F037
:100630008091EB0085FD0FC02091E4003091E50032
:1006400042175307F9F29150E1F684E0089582E0F1
:10065000089583E0089581E00895EF92FF920F934B
:100660001F93CF937C018B010E94FC02C82F811144
:1006700017C08091E80085FD0BC08091E8008E775F
:100680008093E8000E94FC02882399F3C82F08C0D9
:10069000F70181917F018093F1000150110949F721
:1006A0008C2FCF911F910F91FF90EF900895809123
:1006B000370287FF13C08091E80082FF06C0809157
:1006C000E8008B778093E80004C0809135028111A7
:1006D000F2CF0895809135028823D9F38091E80004
:1006E00080FFF8CF8091E8008E77ECCF982F909321
:1006F000E900242F762F50E0891731F07091EC003B
:100700002091ED005091F00021FD07C09F5F9730D0
:1007100071F78093E90081E008953091EB003E7F0E
:100720003093EB003091ED003D7F3093ED00309140
:10073000EB0031603093EB007093EC002093ED0000
:100740005093F0002091EE0027FDE0CF80E0089567
:10075000CF92DF92EF92FF920F931F93CF93DF938D
:10076000C8EDD0E088818F7E8883E7EDF0E080815E
:100770008160808384E082BF81E080932802888149
:100780008E7F888302EE10E0F80110821092DA006A
:1007900081EEC82ED12CF601108288818F77888354
:1007A00088818068888388818F7D888319BC1092B6
:1007B000350210923602109234021092330290EEFB
:1007C000E92EF12CF70180818B7F80838881816005
:1007D000888342E060E080E00E947603F601808139
:1007E0008E7F8083F8018081816080838081886032
:1007F0008083F70180818E7F8083888180618883F8
:10080000DF91CF911F910F91FF90EF90DF90CF90EC
:100810000895FC0180913D0290913E028617970752
:10082000A0F06115710529F49091E8009E779093EE
:10083000E80090E06115710551F4911108C08091B4
:10084000E80082FF34C080E00895BC01F2CF8091BF
:1008500035028823C1F18530C1F18091E80083FD24
:1008600030C08091E80082FDEACF8091E80080FFEF
:10087000E1CF8091F3002091F200382F61157105CE
:1008800019F02830310558F091E02830310509F091
:1008900090E02091E8002E772093E800CBCF819163
:1008A0008093F100615071092F5F3F4FE7CF809136
:1008B0003502882341F0853041F08091E80083FFC4
:1008C000BECF81E0089582E0089583E0089580E03E
:1008D000089580912A0208959C014FB7F894809161
:1008E000F4019091F501A091F601B091F7014FBF8D
:1008F000821B930B08952FB7F8946091F4017091C7
:10090000F5018091F6019091F7012FBF08952FB75F
:10091000F8948091F4019091F501A091F601B091C5
:10092000F7012FBF08959C01FC0132969FEF80E0F4
:100930004191461751F09F3F19F4411101C0982F82
:100940008F5F8630A9F79F3F09F40895290F311D65
:1009500097FD3A95F901628308958091EF01811125
:100960001092EF0108958091EE019091ED01892B95
:100970009091EC01892B80937E019091EF01992356
:1009800091F0892B80937E0120E080E891E0FC01CA
:100990003191CF0131112F5FF1E086389F07B9F710
:1009A00021110E94AD04E0910802F09109023097F4
:1009B00031F00280F381E02D8EE791E009940895F3
:1009C000E92FEE0FE90FEE0F8E0F982F9770869597
:1009D0008695869525E0829FF0011124E353FE4F12
:1009E00050E040E080E0219130E0092E02C03695D1
:1009F00027950A94E2F721703327042E01C0220FB5
:100A00000A94EAF7822B4F5F5F4F4530510559F743
:100A10000895E92FEE0FE90FEE0F8E0F982F9770C4
:100A200041E001C0440F9A95EAF786958695869530
:100A300095E0899FF0011124E353FE4F30E020E060
:100A400070E05191DF011197CB01022E02C0969503
:100A500087950A94E2F781708195852784238527FD
:100A60008C932F5F3F4F2530310559F708958091C2
:100A7000CC0190919B01981301C008958F5F8770FE
:100A8000FACF882341F080959091EE0189238093DD
:100A9000EE010C94B3040895882339F09091EE018F
:100AA000982B9093EE010C94B304089520918E013D
:100AB00030918F012817390771F090938F0180933F
:100AC0008E01E0910802F0910902309721F0008434
:100AD000F185E02D0994089520918C0130918D01CC
:100AE0002817390771F090938D0180938C01E09164
:100AF0000802F0910902309721F00680F781E02D7D
:100B000009940895E0910802F0910902309721F0CC
:100B10000190F081E02D099480E008950E948704FF
:100B20009C0190911A0280911B02982B21F0309326
:100B300017022093160290911C0280911D02982B9F
:100B400021F03093140220931302E0910802F091F7
:100B50000902309749F082E0809318020480F58101
:100B6000E02D88E192E00994089590E080E00E94F1
:100B70006C0590E080E00E9456051092ED01109205
:100B8000EC010E94B30486E0E8E1F2E0DF011D928F
:100B90008A95E9F70C948E056093420270934302A4
:100BA00080934402909345020C94B5050F931F93D4
:100BB00041E050E060E070E004C0440F551F661F44
:100BC000771F8A95D2F78091420290914302A091BB
:100BD0004402B09145028A019B01082719272A2760
:100BE0003B27C901B8011F910F910C94CC050F93BD
:100BF0001F9341E050E060E070E004C0440F551FD7
:100C0000661F771F8A95D2F7CB01BA016095709560
:100C100080959095009142021091430220914402E8
:100C20003091450260237123822393231F910F91FA
:100C30000C94CC059091EB01809589238093EB0176
:100C4000282F277071F4282F082E000C330B9217D1
:100C5000130639F08595859585950E94F7051092C4
:100C6000EB0108950F931F9341E050E060E070E0C6
:100C700004C0440F551F661F771F8A95D2F78091D5
:100C8000420290914302A0914402B09145028A0130
:100C90009B01082B192B2A2B3B2BC901B8011F9153
:100CA0000F910C94CC050F931F93409142025091E9
:100CB000430260914402709145024115510561055E
:100CC0007105B1F08A019B01369527951795079517
:100CD00000FF0EC093E076956795579547959A95D6
:100CE000D1F740FF05C084E01F910F910C943206AC
:100CF000811105C084E01F910F910C94F7051F919D
:100D00000F9108956093F0017093F1018093F201C7
:100D10009093F3010C94B5058091150290E0880F33
:100D2000991FFC01EC5DFE4F2081845E9E4FFC010B
:100D3000808190911A02191614F420931A0290914E
:100D40001A0297FF04C0922F919590931A029091E6
:100D50001B02191614F420931B0290911B0297FF9B
:100D600003C0219520931B0290911D02191614F4C3
:100D700080931D0290911D0297FF04C0982F9195BA
:100D800090931D0290911C02191614F480931C027A
:100D900090911C0297FF03C0819580931C023091B3
:100DA0001A023323A1F020911B02222381F045EB8C
:100DB0003403C00111249923F1F090931A0245EBFA
:100DC0002403900111243323D1F030931B0240916E
:100DD0001D02442379F030911C02332359F025EB96
:100DE0004203A001112450931D02320390011124EB
:100DF00030931C02089581E080931A02E0CF81E0D5
:100E000080931B02E4CF8D3E39F490911B0297FF33
:100E100009C010921B0208958E3E81F490911B022E
:100E20001916BCF38D3F08F450C080911502109242
:100E30001502882309F449C00C948C068F3E39F4BE
:100E400090911A0297FFEECF10921A020895803FF8
:100E500029F490911A021916BCF3E4CF893F39F4B2
:100E600090911C021916F4F610921C0208958A3F04
:100E700029F490911C0297FFD5CFF6CF8B3F39F420
:100E800080911D0287FF21C010921D0208958C3FA2
:100E900029F480911D021816BCF308959FE0980F65
:100EA000983008F0BFCF815F990B21E030E0A901B5
:100EB00002C0440F551F8A95E2F7CA0180959091B0
:100EC0001902892380931902089508958823F1F166
:100ED0009CEF980F913A78F4E0E8F1E026E831E0F1
:100EE0009191891303C0DF0111971C922E173F07C0
:100EF000B9F70C94B30490E2980F983088F4877097
:100F000021E030E0A90102C0440F551F8A95E2F7A5
:100F1000CA0180959091EE0189238093EE01E9CF7B
:100F20009BE5980F933020F490E080E00C946C05E2
:100F300098E5980F973120F490E080E00C945605E6
:100F40008D3E20F00E9403070C948E050895409179
:100F50001502242F30E0220F331FF901EC5DFE4F04
:100F600090818D3E21F4919590931B0208958E3EC1
:100F7000D9F38F3E21F4919590931A020895803F02
:100F8000D9F3245E3E4FF9019081893F19F4909383
:100F90001C0208958A3F11F49195F9CF8B3F21F4FB
:100FA000919590931D0208958C3FD9F39FE0980F7F
:100FB000983070F4815F990B21E030E001C0220F7E
:100FC0008A95EAF780911902822B8093190208957D
:100FD0008D3F49F481E080931502809115024817F6
:100FE00051F00C948C068E3F11F482E0F4CF8F3FC9
:100FF00011F483E0F0CF0895CF93C82F882309F42C
:1010000056C08CEF8C0F813AF8F4E0E8F1E086E806
:1010100091E0DF012D91C21759F08A179B07D1F794
:101020006C2F8EE791E00E949304CF910C94B3044F
:101030002191C21303C0DF0111971C928E179F07E5
:10104000B9F70E94B304ECCF80E28C0F883068F4CB
:10105000C77021E030E001C0220FCA95EAF7809105
:10106000EE01822B8093EE01E0CFEBE5EC0FE33055
:1010700040F4F0E0E45DFE4F808190E0CF910C946D
:101080006C05E8E5EC0FE73150F4F0E0EE0FFF1FE0
:10109000E15DFE4F80819181CF910C945605CD3E4C
:1010A00030F08C2F0E94A707CF910C948E05CF9122
:1010B00008950F931F93CF93DF938C01EB018091E1
:1010C000020182FF2FC08B7F8093020180919201E9
:1010D0002091900130919101AB01421B530B209163
:1010E0000001309101014217530788F40E94FC0768
:1010F000809102018D7F80930201809192010E9474
:1011000066078091ED018D7F8093ED0115C0909170
:10111000ED0192609093ED010E94FC078091020125
:101120008260E9CF802F0E946607809192019091A2
:1011300093010817190729F30E94B304D093910172
:10114000C0939001DF91CF911F910F910895F89472
:10115000E82FE295EF70F0E031A1282F2F7081E0A9
:1011600090E001C0880F2A95EAF7982F9095932375
:1011700091A392A1892B82A378940895909106025D
:1011800092FF06C0282F28712830F9F4877F8460E9
:1011900093FF06C0282F28712831F1F4877E8461DF
:1011A0002091070220FF06C0382F38713830D9F45B
:1011B000877F816021FF06C0282F28712831D1F454
:1011C000877E816194FD877E0895282F24712430C5
:1011D000F9F68B7F8860DCCF282F2471243101F74A
:1011E0008B7E8861DDCF382F3171313019F78E7FDA
:1011F0008860E0CF282F2171213121F78E7E886110
:10120000E1CFCF93DF93972F70E026E0929F600DA0
:10121000711D1124FB0130E3839FE00DF11D1124AA
:10122000EE0FFF1FE45AFE4FC591D491CE01C23894
:10123000D105B9F1E8F5C133D10509F499C050F5EC
:10124000C932D10509F48DC0CA32D10509F497C05D
:10125000C11521E5D20708F0BFC0C11530E5D3079D
:1012600008F016C1C83ED10508F09DC0C03ED105AA
:1012700068F5C83AD10508F089C0C53AD10508F02B
:10128000FFC0C130D10511F1209709F443C0249764
:10129000E8F440C0C533D10509F45CC0C933D105B9
:1012A000B9F620910602237089F080EE90E00EC01E
:1012B000C33ED10591F168F4C03ED105F9F0C23EBC
:1012C000D10531F62091060222FD20C0DF91CF9199
:1012D0000895C63ED10561F1C73ED10581F1C43EF6
:1012E000D10509F0B5CF2091070221FFEFCF809102
:1012F000060284FD0FC087EE90E0E8CF2091060241
:1013000020FD12C13091070230FFE0CF83EE90E064
:1013100024FFDCCF90E080E0D9CF2091060222FDAF
:1013200006C13091070230FDC0CF24FFCFCFF2CFEE
:101330002091060223FFCACF24FDECCFDCCF209101
:10134000060223FDF7C03091070231FFEECF84EE95
:1013500090E0BCCF2091060225FFB8CF89E290E053
:10136000B5CF2091060225FFB1CF85E390E0AECF47
:101370002091060226FFAACF8AE290E0A7CF209113
:10138000060226FFA3CF81E390E0A0CFCF3BD1059B
:1013900008F6C85AD0E0CC0FDD1FC15DDE4F888152
:1013A0009981946493CFC11520E2D20760F4C115EE
:1013B00031E0D30708F08ACFCE019065CD3ED1054C
:1013C00008F084CFA7CFC11580E4D80708F4A2CFD6
:1013D000CE019F70906A7ACFC11595E5D90710F5B7
:1013E000C11524E5D20708F088C0C11533E5D3073D
:1013F00008F06FC0C11582E5D80708F465C09E01EA
:101400002370332781E090E002C0880F991F2A954E
:10141000E2F7C695C69520E2C29FE00111248C2B0D
:101420009D2B50C0C11599E5D907A0F4C11528E539
:10143000D20708F067C0C11536E5D30708F06ACFB8
:101440008C2F0E94BE0890E0982F882788279F71D4
:1014500090623CCFC1158AE5D80708F458C0CE0188
:1014600090568115904208F055CF8D2F8F710E94B4
:10147000BE0890E0982F882788279F718C2BE8CF93
:10148000C55AD0E0C45DDE4F888190E090641ECFE5
:101490009E01E4E036952795EA95E1F723708C2FBD
:1014A00086958695837030E2839FC0011124922B2C
:1014B000C37021E030E002C0220F331FCA95E2F76B
:1014C000822B932B9C6802CF9C2F8827816F906A78
:1014D000FDCE9E012370332781E090E002C0880F8B
:1014E000991F2A95E2F7C695C69530E2C39FE001A1
:1014F00011248C2B9D2B9A68E9CE9C2F8827846F12
:10150000906AE4CE9C2F8827806F906ADFCE8C2F64
:101510008F700E94BE0834E0D695C7953A95E1F7E2
:10152000CF709C2F9069D2CE89E390E0CFCE82EE2F
:1015300090E0CCCE86EE90E0C9CEBF92CF92DF9203
:10154000EF92FF920F931F93CF93DF938C01C09084
:101550004202D0904302E0904402F0904502809114
:10156000F0019091F101A091F201B091F301C82A2C
:10157000D92AEA2AFB2ACFE1D0E0BC2ED701C60146
:101580000C2E04C0B695A795979587950A94D2F727
:1015900080FD0EC0219788F7B12C8B2DDF91CF9164
:1015A0001F910F91FF90EF90DF90CF90BF90089523
:1015B000B8018C2F0E940109019761F3EECFCF9300
:1015C000DF93EC010E949D0ABE01DF91CF910C9444
:1015D00001090E94DF0A292F2F7092959F70925067
:1015E0009E3078F4E92FF0E0E252F84D0C94B624E6
:1015F000803F19F020F4883E20F481E00895843F74
:10160000E1F380E00895883EC0F3813FD1F7F5CF44
:10161000822F8695869586950895EF920F931F9356
:10162000CF93DF93D82FC62F122F8091EE01809396
:1016300086018272B9F4442319F081EE0E94FC07FE
:10164000112319F086EE0E94FC078D2F0E94FC07E3
:10165000809186018093EE01DF91CF911F910F91D0
:10166000EF9008951092EE01002319F081EE0E9490
:10167000FC07EE2019F086EE0E94FC078C2FE6CFC7
:10168000CF9384E090E00E94F324C82F81E290E0A1
:101690000E94F324982F8C2FCF910895CF93DF933E
:1016A00000D00F92CDB7DEB790913502943019F586
:1016B00089837B836A8382E08093E9008FEF909136
:1016C000E800815095FD06C095ED9A95F1F7000070
:1016D0008111F5CF8091E80085FF0DC050E040E01A
:1016E00063E070E0CE0101960E942D038091E80036
:1016F0008E778093E8000F900F900F90DF91CF913D
:101700000895BC0184E00C944E0BBC0183E00C9462
:101710004E0B9C0182E08093E9009FEF8091E800EE
:10172000915085FD06C085ED8A95F1F70000911175
:10173000F5CF8091E80085FF0CC050E040E066E006
:1017400070E0C9010E942D038091E8008E7780939C
:10175000E8000895CF93DF93EC0181E08093E900E6
:101760008FEF9091E800815095FD06C095ED9A9518
:10177000F1F700008111F5CF8091E80085FF14C0DA
:1017800050E040E068E070E0CE010E942D038091BF
:10179000E8008E778093E80088E0FE01ABE2B2E0DB
:1017A00001900D928A95E1F7DF91CF9108951F93F3
:1017B000CF93DF93182FD0E0C0E0893311F4C0E558
:1017C000D0E0812F0E94FC07209731F4812FDF9118
:1017D000CF911F910C9466078FE99FE00197F1F775
:1017E00000C000002197F0CF0F931F93CF93DF939A
:1017F000C62FD42F022FFC0182818823A1F0609391
:1018000041020E9487049093400280933F02C77078
:1018100081E001C0880FCA95EAF7DF91CF911F914F
:101820000F910C944C0580914102681335C0809152
:101830003F02909140020E946C048C32914060F50E
:1018400010E21D0FCD17B9F080E28C0F883040F404
:10185000C77081E001C0880FCA95EAF70E94410570
:10186000183048F481E09D2F977001C0880F9A9539
:10187000EAF70E944C05802F0E94D70B183098F48D
:10188000D77081E001C0880FDA95EAF7DF91CF9138
:101890001F910F910C944105C77081E001C0880F22
:1018A000CA95EAF7F3CFDF91CF911F910F91089579
:1018B00080918B01811111C08091D800806180934B
:1018C000D8008AE18A95F1F700C09091D900892F5C
:1018D000817090FF82E080938B0181E090918B0179
:1018E000913009F080E008956BEE7EEF90E080E0AB
:1018F0000E941F2560E082E090E00E94012560E0E8
:1019000083E090E00E9401251092F0011092F10115
:101910001092F2011092F30160E084E090E00E94E6
:10192000012560E081E290E00E94012560E085E011
:1019300090E00E94012560E086E090E00E94012591
:101940006FEF87E090E00E94012540E050E0BA018F
:1019500088E090E00E94132560E08DE090E00E9416
:10196000012540E050E0BA0188E190E00E94132593
:1019700060E087E190E00E94012540E050E0BA017C
:101980008CE190E00E94132560E080E290E00E94EC
:10199000012540E050E0BA0188E190E00E94132563
:1019A00040E050E0BA018FE090E00E94132540E053
:1019B00050E0BA0183E190E00C941325E0E8F1E0F7
:1019C00086E0DF011D928A95E9F70C94B505109227
:1019D000EE010C94DE0C1F93CF93DF93CDB7DEB7EF
:1019E000AA970FB6F894DEBF0FBECDBF87E392E093
:1019F0002091F100FC012193CF01F2E08F339F078A
:101A0000B9F780913802833009F46FC0B8F481309F
:101A100009F446C0823009F4B0C08091E80083FF29
:101A20007BC280913702909138029A3008F074C2DC
:101A3000E92FF0E0E451F84D0C94B6248A3009F413
:101A40008BC08B3009F46EC0893039F78091370232
:101A5000813219F780913B0290913C020297E8F69F
:101A60008091E800877F8093E8008091E80082FF02
:101A700037C09091F3008091F200029729F4809191
:101A8000F1008B7F813021F48091F10080932A0254
:101A90008091E8008B778093E8000E945703BDCFC8
:101AA00080913702813A09F0B8CF8091E800877FB2
:101AB0008093E80080913B0290913C02892B61F475
:101AC00068E08BE292E070E00E9409048091E800F7
:101AD0008B778093E800A1CF60E090E080E0F3CFC7
:101AE000809135028111C1CF98CF80913702813A20
:101AF00009F093CF80913B0290913C02892B09F031
:101B00008CCF8091E800877F8093E8008091E80087
:101B100080FFFCCF80910E018093F1008091E8005E
:101B20008E77B9CF80913702813209F076CF8091DC
:101B30003B0290913C02892B09F06FCF8091E80025
:101B4000877F8093E8000E94570380913902809339
:101B50000E010E94E70C61CF80913702813209F0BB
:101B60005CCF8091E800877F8093E8000E94570354
:101B700080913A028093290250CF80913702813AB6
:101B800009F04BCF8091E800877F8093E800809137
:101B9000E80080FFFCCF80912902BECF803899F009
:101BA000823809F0B9C180913B028F70873008F00C
:101BB000B3C18093E9008091EB0085FB882780F911
:101BC0001092E90006C08091330290913402911185
:101BD00082609091E800977F9093E8008093F100F5
:101BE0001092F1008091E8008E7792C1882309F469
:101BF00080C1823009F090C180913902811183C186
:101C000080913B028F702FEF280F263008F084C19F
:101C10008093E9002091EB0020FF75C1933031F4EF
:101C20008091EB0080628093EB006DC19091EB009E
:101C300090619093EB0021E030E001C0220F8A9583
:101C4000EAF72093EA001092EA008091EB008860A6
:101C5000EACF811161C1109139021F778091E300B1
:101C60008078812B8093E3008091E800877F8093C8
:101C7000E8000E9457038091E80080FFFCCF80912C
:101C8000E30080688093E30082E0111183E0809399
:101C9000350242C18058823008F03EC1809139023D
:101CA00090913A028C3D23E09207A1F583E08A836C
:101CB0008AE289834FB7F894DE01139620E03EE074
:101CC00051E2E32FF0E050935700E49120FF03C06E
:101CD000E295EF703F5FEF708E2F90E0EA30C0F03A
:101CE000C7968D939D932F5F243159F74FBF8091F5
:101CF000E800877F8093E8006AE270E0CE010196F9
:101D00000E9409048091E8008B778093E80004C169
:101D1000C096E7CF40913B0250913C02292F3327D8
:101D20002330310509F444C078F52130310509F438
:101D30006FC08BE390E0E7EBF4E02230310509F06F
:101D4000EBC02091E800277F2093E80020913D021E
:101D500030913E028217930708F49C0140E0211560
:101D6000310509F064C0411162C08091E80082FD34
:101D7000C9CF80913502882329F2853019F28091EC
:101D8000E80083FFF2CFBECF21323105A9F1223224
:101D9000310509F0C1C04115510509F443C0413076
:101DA000510509F0B9C08BE790E0ECEFF3E0C9CF43
:101DB000992781309105C1F0009759F0029709F0F9
:101DC000ABC0E4E0F5E0E4918E2F90E0E4E0F5E0D4
:101DD00007C0E4E2F5E0E4918E2F90E0E4E2F5E064
:101DE000009709F499C0ADCFE2E1F5E0E4918E2FC0
:101DF00090E0E2E1F5E0F4CF4115510571F041309A
:101E0000510509F089C089E090E0E2EEF4E099CF55
:101E100082E190E0E2EFF4E094CF89E090E0E9EC39
:101E2000F4E08FCF80E490E0E7E7F4E08ACF8091A0
:101E30003502882309F466CF853009F463CF809199
:101E4000E80083FD5FCF8091E80082FD8ECF809116
:101E5000E80080FF84CF9091F3008091F20021157B
:101E6000310519F08830910550F041E0089709F0EC
:101E700040E08091E8008E778093E80070CF449135
:101E80004093F1003196215031090196E8CF803816
:101E900009F042C08091E800877F8093E80080913C
:101EA00036028093F1009ECE811136C01091390226
:101EB000123090F58091E800877F8093E8001093BE
:101EC00036020E945703112311F084E005C080916F
:101ED000E30087FDFACF81E08093350242E061ECB8
:101EE00081E00E94760342E261EC82E00E94760388
:101EF00013C080913902813079F481E0933009F088
:101F000080E0809334021092E9008091E800877F9E
:101F10008093E8000E9457038091E80083FF0AC085
:101F20008091E800877F8093E8008091EB008062D9
:101F30008093EB00AA960FB6F894DEBF0FBECDBF1C
:101F4000DF91CF911F9108952F923F924F925F9210
:101F50006F927F928F929F92AF92BF92CF92DF92B9
:101F6000EF92FF920F931F93CF93DF93CDB7DEB71E
:101F700028970FB6F894DEBF0FBECDBF6C01FC01F1
:101F800083819481892B41F01081F180812F8F21F1
:101F90008F3F11F00C947B1B28960FB6F894DEBF90
:101FA0000FBECDBFDF91CF911F910F91FF90EF90AA
:101FB000DF90CF90BF90AF909F908F907F906F9069
:101FC0005F904F903F902F9008950E949D0A082F98
:101FD000682F89819A810E940905E12FF0E026E0AF
:101FE000F29EE00DF11D112430E3039FE00DF11D81
:101FF0001124EE0FFF1FE45AFE4F05911491F601D4
:102000008281F801E45CFC45E73CF10510F00C949A
:102010002E1BEA50F84D0C94B624882341F080EE34
:102020000E94FC078AE20E94FC070E94E70C809154
:10203000EB01877009F4B0CFF6018281882309F49F
:10204000ABCF82E00E941A06A7CF882359F0E12C7B
:1020500000E020E040E06CE470E08AE290E00E9462
:102060000D0BE5CF0E94DE0CE2CF8823D9F38091DF
:10207000EE0181FF04C085E00E943206D8CF83E0E4
:102080000E94D605D4CF882391F283EE0E94FC07EC
:102090008EE10E94FC070E94E70CC9CF882339F229
:1020A00083EE0E94FC078FE10E94FC070E94E70C70
:1020B000BECF882309F4BBCF83EE0E94FC0780E2E9
:1020C0000E94FC070E94E70CB2CF882309F4AFCF2F
:1020D00083EE0E94FC0781E20E94FC070E94E70C4D
:1020E000A6CF882309F4A3CF83EE0E94FC0782E2E7
:1020F0000E94FC070E94E70C9ACF882309F497CF2F
:1021000083EE0E94FC0783E20E94FC070E94E70C1A
:102110008ECF882309F48BCF83EE0E94FC0784E2E4
:102120000E94FC070E94E70C82CF882309F47FCF2E
:1021300083EE0E94FC0785E20E94FC070E94E70CE8
:1021400076CF882309F473CF83EE0E94FC0780E5E5
:102150000E94FC070E94E70C6ACF882309F467CF2E
:1021600083EE0E94FC0781E50E94FC070E94E70CB9
:102170005ECF882309F45BCF83EE0E94FC0782E5E3
:102180000E94FC070E94E70C52CF882309F44FCF2E
:1021900083EE0E94FC078FE40E94FC070E94E70C7C
:1021A00046CF882309F443CF81EE0E94FC0783EEDB
:1021B0000E94FC078FE00E94FC070E94E70C37CFCB
:1021C000882309F434CF81EE0E94FC0783EE0E943D
:1021D000FC0788E00E94FC070E94E70C28CF8823B8
:1021E00009F425CF83EE0E94FC0782E40E94FC07DD
:1021F0000E94E70C1CCF882309F419CF81EE0E94BE
:10220000FC0783EE0E94FC078BE00E94FC070E9403
:10221000E70C0DCF882309F40ACF81EE0E94FC075A
:1022200083EE0E94FC0789E10E94FC070E94E70CF4
:10223000FECE882309F4FBCE83EE0E94FC0789E0E2
:102240000E94FC070E94E70CF2CE882309F4EFCE2F
:1022500081EE0E94FC0783EE0E94FC0787E00E944B
:10226000FC070E94E70CE3CE882309F4E0CE81EE60
:102270000E94FC0783EE0E94FC0786E10E94FC0797
:102280000E94E70CD4CE882309F4D1CE83EE0E94BD
:10229000FC0785E10E94FC070E94E70CC8CE88235A
:1022A00009F4C5CE81EE0E94FC0783EE0E94FC0774
:1022B00084E00E94FC070E94E70CB9CE882309F451
:1022C000B6CE83EE0E94FC0788E30E94FC070E94C2
:1022D000E70CADCE882309F4AACE83EE0E94FC075A
:1022E0008BE20E94FC070E94E70CA1CE882309F430
:1022F0009ECE81EE0E94FC0783EE0E94FC0784E1E3
:102300000E94FC070E94E70C92CE882359F081EED0
:102310000E94FC0783EE0E94FC078BE10E94FC07F1
:102320000E94E70CF6018281882309F480CE83EEB7
:102330000E94FC078BE40E94FC070E94E70C77CE0A
:10234000882309F474CE83EE0E94FC078EE40E9479
:10235000FC070E94E70C6BCE882309F468CE81EE5F
:102360000E94FC0783EE0E94FC0786E00E94FC07A7
:102370000E94E70C81EE0E94FC0783EE0E94FC079E
:1023800085E10E94FC070E94E70C51CE882359F09A
:1023900081EE0E94FC0783EE0E94FC078CE20E9403
:1023A000FC070E94E70CF6018281882309F45ACECB
:1023B000E12C00E020E040E06FE270E084E390E098
:1023C0000E940D0B34CE882309F44CCEEE24E39406
:1023D00000E021E040E061E270E080E290E00E94F5
:1023E0000D0B25CE882309F43DCEE12C01E020E041
:1023F00040E060E270E08DE290E00E940D0B17CEAD
:10240000882309F42FCEE12C01E020E041E064E3D1
:1024100070E08FE190E00E940D0B09CE882309F453
:1024200021CEE12C01E020E041E06EE270E08DE29F
:1024300090E00E940D0BFBCD882309F413CEE12C14
:1024400000E020E041E06EE270E08EE190E00E946A
:102450000D0BEDCD882309F405CEEE24E39400E0C6
:1024600020E041E063E270E082E290E00E940D0B28
:10247000DECD882309F4F6CDEE24E39400E020E0DD
:1024800040E06FE170E080E390E00E940D0BCFCD63
:10249000882309F4E7CDE12C01E020E040E068E387
:1024A00070E088E390E00E940D0BC1CD882309F411
:1024B000D9CDE12C01E020E041E06FE270E080E363
:1024C00090E00E940D0BB3CD882309F4CBCDEE2410
:1024D000E39400E020E041E065E370E084E290E016
:1024E0000E940D0BA4CD882309F4BCCDE12C01E0A2
:1024F00020E041E067E270E087E290E00E940D0B8F
:1025000096CD882309F4AECDEE24E39400E020E0DC
:1025100040E06CE170E084E690E00E940D0B87CD16
:10252000882309F49FCDEE24E39400E020E041E00D
:102530006CE070E084E690E00E940D0B78CD88237B
:1025400009F490CDEE24E39400E020E041E068E05F
:1025500070E085E290E00E940D0B69CD882309F4BC
:1025600081CDE12C01E020E041E061E270E086E213
:1025700090E00E940D0B5BCD882309F473CDE12C14
:1025800001E020E041E065E370E083E290E00E943A
:102590000D0B4DCD882309F465CDE12C00E021E041
:1025A00040E065E370E08EE190E00E940D0B3FCDCE
:1025B000882309F457CDEE24E39400E021E040E0C5
:1025C00064E370E084E390E00E940D0B30CD88233B
:1025D00009F448CDEE24E39400E021E040E062E31A
:1025E00070E082E390E00E940D0B21CD882309F476
:1025F00039CDEE24E39400E021E040E06FE270E0AA
:102600008FE290E00E940D0B12CD882309F42ACDB1
:10261000EE24E39400E021E040E060E370E080E33A
:1026200090E00E940D0B03CD882309F41BCDE12C13
:1026300000E020E040E066E070E086E090E00E948C
:102640000D0B20E040E064E070E08CE090E00E9440
:102650000D0B20E040E067E170E087E190E00E9430
:102660000D0BE5CC882309F4FDCCE12C00E020E043
:1026700040E066E070E086E090E00E940D0B20E014
:1026800040E064E070E08CE090E00E940D0B20E000
:1026900040E063E170E083E190E00E940D0BC7CC65
:1026A000882309F4DFCCE12C00E020E040E066E084
:1026B00070E086E090E00E940D0B20E040E064E0D6
:1026C00070E08CE090E00E940D0B20E040E066E1BD
:1026D00070E086E190E00E940D0BA9CC882309F4FC
:1026E000C1CCE12C00E020E040E066E070E086E054
:1026F00090E00E940D0B20E040E064E070E08CE090
:1027000090E00E940D0B20E040E06AE170E08AE179
:1027100090E00E940D0B8BCC882309F4A3CCE12C14
:1027200000E020E040E066E070E086E090E00E949B
:102730000D0B20E040E06CE070E08CE090E00E9447
:102740000D0B20E041E065E070E085E090E00E9444
:102750000D0B6DCC882309F485CCE12C00E020E042
:1027600040E069E170E089E190E00E940D0B20E01B
:1027700040E064E070E08CE090E00E940D0B20E00F
:1027800040E067E170E087E190E00E940D0B4FCCE4
:10279000882309F467CCE12C00E020E040E069E107
:1027A00070E089E190E00E940D0B20E040E064E0E1
:1027B00070E08CE090E00E940D0B20E040E063E1CF
:1027C00070E083E190E00E940D0B31CC882309F486
:1027D00049CCE12C00E020E040E069E170E089E1D3
:1027E00090E00E940D0B20E040E064E070E08CE09F
:1027F00090E00E940D0B20E040E066E170E086E191
:1028000090E00E940D0B13CC882309F42BCCE12C13
:1028100000E020E040E069E170E089E190E00E94A2
:102820000D0B20E040E064E070E08CE090E00E945E
:102830000D0B20E040E06AE170E08AE190E00E9448
:102840000D0BF5CB882309F40DCCE12C00E020E042
:1028500040E069E170E089E190E00E940D0B20E02A
:1028600040E06CE070E08CE090E00E940D0B20E016
:1028700041E065E070E085E090E00E940D0BD7CB71
:10288000882309F4EFCBE12C00E020E040E067E092
:1028900070E087E090E00E940D0B20E040E064E0F3
:1028A00070E08CE090E00E940D0B20E040E067E1DA
:1028B00070E087E190E00E940D0BB9CB882309F40A
:1028C000D1CBE12C00E020E040E067E070E087E061
:1028D00090E00E940D0B20E040E064E070E08CE0AE
:1028E00090E00E940D0B20E040E063E170E083E1A6
:1028F00090E00E940D0B9BCB882309F4B3CBE12C15
:1029000000E020E040E067E070E087E090E00E94B7
:102910000D0B20E040E064E070E08CE090E00E946D
:102920000D0B20E040E066E170E086E190E00E945F
:102930000D0B7DCB882309F495CBE12C00E020E042
:1029400040E067E070E087E090E00E940D0B20E03F
:1029500040E064E070E08CE090E00E940D0B20E02D
:1029600040E06AE170E08AE190E00E940D0B5FCBED
:10297000882309F477CBE12C00E020E040E067E019
:1029800070E087E090E00E940D0B20E040E06CE0FA
:1029900070E08CE090E00E940D0B20E041E065E0EB
:1029A00070E085E090E00E940D0B41CB882309F494
:1029B00059CBEE24E39400E021E040E060E370E0D6
:1029C00080E390E00E940D0BE12C20E040E060E10C
:1029D00070E080E190E00E940D0B29CB882309F480
:1029E00041CBEE24E39400E021E040E06FE270E0B0
:1029F0008FE290E00E940D0BE12C20E040E060E1CE
:102A000070E080E190E00E940D0B11CB882309F467
:102A100029CBEE24E39400E020E040E060E370E0A6
:102A200086E390E00E940D0B20E040E060E370E060
:102A300086E090E00E940D0BE12C20E040E070E089
:102A400060E08EE190E00E940D0BF1CA882309F44A
:102A500009CBEE24E39400E020E040E06FE270E078
:102A600086E390E00E940D0B20E040E06FE270E012
:102A700086E090E00E940D0BE12C20E040E070E049
:102A800060E08FE190E00E940D0BD1CA882309F429
:102A9000CECA83EE0E94FC0784E40E94FC070E94D9
:102AA000E70CC5CA882309F4C2CA80EE0E94FC075D
:102AB00083EE0E94FC0785E00E94FC070E94E70C61
:102AC000B6CA882309F4B3CA83EE0E94FC0787E0E4
:102AD0000E94FC070E94E70CAACA882309F4A7CA2F
:102AE00080EE0E94FC0783EE0E94FC0786E10E94B4
:102AF000FC070E94E70C9BCA882309F498CA80EE61
:102B00000E94FC0783EE0E94FC0788E00E94FC07FD
:102B10000E94E70C8CCA882309F489CA83EE0E94BC
:102B2000FC0781E40E94FC070E94E70C80CA88230E
:102B300009F47DCA80EE0E94FC0783EE0E94FC0728
:102B400080E10E94FC070E94E70C71CA882309F407
:102B50006ECA80EE0E94FC0783EE0E94FC0787E0AD
:102B60000E94FC070E94E70C62CA882309F45FCA2E
:102B700080EE0E94FC0783EE0E94FC0784E00E9426
:102B8000FC070E94E70C53CA882309F450CA83EE5D
:102B90000E94FC078AE30E94FC070E94E70C47CAD8
:102BA000882309F444CA83EE0E94FC078BE30E9449
:102BB000FC070E94E70C3BCA882309F438CA83EE5D
:102BC0000E94FC0783E40E94FC070E94E70C2FCAC6
:102BD000882309F42CCA80EE0E94FC0783EE0E9431
:102BE000FC078AE10E94FC070E94E70C20CA8823A8
:102BF00009F41DCA61E083E090E00E94012561E0D4
:102C000070E080E090E00E94820611CA882321F0E3
:102C100082E00E9432060BCA82E00E94F70507CAD2
:102C2000882339F083E00E94320681E00E94530637
:102C3000FEC983E00E94F70580E00E945306F7C9B1
:102C4000882321F086E00E943206F1C986E00E94C6
:102C5000F705EDC9882351F081E00E94320681E03A
:102C60000E94530685E00E94F705E1C981E00E94B9
:102C7000F70580E0F5CF0B319CE5190709F45EC03C
:102C800008F455C0809102018E7F0C31FCE51F07CE
:102C900009F00AC580930201F6018281882309F4B4
:102CA00040C5109241020230FCE51F0708F44EC2F5
:102CB00006312CE5120738F098012B5F3C4529308E
:102CC000310508F043C20E94400B909307028093A5
:102CD000060200313CE5130709F407C208F095C16C
:102CE00008309CE5190709F4F6C108F064C1043006
:102CF000FCE51F0709F4E7C108F04AC102303CE5D2
:102D0000130709F4D6C103301C4509F4D8C16091FA
:102D100006021091070284E090E00E940125612FD5
:102D200081E290E00E9401250E94E70C80C9909109
:102D30000201892F8E7F90FF8160ACCF80910201CC
:102D40008160A8CF80910001909101010596909338
:102D5000010180930001A0CF8091000190910101B9
:102D60000597F5CF809101018F93809100018F939A
:102D700087E191E09F938F931F9288E08F939F92BA
:102D80008F920E9435250FB6F894DEBF0FBECDBFDF
:102D900074015AE0252EF7012081222309F47CCF0B
:102DA000213009F046C091818281913031F4F2E006
:102DB000EF0EF11C0E94D70B07C0923049F422E0BD
:102DC000E20EF11C0E94FC073FEFE31AF30AE3CF87
:102DD000933031F432E0E30EF11C0E946607F4CF29
:102DE000943021F08FEFE81AF80AEECF92E0E90E66
:102DF000F11C30E020E0A7014F5F5F4F8053990B3B
:102E00008A30910550F021503109F0F28FE99FE0AE
:102E10000197F1F700C00000F6CF229EB001239E7B
:102E2000700D11249C01260F371FF70181817A0153
:102E3000E2CFE22FF0E0E452FF4F3490822F8695EC
:102E40008695869590E0FC01E453FF4F44902770EF
:102E5000512C022E02C0559447940A94E2F7E1E007
:102E60004E225524FC01E454FF4F6490712C022E35
:102E700002C0759467940A94E2F7F1E06F22772418
:102E8000FC01E455FF4FA490B12C02C0B594A79467
:102E90002A95E2F721E0A222BB244114510419F043
:102EA00081EE0E94FC076114710419F086EE0E9405
:102EB000FC07832D0E94D70B672819F086EE0E942D
:102EC0006607452819F081EE0E946607AB2809F4D1
:102ED0007BCF8CE26FCF0D32110540F00933110525
:102EE00008F4ECC30436110509F4E8C3043FFCE51B
:102EF0001F0791F1C8F4093D3CE5130731F10A3D84
:102F00008CE51807F1F1083D9CE5190709F0C4CEDE
:102F100026E241EE61EEC6010E94F40B88C8B701BB
:102F2000C8010E94590883C8063FECE51E0711F14D
:102F3000D0F0073F2CE5120709F0AECE27E245EEB0
:102F400066EEC6010E94F40B72C827E245EE65EEFC
:102F5000C6010E94F40B6BC826E241EE60EEC6018A
:102F60000E94F40B64C827E245EE64EEC6010E949D
:102F7000F40B5DC829E240E062EEC6010E94F40B4A
:102F800056C828E241E065EEC6010E94F40B4FC826
:102F900080910602806106309CE5190709F48CC017
:102FA00080910602886007301C4508F485C0809136
:102FB0000602806281C0809106028D7F0C30FCE5A4
:102FC0001F0709F479C070F4809106028C600A3002
:102FD0003CE5130709F470C008F481C08091060233
:102FE0008E7F6AC080910602877F0E309CE51907AC
:102FF00009F462C0809106028B7F0F301C4508F4F3
:103000005BC0809106028F7E57C00C3FFCE51F0716
:1030100009F45DC030F503313CE5130709F46DC0D8
:1030200078F401319CE5190709F463C002311C45AD
:1030300009F06DCE0E94E70C809106028F773CC0AC
:103040000531FCE51F0709F460C008F474C08091E5
:10305000070281600B3F1C4509F059CE809307029F
:1030600056CE01158DE5180709F44BC088F4809100
:1030700007028D7F0E3FECE51E0781F3809107026A
:103080008E7F0F3F1C4550F3809107028360E6CF8F
:1030900002302DE5120709F457C008F442C060E081
:1030A00003301D4509F033CE8EE090E00E940125EB
:1030B0002ECE8091060281608093060228CE8091F8
:1030C00006028260F9CF809106028460F5CF80917C
:1030D00007028260C3CF809106028064EDCF0E9418
:1030E000E70C809106028068E7CF809106028F7D11
:1030F000E3CF809106028F7BDFCF80910602837F32
:10310000DBCF809107028C7FA9CF8091060282FBE2
:10311000992790F921E0922790FB82F990FB83F99F
:10312000CBCF80910702982F909591708E7F892B3D
:1031300090FB81F993CF0E94E70C90910602892FB2
:1031400097FB87F98058B8CF61E0AECF06319CE598
:10315000190709F0FCC28091EE018A7A91E009F426
:1031600090E09093940169E2811165E38EE791E02C
:103170000E9493040E94B3040C94171085E3D9C2F3
:103180000E94E70CEFEFF4E32CE0E150F040204028
:10319000E1F700C0000087E797E79093010880936C
:1031A000000888E19AE00FB6F894A8958093600033
:1031B0000FBE90936000FFCF0E94740C0C94171008
:1031C000C8010E94E004F82ED9C2212F2F70A22E30
:1031D000107F19F0A29420EFA222FF20C9F0AA20AC
:1031E00069F080E2800F883010F061100BC0809190
:1031F000EE01A82AA092EE010E94B304802F0E9443
:10320000FC0718C08091ED01A82AA092ED01F4CF2F
:10321000802F0E946607AA2069F0A094005E083003
:1032200010F0611045C08091EE01A822A092EE013D
:103230000E94B304EB2DE850FF0B349710F40E946A
:103240008205EE20A9F08091EB0180FD11C0F6010E
:1032500012828595859585950E943206C6010E9449
:10326000A40F8091EB018595859585950E94F705C2
:1032700085E0F601D40101900D928A95E1F78981EC
:103280009A810E94E0049A81E981F0E026E0929F11
:10329000E00DF11D112430E3839FE00DF11D112499
:1032A000EE0FFF1FE45AFE4F859194910C94CC0FC2
:1032B0008091ED01A822A092ED01BACF312F3F708D
:1032C000732E107F103219F0729490EF79226620DD
:1032D00071F081E0681661F1FF20B9F1AA2071F167
:1032E000F601858180FF8ACF8F70858327C0FF20FC
:1032F00091F09091EF01872D892BA11003C00E94BE
:103300004C0598CFE1E0AE12FACF981709F492CFAE
:103310008093EF018FCFA11006C00E94AD04872DCE
:103320000E94410587CFF1E0AF1609F483CFF5CFB6
:10333000FF2031F025E02A1508F47CCF872DDFCF60
:1033400034E03A1508F476CFEACFAA2041F3F9E346
:103350006F127DC12FEF37EE83E021503040804067
:10336000E1F700C0000073C1812F869586958370B8
:1033700061F0813009F05ECFC8019370F11002C096
:1033800090E080E00E94560555CFC8019370F1107F
:1033900002C090E080E00E946C054CCF802FFF209F
:1033A00029F00E94A7070E948E0544CF0E940307C0
:1033B000FACF812F837009F066C0F1103BCF802FC8
:1033C000829586958770880F880F602F6F70462EC4
:1033D000512C712C612C082E04C0440C551C661C09
:1033E000771C0A94D2F740E050E0BA0104FF0FC006
:1033F0004FE050E060E070E004C0440F551F661FCE
:10340000771F8A95D2F74095509560957095812FDA
:10341000869586958370823019F1D8F40091F00179
:103420001091F1012091F2013091F301813069F0A6
:103430004429552966297729CB01BA0160237123D4
:10344000822393230E948206F5CE402A512A622AC3
:10345000732ACB01BA016429752986299729F2CFED
:1034600044295529662977290091F0011091F1012D
:103470002091F2013091F301CB01BA01602771274D
:1034800082279327DFCF8695FF2011F0812F81704F
:10349000882309F4CFCE802F829586958770880F78
:1034A000880F602F6F70462E512C712C612C082EC6
:1034B00004C0440C551C661C771C0A94D2F740E0EB
:1034C00050E0BA0104FF0FC04FE050E060E070E050
:1034D00004C0440F551F661F771F8A95D2F7409589
:1034E000509560957095812F869586958370823072
:1034F00019F1D8F400914202109143022091440244
:1035000030914502813069F044295529662977298F
:10351000CB01BA0160237123822393230E94CC053F
:1035200089CE402A512A622A732ACB01BA01642922
:10353000752986299729F2CF4429552966297729A3
:1035400000914202109143022091440230914502C1
:10355000CB01BA016027712782279327DFCF1F7025
:10356000FF2029F0812F0E943206802FC8CE802FA5
:103570000E944105812F0E94F7055CCE802F92EFBB
:103580006916E9F1961570F0E0EF6E1601F1F1EFB2
:103590006F1669F1FF2009F455C0A1102FCE812FBD
:1035A0008F712AC023EF621679F134EF6312F2CFE4
:1035B000FF20E9F11F71812F0E943206E8E01E9F73
:1035C000C001112483608093EB01812F15C0FF207F
:1035D00049F084E08A1508F42DCE812F8F710E9466
:1035E000D60528CE95E09A1508F424CEF6CF812F83
:1035F0008F71FF2009F4BFCF0E9432061BCE812FAE
:103600008F71FF20C9F3B7CF60E070E0CB01FF20DE
:1036100009F484CF1F7161E070E080E090E004C0A5
:10362000660F771F881F991F1A95D2F777CF81E011
:103630000E941A06F1E0FA1508F0FCCD82E00E9423
:103640001A06F8CDAA2039F0893309F483CE802FE9
:103650000E946607EFCD812F8F718DCF0E94870466
:103660007C01F60182818823F9F08091020182FFBA
:1036700005C0B70190E080E00E9459088091ED01FB
:103680008D7F8093ED010931FCE51F0709F46ACBBA
:1036900008F0F1CA07313CE5130709F453CB0831B0
:1036A0008CE5180709F458CB0B32110539F008F0F6
:1036B00012CCC80104974A9708F018CCF601828111
:1036C000882309F42CCC8091020180FFE5CA9091F7
:1036D000EE019111E1CA1093930100939201F092CF
:1036E0009101E092900184608093020182E00E9447
:1036F0001A060C94171085E09E012F5F3F4F490179
:10370000D90101900D928A95E1F7F6012281898114
:103710009A8121110C94E50F0E94E004082F0C946B
:10372000ED0F06311C45E1F480919401811126CD05
:1037300089E2E0E8F1E026E831E09191891303C0E5
:10374000DF0111971C922E173F07B9F713CD011512
:103750002CE5120709F414CD0F3D1C4509F42CCDBE
:10376000F60100811181882309F42ACDC8010E9445
:103770009D0AF82E682FC8010E940905B8018F2DF7
:103780000E9401098C01682EF601F280A580A294A6
:103790004FE0A4228091EB018770A1F0EF2CFF2075
:1037A00091F0812F807F803421F080E2800F88307B
:1037B00048F082E00E941A068091EB018770EE24A7
:1037C000E3948111E12CB12EB2943FE0B322FBE0EF
:1037D000FB1508F42FCDEB2DF0E0E354F74D0C94DE
:1037E000B6241F93CF93DF9380919A01807FA9F431
:1037F00080919701882389F08091CC01D0919B0121
:103800006091950170919601A0919801B0919901F4
:10381000C62FC72316E0D81304C0DF91CF911F91A4
:10382000089590E0109711F0CF3F19F4019687703A
:10383000F2CF189F9001199F300D1124F901E45621
:10384000FE4F41814713F2CF40814613EFCF4281B3
:103850004111ECCF438154814A1B5B0B4C325140E8
:1038600028F780919A018F70806180939A01F90105
:10387000EF55FE4F80818F708061808385E991E0F4
:103880000E94A40FDF91CF911F910C943705AF9246
:10389000BF92CF92DF92EF92FF920F931F93CF933D
:1038A000DF93CDB7DEB761970FB6F894DEBF0FBEDA
:1038B000CDBF8C0185E0F801DE011D9601900D92CF
:1038C0008A95E1F7F80180819181E28025E9A22EB5
:1038D00021E0B22E609198017091990161157105F6
:1038E00009F43FC13091950140919601232F242383
:1038F0002F3F09F436C1C380D480F0909701F601C0
:10390000E61BF70BBF01FF2009F4FBC020919A01D1
:10391000522F507F6C32714008F0BBC0511178C0FB
:10392000FE2C491321C038131FC0E1101DC02F7099
:10393000206120939A01C5010E94A40F80919A01F1
:10394000F80185838F2D61960FB6F894DEBF0FBE08
:10395000CDBFDF91CF911F910F91FF90EF90DF903E
:10396000CF90BF90AF900895CD2829F0282F29231C
:103970002F3F09F014C120E0F22FF170DF2E20FF5D
:103980003DC02091CC0140919B0156E0241315C00D
:103990008D879E878D859E850E94DF0A292F22951F
:1039A0002F702230F8F0243020F59F70F9F0F801E4
:1039B0009581907FD9F4D12C1FC030E0529FF00147
:1039C000539FF00D1124E456FE4F6181961306C0FB
:1039D0006081861303C06281E61210C02F5F3F4FE3
:1039E0002770D4CF9F7011F0882329F3805E883030
:1039F00010F3C8010E94A40FFD2CA4CFEE2009F4FF
:103A0000A1CF80919A01816080939A01F12C9ACF85
:103A1000491312C0381310C0E1100EC0F8012583FD
:103A2000C8010E94A40F86E0F801A5E9B1E0019069
:103A30000D928A95E1F786CF8D879E878D859E852D
:103A40000E94E90A882309F1EE20F9F080919A0199
:103A5000803270F0209195013091960138872F8344
:103A60001986DB86CA868C87CE0107960E94A40F32
:103A700086E0F801A5E9B1E001900D928A95E1F7A1
:103A80000E94F11BFF24F3945DCFC8010E94A40F94
:103A9000F9CF51110AC085E991E00E94A40F86E098
:103AA000F50111928A95E9F7B1CF49130FC0381388
:103AB0000DC0E1100BC0F8012583C8010E94A40FBE
:103AC00086E0F50111928A95E9F73CCF8D879E87B4
:103AD0008D859E850E94E90A8823B9F2EE20A9F21D
:103AE00080919A01803220F22091950130919601C7
:103AF0003A8329831B82DD82CC828E83CE0101969C
:103B0000B5CF6C327140E0F6FE2CEE2009F4BDCF4B
:103B1000491316C0381314C080919A0180FD83CFD9
:103B2000982F907F09F47FCFF8018583903F09F4A7
:103B300077CF982F907F905F8F70892B858370CF80
:103B40008D879E878D859E850E94E90A811190CF81
:103B500080919A01816080939A01C8010E94A40F0C
:103B6000F1CEEE2009F491CF8D879E878D859E85BD
:103B70000E94E90AF82E882309F487CF86E0F8012D
:103B8000A5E9B1E001900D928A95E1F78091950148
:103B9000909196010E94DF0A0E94F11BD3CE21E092
:103BA0002E25EACE1F93CF93DF93CDB7DEB767976D
:103BB0000FB6F894DEBF0FBECDBF342F4B8B252F31
:103BC0005C8B6D8B7E8B8F8B8E899F8961111092A0
:103BD000ED011A8A198A3D872E876F87998B888B0A
:103BE00086E0FE013D96DE01179601900D928A95C2
:103BF000E1F7CE0107960E94471C811112C086E0B2
:103C0000FE013796DE01119601900D928A95E1F73B
:103C10008A859B85892B29F08F81988589238F3F01
:103C2000B1F516E08091CC0190919B0189131DC0E4
:103C300067960FB6F894DEBF0FBECDBFDF91CF9170
:103C40001F91089596E0929FD001939FB00D11248B
:103C5000A456BE4FFE01319601900D929A95E1F760
:103C600080939B010E943705DCCF819FC001112406
:103C700084569E4F0E94471C8823D1F28091CC012C
:103C800090E00196877099278093CC01CBCF20914B
:103C90009B0130E0C9010196877099274091CC01C2
:103CA0004817190679F60E94E70C10929B011092B2
:103CB000CC0186E0E5E9F1E0DF011D928A95E9F7A4
:103CC000B0CFAF92BF92CF92DF92EF92FF920F935D
:103CD0001F93CF93DF9300D000D0CDB7DEB78DE533
:103CE000E82E81E0F82E9CEFA92E91E0B92E00E09D
:103CF000CC24C394D12CF70181917F01F894E82F53
:103D0000E295EF70F0E021A18F70A60102C0440F90
:103D1000551F8A95E2F7CA01922F982B91A392A181
:103D20008095892382A3789400C0E5E6F1E030E035
:103D300020E010E04191A42FA295AF70B0E09096E2
:103D40008C9190E04F7002C0959587954A95E2F767
:103D500080FD4CC08C2D022E01C0880F0A94EAF71A
:103D6000182B2F5F3F4F2630310521F7F701319790
:103D700080810E94A70850EA5A95F1F7F5018081E9
:103D80001817B1F1108381E0082BFFEFAF1ABF0ABB
:103D900041E6E41641E0F40609F0ADCF10910502CA
:103DA000002341F181E0809389010E948704909370
:103DB00088018093870180918701909188010E94FA
:103DC0006C040697D8F0E12FF0E0E55FFD4F80919D
:103DD000FC0180838091FD0181838091FE018283BB
:103DE0008091FF0183831092890108C080E0B8CFE1
:103DF00080E0CACF809189018111DDCF0E94580CEB
:103E0000182F60910502882309F473C019821A8261
:103E10001B821C82862F90E0BE016F5F7F4F855F03
:103E20009D4F0E942223811144C080918A018F5F9F
:103E300080938A01863008F45AC0E0910402F0E0D1
:103E4000E55FFD4FDE011196CE01059611921D92A0
:103E5000A817B907D9F78091020182FF17C00E9405
:103E600087042091900130919101AC01421B530BCA
:103E700020910001309101014217530738F0BC0135
:103E800080919201909193010E945908011101C003
:103E9000012F802F0F900F900F900F90DF91CF91F7
:103EA0001F910F91FF90EF90DF90CF90BF90AF9058
:103EB000089510928A01A0910402B0E0A55FBD4F61
:103EC000BE016F5F7F4F9E012B5F3F4F10E04D9112
:103ED000FB019191BF01491731F0AD0141505109EA
:103EE000FA019083182F6217730789F7B4CF10E097
:103EF000B2CF70E0655F7D4F8091040290E0855FF6
:103F00009D4F0E944923C2CF1F920F920FB60F926E
:103F100011242F933F934F935F936F937F938F93CE
:103F20009F93AF93BF93CF93DF93EF93FF93D09182
:103F3000E900DF708091EC00C82FC17080FDC0E8FF
:103F40001092E9008091F000877F8093F0007894D0
:103F50000E94EB0C1092E9008091F0008860809341
:103F6000F000CD2BCF70C093E900FF91EF91DF916E
:103F7000CF91BF91AF919F918F917F916F915F9101
:103F80004F913F912F910F900FBE0F901F9018955A
:103F90001F920F920FB60F9211242F933F934F93BE
:103FA0005F936F937F938F939F93AF93BF93EF93A1
:103FB000FF938091E10082FF09C08091E20082FFBF
:103FC00005C08091E1008B7F8093E1008091DA0051
:103FD00080FF24C08091D80080FF20C08091DA004B
:103FE0008E7F8093DA008091D90080FF9BC080E1B2
:103FF00089BD82E189BD09B400FEFDCF81E08093D7
:10400000350280912802811109C00E94DD020E94C0
:10401000A8038091E20084608093E2008091E10037
:1040200080FF17C08091E20080FF13C08091E20002
:104030008E7F8093E2008091E20080618093E200B5
:104040008091D80080628093D80019BC85E080936D
:1040500035028091E10084FF29C08091E20084FF55
:1040600025C080E189BD82E189BD89B5982F917015
:1040700080FFFBCF8091D8008F7D8093D800809106
:10408000E1008F7E8093E1008091E2008F7E80933B
:10409000E2008091E20081608093E200809136022C
:1040A000882309F445C084E0809335028091E100C3
:1040B00083FF27C08091E20083FF23C08091E1004D
:1040C000877F8093E10082E0809335021092360270
:1040D0008091E1008E7F8093E1008091E2008E7FED
:1040E0008093E2008091E20080618093E20042E0F0
:1040F00060E080E00E9476038091F0008860809309
:10410000F000FF91EF91BF91AF919F918F917F91BF
:104110006F915F914F913F912F910F900FBE0F9034
:104120001F90189519BC109235021092280276CF74
:104130008091E30087FD93E090933502B7CFCDB730
:10414000DEB760970FB6F894DEBF0FBECDBF84B761
:10415000877F84BF0FB6F894A8958091600088612E
:1041600080936000109260000FBE80E890E00FB670
:10417000F89480936100909361000FBE85B78068CA
:1041800085BF85B7806885BF87E694E090937D0101
:1041900080937C010E94DD020E94A8038091E200CE
:1041A00084608093E2007894809135028823A1F0A6
:1041B0001091E9001F709091EC00892F817090FDA3
:1041C00080E8182B1092E9008091E80083FD0E949E
:1041D000EB0C1F701093E90082E084BD93E095BD65
:1041E0009AEF97BD80936E001092F8011092F9013A
:1041F0001092FA011092FB010E94580C91E089275D
:10420000809303010E94580C81110E941623809113
:1042100003018091030194E0811190E090930502E5
:1042200084E0891B8093040284E90E94A70886E643
:104230000E94A70887E90E94A70886EC0E94A708A9
:1042400084EF0E94A70885EF0E94A70886EF0E94CE
:10425000A70887EF0E94A70881E30E94A70883E3CD
:104260000E94A708ECEFF1E0ABE0B2E011921D92E2
:1042700022E0E430F207D1F790E080E00E94FB24D6
:104280008B3E9E4F11F00E94740C0E94580C8111BD
:1042900002C00E941C2390E080E00E94FB248B3E21
:1042A0009E4F11F00E94740C82E090E00E94F32473
:1042B00080931F020E94400B909307028093060296
:1042C00083E090E00E94F324682F70E090E080E0AB
:1042D0000E94820684E091E0909309028093080294
:1042E00048E1E42EF12C50E4C52E8BE092E068E02A
:1042F000D62ED80E8091350200E112E1853009F406
:10430000D6C00E94611E81110E947B04E0E2F2E0AF
:10431000ABE0B2E010E000E0802EAD9081918A1514
:1043200009F4D4C0912CBB24B3948A25982F9B21E7
:1043300009F4C7C00E94580C882399F09F82888690
:10434000AB2081E009F480E089870E9487048160C6
:10435000782F9B878A874F81588569858B850E9436
:10436000D21DF801E05EFD4F8081B826B08286E064
:10437000E8E1F2E0DE01119601900D928A95E1F7F5
:10438000A0901A02B0901B0200911C0210911D0215
:1043900010921A0210921B0210921C0210921D021F
:1043A0008A2D8B29B1F080911602909117020E94FC
:1043B0006C04E0911502F0E0EE0FFF1FED58FE4F88
:1043C000208131812817390720F4A0921A02B09277
:1043D0001B02802F812BB1F0809113029091140267
:1043E0000E946C04E0911502F0E0EE0FFF1FE5590A
:1043F000FE4F208131812817390720F400931C02D9
:1044000010931D0280911A0290911B02892B9091AA
:104410001C02892B90911D02892B11F00E948E05A0
:1044200086E0FE013196A8E1B2E001900D928A95F6
:10443000E1F70E94820590911E02891709F45ACF74
:104440000E94820580931E0255CF809135028430F0
:1044500009F110920A020FB6F894A895E092600054
:104460000FBEC092600083B7817F846083BF83B733
:10447000816083BF7894889583B78E7F83BF0FB6A2
:10448000F894A895809160008861809360001092F4
:1044900060000FBE80913402882349F00E94611EA3
:1044A000EBE0F2E08191811128C0DE12FBCF809118
:1044B0003502853009F4C9CF0E94E70C0E948205BD
:1044C00020CF9394BB0C96E0991230CF0F5F1F4F13
:1044D0000830110509F020CF8FEF8C878D871E865D
:1044E0000E9487048160782F988B8F874C855D852B
:1044F0006E8588890E94D21D3ACF09BD19BD09B4C5
:1045000000FEFDCF8091D8008F7D8093D8008091F0
:10451000E00082608093E0008091E00081FDFCCFAC
:104520000E94E70CC4CF0F931F930E94580C88235E
:1045300021F01F910F910C947B040E947B04009149
:10454000F8011091F9012091FA013091FB01600FFF
:10455000711F821F931F1F910F910895CF92DF92B9
:10456000EF92FF926B017C010E94580C81110EC0EA
:104570000E947B04C61AD70AE80AF90AC092F80119
:10458000D092F901E092FA01F092FB01FF90EF90D6
:10459000DF90CF90089578941F921FB61F92112438
:1045A0008F939F93AF93BF938091F4019091F50106
:1045B000A091F601B091F7010196A11DB11D809364
:1045C000F4019093F501A093F601B093F701BF9128
:1045D000AF919F918F911F901FBE1F9018951F92B2
:1045E0001FB61F9211248F939F93AF93BF93809117
:1045F0000A02811113C08091F4019091F501A091FC
:10460000F601B091F7014196A11DB11D8093F4010F
:104610009093F501A093F601B093F701BF91AF918C
:104620009F918F911F901FBE1F90189561E070E0C1
:104630008FE091E00C94C82361E070E08FE091E09E
:104640000C94CF23CF93DF93D62FC72F0E946924DA
:104650000097E9F4ED2FFC2FDC01A55BBD4F2C91F9
:104660002193019684309105B9F70E9493226E5FE1
:104670007F4F8F4F9F4F6093470270934802809304
:10468000490290934A0281E0DF91CF91089580E042
:10469000FBCFCF93DF93D62FC72F60914702709146
:1046A00048028091490290914A020E94AE22ED2F69
:1046B000FC2F90E080E02191DC01A55BBD4F2C93A5
:1046C000019684309105B9F7DF91CF9108958EE17D
:1046D0004A9B02C08150E1F74A9BFECF08955A9849
:1046E00080E28A95F1F75A9A0895FC013BE03A95E9
:1046F000F1F798E020E080E031E040E14A95F1F701
:10470000880F4A9B02C08160232742E04A95F1F757
:10471000000040E14A95F1F7915079F790E19A95C0
:10472000F1F799B132E03A95F1F7000040E14A958E
:10473000F1F792FB992790F992272081920F9083AD
:104740000895EF92FF920F931F93CF93DF930F92F1
:10475000CDB7DEB719828C017C01E60EF11C0E1577
:104760001F0561F481E09981911180E00F90DF9144
:10477000CF911F910F91FF90EF9008950E946723B2
:10478000CE0101960E947523F80181938F01E7CF36
:104790009093500280934F02529A5A9A08959093A0
:1047A000500280934F0252985A9AEA9AE9E6F0E052
:1047B00080818F7C808308956150770B91E001C0E8
:1047C000990F6A95EAF720E031E0911108C02223A1
:1047D00091F05A9A80E28A95F1F75A980895492FF4
:1047E000482339F05A9A232740E24A95F1F79695E3
:1047F000ECCF5A98F9CF5A98EDCFFF920F931F93B1
:10480000CF93DF93EC018C01060F111DC017D10768
:1048100031F4DF91CF911F910F91FF900895F9909E
:104820000E946F2368E08F2D0E94DC23EFCF1F9240
:104830000F920FB60F9211242F933F934F935F93D4
:104840006F937F938F939F93AF93BF93CF93DF9398
:10485000EF93FF935A98529AC0914F02D091500211
:104860006D81662321F08E819F810E94FD230E942D
:104870006F2380E18A95F1F75A9852985A9A80E10D
:104880008A95F1F76A81662309F18B819C810E94E8
:10489000A123E881F981882311F088E001C082E03A
:1048A00080830E946723FF91EF91DF91CF91BF91A9
:1048B000AF919F918F917F916F915F914F913F91B8
:1048C0002F910F900FBE0F901F901895E881F981DE
:1048D000E4CFCF93DF93C0914F02D0915002F89470
:1048E000529A5A9885E08A95F1F7000052985A9AA0
:1048F00080E28A95F1F74A9B0CC0529A5A9AE88155
:10490000F98181E08083789481E090E0DF91CF911C
:1049100008956D81662381F08E819F810E94A1237D
:1049200081110AC0529A5A9AE881F98182E0808303
:10493000789482E090E0EACF0E94672380E28A9533
:10494000F1F75A98529A80E18A95F1F76A816623C5
:1049500021F08B819C810E94FD230E946F23E881BE
:10496000F9811082789490E080E0D0CFEE0FFF1FA5
:104970000590F491E02D09942F923F924F925F920F
:104980006F927F928F929F92AF92BF92CF92DF925F
:10499000EF92FF920F931F93CF93DF93CDB7DEB7C4
:1049A000CA1BDB0B0FB6F894DEBF0FBECDBF099458
:1049B0002A88398848885F846E847D848C849B84AF
:1049C000AA84B984C884DF80EE80FD800C811B81BD
:1049D000AA81B981CE0FD11D0FB6F894DEBF0FBEEC
:1049E000CDBFED010895F999FECF92BD81BDF89A32
:1049F000992780B50895A8E1B0E042E050E00C941A
:104A00002725262FF999FECF92BD81BDF89A0197EF
:104A100000B4021639F01FBA20BD0FB6F894FA9A06
:104A2000F99A0FBE08950396272F0E9402250E942F
:104A30000125252F0E940225242F0C940225019682
:104A4000272F0E9402250C940125DC01CB01FC01DB
:104A5000F999FECF06C0F2BDE1BDF89A319600B4D7
:104A60000D9241505040B8F70895AEE0B0E0EBE34E
:104A7000F5E20C94CA240D891E898F89988D26E051
:104A80002C831A83098397FF02C080E090E8019786
:104A90009E838D83AE01455E5F4F698D7A8DCE0119
:104AA00001960E9465254D815E8157FD0AC02F81C8
:104AB0003885421753070CF49A01020F131FF801AF
:104AC00010822E96E4E00C94E624AFE0B0E0EBE632
:104AD000F5E20C94BC247C013B018A01DC011796B1
:104AE0001C921E92169713968C9181FFBEC19AE07C
:104AF000292EFE0131964F01D70113969C91F301A7
:104B000093FD859193FF81913F01882309F444C16E
:104B1000853239F493FD859193FF81913F01853270
:104B200029F4B70190E00E944E27E6CFB12C412C2A
:104B3000512CBFE1B51538F08B3209F188F4803281
:104B400001F1833221F157FC3AC020ED280F2A30C1
:104B500040F556FE1FC0B29C200D1124B22E06C097
:104B60008D3291F0803379F7689450F8F30193FD1A
:104B7000859193FF81913F018111DBCF20C0689423
:104B800051F8689452F8F2CF689453F8EFCF6894D4
:104B900054F8ECCF429C200D1124422E689455F815
:104BA000E5CF8E3229F456FCF7C0689456F8DECF74
:104BB0008C3619F4689457F8D9CF8836B9F2982F03
:104BC0009F7D95549330C0F08336A1F18337C1F1B6
:104BD000833509F05BC0D801CD90DD908D016B2D40
:104BE00070E056FC02C06FEF7FEFC6010E943827CD
:104BF0005C01689457F80AC00C5F1F4FEFE3E9832C
:104C0000AA24A394B12C6401E89457F853FC04C07F
:104C10004A141B0409F018F5342CA114B10431F521
:104C2000332009F469CFB70180E290E00E944E275B
:104C30003A94F6CFD8018C9189830E5F1F4FE0CF55
:104C4000F801C190D1908F016B2D70E056FC02C02D
:104C50006FEF7FEFC6010E9443275C01D5CFB701FC
:104C600080E290E00E944E274A94D2CFF60157FC92
:104C7000859157FE81916F01B70190E00E944E2708
:104C800031103A94B1E0AB1AB108C7CF843619F0AD
:104C9000893609F071C0F80157FE67C061917191C2
:104CA000819191918F01E52DEF76DE2E97FF09C05E
:104CB00090958095709561957F4F8F4F9F4F689429
:104CC000D7F82AE030E0A4010E947E27C82EC81839
:104CD000AC2C5D2CD6FE0CC0E89450F8CB1440F4FC
:104CE000D4FE05C0D2FC03C05D2D5E7E552EAB2CDC
:104CF00054FE93C0FE01EC0DF11D8081803309F05C
:104D000085C0652D697E562E752D7870372E53FC23
:104D100093C050FE8DC0BC2CA41410F4B40CBA186F
:104D200054FE90C0B70180E390E00E944E2752FEEF
:104D300007C088E751FC88E590E0B7010E944E2744
:104D4000CB1408F48BC0CA94D12C8FEFC81AD80AA0
:104D5000C80CD91CD6018E916D01B70190E00E945C
:104D60004E278C149D04B1F75BCF61917191072E92
:104D7000000C880B990B96CFD52CE894D4F82AE038
:104D8000853729F1F52DF97FDF2E8037A1F058F412
:104D90008835A1F08F36D1F0F701868197812F9663
:104DA000E2E10C94D8248837B9F7D4FE02C06894A5
:104DB000D2F820E10CC06894D4F8F7CF54FE03C0B9
:104DC0002F2F2660D22E20E132E002C028E030E012
:104DD000F801D7FE15C041915191619171914C87B5
:104DE0005D876E877F878F01A4016C857D858E85A9
:104DF0009F850E947E27C82EC818E894D7F868CFF0
:104E000081919191AC0170E060E0E9CF52FC02C069
:104E1000A3947ACFA394A39477CF852D867809F4B1
:104E200073CFF6CFB70180E290E00E944E27A394A3
:104E3000A414C0F3312C74CF342C3A18A41408F401
:104E40006FCFF8CF852D867809F47ACF8BE251FEAB
:104E500080E257FC8DE2B70190E070CFB70180E3AC
:104E600090E00E944E27BA946BCF8FEF9FEF97CFC1
:104E7000FC010590615070400110D8F78095909525
:104E80008E0F9F1F0895FC0161507040019001102A
:104E9000D8F7809590958E0F9F1F08950F931F93BD
:104EA000CF93DF93182F092FEB018B8181FD09C070
:104EB0001FEF0FEF812F902FDF91CF911F910F9157
:104EC000089582FF14C02E813F818C819D81281717
:104ED00039073CF4E881F981CF01019699838883F1
:104EE00010838E819F8101969F838E83E3CFE88517
:104EF000F985812F0995892BA1F3DACFFA01AA2729
:104F0000283051F1203181F1E8946F936E7F6E5F0C
:104F10007F4F8F4F9F4FAF4FB1E03ED0B4E03CD0BA
:104F2000670F781F891F9A1FA11D680F791F8A1F9D
:104F3000911DA11D6A0F711D811D911DA11D20D004
:104F400009F468943F912AE0269F11243019305DBE
:104F50003193DEF6CF010895462F4770405D4193AF
:104F6000B3E00FD0C9F7F6CF462F4F70405D4A33FC
:104F700018F0495D31FD4052419302D0A9F7EACFC4
:104F8000B4E0A6959795879577956795BA95C9F7F3
:104F900000976105710508959B01AC010A2E0694E6
:104FA0005795479537952795BA95C9F7620F731F9F
:104FB000841F951FA01D0895F894FFCFF80AF80AE2
:104FC000010B010B030B010B010B010BF80AF80A93
:104FD000080B010B010B080BCE0DF60D8C0FF60D17
:104FE0008C0F290E4A0E8C0F470F540F17102E1BD3
:104FF0002E1B2E1B2E1B2E1B2E1B2E1B2E1B2E1B69
:105000002E1B2E1B2E1B2E1B2E1B2E1B2E1B2E1B58
:105010002E1B2E1B2E1B2E1B2E1B2E1B2E1B2E1B48
:105020002E1B2E1B2E1B2E1B2E1B2E1B2E1B2E1B38
:105030002E1B2E1B2E1B2E1B2E1B2E1B2E1B2E1B28
:105040002E1B2E1B2E1B2E1B2E1B2E1B2E1B2E1B18
:105050002E1B2E1B2E1B2E1B2E1B2E1B2E1B2E1B08
:105060002E1B2E1B2E1B2E1B2E1B2E1B2E1B2E1BF8
:105070002E1B2E1B2E1B2E1B2E1B2E1B2E1B2E1BE8
:105080002E1B2E1B2E1B2E1B2E1B2E1B2E1B2E1BD8
:105090002E1B2E1B2E1B2E1B2E1B2E1B2E1B2E1BC8
:1050A0002E1B2E1B2E1B2E1B2E1B2E1B2E1B2E1BB8
:1050B0002E1B2E1B2E1BF7152A16061610162E1B3E
:1050C0002E1B321620162E1B2A162E1B0D102510F5
:1050D000351043104E105910651071107D10891055
:1050E0009510A110AD10B910C510D110E010EF103F
:1050F000FB100A1119112511341143114F115E11C2
:10510000C6116A11761185119211A011AC11D3113B
:10511000E311F21100120E121C122A123912481257
:10512000561264127312901281129F12AE12BC12A8
:10513000CA12D812E712F6120513141332135013C1
:105140006E138C13AA13C813E6130414221440140C
:105150005E147C149A14B81426150615D614EE1491
:105160004615521561156D157C158B159715A615ED
:10517000B515C415D015DC15E815E518E5185E1948
:105180005E19B419CE191A191A19D919AF1ABE1AFB
:02519000BE1A45
:10519200AF0001016904AA0B890B850B810B014643
:1051A20002044702044B020A25640A0001000100BE
:1051B200010001000600010002000400818283E276
:1051C20000E900EA00B500B600B700CD008301CCCB
:1051D200008A01920194012102230224022502265F
:1051E2000227022A02B300B4006F0070009466978F
:1051F200C600000000F4F5F6F731332800680178A4
:0C5202000014001000200010001000003C
:00000001FF
