:100000000C9477040C94BE040C94BE040C94481217
:100010000C94BE040C94BE040C94BE040C94BE0458
:100020000C94BE040C94BE040C940A240C94DE249C
:100030000C94691F0C94BE040C94BE040C94BE0472
:100040000C94BE040C94BE040C94BE040C94BE0428
:100050000C94BE040C94C01F0C94BE040C94BE04FB
:100060000C94BE040C94BE040C94BE040C94BE0408
:100070000C94BE040C94BE040C94BE040C94BE04F8
:100080000C94BE040C94BE040C94BE040C94BE04E8
:100090000C94BE040C94BE040C94BE040C94BE04D8
:1000A0000C94BE040C94BE040C94BE048081828324
:1000B0008485868788898A8B8C8D8E8F9091929388
:1000C00094A0A1A2A3A4A5A6A7A8A9AAABACADAED3
:1000D000AFB0B1B2B3B4C0C1C2C3C4C5C6C7C8C94A
:1000E000CACBCCCDCECFD0D1D2D3D40041646A75A7
:1000F0007374005261697365004C6F7765720044D8
:10010000656661756C74004C617965723A20002BEC
:100110000014001A00080015001700E00004001683
:1001200000070009000A00E1001D001B000600197D
:10013000000500000000000000E30001512C002A2F
:1001400000130012000C0018001C00340033000FD4
:10015000000E000D000B002900380037003600109B
:10016000001100000000000000E600025128002BF2
:10017000001E001F00200021002200E000000000FF
:1001800000000000000000E100000000000000008E
:10019000000000000000000000E30001002C002A25
:1001A0000027002600250024002300000000004F47
:1001B000005200510050000000000000000000004C
:1001C000000000000000000000E600035128002BA2
:1001D000001E021F02200221022202E00000000095
:1001E00000000000000000E100000000000000002E
:1001F000000000000000000000E30003512C002A72
:100200000027022602250224022302350031003095
:10021000002F002E002D003502310230022F022E59
:10022000022D02000000000000E60001002800008E
:100230005C00000000000000000000C35CC65CC859
:100240005CCA5C00000000C45CC75CC95CCB5C009D
:10025000000000000000000000E30001002C00008E
:10026000000000000000000000000000000000008E
:10027000000000000000000000000000000000007E
:10028000000000000000000000E60001002800005F
:10029000AE00AF00DA0281FFD9F1DB20A4A62EAFB9
:1002A00000A0C000A1C800AED580A81FD300408D1B
:1002B0001420000000000000003E5B4F5B3E003E4B
:1002C0006B4F6B3E001C3E7C3E1C00183C7E3C1875
:1002D000001C577D571C001C5E7F5E1C0000183CF4
:1002E000180000FFE7C3E7FF00001824180000FF14
:1002F000E7DBE7FF0030483A060E00262979292679
:1003000000407F05050700407F05253F005A3CE778
:100310003C5A007F3E1C1C0800081C1C3E7F001439
:10032000227F2214005F5F005F5F0006097F017F6C
:1003300000006689956A0060606060600094A2FFBA
:10034000A2940008047E04080010207E20100008FB
:10035000082A1C0800081C2A0808001E101010108B
:10036000000C1E0C1E0C0030383E383000060E3ECD
:100370000E060000000000000000005F000000000A
:100380000700070000147F147F1400242A7F2A121C
:100390000023130864620036495620500000080705
:1003A000030000001C224100000041221C00002A22
:1003B0001C7F1C2A0008083E0808000080703000DE
:1003C000000808080808000000606000002010080D
:1003D0000402003E5149453E0000427F4000007249
:1003E00049494946002141494D33001814127F10F4
:1003F000002745454539003C4A4949310041211112
:10040000090700364949493600464949291E000076
:1004100000140000000040340000000008142241D5
:10042000001414141414000041221408000201598D
:100430000906003E415D594E007C1211127C007F7E
:1004400049494936003E41414122007F4141413EF8
:10045000007F49494941007F09090901003E4141A6
:100460005173007F0808087F0000417F4100002091
:1004700040413F01007F08142241007F404040403E
:10048000007F021C027F007F0408107F003E414174
:10049000413E007F09090906003E4151215E007F6F
:1004A000091929460026494949320003017F010301
:1004B000003F4040403F001F2040201F003F403889
:1004C000403F0063140814630003047804030061D0
:1004D00059494D4300007F4141410002040810206A
:1004E00000004141417F00040201020400404040FD
:1004F0004040000003070800002054547840007F6B
:100500002844443800384444442800384444287F70
:100510000038545454180000087E0902001824249E
:100520001C78007F080404780000447D400000200F
:1005300040403D00007F102844000000417F400003
:10054000007C04780478007C080404780038444473
:100550004438007C1824241800182424187C007CBB
:10056000080404080048545454240004043F44245C
:10057000003C4040207C001C2040201C003C4030BF
:10058000403C004428102844004C9090907C00444B
:1005900064544C440000083641000000007700001D
:1005A000000041360800000201020402003C26233C
:1005B000263C0000000000000000000000000000D9
:1005C000000000C0E0F0F8F81800C0F0FCFEFFFFEB
:1005D000FFFFFFFFFF7E0000000000000000008022
:1005E000C0E0E0E0E0E0E0E0E0C08000000000808B
:1005F000C0E0E0E0E0E0E0E0E0C080000000E0E03B
:10060000C0C0E0E0E0E00000E0E0C0C0E0E0E0E02A
:10061000E0C0800000000080C0E0E0E0E0E0E0E05A
:10062000E0C08000000000000000000000000000AA
:1006300000E0F0F0F0E0ECEEF7F37020007C7C7C62
:100640007E007E7E7E7F7F7F000080C0E07E5B4FED
:100650005BFEC00000C000DCD7DEDEDED7DC00C001
:10066000000000000000000000000000000000008A
:10067000000000000000000000000000F8FCFEFF89
:10068000E000FFFFFFFFFFFF80FFFFFFFFFFFFFF17
:10069000FFFF1F0701000000000000000000FFFF37
:1006A000FF8100000000000081C3C3C30000FFFF02
:1006B000FF8100000000000081FFFFFF0000FFFF3E
:1006C000FF01000000000000FFFFFF01000000002C
:1006D00001FFFFFF0000FFFFFF9D1C1C1C1C1C1CDA
:1006E0009DDFDFDF000000000000000000000000D0
:1006F000000F1F3F7F7F7F7F7F3F1E0C001F1F1F4C
:100700003F003F3F3F7F7F7F00307B7F783020205E
:1007100030787F3B0003000F7F0F0F0F7F0F000328
:1007200000000000000000000000000000000000C9
:10073000000000000000000000000000030F1F3F49
:100740003F3F3F1F1F3F3F7F7F7F3F3F1F3F7F7FD9
:100750007F7F7C7878381C0F0000000000000001CB
:100760000307070707070707070301000000000149
:10077000030707070707070707030100000007072C
:10078000070000000000000007070700000000004D
:10079000000707070000000103070707070707070F
:1007A000070301000000000000000000000000003E
:1007B0000000000000000000000000000000000039
:1007C0000000000000000000000000000000000029
:1007D0000000000000000000000000000000000019
:1007E0000000000000000000000000000000000009
:1007F0000000000C0343006F0072006E00650000F3
:1008000000100366006F006F007300740061006EDB
:100810000000000403090409023B00020100A0FAE1
:100820000904000001030101000921110100012256
:1008300040000705810308000A09040100010300C4
:10084000000009211101000122490007058203204F
:10085000000A1201100100000008534601000100C7
:100860000102000105010902A10185020901A1009F
:10087000050919012908150025019508750181024E
:100880000501093009311581257F9502750881061A
:1008900009381581257F950175088106050C0A38F0
:1008A000021581257F950175088106C0C0050109E3
:1008B00006A101050719E029E7150025019508752E
:1008C0000181029501750881010507190029FF15AD
:1008D0000026FF0095067508810005081901290505
:1008E000950575019102950175039101C0001124D0
:1008F0001FBECFEFDAE0DEBFCDBF04B603FE27C0D8
:100900008091BF049091C004A091C104B091C20431
:100910008730904BA740B04BD1F41092BF04109297
:10092000C0041092C1041092C20414BE84B7877F21
:1009300084BF0FB6F894A895809160008861809379
:100940006000109260000FBEE0E0F8E3099511E04E
:10095000A0E0B1E0EAE6F4E502C005900D92AC3902
:10096000B107D9F724E0ACE9B1E001C01D92AF3B7B
:10097000B207E1F70E9444210C94002A0C94000075
:10098000CF93DF93AEE3B1E042E451E0C1E0D0E0C9
:100990008D91E82FE295EF70F0E061A18F709E01DC
:1009A00001C0220F8A95EAF7922F9095962391A382
:1009B00082A1822B82A34A175B0751F7DF91CF9167
:1009C0000895089508950C94E204209A559A289A5F
:1009D0005D9A08955D9808955D9A08952898089500
:1009E000289A08950E94A7060E94C004A8E3B1E0D7
:1009F00061E070E08D91E82FE295EF70F0E041A1A9
:100A00008F709B0101C0220F8A95EAF7922F909573
:100A1000942391A382A1822B82A381E0AE33B807F5
:100A200049F70E94E504E6EAF1E0AEE9B1E011928F
:100A30001D9281E0EE3AF807D1F70E948906809373
:100A4000AE010C94CD078F929F92AF92BF92CF923E
:100A5000DF92EF92FF920F931F93CF93DF938091DA
:100A60000101C4E0D0E0882311F0D0E0C0E08EE3C3
:100A7000C82E81E0D82EAE0142565E4F7A018A011F
:100A8000912CAA24A394B12C25E0822EF601819109
:100A90006F01E82FE295EF70F0E021A18F70A501C2
:100AA00002C0440F551F8A95E2F7CA01922F982B76
:100AB00091A392A18095892382A350EA5A95F1F7D8
:100AC000E8E3F1E020E050E040E03191A32FA2956F
:100AD000AF70B0E090968C9190E03F7002C0959519
:100AE00087953A95E2F780FD3CC0C501042E01C010
:100AF000880F0A94EAF7282B4F5F5F4F4630510565
:100B000021F7F8018081821729F02083809200016B
:100B1000992493940E94C0040F5F1F4FF2E4CF16F4
:100B2000F1E0DF0609F0B2CF80910001882359F08F
:100B30008150809300018823B1F08FE99FE00197F5
:100B4000F1F700C00000892DDF91CF911F910F9127
:100B5000FF90EF90DF90CF90BF90AF909F908F90DD
:100B6000089580E0C8CFCA55DE4F84E0F701919127
:100B70007F0199938150D1F7E6CF0F931F93CF93C5
:100B8000DF932091010110E000E0222311F004E046
:100B900010E00E94C206EC01009739F0029711F4B0
:100BA0000E94EE04C1E0D0E011C00E94F004F80100
:100BB000EA55FE4F8091BA019091BB01A091BC0112
:100BC000B091BD0180839183A283B383CE01DF9175
:100BD000CF911F910F9108950E94230590910101DB
:100BE000E4E0F0E0992311F0F0E0E0E0EA55FE4F98
:100BF00030E020E040E0D901A654BE4F5C919191D5
:100C0000591341E09C932F5F3F4F2430310599F7F2
:100C10009091B301940F9093B30108951F93CF93D4
:100C2000DF938091AE01882309F44BC00E94230515
:100C3000182F80910101C4E0D0E0882311F0D0E0AA
:100C4000C0E0CA55DE4F44E050E0BE0186EB91E0C3
:100C50000E94D326488159816A817B814093B601E5
:100C60005093B7016093B8017093B9010E94BD051C
:100C7000892B11F10E94EA048091AF018F5F80936C
:100C8000AF01863070F080910101F0E0E0E0882350
:100C900011F0E4E0F0E0EA55FE4F1082118212827A
:100CA00013820E94D507C1E0111101C0C0E08C2F52
:100CB000DF91CF911F9108950E94EC041092AF0133
:100CC000F0CF0E94EC05C1E0811101C0C0E080912D
:100CD0000101811114C090E080E08A559E4F40913F
:100CE000B6015091B7016091B8017091B901FC0152
:100CF00040835183628373830E94D507D8CF84E0F9
:100D000090E0EBCFE82FF0E0EA55FE4F80810895A8
:100D100008958091B001811111C08091D800806147
:100D20008093D8008AE18A95F1F700C09091D900AC
:100D3000892F817090FF82E08093B00181E09091D3
:100D4000B001913009F080E008950C9489060E946A
:100D5000A506809301010E948906882321F00E9444
:100D6000B606789408950E94BC06FBCF63E070E05D
:100D700082E091E00C94F51163E070E082E091E094
:100D80000C94FE110F931F93CF93DF938C019091DE
:100D90001B0180911A01D0E0C0E0981759F082E061
:100DA00090E00E94D712EC01892B21F480911A0166
:100DB00080931B018091B1019091B201082B192BF6
:100DC00090E080E0012B11F081E090E00E94D712CA
:100DD000892B71F48091B30180931A011092B201B2
:100DE0001092B101CE01DF91CF911F910F91089523
:100DF00081E090E09093B2018093B101F3CF0C9425
:100E0000E1049091AE01911101C082E0089560E08B
:100E100087E091E00E940D0E8091850290918602FC
:100E2000A0918702B09188028F309105A105B1058C
:100E3000B0F4FC01EE5FF54D0C94C42660E08FEF3A
:100E400090E00C941F0E60E089EF90E0FACF60E034
:100E500083EF90E0F6CF60E08CEE90E0F2CF089563
:100E60009C013056211540E2340720F0305E2115F8
:100E7000304108F4992720E28C33910520F4FC01DD
:100E8000E95AFE4F20811F922F939F938F93FB016E
:100E900080811F928F9381811F928F9386E491E0CE
:100EA0009F938F931F9288E18F938EEB91E09F9396
:100EB0008F930E94E0268DB79EB70E960FB6F894DA
:100EC0009EBF0FBE8DBF089560E08EEB91E00C9445
:100ED000F10D60E08CEA90E00C940D0E8091AE0173
:100EE000882321F00E9407070C9464070C9469077B
:100EF000FB01228121110E94300781E0089581E0E9
:100F000008950C94780708950C9483071F93CF934A
:100F1000DF9300D000D00F92CDB7DEB749835A835C
:100F20006B8330912E0289819A8131111DC0662315
:100F3000B9F02223A9F00E94E01C182F682F8981A4
:100F40009A810E94891C69817A81812F0F900F906C
:100F50000F900F900F90DF91CF911F910C9432085A
:100F60000E94B71C182FEFCF0E94E01C69817A8184
:100F7000EDCFFC01262F40815181628173818481F4
:100F80000C948607CF93DF93EC0160E00E94B907D1
:100F9000BE01DF91CF910C9484070E94191E81112C
:100FA00002C00E94BD1E0C94FF060C94E304089539
:100FB0000E947D180E94D7072FEF84E39CE0215008
:100FC00080409040E1F700C000000C94E41F0F93B4
:100FD0001F93CF93DF93EC0161E00E94B9078C016E
:100FE000BE010E948107882329F1BE01C8010E9429
:100FF000F30F8823F9F0BE01C8010E944510882331
:10100000C9F0BE01C8010E946811882399F08A8145
:10101000882339F001158CE5180751F00F3D1C4568
:1010200079F0CE01DF91CF911F910F910C947F0742
:101030000E94D80780E0DF91CF911F910F91089512
:101040000E94BD1EF7CF08950C94230881E00895F7
:101050000C942608CF93C82F0E9424088C2FCF9180
:101060000C942808972F70E026E0929F600D711D68
:101070001124FB0190E3899FE00DF11D1124EE0F77
:10108000FF1FE15FFE4F859194910895CF93DF9309
:101090000E9432080E941E09EC01811522E5920788
:1010A00078F5811531E5930708F098C08F3F9105D9
:1010B00009F0B8F48D3E910508F06FC0853A9105AE
:1010C00040F48430910548F4019739F0D0E0C0E055
:1010D00004C0805E91090897C8F7CE01DF91CF91D7
:1010E0000895811540E5940708F05CC0C11580E4BF
:1010F000D80708F054C0C11590E2D90770F3E6CFC5
:10110000811526E5920718F5811535E5930708F056
:101110007DC0811544E5940708F073C0982F96951B
:1011200096959E0123703327C115D34508F45BC003
:10113000C1E0D0E002C0CC0FDD1F2A95E2F730E21B
:10114000939FC0011124C82BD92BDA68C6CFC115D3
:101150009AE5D90778F4C11529E5D20708F060C0EF
:10116000C11538E5D30708F4B1CFDC2FCC27C06F09
:10117000D06AB3CFCE0190568115904208F0A6CF29
:101180008D2F8F710E94B50990E0982F88278827AE
:101190009F719C012C2BE90141C0D0659ECFDF706F
:1011A000D06A9BCFE4E096958795EA95E1F7837046
:1011B0002C2F26952695237090E2299F90011124CB
:1011C000382B8C2F8370C1E0D0E002C0CC0FDD1F24
:1011D0008A95E2F7C22BD32BDC687FCFD82FCC27A0
:1011E000C16FD06A7ACFC1E0D0E002C0CC0FDD1F62
:1011F0002A95E2F720E2929FC0011124C82BD92B37
:10120000EBCFD82FCC27C46FD06A67CF0E94B50927
:10121000C82FD0E0DC2FCC27CC27DF71D0625DCF88
:101220008C2F8F700E94B50934E0D695C7953A95FA
:10123000E1F7CF709C2FEC01D0694FCF8238910538
:10124000B1F1B0F48133910509F475C048F48932E5
:10125000910509F469C08A32910509F473C00895B3
:101260008533910509F459C08933910501F1089539
:10127000833E9105A9F138F4803E9105F9F0823E54
:10128000910549F10895863E9105A9F1873E9105A2
:10129000C9F1843E910519F52091B10421FF1FC0C9
:1012A0008091B00484FD14C087EE90E008952091F1
:1012B000B0042370A1F080EE90E008952091B00476
:1012C00020FD47C03091B10430FF09C024FF44C065
:1012D00090E080E004C02091B00422FDF7CF089593
:1012E0002091B00422FD3BC03091B10430FDE3CF2A
:1012F00024FFF5CFEDCF2091B00423FFF0CF24FDE4
:10130000E7CFD2CF2091B00423FD2CC03091B1049F
:1013100031FFEECF84EE90E008952091B00425FFD8
:10132000DECF89E290E008952091B00425FFD7CF69
:1013300085E390E008952091B00426FFD0CF8AE2A3
:1013400090E008952091B00426FFC9CF81E390E09A
:10135000089589E390E0089583EE90E0089582EE89
:1013600090E0089586EE90E008959091B00492FF89
:1013700006C0282F28712830F9F4877F846093FFF6
:1013800006C0282F28712831F1F4877E84612091CE
:10139000B10420FF06C0382F38713830D9F4877F68
:1013A000816021FF06C0282F28712831D1F4877E63
:1013B000816194FD877E0895282F24712430F9F6E9
:1013C0008B7F8860DCCF282F2471243101F78B7E3E
:1013D0008861DDCF382F3171313019F78E7F886009
:1013E000E0CF282F2171213121F78E7E8861E1CF56
:1013F0008091DC0180FF12C06091210185E0689F2F
:10140000B0011124759567957595679560387105DC
:10141000A8F561157105A1F1862F089581FF09C016
:101420006091210185E0689FB00111247595679551
:10143000EDCF6091210182FD0AC08091DB018823FC
:10144000D1F09091200160912101891728F085E069
:10145000689FB0011124DACF869FB001112485E086
:10146000869F9001879F300D1124692F70E0C9017C
:101470000E94B026CBCF65E070E0CECF8FE7089515
:1014800081E008958091DC0180FF0CC060911D0116
:1014900070E075956795759567956115710549F1CA
:1014A000862F089581FF06C060911D0170E075953B
:1014B0006795F3CF60911D0182FD0BC09091DA0119
:1014C0009923A1F060911C0180911D01961738F0BD
:1014D000682F70E06038710500F38FE70895899FE9
:1014E000C001112470E00E94B026F4CF61E070E0EA
:1014F000D7CF81E008958D3E31F40E94F80981959F
:101500008093E00108958E3E19F40E94F809F8CF07
:101510008F3E31F40E94F80981958093DF01089590
:10152000803F19F40E94F809F8CF893F29F40E94FE
:10153000420A8093E10108958A3F21F40E94420A01
:101540008195F7CF8B3F31F40E94420A81958093B9
:10155000E20108958C3F19F40E94420AF8CF9FE0FF
:10156000980F983070F4815F990B21E030E001C052
:10157000220F8A95EAF78091DE01822B8093DE01AB
:1015800008958D3F31F48091DC0181608093DC010E
:1015900008958E3F21F48091DC018260F7CF8F3F68
:1015A000B9F78091DC018460F1CF4091DF018D3E7D
:1015B00059F48091E00187FF0DC01092E0014111C4
:1015C0000BC01092DB0108C08E3E81F48091E001D7
:1015D00018169CF3442381F08091E1019091E2017F
:1015E000892B09F05AC01092DA0108958F3E49F410
:1015F00047FFF0CF1092DF018091E0018111ECCF25
:10160000E0CF803F19F41416ACF3E4CF9091E101E0
:10161000893F29F41916F4F61092E101DBCF8A3FD5
:1016200019F497FFD7CFF8CF9091E2018B3F29F4BF
:1016300097FFD0CF1092E201CDCF8C3F19F419164D
:10164000CCF3C8CF9FE0980F983090F4815F990B4E
:1016500021E030E0B90102C0660F771F8A95E2F7FA
:10166000CB0180959091DE0189238093DE01B2CF7A
:101670008D3F31F48091DC018E7F8093DC01AACF15
:101680008E3F21F48091DC018D7FF7CF8F3F09F0F1
:10169000A1CF8091DC018B7FF0CF08950E94991F2C
:1016A0009C019091DF018091E001982B21F0309313
:1016B000D9012093D8019091E1018091E201982B0A
:1016C00021F03093D7012093D6018DED91E00C9459
:1016D0005A14EF92FF920F931F93CF93DF9300D092
:1016E00000D000D0CDB7DEB786E0EDEDF1E0DE0151
:1016F000119601900D928A95E1F7E090DF01F0904C
:10170000E0010091E1011091E2011092DF011092DD
:10171000E0011092E1011092E2018E2D8F2991F0EB
:101720008091D8019091D9010E94B11FAC01909194
:10173000DB01992309F43FC080912201841715062B
:1017400008F447C0802F812B91F08091D6019091B1
:10175000D7010E94B11FAC019091DA01992309F4DD
:1017600077C080911E018417150608F47FC0809110
:10177000DF019091E001892B9091E101892B9091FB
:10178000E201892B11F00E944E0B86E0FE0131969A
:10179000ADEDB1E001900D928A95E1F726960FB676
:1017A000F894DEBF0FBECDBFDF91CF911F910F9197
:1017B000FF90EF900895209123018AE0289F9001E7
:1017C00011242417350708F0BDCF9F5F9093DB01EC
:1017D00002C09F3FD1F7EE2059F00E94F8099FEF19
:1017E0001E140CF491E0899F802D11248093DF0159
:1017F000FF2059F00E94F8099FEF1F140CF491E0AC
:10180000899F802D11248093E0013091DF013323E3
:1018100009F498CF2091E001222309F493CF45EBFE
:101820003403C0011124992359F09093DF0145EB53
:10183000240390011124332339F03093E00182CF47
:1018400081E08093DF01F3CF81E08093E0017ACFE4
:1018500020911F018AE0289F900111242417350749
:1018600008F085CF9F5F9093DA0102C09F3FD1F7C8
:10187000002359F00E94420A9FEF10160CF491E0E9
:10188000899F802D11248093E101112359F00E943A
:10189000420A9FEF11160CF491E0899F802D1124CC
:1018A0008093E2013091E101332309F460CF20916C
:1018B000E201222309F45BCF45EB3403C00111247C
:1018C000992359F09093E10145EB240390011124F1
:1018D000332339F03093E2014ACF81E08093E10174
:1018E000F3CF81E08093E20142CF86E0EDEDF1E0BD
:1018F000DF011D928A95E9F71092DB011092DA015F
:101900001092DC010895CF92DF92EF92FF920F9335
:101910001F93CF93DF936C017B0164E670E088E74F
:101920000E945B13EC0197FD12C010E000E0F6018D
:10193000E00FF11F849164E670E00E94B713EC01A0
:10194000892B29F40F5F1F4F0E151F0581F70E9489
:101950003A14CE01DF91CF911F910F91FF90EF903C
:10196000DF90CF900895E6EAF2E080E092E0DF01B8
:101970009C011D9221503040E1F7F093AB04E093BD
:10198000AA048FEF9FEF90930F0280930E020895A9
:101990000E94010780930A0280FD0FC080E88093B7
:1019A00009020E9455136DE070E086EA92E00E9401
:1019B000830C892B21F080E0089580E2F0CF8091A4
:1019C0000A0263E070E081FD26C083EA92E00E9493
:1019D000830C892B81F76DE070E083E992E00E942F
:1019E000830C892B41F70E94A51F605A75418F4FC8
:1019F0009F4F6093A6047093A7048093A8049093CC
:101A0000A9040E94B30C81E080930D0280930C0224
:101A100010920B02089580EA92E0D9CF209109023A
:101A200036E0839FC0011124629F800D911D112417
:101A3000811522E0920714F090E080E08A559D4FD6
:101A40009093AB048093AA0408952091AA04309146
:101A5000AB04205A324040910902642F70E0C90162
:101A60000E949C26481B463010F4240F311D21157E
:101A700082E0380710F030E020E02A553D4F3093E7
:101A8000AB042093AA0408951F93CF93DF93162FDE
:101A90008A3031F481E0DF91CF911F910C94BE0D1B
:101AA0008D3011F480E0F7CFC091AA04D091AB043F
:101AB00096E0FE01A3EEB1E001900D929A95E1F758
:101AC000803EC8F086E0FE0111928A95E9F7111177
:101AD0001EC0C091AA04D091AB0446E050E0BE0104
:101AE00083EE91E00E94D326892BF9F4DF91CF9108
:101AF0001F910C94250DF6E08F9FB00111246D54B9
:101B00007D4F46E050E0CE010E94CA26E0CFE09132
:101B1000AA04F091AB049F012A5F3F4F2E173F07A5
:101B2000C1F2808180958193F9CFC65AD240CE010F
:101B300025E0969587952A95E1F721E030E0A90107
:101B400002C0440F551F8A95E2F7CA0140910E0268
:101B500050910F02842B952B259645E0D695C7957D
:101B60004A95E1F702C0220F331FCA95E2F7822B94
:101B7000932B90930F0280930E02B8CFCF93382F00
:101B8000E091AA04F091AB04E65AF24020910902D8
:101B9000622F70E0CF010E949C26281B822F3323E6
:101BA00069F066E00E949026C82FC15010F4CF91D2
:101BB000089560E080E20E94440DF7CF9F01280F56
:101BC000311D2115324018F080E0F0E0E0E08E0F8A
:101BD0009F2F911D8A559D4F9093AB048093AA042B
:101BE000E6CFFF920F931F93CF93DF93EC01F62E76
:101BF000FC0101900020E9F78F0101501109C01785
:101C0000D10730F0DF91CF911F910F91FF90089590
:101C10006F2D89910E94440DF2CF1F93CF93DF93D4
:101C2000EC01162FFE018491811104C0DF91CF9148
:101C30001F910895612F0E94440D2196F3CF0E94B9
:101C40000D0E81E00C94BE0D80910D02811103C038
:101C500080910C0208950E94A51F605A75418F4F14
:101C60009F4F6093A6047093A7048093A804909359
:101C7000A90480910C028111EBCF62E070E081E950
:101C800092E00E94830C892B19F781E080930C026B
:101C9000DFCF2F923F925F926F927F928F929F92AF
:101CA000AF92BF92CF92DF92EF92FF920F931F936A
:101CB000CF93DF9380910D02882369F020910E026B
:101CC00030910F022115310531F080910B0261E056
:101CD00070E0882399F0DF91CF911F910F91FF90D1
:101CE000EF90DF90CF90BF90AF909F908F907F90BC
:101CF0006F905F903F902F9008958F5F082F10E0B6
:101D00001B01082E02C0220C331C0A94E2F7A90121
:101D100042215321452B89F390910A0290FD44C042
:101D20008295880F807680932601980136952795B5
:101D30003695279520932901815E80932701109283
:101D40002A0124E630E047E050E064E271E088E7F1
:101D50000E94E613892B09F0BECFA80125E0440FAD
:101D6000551F2A95E1F780910A0280FD2BC04A5544
:101D70005D4F04E610E020E230E060E488E70E9476
:101D80000D14892B09F0A7CF0E94240EE101C09504
:101D9000D09580910E0290910F02C823D923D09341
:101DA0000F02C0930E0297CF880F880F880F809381
:101DB000260110922901895F8093270183E0809397
:101DC0002A01BFCFE9EEF1E080E2DF011D928A95A2
:101DD000E9F7A7E9B1E003E911E08BE9C82E81E05A
:101DE000D82E97E0592E772473948D91E80129918C
:101DF0008E01240F352F311D2A553D4FE82FF0E07D
:101E0000E751FE4F90E080E0652C681A872C082E81
:101E100001C0880C0A94EAF77901A12CE701B99076
:101E20007E01B820662D6A196770962E062E000C6A
:101E3000770BDB2D01C0DD0F9A94EAF77195619560
:101E400071096770772701C0B6946A95EAF7BD2AD1
:101E50006081962E9B289082A39468E0A612DECF24
:101E6000019631968830910579F6CA16DB0609F09D
:101E7000BCCF04E610E020E230E049EE51E07DCF37
:101E800080910C0290910D02911103C091E089277D
:101E90000895882369F062E070E08FE892E00E9484
:101EA000830C892B19F080910C02089510920C027A
:101EB00080910C02EBCF0F931F9380910D0288232A
:101EC00019F160E080E00E940E0D0E946E070E94F2
:101ED000490E80910C028823B9F00E94A51F009141
:101EE000A6041091A7042091A8043091A904601BB6
:101EF000710B820B930B6F3F7F4F8F4F9F4720F4E7
:101F00001F910F910C94400F1F910F9108950F9303
:101F10001F93CF93DF93C42FD22FFC01828188239C
:101F2000C9F0409312020E94991F9093110280936E
:101F3000100280E28C0F883008F050C0C77081E03A
:101F400001C0880FCA95EAF7DF91CF911F910F91D9
:101F50000C94351610911202141335C080911002A2
:101F6000909111020E94B11F8436910560F5C0E284
:101F7000CD0F1D17B9F080E2810F883040F4177043
:101F800081E001C0880F1A95EAF70E943C16C8301C
:101F900048F481E09D2F977001C0880F9A95EAF769
:101FA0000E943516802F0E942D16C830B8F4D770C5
:101FB00081E001C0880FDA95EAF7DF91CF911F9198
:101FC0000F910C943C1680E28C0F883038F4C77067
:101FD00081E001C0880FCA95EAF7EFCFDF91CF917A
:101FE0001F910F9108950F939C01CB01243F4CE565
:101FF000340759F1A8F4293DFCE53F0701F12A3DDA
:102000004CE53407D1F1283D3C4591F406E221EE40
:1020100041EE68ED7CE50E94870F80E00F91089506
:10202000263FFCE53F07E9F0B0F0273F3C45F9F0DB
:10203000FC018281882339F110921202EFCF07E26E
:1020400025EE45EE69ED7CE5E6CF06E221EE40EEB9
:1020500064EF7CE5E0CF07E225EE44EE65EF7CE53A
:10206000DACF06E221EE42EE66EF7CE5D4CF07E25E
:1020700025EE46EE67EF7CE5CECF08E221E045EEA7
:102080006AED7CE5C8CF81E0C9CFCF93DF93EC0147
:10209000FB018281882309F419C1C230FCE5DF0706
:1020A000C0F1C6319CE5D90730F09E012B5F3C455D
:1020B0002930310570F50E942C1E9093B104809355
:1020C000B004C031ECE5DE0709F4CFC008F05BC016
:1020D000C8308CE5D80709F4B6C088F5C430ECE503
:1020E000DE0709F4A8C0C0F4C2308CE5D80709F4B3
:1020F0009CC08091B0048260C330DC4509F498C074
:102100008091B0049091B1040E943A1E0E947D1803
:1021100080E0DF91CF9108958091B0048061C63056
:10212000ECE5DE0709F484C08091B0048860C73014
:10213000DC4508F47DC08091B004806279C0CC3069
:102140008CE5D80709F489C070F48091B0048C60E4
:10215000CA30ECE5DE0709F46BC008F478C0809162
:10216000B0048E7F65C0CE308CE5D80709F479C005
:102170008091B0048B7FCF30DC4508F459C080914A
:10218000B0048F7E55C0CC3FECE5DE0709F457C0A4
:1021900030F5C3318CE5D80709F46FC078F4C1314C
:1021A000ECE5DE0709F465C0C231DC4509F0A8CFD3
:1021B0000E947D188091B0048F773AC0C5318CE5BC
:1021C000D80709F462C008F476C08091B104816038
:1021D000CB3FDC4509F094CF8093B10491CFC1157A
:1021E000FDE5DF0709F44DC088F48091B1048D7FCF
:1021F000CE3F9CE5D90781F38091B1048E7FCF3F1C
:10220000DC4550F38091B1048360E6CFC230FDE538
:10221000DF0709F459C008F444C080E0C330DD454D
:1022200009F06ECF0E94BF1E6BCF8091B004816019
:102230008093B00465CF8091B0048460F9CF809121
:10224000B1048260C9CF8091B0048064F1CF0E9454
:102250007D188091B0048068EBCF8091B0048D7FB1
:10226000E7CF8091B004877FE3CF8091B0048F7D6A
:10227000DFCF8091B0048F7BDBCF8091B004837F70
:10228000D7CF8091B1048C7FA7CF8091B00482FB1F
:10229000992790F921E0922790FB82F990FB83F92E
:1022A000C7CF8091B104982F909591708E7F892B24
:1022B00090FB81F991CF0E947D189091B004892FF5
:1022C00097FB87F98058B4CF81E0ACCF81E021CF74
:1022D000CF93DF93EB0186319C4511F50E94751D6C
:1022E0009A81992399F08A7A91E009F490E0909389
:1022F0001302811109C089E20E94501D0E94B41D81
:1023000080E0DF91CF91089585E3F6CF80911302AD
:10231000811104C089E20E94571DF0CF85E3FBCFF5
:1023200081E0EFCF8EE14A9B02C08150E1F74A9BEA
:10233000FECF08955A9880E28A95F1F75A9A089547
:10234000FC013BE03A95F1F720E090E080E031E0DD
:1023500040E14A95F1F7880F4A9B02C0816023272C
:1023600042E04A95F1F7000040E14A95F1F79F5F9E
:102370006913EECF90E19A95F1F799B132E03A9571
:10238000F1F7000040E14A95F1F792FB992790F9A7
:1023900092272081920F90830895EF92FF920F93DE
:1023A0001F93CF93DF930F92CDB7DEB719828C01C5
:1023B0007C01E60EF11C0E151F0561F481E0998188
:1023C000911180E00F90DF91CF911F910F91FF90BD
:1023D000EF9008950E94921168E0CE0101960E944C
:1023E000A011F80181938F01E6CF9093160280939C
:1023F000150260931402529A5A9A08959093160205
:10240000809315026093140252985A9AEA9AE9E668
:10241000F0E080818F7C808308956150770B91E09C
:1024200001C0990F6A95EAF720E031E0911108C0E8
:10243000222391F05A9A80E28A95F1F75A980895EA
:10244000492F482339F05A9A232740E24A95F1F759
:102450009695ECCF5A98F9CF5A98EDCFFF920F93FB
:102460001F93CF93DF93EC018C01060F111DC01752
:10247000D10731F4DF91CF911F910F91FF90089513
:10248000F9900E949A1168E08F2D0E940D12EFCFF3
:102490001F920F920FB60F9211240F931F932F9339
:1024A0003F934F935F936F937F938F939F93AF93DC
:1024B000BF93EF93FF93CF93DF930F92CDB7DEB728
:1024C00019820E94921167E0CE0101960E94A0112C
:1024D000082F069506950695982F92959570202FB2
:1024E0002570920F292F2370969596958770920FDD
:1024F000891344C08981811141C0809114028017E1
:10250000E8F120E12A95F1F75A9A529A82E08A95E9
:10251000F1F700C0A8E00A9FC00111240091150244
:1025200010911602080F191F5A98F8016581662349
:1025300021F0868197810E942E120E949A11F0E16B
:10254000FA95F1F75A9852985A9A20E12A95F1F79C
:10255000D80112966C911297662331F113968D91E2
:102560009C910E94CD11D801ED91FC91882311F02E
:1025700088E001C082E080830E9492110F90DF9179
:10258000CF91FF91EF91BF91AF919F918F917F91EB
:102590006F915F914F913F912F911F910F910F90EC
:1025A0000FBE0F901F901895ED91FC91E1CF0F9306
:1025B0001F93CF93DF9320911402281719060CF470
:1025C00071C08C0193E0000F111F9A95E1F7C09143
:1025D0001502D0911602C00FD11FF894529A5A9842
:1025E00025E02A95F1F70000982F96959570857053
:1025F000980F892F837096959695980F092B0E94B6
:102600009A1100C067E0802F0E940D1280E18A9528
:10261000F1F752985A9A4A9B17C087E090E04A997E
:1026200015C06D81662321F18E819F810E94CD119D
:1026300081111EC0529A5A9AE881F98182E0808302
:10264000789482E090E00DC000C0E5CF019771F46E
:10265000529A5A9AE881F98181E08083789481E0E6
:1026600090E0DF91CF911F910F91089500C0D7CFD7
:102670000E94921120E22A95F1F75A98529A80E12D
:102680008A95F1F76A81662321F08B819C810E94F3
:102690002E120E949A11E881F9811082789490E0BC
:1026A00080E0DFCF84E090E0DCCF1092B9008CE0D6
:1026B0008093B8000895EF92FF920F931F93CF93EA
:1026C000DF93182FEB011092BC0084EA8093BC00CA
:1026D0000E94991F7C018091BC0087FF27C08091D8
:1026E000B900887F883029F08091B900887F8031D7
:1026F000D9F51093BB0084E88093BC000E94991F19
:102700008C018091BC0087FF24C02091B900287FF4
:1027100090E080E02831B1F081E090E0203411F4C5
:1027200090E080E09195819591090CC0CF3FDC0746
:1027300091F20E94991F8E199F098C179D0758F2DC
:102740008EEF9FEFDF91CF911F910F91FF90EF9050
:102750000895CF3FDC07A9F20E94991F801B910BBF
:102760008C179D0770F2ECCF8FEF9FEFEBCF0F939D
:102770001F93CF93DF93EB018093BB0084E880939A
:10278000BC000E94991F8C018091BC0087FF11C082
:102790002091B900287F81E090E0283211F490E088
:1027A00080E0919581959109DF91CF911F910F91D3
:1027B0000895CF3FDC0741F30E94991F801B910BC6
:1027C0008C179D0708F38EEF9FEFEECFCF92DF922D
:1027D000EF92FF920F931F93CF93DF936B018A01C8
:1027E0007901B9010E945B13E6010C0D1D1DC01794
:1027F000D10761F424E92093BC00DF91CF911F91B0
:102800000F91FF90EF90DF90CF90089597FDF2CF5A
:10281000B70189910E94B713EACFCF92DF92EF926E
:10282000FF920F931F93CF93DF93C62F6A01790115
:10283000B8010E945B1397FD0CC0B8018C2F0E9459
:10284000B713E601EC0CFD1CCE15DF0511F097FF68
:102850000CC024E92093BC00DF91CF911F910F9110
:10286000FF90EF90DF90CF900895B80189910E947A
:10287000B713EACF84E98093BC00089590931C02BB
:1028800080931B020895E0911B02F0911C02309787
:1028900021F00190F081E02D099480E00895E0910D
:1028A0001B02F0911C02309721F00280F381E02D91
:1028B00009940895E0911B02F0911C02309739F0C1
:1028C00022E0DC012C930480F581E02D0994089529
:1028D0002091190230911A022817390771F090934C
:1028E0001A0280931902E0911B02F0911C023097AA
:1028F00021F00680F781E02D0994089520911702B8
:10290000309118022817390771F0909318028093BC
:102910001702E0911B02F0911C02309721F0008415
:10292000F185E02D099408950E94A51F60932A0265
:1029300070932B0280932C0290932D0260932602B9
:10294000709327028093280290932902089585B7F7
:10295000806885BF85B7806885BF0895089508950C
:102960000C94AE1408950C94B2140E94A71487E13D
:102970009EE10E94F51F0E94AF140C94B01481E0F8
:1029800008950C94BF14089508950E94901F0E940A
:10299000F20480E00E94C80C0E94FA1F0C94B31449
:1029A0008F929F92AF92BF92CF92DF92EF92FF925F
:1029B0000F931F93CF93DF93CDB7DEB72A970FB650
:1029C000F894DEBF0FBECDBF0E94C3140E94C41492
:1029D0000E940E06982E81110E9494148EE1A82E5A
:1029E00082E0B82E10E000E0802E802F0E94820648
:1029F000E82EF501C1905F01C81609F454C080911A
:102A00009A0281FD0E948806D12CFF24F394CE24E3
:102A10008C2D8F2109F442C00E94C114882399F0A3
:102A2000DE828F82EF2081E009F480E088870E94B7
:102A3000991F8160782F9A8789874E815F81688589
:102A40008A850E947D15F801E25EFD4F8081F8269F
:102A5000F0820E945B0F91100E94240E0E94690B6D
:102A60000E94431490911D028917A1F10E94431402
:102A700080931D022A960FB6F894DEBF0FBECDBF1D
:102A8000DF91CF911F910F91FF90EF90DF90CF904A
:102A9000BF90AF909F908F900C942A08D394FF0C16
:102AA000F6E0DF12B5CF0F5F1F4F0830110509F0B8
:102AB0009BCF8FEF89838A831B820E94991F81603D
:102AC000782F9D838C8349815A816B818D810E94EF
:102AD0007D15BFCF2A960FB6F894DEBF0FBECDBFCF
:102AE000DF91CF911F910F91FF90EF90DF90CF90EA
:102AF000BF90AF909F908F900895DF92EF92FF92DA
:102B00000F931F93CF93DF93CDB7DEB72B970FB6FD
:102B1000F894DEBF0FBECDBF7A878B87F42E052FCA
:102B2000162FE72ED82E61110E94951D1E821D8240
:102B30007E2DEC82DD824F2D502F612F8D2D9E81B9
:102B40002B960FB6F894DEBF0FBECDBFDF91CF91AD
:102B50001F910F91FF90EF90DF900C94E11AFC0110
:102B6000808191810C94221DCF93C82F882369F115
:102B70008CEF8C0F813AA0F46C2F80912B019091F7
:102B80002C010E94D61E882329F08C2F0E94571DED
:102B90000E94B41D8C2F0E94501DCF910C94B41D27
:102BA00080E28C0F883048F4C77081E001C0880F44
:102BB000CA95EAF70E94781DF0CFCD3E30F08C2FF9
:102BC0000E947B0ACF910C944E0BCF9108958823DD
:102BD00061F19CEF980F913A20F40E94571D0C94DC
:102BE000B41D90E2980F983050F4877091E001C0C6
:102BF000990F8A95EAF7892F0E947E1DF0CF9BE5F9
:102C0000980F933020F490E080E00C94681498E5DD
:102C1000980F973120F490E080E00C947E148D3E64
:102C200020F00E94D50A0C944E0B08951F93CF9369
:102C3000DF93182FEB010E94B415209731F4812FF8
:102C4000DF91CF911F910C94E7158FE99FE00197D9
:102C5000F1F700C000002197F0CF70E060E0893309
:102C600011F460E570E00C941616882321F00E94A0
:102C7000781D0C94B41D0895882321F00E947E1DB8
:102C80000C94B41D0895BF92CF92DF92EF92FF9201
:102C90000F931F93CF93DF936C01D62FC72FFC01A7
:102CA0001281058102950F700E946E1DE82E882307
:102CB000A1F0E12E112389F08C2F807F803429F040
:102CC00080E28D0FE12C883040F082E00E94FF1DF1
:102CD0000E946E1D91E0E82EE926BC2EB2949FE082
:102CE000B922FBE0FB1598F1EB2DF0E0EF5EF54D1E
:102CF0000C94C4260C2F0F70C07F11F00295007F3A
:102D00001123A9F0002359F080E28D0F883010F0D4
:102D1000D11109C0802F0E94781D0E94B41D8D2FF3
:102D20000E94B41514C0802F0E94881DF6CF8D2FED
:102D30000E94E715002359F080E28D0F883010F0D3
:102D4000D1112CC0802F0E947E1D0E94B41D2B2DFE
:102D50002850330B2430310520F40E9443140E9484
:102D60002A08EE2009F472C10E946A1D80FD6EC11E
:102D7000F60112820E94641D0E94ED1BC6010E9492
:102D800047180E94641DDF91CF911F910F91FF9012
:102D9000EF90DF90CF90BF900C940E1C802F0E947C
:102DA0008E1DD3CF2C2F2F70F22EC07FC03219F082
:102DB000F29480EFF822DD2369F0D13049F111233C
:102DC00091F1002351F1F601858180FFA8CF8F702A
:102DD000858323C0112381F0011106C00E949B1D31
:102DE0008F290E943516B3CF0130C1F70E949B1D79
:102DF0008F290E94A11DABCF011106C00E94AA1D00
:102E00008F2D0E943C16A3CF013009F4A0CFF6CF3E
:102E1000112329F0063008F09ACF8F2DE2CF05302C
:102E200008F095CFEDCF002359F3D93349F4FFEFE4
:102E300027EE33E0F15020403040E1F700C00000C1
:102E40008D2F0E94E71583CF8D2F112329F00E942B
:102E50007B0A0E944E0B7BCF0E94D50AFACF8C2FA3
:102E6000837009F041C0111172CF4D2F42954695E4
:102E70004770440F440F0D2F0F7010E030E020E03A
:102E8000042E04C0000F111F221F331F0A94D2F713
:102E900060E070E0CB01D4FF0FC06FE070E080E035
:102EA00090E004C0660F771F881F991F4A95D2F7DC
:102EB0006095709580959095C695C695C370602B6A
:102EC000712B822B932BC23049F058F4C13019F08A
:102ED0000E949F1B3CCF0E948D1B39CF0E94B11BCB
:102EE00036CF0E948B1B33CF8695112311F08C2F88
:102EF0008170882309F42BCF4D2F4295469547705A
:102F0000440F440F0D2F0F7010E030E020E0042E2E
:102F100004C0000F111F221F331F0A94D2F760E074
:102F200070E0CB01D4FF0FC06FE070E080E090E074
:102F300004C0660F771F881F991F4A95D2F76095C6
:102F4000709580959095C695C695C370602B712B32
:102F5000822B932BC23049F058F4C13019F00E94F3
:102F6000641CF5CE0E94521CF2CE0E94761CEFCE5D
:102F70000E94C71BECCECF70112329F08C2F0E942A
:102F8000ED1B8D2F2ECF8D2F0E943C168C2F0E9473
:102F90000E1CDDCED23F89F160F4D03FC9F0D13FA5
:102FA00029F1112309F442C00111B9CE8C2F8F7180
:102FB00021C0D33F39F1D43FA1F7112369F1CF717B
:102FC0008C2F0E94ED1B63E08C2F0E94EA1DBFCE68
:102FD000112341F0053008F0BACE8C2F8F710E947A
:102FE000311CB5CE063008F0B2CEF7CF8C2F8F71E2
:102FF000112369F20E94ED1BAACE8C2F8F71112331
:10300000C9F3C5CF112329F08C2F8F710E94D81BD3
:103010009ECE0E94D31B9BCE81E00E94FF1D0230FA
:1030200008F495CE82E00E94FF1D91CE002359F056
:10303000D93309F005CF8FEF97EEE3E08150904050
:10304000E040E1F7FBCE8C2F8F71A1CFDF91CF91C4
:103050001F910F91FF90EF90DF90CF90BF90089558
:103060000F931F93CF93DF93EC01688179818A815D
:103070000E942C1D8C010E94881C0E948A1BB80192
:10308000CE01DF91CF911F910F910C944316CF93F6
:10309000DF93EC018B819C81892B29F088819981B8
:1030A00089238F3F59F4DF91CF910895CE010E947B
:1030B0003018CE01DF91CF910C94C207CE010E944F
:1030C000E7078111F3CF0E946E1D882361F38A8187
:1030D000882349F382E0DF91CF910C94FF1D0E9479
:1030E000951D0E94981D0E94B41D0E94750C0C94A1
:1030F0004E0B0E945E1D0C946F180E94851D0C944F
:103100007918E92FE295EF70E250EE3070F4F0E0BC
:10311000E35EF54D0C94C426803F19F020F4883E00
:1031200020F481E00895843FE1F380E00895883E33
:10313000C0F3813FD1F7F5CF93FB882780F908953D
:103140000E94221D0C948118CF93DF9300D000D0F1
:103150000F92CDB7DEB70F900F900F900F900F909A
:10316000DF91CF910895CF93DF9300D000D000D0AE
:10317000CDB7DEB726960FB6F894DEBF0FBECDBF33
:10318000DF91CF9108951F93CF93DF93C0912F02CA
:1031900016E0809130028C1304C0DF91CF911F9113
:1031A0000895D0E01C9FF0011D9FF00D1124EF5CED
:1031B000FD4F4081518162817381848195810E949C
:1031C000B3182196C770E5CF409161025091620219
:1031D0006091630270916402809165029091660231
:1031E0000C94B3181F93CF93DF9380916602807F76
:1031F000A9F480916302882389F080912F02C09105
:1032000030026091610270916202A0916402B091FB
:103210006502D62FD72316E0C81304C0DF91CF91E3
:103220001F91089590E0109711F0DF3F19F4019677
:103230008770F2CF189F9001199F300D1124F9016A
:10324000EF5CFD4F41814713F2CF40814613EFCF32
:1032500042814111ECCF438154814A1B5B0B4436C0
:10326000510528F7809166028F7080618093660215
:10327000F901EA5CFD4F80818F708061808381E677
:1032800092E00E944718DF91CF911F910C94C318D0
:10329000AF92BF92CF92DF92EF92FF920F931F9364
:1032A000CF93DF93CDB7DEB761970FB6F894DEBF4B
:1032B0000FBECDBF8C0185E0F801DE011D960190A7
:1032C0000D928A95E1F7F80140815181E28081E613
:1032D000C82E82E0D82E609164027091650261155B
:1032E000710509F44FC19091610220916202892F0A
:1032F00082238F3F09F446C1A380B480F09063021B
:10330000F501E61BF70BFF2009F40AC18091660264
:10331000382F307FE436F10508F0C0C0311179C094
:10332000FE2C251323C0941321C0E1101FC08F7001
:103330008061809366020E94E418C6010E944718CB
:1033400080916602F80185838F2D61960FB6F894FF
:10335000DEBF0FBECDBFDF91CF911F910F91FF90C8
:10336000EF90DF90CF90BF90AF900895AB2829F0F9
:10337000842F85238F3F09F021C180E0F82FF17061
:10338000DF2E80FF3CC080912F022091300236E07A
:10339000821315C04D875E878D859E850E94221DF4
:1033A000292F22952F702230F0F0243018F59F70CD
:1033B000F1F0F8019581907FD1F4D12C1EC090E0FE
:1033C000389FF001399FF00D1124EF5CFD4F6181B2
:1033D000651306C06081641303C062816E110FC063
:1033E00001968770D5CF9F7011F0882331F3805EEE
:1033F000883018F3C8010E944718FD2CA5CFEE2095
:1034000009F4A2CF80916602816080936602F12C5C
:103410009BCF251314C0941312C0E11010C0F80103
:103420008583C8010E94471886E0F801A1E6B2E052
:1034300001900D928A95E1F70E94E41885CF4D879F
:103440005E878D859E850E94A018882319F1EE2045
:1034500009F180916602803270F020916102309112
:10346000620238872F831986BB86AA868C87CE0195
:1034700007960E94471886E0F801A1E6B2E00190A5
:103480000D928A95E1F70E94F2180E94E418FF2439
:10349000F3945ACFC8010E944718F9CF311113C0D5
:1034A0007A2DB98AA88A6E2D89890E94A41881E68E
:1034B00092E00E94471886E0F60111928A95E9F79A
:1034C0000E94E418A4CF25130FC094130DC0E1107F
:1034D0000BC0F8018583C8010E94471886E0F601F9
:1034E00011928A95E9F730CF4D875E878D859E854D
:1034F0000E94A018882371F2EE2061F2809166028A
:10350000803208F4B8CF20916102309162023A8390
:1035100029831B82BD82AC828E83CE010196A9CF06
:10352000E436F10510F5FE2CEE2009F4B3CF251397
:103530000BC0941309C086E0F801A1E6B2E0019047
:103540000D928A95E1F700CF4D875E878D859E8528
:103550000E94A01881118FCF8091660281608093B4
:103560006602C8010E944718EFCE7A2DB98AA88A50
:103570006E2D89890E94A41886E0F60111928A9521
:10358000E9F75ACFEE2009F485CF4D875E878D8508
:103590009E850E94A018F82E882309F47BCF86E030
:1035A000F801A1E6B2E001900D928A95E1F781E67B
:1035B00092E00E94AF150E94F2183ECF81E08E2566
:1035C000DDCE1F93CF93DF93CDB7DEB72C970FB629
:1035D000F894DEBF0FBECDBF4F83588769877A87C7
:1035E0008B879C87CE0107960E944819882369F033
:1035F0008A859B85892B39F04F815885842F8523B7
:103600008F3F09F071C016E05FC086E0FE0137967B
:10361000DE01119601900D928A95E1F78A859B85CE
:10362000892B89F388859F8189238F3F61F32091BE
:10363000300230E0C90101968770992740912F022E
:103640004817190671F40E947D18109230021092EA
:103650002F0286E0E1E6F2E0DF011D928A95E9F7AC
:10366000D2CF96E0929FD001939FB00D1124AF5C12
:10367000BD4FFE01319601900D929A95E1F780932E
:1036800030020E94C318BFCF819FC00111248F5CFC
:103690009D4F0E9448198823E9F0E0912F021E9F58
:1036A000F0011124EF5CFD4F4081518162817381F3
:1036B000848195810E94B31880912F0290E0019639
:1036C0008770992780932F0280912F02909130026A
:1036D0008913DACF2C960FB6F894DEBF0FBECDBF9C
:1036E000DF91CF911F91089569857A858B859C859F
:1036F0000E94B31888CF08950C947B1B0E947C1BFA
:103700006093890270938A0280938B0290938C025B
:103710000C946F1808950C947E1B0F931F930091C7
:10372000890210918A0220918B0230918C02602BC9
:10373000712B822B932B1F910F910C947E1B0F9357
:103740001F930091890210918A0220918B0230917F
:103750008C0260237123822393231F910F910C9479
:103760007E1B0F931F930091890210918A02209172
:103770008B0230918C0260277127822793271F913B
:103780000F910C947E1B0C947B1B0C94C31B0E940A
:10379000C51B609385027093860280938702909385
:1037A00088020C946F1860E070E0CB010C94C71B8A
:1037B0000F931F9341E050E060E070E08A019B01AD
:1037C00004C0000F111F221F331F8A95D2F7C901B1
:1037D000B8011F910F910C94C71B0F931F9341E0E9
:1037E00050E060E070E004C0440F551F661F771F73
:1037F0008A95D2F78091850290918602A0918702E6
:10380000B09188028A019B01082B192B2A2B3B2B94
:10381000C901B8011F910F910C94C71B0F931F93FF
:1038200041E050E060E070E004C0440F551F661FA7
:10383000771F8A95D2F7CB01BA0160957095809574
:103840009095009185021091860220918702309117
:10385000880260237123822393231F910F910C947C
:10386000C71B0F931F9341E050E060E070E004C07D
:10387000440F551F661F771F8A95D2F780918502E6
:1038800090918602A0918702B09188028A019B01E3
:10389000082719272A273B27C901B8011F910F9133
:1038A0000C94C71B0F931F93009185021091860201
:1038B0002091870230918802602B712B822B932BF1
:1038C0001F910F910C94C71B0F931F9300918502BA
:1038D0001091860220918702309188026023712323
:1038E000822393231F910F910C94C71B0F931F9357
:1038F0000091850210918602209187023091880202
:1039000060277127822793271F910F910C94C71B63
:103910000895E92FEE0FE90FEE0F8E0F982F977095
:1039200041E001C0440F9A95EAF786958695869501
:1039300095E0899FF0011124E959FD4F30E020E026
:1039400070E05191DF011197CB01022E02C09695D4
:1039500087950A94E2F781708195852784238527CE
:103960008C932F5F3F4F2530310559F70895E92F8C
:10397000EE0FE90FEE0F8E0F982F977086958695B4
:10398000869525E0829FF0011124E959FD4F50E012
:1039900040E080E0219130E0092E02C03695279565
:1039A0000A94E2F721703327042E01C0220F0A94F3
:1039B000EAF7822B4F5F5F4F4530510559F7089565
:1039C000BF92CF92DF92EF92FF920F931F93CF930C
:1039D000DF938C01C0908502D0908602E090870230
:1039E000F09088028091890290918A02A0918B02C6
:1039F000B0918C02C82AD92AEA2AFB2ACFE1D0E06A
:103A0000BC2ED701C6010C2E04C0B695A79597957C
:103A100087950A94D2F780FD0EC0219788F7B12CC4
:103A20008B2DDF91CF911F910F91FF90EF90DF9041
:103A3000CF90BF900895B8018C2F0E94460801973F
:103A400061F3EECFCF93DF93EC010E94E01CBE0147
:103A5000DF91CF910C9446081F93CF93DF93EB0136
:103A600090912E02992331F0CB01DF91CF911F91DC
:103A70000C94221D882379F0CB010E94E01C182FA2
:103A8000682FCE010E94891CBE01812FDF91CF914A
:103A90001F910C944608CB010E94B71C182FF4CF3D
:103AA000682F80912B0190912C010C940C1F682F92
:103AB00080912B0190912C010C940E1F80912B0171
:103AC00090912C010C94101F80918D028595859505
:103AD0008595089580918D028770089590918D024B
:103AE000977081E009F480E008958091990208952B
:103AF00090919902892B80939902089580959091D5
:103B0000990298239093990208951092990208952A
:103B100090919802892B80939802089580959091B6
:103B2000980298239093980208951092980208950D
:103B300010929702089580918E02089508950C9432
:103B40009E1D90918E02981721F080938E020C9406
:103B50009F1D089580918E02882329F010928E0275
:103B600080E00C949F1D0895E0912B01F0912C01B1
:103B7000809199028083E0912B01F0912C0180814A
:103B800090919802892B8083E0912B01F0912C0178
:103B9000808190919702892B808390918E02992346
:103BA00081F0E0912B01F0912C018081892B8083A1
:103BB00080912B0190912C010E94C41E81110E94C2
:103BC000AA1D80912B0190912C010C944F14089503
:103BD0000C94E71D98E0899F90011124622B60935B
:103BE0008D020E94ED1B80918D02859585958595AE
:103BF0000C94E81D10928D0280E00C94E81D9091C9
:103C00008D028095892380938D02282F277071F46F
:103C1000282F082E000C330B9217130639F08595C8
:103C2000859585950E940E1C0C94FA1D089580E0E0
:103C3000089590E080E00E948F2921E08B3E9E4F06
:103C400009F020E0822F089582E090E00C9487290B
:103C500083E090E00C948729CF9384E090E00E9469
:103C60008729C82F81E290E00E948729982F8C2F06
:103C7000CF910895CF93C92F682F84E090E00E94E0
:103C800095296C2F81E290E0CF910C949529AB019E
:103C9000BC018FE090E00C94A729AB01BC0183E14B
:103CA00090E00C94A72960E070E0CB010C944D1ECD
:103CB00060E070E0CB010E94471E0C94531E6BEE37
:103CC0007EEF90E080E00E94B32960E082E090E027
:103CD0000E94952960E083E090E00E94952910926F
:103CE000890210928A0210928B0210928C0260E07C
:103CF00084E090E00E94952960E081E290E00E94DB
:103D0000952960E085E090E00E94952960E086E0DA
:103D100090E00E9495296FEF87E090E00E9495293E
:103D200040E050E0BA0188E090E00E94A72960E0FE
:103D30008DE090E00E94952940E050E0BA0188E1D2
:103D400090E00E94A72960E087E190E00E94952919
:103D500040E050E0BA018CE190E00E94A72960E0C9
:103D600080E290E00E94952940E050E0BA0188E1AD
:103D700090E00E94A7290C94581E0C945F1E682F97
:103D80008EE090E00C9495299C012E5F3F4FAC0192
:103D9000485F5F4F80E02417350709F40895F90163
:103DA00091919F019923B9F38F5FF5CF662349F075
:103DB000FC01329608962191261729F0E817F90799
:103DC000D1F780E0089581E008959C01FC013296CE
:103DD0009FEF80E04191461751F09F3F19F4411148
:103DE00001C0982F8F5F8630A9F79F3F09F408958F
:103DF000290F311D97FD3A95F90162830895FC0161
:103E0000329608962191261303C0DF0111971C9268
:103E1000E817F907B9F708950C94E51E0C94FF1EF6
:103E2000029626E0FC0111922A95E9F7089508957B
:103E300008950C94181F8091B604843049F10E94B3
:103E4000191F80E00E942A0810929B0288E190E0EE
:103E500020E40FB6F894A895809360000FBE2093DD
:103E6000600083B7817F846083BF83B7816083BF35
:103E70007894889583B78E7F83BF0FB6F894A89502
:103E800080916000886180936000109260000FBE96
:103E900008950895CF930E94171F0E940E060E9456
:103EA000491FC0E08C2F0E948206811105C0CF5FA0
:103EB000C830C1F7CF91089581E0FCCF08950C94EC
:103EC0005E1F0E947D180E9443140E942A080C94D1
:103ED0005F1F1F921FB61F9211248F939F93AF9362
:103EE000BF9380919B02811113C08091AC0490918B
:103EF000AD04A091AE04B091AF044196A11DB11DD7
:103F00008093AC049093AD04A093AE04B093AF043F
:103F1000BF91AF919F918F911F901FBE1F901895D9
:103F200082E084BD93E095BD9AEF97BD80936E00CB
:103F300008952FB7F8948091AC049091AD04A091AE
:103F4000AE04B091AF042FBF08952FB7F8946091DD
:103F5000AC047091AD048091AE049091AF042FBF7A
:103F600008959C014FB7F8948091AC049091AD04F2
:103F7000A091AE04B091AF044FBF821B930B089584
:103F800078941F921FB61F9211248F939F93AF9323
:103F9000BF938091AC049091AD04A091AE04B09118
:103FA000AF040196A11DB11D8093AC049093AD04A4
:103FB000A093AE04B093AF04BF91AF919F918F9146
:103FC0001F901FBE1F90189587E797E790930108F1
:103FD0008093000888E19AE00FB6F894A895809342
:103FE00060000FBE90936000FFCF90939D0180937F
:103FF0009C0108950E94191E811102C00E94BD1EDD
:104000000E94241E80939A020E942C1E9093B10459
:104010008093B0040E94281E682F70E090E080E03A
:104020000E948B1B609185027091860280918702AD
:10403000909188020C94C51B8091A4020895089564
:104040009C0182E08093E9009FEF8091E80091500D
:1040500085FD06C085ED8A95F1F700009111F5CF39
:104060008091E80085FF0CC050E040E066E070E021
:10407000C9010E94FF218091E8008E778093E800BB
:104080000895CF93DF93EC0181E08093E9008FEFF7
:104090009091E800815095FD06C095ED9A95F1F755
:1040A00000008111F5CF8091E80085FF14C050E039
:1040B00040E068E070E0CE010E94FF218091E800BE
:1040C0008E778093E80088E0FE01ACE9B2E00190D1
:1040D0000D928A95E1F7DF91CF910895089580912F
:1040E000B504811109C00E948F230E94EC238091A6
:1040F000E20084608093E20008951092B504089570
:1041000008950895089542E061EC81E00E940B2338
:1041100042E261EC82E00C940B238091B80483307E
:1041200009F45FC030F48130C1F1823009F49BC0E2
:1041300008958A3009F487C08B3009F46DC0893046
:1041400009F04EC08091B704813209F049C08091D6
:10415000BB049091BC04029708F042C08091E80033
:10416000877F8093E8008091E80082FF35C09091BE
:10417000F3008091F200029729F48091F1008B7F87
:10418000813021F48091F1008093A4028091E800B5
:104190008B778093E8000C943F238091B704813A99
:1041A000F9F48091E800877F8093E8008091BB0458
:1041B0009091BC04892B61F468E08CE992E070E096
:1041C0000E944E228091E8008B778093E80008954A
:1041D00060E090E080E0F3CF8091B6048111C3CF1E
:1041E00008958091B704813AD9F78091BB049091EA
:1041F000BC04892BA9F78091E800877F8093E800B1
:104200008091E80080FFFCCF809137018093F1001E
:104210008091E8008E77BDCF8091B704813201F79D
:104220008091BB049091BC04892BD1F68091E80069
:10423000877F8093E8000E943F238091B904809398
:1042400037010C947D188091B704813249F6809132
:10425000E800877F8093E8000E943F238091BA04A2
:104260008093A50208958091B704813A09F0B8CFF0
:104270008091E800877F8093E8008091E80080FFCC
:10428000FCCF8091A502C2CF84B7877F84BF0FB6D1
:10429000F894A895809160008861809360001092E6
:1042A00060000FBE80E890E00FB6F8948093610044
:1042B000909361000FBE0E94B5140E948F230E944C
:1042C000EC238091E20084608093E20078940E9465
:1042D00075260E94C5148DE291E00E943E148091E3
:1042E000B6048530A9F00E94D0140E94C3140E9425
:1042F000C414F5CF0E941B1F8091B404882341F0A1
:104300000E944A1F882321F00E94E9210E947D1803
:104310008091B604853071F30E94611FE4CF0C9444
:104320009121292F33272330310519F168F42130E9
:10433000310509F444C02230310509F445C090E04C
:1043400080E030E020E025C02132310549F1223201
:104350003105A9F780E490E02DEA38E06115710598
:10436000C1F089E490E024E638E06130710589F01D
:10437000E6CF99278130910581F0009729F00297C7
:10438000F1F6E3EFF7E002C0E3E1F8E0849190E0BA
:104390009F01FA01318320830895E1E0F8E0F6CF30
:1043A00089E090E029E238E06115710591F389E038
:1043B00090E022E438E06130710559F3C0CF82E12A
:1043C00090E022E538E0E5CF8BE390E027E138E0AC
:1043D000E0CF80E189BD82E189BD09B400FEFDCF57
:1043E0008091D8008F7D8093D8008091E00082601A
:1043F0008093E0008091E00081FDFCCF0895AF92B2
:10440000BF92CF92DF92FF920F931F93CF93DF93D0
:104410006C01EB018A010E945E23F82E811123C0FA
:104420000115110539F0F80180819181C81BD90B64
:10443000C80ED91EB12CA12C2097A9F08091E800BC
:1044400085FD22C08091E8008E778093E8000115F9
:104450001105A1F0F80180819181A80EB91EB182E9
:10446000A08285E0F82E8F2DDF91CF911F910F91C3
:10447000FF90DF90CF90BF90AF9008950E945E2391
:104480008823D1F2F82EEFCFF60181916F0180934E
:10449000F1002197FFEFAF1ABF0ACECFFC01809148
:1044A000BD049091BE0486179707A0F061157105B1
:1044B00029F49091E8009E779093E80090E06115D0
:1044C000710551F4911108C08091E80082FF34C059
:1044D00080E00895BC01F2CF8091B6048823C1F139
:1044E0008530C1F18091E80083FD30C08091E80003
:1044F00082FDEACF8091E80080FFE1CF8091F30058
:104500002091F200382F6115710519F0283031051E
:1045100058F091E02830310509F090E02091E80052
:104520002E772093E800CBCF81918093F1006150EA
:1045300071092F5F3F4FE7CF8091B604882341F088
:10454000853041F08091E80083FFBECF81E008957F
:1045500082E0089583E00895FC018091BD0490916C
:10456000BE0486179707A0F06115710529F48091A4
:10457000E8008E778093E80090E06115710551F4B2
:10458000911108C08091E80082FF35C080E0089555
:10459000BC01F2CF8091B6048823C9F18530C9F1FE
:1045A0008091E80083FD31C08091E80082FDEACF70
:1045B0008091E80080FFE1CF8091F3002091F2002C
:1045C000382F6115710519F02830310558F091E048
:1045D0002830310509F090E08091E8008E778093D3
:1045E000E800CBCF84918093F1003196615071093E
:1045F0002F5F3F4FE6CF8091B604882341F085308E
:1046000041F08091E80083FFBDCF81E0089582E012
:10461000089583E00895982F973028F08F70809345
:10462000E90081E008959093E900242F762F50E06F
:10463000981731F07091EC002091ED005091F0004E
:1046400021FD02C09F5FE8CF3091EB003E7F3093A9
:10465000EB003091ED003D7F3093ED003091EB00A9
:1046600031603093EB007093EC002093ED00509399
:10467000F0002091EE0027FDE5CF80E008958091C5
:10468000B70487FF13C08091E80082FF06C08091C5
:10469000E8008B778093E80004C08091B604811114
:1046A000F2CF08958091B6048823D9F38091E80071
:1046B00080FFF8CF8091E8008E77ECCF2091E40066
:1046C0003091E50095E6A9012091EC00822F8170E0
:1046D00020FF06C08091E80080FF06C080E00895BA
:1046E0002091E80022FD1AC08091B604882389F049
:1046F000853089F08091EB0085FD0FC02091E400AA
:104700003091E50042175307F9F29150E1F684E049
:10471000089582E0089583E0089581E008950E945D
:10472000FD230E940524E0EEF0E08081816080831B
:10473000E8EDF0E080818F77808319BCA7EDB0E0D1
:104740008C918E7F8C9380818F7E80831092B504B4
:1047500008950F931F93CF93DF930E94FD230E9430
:104760000524C8EDD0E088818F77888388818068B0
:10477000888388818F7D888319BC1092B60410923B
:10478000B2041092B4041092B30400EE10E0F801E9
:1047900080818B7F808388818160888342E060E0B4
:1047A00080E00E940B23E1EEF0E080818E7F808329
:1047B000E2EEF0E080818160808380818860808388
:1047C000F80180818E7F8083888180618883DF917A
:1047D000CF911F910F910895E8EDF0E080818F7ED9
:1047E0008083E7EDF0E080818160808384E082BF98
:1047F00081E08093B5040C94A923E8EDF0E080817A
:104800008E7F80831092E20008951092DA00109259
:10481000E10008951F920F920FB60F9211242F936B
:104820003F934F935F936F937F938F939F93AF9338
:10483000BF93EF93FF938091E10082FF0BC08091C3
:10484000E20082FF07C08091E1008B7F8093E1004E
:104850000E9474268091DA0080FF19C08091D800F0
:1048600080FF15C08091DA008E7F8093DA008091FE
:10487000D90080FF96C080E189BD82E189BD09B47D
:1048800000FEFDCF81E08093B6040E946F208091EE
:10489000E10080FF19C08091E20080FF15C0809187
:1048A000E2008E7F8093E2008091E200806180933D
:1048B000E2008091D80080628093D80019BC85E026
:1048C0008093B6040E9481208091E10084FF2BC078
:1048D0008091E20084FF27C080E189BD82E189BD2B
:1048E00089B5982F917080FFFBCF8091D8008F7D84
:1048F0008093D8008091E1008F7E8093E1008091C9
:10490000E2008F7E8093E2008091E20081608093DC
:10491000E2008091B204882309F449C084E08093C6
:10492000B6040E9482208091E10083FF29C080911B
:10493000E20083FF25C08091E100877F8093E10042
:1049400082E08093B6041092B2048091E1008E7FE1
:104950008093E1008091E2008E7F8093E20080915D
:10496000E20080618093E20042E060E080E00E942B
:104970000B238091F00088608093F0000E948020DB
:10498000FF91EF91BF91AF919F918F917F916F9127
:104990005F914F913F912F910F900FBE0F901F90FD
:1049A000189519BC1092B6040E947D2070CF80919A
:1049B000E30087FD93E09093B604B3CF1F920F926C
:1049C0000FB60F9211242F933F934F935F936F93E2
:1049D0007F938F939F93AF93BF93CF93DF93EF9387
:1049E000FF93D091E900DF708091EC00C82FC17077
:1049F00080FDC0E81092E9008091F000877F8093ED
:104A0000F00078940E9422251092E9008091F00035
:104A100088608093F000CD2BCF70C093E900FF91A8
:104A2000EF91DF91CF91BF91AF919F918F917F9146
:104A30006F915F914F913F912F910F900FBE0F900B
:104A40001F9018951F93CF93DF93CDB7DEB7AA972A
:104A50000FB6F894DEBF0FBECDBF87EB94E0209178
:104A6000F100FC012193CF01F4E08F3B9F07B9F7E0
:104A70000E948D208091E80083FF1EC18091B704C1
:104A80009091B8049A3008F017C1E92FF0E0E55D85
:104A9000F54D0C94C426803899F0823809F00CC189
:104AA0008091BB048F70873008F006C18093E900C5
:104AB0008091EB0085FB882780F91092E90006C001
:104AC0008091B3049091B404911182609091E800B8
:104AD000977F9093E8008093F1001092F10080910D
:104AE000E8008E77E5C0882309F4D3C0823009F04E
:104AF000E3C08091B9048111D6C08091BB048F704E
:104B00002FEF280F263008F0D7C08093E9002091BE
:104B1000EB0020FFC8C0933031F48091EB0080623D
:104B20008093EB00C0C09091EB0090619093EB00FC
:104B300021E030E001C0220F8A95EAF72093EA00D5
:104B40001092EA008091EB008860EACF8111B4C036
:104B50001091B9041F778091E3008078812B8093B6
:104B6000E3008091E800877F8093E8000E943F2364
:104B70008091E80080FFFCCF8091E3008068809303
:104B8000E30082E0111183E08093B60495C0805861
:104B9000823008F091C08091B9049091BA048C3DA4
:104BA00023E09207A1F583E08A838AE289834FB7E5
:104BB000F894DE01139620E03EE051E2E32FF0E0AE
:104BC00050935700E49120FF03C0E295EF703F5FE0
:104BD000EF708E2F90E0EA30C0F0C7968D939D93D2
:104BE0002F5F243159F74FBF8091E800877F809372
:104BF000E8006AE270E0CE0101960E944E228091A8
:104C0000E8008B778093E80057C0C096E7CF6091AB
:104C1000BB047091BC04AE014F5F5F4F0E948F21B7
:104C2000BC01892B09F448C09091E800977F9093CC
:104C3000E80089819A810E94AC22E1CF8038E1F5B9
:104C40008091E800877F8093E8008091B204809390
:104C5000F10045CF811130C09091B904923060F5D8
:104C60008091E800877F8093E8009093B2040E94CF
:104C70003F238091B204882311F084E005C0809125
:104C8000E30087FDFACF81E08093B6040E94832081
:104C900013C08091B904813079F481E0933009F038
:104CA00080E08093B4041092E9008091E800877F4F
:104CB0008093E8000E943F238091E80083FF0AC0B0
:104CC0008091E800877F8093E8008091EB0080620C
:104CD0008093EB00AA960FB6F894DEBF0FBECDBF4F
:104CE000DF91CF911F9108950895CF938091B604DD
:104CF0008823A1F0C091E900CF709091EC00892F3A
:104D0000817090FD80E8C82B1092E9008091E80046
:104D100083FD0E942225CF70C093E900CF910895B2
:104D2000991B79E004C0991F961708F0961B881FFD
:104D30007A95C9F780950895AA1BBB1B51E107C05E
:104D4000AA1FBB1FA617B70710F0A61BB70B881F1B
:104D5000991F5A95A9F780959095BC01CD010895AA
:104D600097FB072E16F4009407D077FD09D00E9418
:104D70009C2607FC05D03EF4909581959F4F0895A1
:104D8000709561957F4F0895EE0FFF1F0590F49188
:104D9000E02D0994FB01DC0102C005900D92415009
:104DA0005040D8F70895FB01DC0104C08D910190BB
:104DB000801921F441505040C8F7881B990B089581
:104DC000AEE0B0E0E6EEF6E20C94D7290D891E893C
:104DD0008F89988D26E02C831A83098397FF02C060
:104DE00080E090E801979E838D83AE01455E5F4F22
:104DF000698D7A8DCE0101960E9410274D815E81CA
:104E000057FD0AC02F813885421753070CF49A01C9
:104E1000020F131FF80110822E96E4E00C94F32980
:104E2000AFE0B0E0E6E1F7E20C94C9297C013B0178
:104E30008A01DC0117961C921E92169713968C918C
:104E400081FFBEC19AE0292EFE0131964F01D701A4
:104E500013969C91F30193FD859193FF81913F01FE
:104E6000882309F444C1853239F493FD859193FF79
:104E700081913F01853229F4B70190E00E94F92821
:104E8000E6CFB12C412C512CBFE1B51538F08B3257
:104E900009F188F4803201F1833221F157FC3AC0E4
:104EA00020ED280F2A3040F556FE1FC0B29C200D81
:104EB0001124B22E06C08D3291F0803379F76894B8
:104EC00050F8F30193FD859193FF81913F0181118A
:104ED000DBCF20C0689451F8689452F8F2CF689400
:104EE00053F8EFCF689454F8ECCF429C200D112476
:104EF000422E689455F8E5CF8E3229F456FCF7C05F
:104F0000689456F8DECF8C3619F4689457F8D9CFE8
:104F10008836B9F2982F9F7D95549330C0F0833630
:104F2000A1F18337C1F1833509F05BC0D801CD9081
:104F3000DD908D016B2D70E056FC02C06FEF7FEFAE
:104F4000C6010E94E3285C01689457F80AC00C5F10
:104F50001F4FEFE3E983AA24A394B12C6401E894E2
:104F600057F853FC04C04A141B0409F018F5342CFC
:104F7000A114B10431F5332009F469CFB70180E2FF
:104F800090E00E94F9283A94F6CFD8018C91898359
:104F90000E5F1F4FE0CFF801C190D1908F016B2DB4
:104FA00070E056FC02C06FEF7FEFC6010E94EE2852
:104FB0005C01D5CFB70180E290E00E94F9284A94C5
:104FC000D2CFF60157FC859157FE81916F01B70151
:104FD00090E00E94F92831103A94B1E0AB1AB10880
:104FE000C7CF843619F0893609F071C0F80157FE31
:104FF00067C061917191819191918F01E52DEF765B
:10500000DE2E97FF09C090958095709561957F4F32
:105010008F4F9F4F6894D7F82AE030E0A4010E9498
:105020002929C82EC818AC2C5D2CD6FE0CC0E894DB
:1050300050F8CB1440F4D4FE05C0D2FC03C05D2D63
:105040005E7E552EAB2C54FE93C0FE01EC0DF11D7F
:105050008081803309F085C0652D697E562E752DBF
:105060007870372E53FC93C050FE8DC0BC2CA41416
:1050700010F4B40CBA1854FE90C0B70180E390E06D
:105080000E94F92852FE07C088E751FC88E590E0AD
:10509000B7010E94F928CB1408F48BC0CA94D12C14
:1050A0008FEFC81AD80AC80CD91CD6018E916D0191
:1050B000B70190E00E94F9288C149D04B1F75BCFF2
:1050C00061917191072E000C880B990B96CFD52C0E
:1050D000E894D4F82AE0853729F1F52DF97FDF2E01
:1050E0008037A1F058F48835A1F08F36D1F0F70160
:1050F000868197812F96E2E10C94E5298837B9F7EC
:10510000D4FE02C06894D2F820E10CC06894D4F8B0
:10511000F7CF54FE03C02F2F2660D22E20E132E0BD
:1051200002C028E030E0F801D7FE15C0419151914E
:10513000619171914C875D876E877F878F01A40194
:105140006C857D858E859F850E942929C82EC8186B
:10515000E894D7F868CF81919191AC0170E060E05C
:10516000E9CF52FC02C0A3947ACFA394A39477CF43
:10517000852D867809F473CFF6CFB70180E290E0F1
:105180000E94F928A394A414C0F3312C74CF342CBA
:105190003A18A41408F46FCFF8CF852D867809F457
:1051A0007ACF8BE251FE80E257FC8DE2B70190E0AE
:1051B00070CFB70180E390E00E94F928BA946BCFDA
:1051C0008FEF9FEF97CFFC01059061507040011069
:1051D000D8F7809590958E0F9F1F0895FC01615020
:1051E000704001900110D8F7809590958E0F9F1F09
:1051F00008950F931F93CF93DF93182F092FEB017F
:105200008B8181FD09C01FEF0FEF812F902FDF9160
:10521000CF911F910F91089582FF14C02E813F817D
:105220008C819D81281739073CF4E881F981CF01F1
:1052300001969983888310838E819F8101969F8335
:105240008E83E3CFE885F985812F0995892BA1F31A
:10525000DACFFA01AA27283051F1203181F1E89400
:105260006F936E7F6E5F7F4F8F4F9F4FAF4FB1E059
:105270003ED0B4E03CD0670F781F891F9A1FA11D54
:10528000680F791F8A1F911DA11D6A0F711D811D55
:10529000911DA11D20D009F468943F912AE0269F1A
:1052A00011243019305D3193DEF6CF010895462F79
:1052B0004770405D4193B3E00FD0C9F7F6CF462F5A
:1052C0004F70405D4A3318F0495D31FD40524193C3
:1052D00002D0A9F7EACFB4E0A69597958795779580
:1052E0006795BA95C9F700976105710508959B0107
:1052F000AC010A2E06945795479537952795BA9590
:10530000C9F7620F731F841F951FA01D0895F99997
:10531000FECF92BD81BDF89A992780B50895A8E186
:10532000B0E042E050E00C94BB29262FF999FECF63
:1053300092BD81BDF89A019700B4021639F01FBAE8
:1053400020BD0FB6F894FA9AF99A0FBE0895039605
:10535000272F0E9496290E949529252F0E94962981
:10536000242F0C9496290196272F0E9496290C949D
:105370009529DC01CB01FC01F999FECF06C0F2BDF5
:10538000E1BDF89A319600B40D9241505040B8F703
:1053900008952F923F924F925F926F927F928F92D9
:1053A0009F92AF92BF92CF92DF92EF92FF920F93B4
:1053B0001F93CF93DF93CDB7DEB7CA1BDB0B0FB6BE
:1053C000F894DEBF0FBECDBF09942A88398848887B
:1053D0005F846E847D848C849B84AA84B984C88411
:1053E000DF80EE80FD800C811B81AA81B981CE0F08
:1053F000D11D0FB6F894DEBF0FBECDBFED010895ED
:10540000F894FFCF1E072F0723072F0727072F0723
:105410002F072F072B072F072B072F072B072F07E8
:105420002B077A167A16D216D216A7162417A716A5
:10543000A7162F17BB17CA17CA178C188C189518E0
:10544000951897189518951895188C188C189C18FD
:10545000951895189C184B2573255C2673255C269A
:0A546000A625C7255C261E262A2675
:10546A000501B50100000001B301B50104B601014F
:10547A00B301B40100000004BA01FFFF2808641E4A
:10548A00140A321E0021007F2200038F021C2041D1
:10549A002020201F206E2001F4F5F6F731339466A0
:1054AA0097C60000000025647825642C206B2532FD
:1054BA0064203A202563002020202061626364650D
:1054CA00666768696A6B6C6D6E6F707172737475FA
:1054DA00767778797A31323334353637383930520B
:1054EA004542545F2D3D5B5D5C233B27602C2E2F8C
:0C54FA00202020000810181810080000E6
:00000001FF
