:100000000C9494020C94DB020C94DB020C941524E7
:100010000C94DB020C94DB020C94DB020C94DB02EC
:100020000C94DB020C94DB020C94DC210C94B222C5
:100030000C94351F0C94DB020C94DB020C94DB0255
:100040000C94DB020C94DB020C94DB020C94DB02BC
:100050000C94DB020C945C1F0C94DB020C94DB020E
:100060000C94DB020C94DB020C94DB020C94DB029C
:100070000C94DB020C94DB020C94DB020C94DB028C
:100080000C94DB020C94DB020C94DB020C94DB027C
:100090000C94DB020C94DB020C94DB020C94DB026C
:1000A0000C94DB020C94DB020C94DB0205010902C8
:1000B000A10185020901A1000509190129081500FE
:1000C0002501950875018102050109300931158165
:1000D000257F95027508810609381581257F9501D0
:1000E00075088106050C0A38021581257F95017572
:1000F000088106C0C005010980A101850319012AF4
:10010000B700150126B700950175108100C0050CD8
:100110000901A101850419012AA002150126A002E6
:10012000950175108100C005010906A10105071997
:10013000E029E715002501950875018102950175F3
:100140000881010507190029FF150026FF00950603
:1001500075088100050819012905950575019102A9
:10016000950175039101C009023B00020100A0FA4C
:10017000090400000103010100092111010001220D
:1001800040000705810308000A090401000103007B
:100190000000092111010001227B000705820320D4
:1001A000000A12011001000000085346010001007E
:1001B000010200010C0343006F0072006E00650035
:1001C0000000100366006F006F0073007400610090
:1001D0006E0000000403090400000000000000009D
:1001E000000000000000000000000000000000000F
:1001F0000000000000000000000000007E0F00D49E
:10020000FFFFFFC7000000780000000000000000B2
:100210002A2B280000000000000000000000000061
:1002200000000029000000002C1E3420212224346C
:100230002627252E362D3738271E1F20212223243E
:1002400025263333362E37381F0405060708090ADA
:100250000B0C0D0E0F101112131415161718191A76
:100260001B1C1D2F3130232D350405060708090AF4
:100270000B0C0D0E0F101112131415161718191A56
:100280001B1C1D2F3130354C2B00140007001500AE
:100290001A000500E000040016000B0017000A0019
:1002A000E1001D001B001000060019000000000006
:1002B00000002A5D2B5D2C00355D33001300180013
:1002C00009000D004F5D0C001200080011001C0019
:1002D000365D535D370036000F000E000000000051
:1002E0000000F65C2C5D2800E3003F5DAA00A90039
:1002F000A8004C5DE0003B5D3C5D3D5D3E5D455DC5
:10030000E100465D475D485D4A5D415D00000000DB
:1003100000002A5D2B5D305DE600405DAB00AC0067
:10032000AE004D5D00003A5D395D385D375D445D7E
:10033000365D4E5D000000004B5D495D0000000031
:1003400000004C002C5D0000E300210020001F0095
:100350001E002200E000545D505D515D525D555D10
:10036000E1005C5D5B5D5D5D5E5D5F5D000000000A
:1003700000002A5D2B5D2B00E600260025002400EE
:1003800023002700F65C5A5D595D585D575D565D48
:10039000365D635D645D615D625D605D000000000F
:1003A00000004C002C5D2B00E3006F5D705D715D03
:1003B000725D735DE000655D665D675D685D695DEA
:1003C000E1006A5D6B5D6C5D6D5D6E5D000000005F
:1003D00000002A5D2B5D345D000000004B004E00E4
:1003E0004D004A0000001A5C4F00520051005000BE
:1003F000365D745D755D775D765D00000000000020
:10040000000000002C5D345D845D785D795D7B5D6E
:100410007C5D825DE00044007F5D805D7A5D7D5D96
:10042000E1003D003C003B003A003E0000000000BF
:100430000000FF002B5D00007E5D835DF200ED009B
:10044000F100815DFE004500F000EE00EF00F300DA
:10045000365D4200410040003F00430000000000C4
:100460000000F65CFE00FF002F5D000000000000B1
:10047000000000002F5D00000000000000000000F0
:100480002F5D00000000000000005200000000008E
:100490000000500051004F002F5D000000000000E0
:1004A000000000002F5D00000000000000000000C0
:1004B0002F5D00000000000000005200000000005E
:1004C00000004F0051005000005C0000CC5CC65C96
:1004D000C85CCA5C00000000CD5CC75CC95CCB5C3A
:1004E000C55C0000000000000000C35C00000000CC
:1004F00000000000000000000000000000000000FC
:100500000000335D000000000000435D425D00001C
:1005100000000000000000000000000000000000DB
:10052000000000000000000011241FBECFEFDAE041
:10053000DEBFCDBF04B603FE27C080914D0290916F
:100540004E02A0914F02B09150028730904BA740CD
:10055000B04BD1F410924D0210924E0210924F0205
:100560001092500214BE84B7877F84BF0FB6F894F0
:10057000A89580916000886180936000109260006F
:100580000FBEE0E0F8E3099511E0A0E0B1E0EEE98C
:10059000F1E502C005900D92A837B107D9F722E026
:1005A000A8E7B1E001C01D92AD34B207E1F70E94A7
:1005B000DA1F0C94DA270C94000090913E0292FF0F
:1005C00006C0282F28712830F9F4877F846093FFB4
:1005D00006C0282F28712831F1F4877E846120918C
:1005E0003F0220FF06C0382F38713830D9F4877F9A
:1005F000816021FF06C0282F28712831D1F4877E21
:10060000816194FD877E0895282F24712430F9F6A6
:100610008B7F8860DCCF282F2471243101F78B7EFB
:100620008861DDCF382F3171313019F78E7F8860C6
:10063000E0CF282F2171213121F78E7E8861E1CF13
:10064000CF93DF93972F70E026E0929F600D711D8E
:100650001124FB0130E3839FE00DF11D1124EE0F07
:10066000FF1FE857FD4FC591D491CE01C03ED10583
:1006700009F46DC060F5C133D10509F4B2C088F446
:10068000C932D10509F4A6C0CA32D10509F4B0C0F7
:10069000C130D10549F12497C13AD10508F063C0B2
:1006A00023C0C933D10509F44BC0C238D10509F4C0
:1006B00047C0C533D10509F486C0C83AD10508F052
:1006C0009EC0C53AD10520F3849790640DC0C43E06
:1006D000D10509F45BC058F4C23ED10509F446C007
:1006E000C33ED10509F447C0DF91CF910895C63EBE
:1006F000D10509F456C0C73ED10509F459C0C1154A
:1007000042E5D40708F0AEC0C11521E5D20708F0D4
:10071000F8C0C83ED10540F3C11530E5D30708F055
:1007200086C0C11540E4D40708F0E8C0CF3FD1052A
:1007300011F008F076C09065CD3ED105A8F613C043
:1007400020913E02237081F280EE90E0CDCF209187
:100750003E0220FDF8C030913F0230FFC5CF83EE4E
:1007600090E024FFC1CF90E080E0BECF20913E0218
:1007700022FDF5CFB9CF20913E0222FDE7C0309196
:100780003F0230FDE1CF24FFAFCFEDCF20913F02FC
:1007900021FFAACF80913E0284FDE5CF87EE90E055
:1007A000A3CF20913E0223FF9FCF24FDDCCFF6CFC5
:1007B00020913E0223FDCDC030913F0231FFE3CFB7
:1007C00084EE90E091CF20913E0225FF8DCF89E20B
:1007D00090E08ACF20913E0225FF86CF85E390E00E
:1007E00083CF20913E0226FF7FCF8AE290E07CCF2C
:1007F00020913E0226FF78CF81E390E075CF9E01E5
:10080000285A31092731310508F0ADCF885AE82F31
:10081000F0E0EE0FFF1FE65BFE4F80819181946454
:1008200063CFDA95C115DF4108F45ECF9CCF9E01FE
:10083000F4E036952795FA95E1F72370869586952D
:10084000837030E2839FC0011124922BC37021E09A
:1008500030E002C0220F331FCA95E2F7822B932BA0
:100860009C6842CFC11546E5D40718F5C11525E5AA
:10087000D20708F052C0C11534E5D307A8F49C2F65
:1008800096959695AE014370552721E030E002C061
:10089000220F331F4A95E2F740E2C115D345B0F568
:1008A000949FC0011124DACF9C2F8827846F906A0F
:1008B0001BCFC1158AE5D80780F4C11599E5D90782
:1008C000A8F5CE0198558F3F910511F008F04BCF58
:1008D0009C2F8827806F906A07CFCE019056811594
:1008E000904208F040CF8D2F8F710E94DD0290E082
:1008F000982F882788279F718C2B16C09F70906A2D
:10090000F3CE9C2F8827816F906AEECE949FC00112
:100910001124822B932B9A68E7CE0E94DD0290E08F
:10092000982F882788279F719062DECE8C2F8F703A
:100930000E94DD0234E0D695C7953A95E1F7CF7075
:100940009C2F9069D1CE89E390E0CECE82EE90E0EC
:10095000CBCE86EE90E0C8CEF894E82FE295EF700B
:10096000A1E2AE0FB0E04C918F7021E030E0B90110
:1009700002C0660F771F8A95E2F7CB01962F9095FC
:1009800094239C93EE5DF0E09081892B8083789492
:1009900008958091220290E0880F991FFC01EC5C81
:1009A000FE4F2081845D9E4FFC01808190911E024C
:1009B000191614F420931E0290911E0297FF04C092
:1009C000922F919590931E0290911F02191614F484
:1009D00020931F0290911F0297FF03C0219520933F
:1009E0001F0290912102191614F480932102909114
:1009F000210297FF04C0982F919590932102909126
:100A00002002191614F4809320029091200297FF7F
:100A100003C081958093200230911E023323A1F000
:100A200020911F02222381F045EB3403C0011124E1
:100A30009923F1F090931E0245EB240390011124B9
:100A40003323D1F030931F0240912102442379F0E7
:100A500030912002332359F025EB4203A0011124E9
:100A60005093210232039001112430932002089503
:100A700081E080931E02E0CF81E080931F02E4CFEB
:100A800040912202242F30E0220F331FF901EC5C49
:100A9000FE4F90818D3E21F4919590931F02089511
:100AA0008E3ED9F38F3E21F4919590931E020895C6
:100AB000803FD9F3245D3E4FF9019081893F19F4BD
:100AC0009093200208958A3F11F49195F9CF8B3FBE
:100AD00021F491959093210208958C3FD9F39FE0E2
:100AE000980F983070F4815F990B21E030E001C0DD
:100AF000220F8A95EAF780911D02822B80931D02B6
:100B000008958D3F49F481E0809322028091220272
:100B1000481751F00C94C9048E3F11F482E0F4CFD1
:100B20008F3F11F483E0F0CF08958D3E39F480912A
:100B30001F0287FF29C010921F0208958E3E29F4DC
:100B400080911F021816BCF308958F3E39F48091EE
:100B50001E0287FF19C010921E020895803F29F4DB
:100B600080911E021816BCF30895893F39F48091D4
:100B7000200218164CF41092200208958A3F29F49E
:100B80008091200287FDF7CF08958B3F39F4809143
:100B9000210287FFF9CF1092210208958C3F29F49A
:100BA000809121021816BCF308959FE0980F9830A9
:100BB00090F4815F990B21E030E0A90102C0440F5D
:100BC000551F8A95E2F7CA01809590911D028923ED
:100BD00080931D0208958D3FB8F2809122021092F9
:100BE0002202882389F20C94C904E0911602F09144
:100BF0001702309721F00190F081E02D099480E0F8
:100C0000089520911402309115022817390771F0C8
:100C10009093150280931402E0911602F09117024E
:100C2000309721F00680F781E02D099408952091F6
:100C30001202309113022817390771F090931302B2
:100C400080931202E0911602F0911702309721F082
:100C50000084F185E02D099408958091DB01909145
:100C6000DA01981301C008958F5F8770FACF292F9A
:100C7000220FE22FE90FEE0FE80F8E2F877041E071
:100C800001C0440F8A95EAF7E695E695E69585E07A
:100C9000E89FF0011124E255FE4F30E020E070E0C3
:100CA0005191DF011197CB01022E02C096958795D5
:100CB0000A94E2F7817081958527842385278C9398
:100CC0002F5F3F4F2530310559F70895292F220F07
:100CD000E22FE90FEE0FE80F9E2F9770E695E6954D
:100CE000E69585E0E89FF0011124E255FE4F50E0C3
:100CF00040E080E0219130E0092E02C03695279532
:100D00000A94E2F721703327042E01C0220F0A94BF
:100D1000EAF7822B4F5F5F4F4530510559F7089531
:100D2000BF92CF92DF92EF92FF920F931F93CF93D8
:100D3000DF938C01C090D401D090D501E090D60112
:100D4000F090D7018091D0019091D101A091D20172
:100D5000B091D301C82AD92AEA2AFB2ACFE1D0E0F0
:100D6000BC2ED701C6010C2E04C0B695A795979549
:100D700087950A94D2F780FD0EC0219788F7B12C91
:100D80008B2DDF91CF911F910F91FF90EF90DF900E
:100D9000CF90BF900895B8018C2F0E942003019737
:100DA00061F3EECFFF920F931F93CF93DF93FC017C
:100DB000828100811181C081F180882311F1662335
:100DC00001F1C8010E949006D82F682FC8010E9427
:100DD0003706EC2FF0E086E0F89EE00DF11D1124BF
:100DE00080E3D89FE00DF11D1124EE0FFF1FE8579F
:100DF000FD4F85919491DF91CF911F910F91FF90BD
:100E00000895C8010E946606D82FE3CFCF93DF93E1
:100E1000D82FC92F0E9490066D2F7C2FDF91CF9184
:100E20000C9420030E940607282F892F8F70392FDA
:100E300032953F70903C80F43A30B0F4343020F476
:100E4000323090F480E008953630E1F781E0283EBA
:100E500088F0213FB9F70EC03C3011F03F3091F7D8
:100E6000869586958695089581E0203F39F018F49F
:100E7000283E40F70895243F29F7FCCF0895ECE77A
:100E8000F1E09191891303C0DF0111971C9291E069
:100E9000E238F907B1F708958091CF0181111092DE
:100EA000CF010895809140029091D901892B9091B2
:100EB000CC01892B80937A019091CF01992391F0F5
:100EC000892B80937A0120E08CE791E0FC0130814E
:100ED000019631112F5F31E082389307B9F7211164
:100EE0000E944C07E0911602F0911702309731F002
:100EF0000280F381E02D8AE791E009940895882328
:100F000039F090914002892B809340020C94520753
:100F10000895882341F08095909140028923809321
:100F200040020C945207089580E008959C01FC0152
:100F300032968FEF90E04191461751F08F3F19F4B0
:100F4000411101C0892F9F5F9630A9F78F3F09F4A7
:100F50000895280F311D87FD3A95F90162830895A0
:100F60002FB7F8948091A9019091AA01A091AB01AB
:100F7000B091AC012FBF08950E94B00720911E02CE
:100F800030911F02232B21F080931A0290931B02B1
:100F90002091200230912102232B21F0809318020E
:100FA00090931902E0911602F0911702309749F0E0
:100FB00082E080931C020480F581E02D8CE192E0B8
:100FC00009940895CF93C82F882309F44EC08CEF5D
:100FD0008C0F813A90F4ECE7F1E082E891E0219106
:100FE000C217E9F18E179F07D1F76C2F8AE791E0BE
:100FF0000E949607CF910C94520780E28C0F8830A4
:1010000068F4C77021E030E001C0220FCA95EAF70A
:1010100080914002822B80934002ECCF8BE58C0FB5
:10102000833038F42C2F2452330BC901CF910C9408
:101030000106E8E5EC0FE73150F4F0E0EE0FFF1F9A
:10104000E65BFE4F80819181CF910C941706CD3ED7
:1010500060F08C2F0E944005CF910C94BC078C2F20
:101060000E943F070E945207C0CFCF910895EF9290
:101070000F931F93CF93DF93D82FC62F122F9091EA
:101080004002909341029272B9F4442319F081EE28
:101090000E94E207112319F086EE0E94E2078D2FCD
:1010A0000E94E2078091410280934002DF91CF913C
:1010B0001F910F91EF90089510924002002319F0B4
:1010C00081EE0E94E207EE2019F086EE0E94E20710
:1010D0008C2FE6CF882399F19CEF980F913A20F45A
:1010E0000E943F070C94520790E2980F983088F4C2
:1010F000877021E030E0A90102C0440F551F8A9596
:10110000E2F7CA01809590914002892380934002C2
:10111000E9CF9BE5980F933020F490E080E00C94A9
:10112000010698E5980F973120F490E080E00C9448
:1011300017068D3E20F00E9495050C94BC0708957B
:1011400090E080E00E94010690E080E00E94170697
:101150001092D9011092CC010E94520786E0ECE176
:10116000F2E0DF011D928A95E9F70C94BC076093C9
:10117000D0017093D1018093D2019093D3010C944C
:10118000A0086093D4017093D5018093D601909309
:10119000D7010C94A0080F931F93CF93DF9300D037
:1011A00000D0CDB7DEB741E050E060E070E004C0B1
:1011B000440F551F661F771F8A95D2F78091D4017F
:1011C0009091D501A091D601B091D7018A019B01E0
:1011D000082B192B2A2B3B2B09831A832B833C8347
:1011E000C901B8010F900F900F900F90DF91CF9130
:1011F0001F910F910C94C1080F931F93CF93DF930E
:1012000000D000D0CDB7DEB741E050E060E070E044
:1012100004C0440F551F661F771F8A95D2F740956B
:101220005095609570958091D4019091D501A091D1
:10123000D601B091D7018A019B01082319232A23E3
:101240003B2309831A832B833C83C901B8010F9088
:101250000F900F900F90DF91CF911F910F910C94F1
:10126000C1089091D801809589238093D801282FB7
:10127000277071F4282F082E000C330B92171306D9
:1012800039F08595859585950E94FC081092D801C6
:1012900008950F931F93CF93DF9300D000D0CDB765
:1012A000DEB741E050E060E070E004C0440F551F3D
:1012B000661F771F8A95D2F78091D4019091D5014E
:1012C000A091D601B091D7018A019B010827192767
:1012D0002A273B2709831A832B833C83C901B80142
:1012E0000F900F900F900F90DF91CF911F910F9162
:1012F0000C94C108CF93DF9300D000D0CDB7DEB7F8
:101300008FB7F8942091A9013091AA014091AB01C7
:101310005091AC0129833A834B835C838FBF6981F1
:101320007A818B819C810F900F900F900F90DF91AD
:10133000CF9108959C014FB7F8948091A9019091A5
:10134000AA01A091AB01B091AC014FBF821B930BDE
:1013500008958091A4010895FC01CB0120918E0194
:1013600030918F012617370790F0009729F42091CC
:10137000E8002E772093E80040E0009751F44111F7
:1013800008C08091E80082FF31C080E00895C90163
:10139000F3CF20919B012223A9F12530A9F12091BF
:1013A000E80023FD2DC02091E80022FDEACF209126
:1013B000E80020FFE2CF3091F3002091F200009787
:1013C00019F02830310558F041E02830310509F096
:1013D00040E02091E8002E772093E800CECF4191A5
:1013E0004093F10001972F5F3F4FE9CF80919B0120
:1013F000882341F0853041F08091E80083FFC1CF20
:1014000081E0089582E0089583E008958091880145
:1014100087FF13C08091E80082FF06C08091E8003A
:101420008B778093E80004C080919B018111F2CFFB
:10143000089580919B018823D9F38091E80080FF73
:10144000F8CF8091E8008E77ECCF2091E4003091C6
:10145000E50095E6A9012091EC00822F817020FF24
:1014600006C08091E80080FF06C080E008952091CA
:10147000E80022FD1AC080919B01882389F0853005
:1014800089F08091EB0085FD0FC02091E400309140
:10149000E50042175307F9F29150E1F684E0089510
:1014A00082E0089583E0089581E00895E8EDF0E09A
:1014B00080818E7F80831092E2001092DA00109279
:1014C000E100A0EEB0E08C9181608C9380818F77F9
:1014D000808319BCA7EDB0E08C918E7F8C938081C6
:1014E0008F7E8083109287010895EF92FF920F9371
:1014F0001F93CF937C018B010E94250AC82F811175
:1015000017C08091E80085FD0BC08091E8008E77C0
:101510008093E8000E94250A882399F3C82F08C009
:10152000F70181917F018093F1000150110949F782
:101530008C2FCF911F910F91FF90EF9008950F93F3
:101540001F93CF93DF938C01EB0180910E0182FFFB
:101550002FC08B7F80930E0180912702209129025A
:1015600030912A02AB01421B530B20910C013091A8
:101570000D014217530788F40E94E20780910E0183
:101580008D7F80930E01809127020E946A088091CE
:10159000D9018D7F8093D90115C09091D9019260B6
:1015A0009093D9010E94E20780910E018260E9CFF9
:1015B000802F0E946A0880912702909128020817C4
:1015C000190729F30E945207D0932A02C0932902D7
:1015D000DF91CF911F910F9108950F931F93409129
:1015E000D4015091D5016091D6017091D701411578
:1015F000510561057105B1F08A019B01369527956A
:1016000017950795017071F093E07695679557955A
:1016100047959A95D1F7417029F084E01F910F9179
:101620000C94CB08811105C084E01F910F910C949C
:10163000FC081F910F910895982F9093E900242F93
:10164000762F50E0891731F07091EC002091ED0079
:101650005091F00021FD06C09F5F973071F7809395
:10166000E90008953091EB003E7F3093EB0030911C
:10167000ED003D7F3093ED003091EB003160309311
:10168000EB007093EC002093ED005093F00020915C
:10169000EE0027FDE1CF0895CF92DF92EF92FF9207
:1016A0000F931F93CF93DF93C8EDD0E088818F7E97
:1016B0008883E7EDF0E080818160808384E082BFF1
:1016C00081E08093870188818E7F888302EE10E01D
:1016D000F80110821092DA0081EEC82ED12CF601AA
:1016E000108288818F778883888180688883888149
:1016F0008F7D888319BC10929B01109286011092F5
:101700009A011092850190EEE92EF12CF70180816B
:101710008B7F808388818160888342E060E080E005
:101720000E941C0BF60180818E7F8083F8018081EE
:1017300081608083808188608083F70180818E7FD3
:101740008083888180618883DF91CF911F910F9181
:10175000FF90EF90DF90CF90089580912302811148
:1017600010C08091D80080618093D8008AE18A956A
:10177000F1F700C08091D90080FD0AC082E080931B
:10178000230281E090912302913009F080E00895D6
:1017900081E0F5CFAF92BF92CF92DF92EF92FF92AE
:1017A0000F931F93CF93DF9300D000D0CDB7DEB758
:1017B0008CE3E82E81E0F82E96E3C92E92E0D92E34
:1017C00000E0AA24A394B12CD7018D917D01F89457
:1017D000E82FE295EF70A1E2AE0FB0E02C918F7090
:1017E000A50102C0440F551F8A95E2F7CA01922F46
:1017F000982B9C93EE5DF0E0908180958923808307
:10180000789400C0E4E4F1E030E020E010E04191A1
:10181000A42FA295AF70A05EB0E08C9190E04F70C5
:1018200002C0959587954A95E2F780FD47C08A2DBD
:10183000022E01C0880F0A94EAF7182B2F5F3F4F42
:101840002630310521F7F701319780810E94AC04E1
:1018500050EA5A95F1F7D6018C91181789F11C932B
:1018600081E0082BBFEFCB1ADB0AE0E4EE16E1E0E3
:10187000FE0609F0A9CF10913502002319F181E08D
:10188000809326020E94B007909325028093240241
:1018900080912402909125020E949A090697B0F047
:1018A000A12FB0E0A35DBD4F84E0E6E3F2E001903C
:1018B0000D928A95E1F71092260208C080E0BDCF14
:1018C00080E0CFCF809126028111E2CF0E94AD0B44
:1018D000182F60913502882309F473C01A82198287
:1018E0001C821B82862F90E09E012F5F3F4F790163
:1018F000B901835D9D4F0E940223811145C08091F3
:101900002C028F5F80932C02863008F458C0E0913F
:101910002B02F0E0E35DFD4F84E0DF01282F1D92F4
:101920002A95E9F7D7011D928A95E9F780910E0172
:1019300082FF17C00E94B007BC01809129029091DC
:101940002A029B01281B390B80910C0190910D01FB
:101950002817390730F080912702909128020E94C1
:101960009F0A011101C0012F802F0F900F900F903F
:101970000F90DF91CF911F910F91FF90EF90DF902B
:10198000CF90BF90AF90089510922C02A0912B029F
:10199000B0E0A35DBD4F9E012B5F3F4F10E04D9126
:1019A000F70191917F01491731F0AD014150510983
:1019B000FA019083182FE216F30689F7B7CF10E0EB
:1019C000B5CF70E0635D7D4F80912B0290E0835D29
:1019D0009D4F0E943623C5CF0F931F93CF93C82FDF
:1019E00010E000E0893311F400E510E08C2F0E9434
:1019F000E2070115110531F48C2FCF911F910F9142
:101A00000C946A088FE99FE00197F1F700C000008D
:101A100001501109EECFFF920F931F93CF93DF93E5
:101A2000C62FD42F122F8823A9F06093CD010E94D6
:101A3000B0079093830180938201C77081E001C059
:101A4000880FCA95EAF7DF91CF911F910F91FF9010
:101A50000C947F078091CD01681334C0809182017E
:101A6000909183010E949A098C32914058F500E2CE
:101A70000D0FCD17A9F0C770FF24F3948F2D01C06F
:101A8000880FCA95EAF70E948907083048F48D2F1D
:101A9000877001C0FF0C8A95EAF78F2D0E947F079F
:101AA000812F0E94EC0C0830A0F4D77081E001C0B7
:101AB000880FDA95EAF7DF91CF911F910F91FF9090
:101AC0000C948907C77081E001C0880FCA95EAF7B6
:101AD000F2CFDF91CF911F910F91FF900895CF9397
:101AE000DF93D82FC92F81E08093E9008FEF909189
:101AF000E800815095FD06C095ED9A95F1F700003C
:101B00008111F5CF8091E80085FF16C050E040E0DC
:101B100068E070E08D2F9C2F0E94750A8091E8008C
:101B20008E778093E80088E0ED2FFC2FACE9B1E0E0
:101B300001900D928A95E1F7DF91CF91089522E00F
:101B40002093E9002FEF3091E800215035FD06C0C9
:101B500035ED3A95F1F700002111F5CF2091E8001D
:101B600025FF0BC050E040E066E070E00E94750A7F
:101B70008091E8008E778093E8000895CF93DF93FB
:101B800000D00F92CDB7DEB790919B01943019F53C
:101B900089836A837B8382E08093E9008FEF909151
:101BA000E800815095FD06C095ED9A95F1F700008B
:101BB0008111F5CF8091E80085FF0DC050E040E035
:101BC00063E070E0CE0101960E94750A8091E80002
:101BD0008E778093E8000F900F900F90DF91CF9158
:101BE0000895BC0183E00C94BE0DBC0184E00C940C
:101BF000BE0DECE7F1E086E0DF011D928A95E9F782
:101C00000C94A008109240020C94F90D1F93CF93EE
:101C1000DF93CDB7DEB7AA970FB6F894DEBF0FBE3D
:101C2000CDBF88E891E0FC0101962091F10020836E
:101C300021E080399207B9F780918901893009F450
:101C400056C0C8F4823009F4B1C0833009F480C0B2
:101C5000813071F18091E80083FF78C28091880122
:101C6000909189019A3008F071C2E92FF0E0E452B6
:101C7000F84D0C94B4248A3009F487C08B3051F7A6
:101C800080918801813231F780918C0190918D0192
:101C9000892B01F78091E800877F8093E8000E94FC
:101CA000060A80918A0180930B010E94020ED2CF16
:101CB00080918801813A71F68091E800877F809356
:101CC000E80080918C0190918D01892B61F468E08E
:101CD0008CE991E070E00E94AC098091E8008B777C
:101CE0008093E800B7CF60E090E080E0F3CF809190
:101CF0008801813209F0AECF80918C0190918D01E5
:101D0000029708F0A7CF8091E800877F8093E800D2
:101D10008091E80082FF17C09091F3008091F2005B
:101D2000029729F48091F1008B7F813021F480911A
:101D3000F1008093A4018091E8008B778093E80004
:101D40000E94060A87CF80919B018111E1CF82CF4B
:101D500080918801813A09F07DCF80918C0190912A
:101D60008D01892B09F076CF8091E800877F8093E1
:101D7000E8008091E80080FFFCCF80910B01809308
:101D8000F1008091E8008E77D9CF8091880181326F
:101D900009F060CF8091E800877F8093E8000E947F
:101DA000060A80918B018093840154CF8091880131
:101DB000813A09F04FCF8091E800877F8093E80057
:101DC0008091E80080FFFCCF80918401D8CF8038DB
:101DD00099F0823809F0BAC180918C018F708730F8
:101DE00008F0B4C18093E9008091EB0085FB88275F
:101DF00080F91092E90006C08091850190919A01C6
:101E0000911182609091E800977F9093E800809311
:101E1000F1001092F1008091E8008E7793C1882341
:101E200009F481C1823009F091C180918A01811148
:101E300084C180918C018F702FEF280F263008F01D
:101E400085C18093E9002091EB0020FF76C193309B
:101E500031F48091EB0080628093EB006EC1909131
:101E6000EB0090619093EB0021E030E001C0220F85
:101E70008A95EAF72093EA001092EA008091EB003D
:101E80008860EACF811162C110918A011F77809129
:101E9000E3008078812B8093E3008091E800877FC6
:101EA0008093E8000E94060A8091E80080FFFCCF42
:101EB0008091E30080688093E30082E0111183E069
:101EC00080939B0143C18058823008F03FC140910C
:101ED0008A0150918B014C3D83E0580799F583E0CE
:101EE0008A838AE289834FB7F894DE01139620E053
:101EF0003EE051E2E32FF0E050935700849120FF41
:101F000003C082958F703F5F8F708A30C8F0895C04
:101F100090E08D939D932F5F243161F74FBF8091A7
:101F2000E800877F8093E8006AE270E0CE010196C6
:101F30000E94AC098091E8008B778093E80006C18D
:101F4000805DE6CF20918C0130918D01852F9927FE
:101F50008330910509F160F48130910509F472C074
:101F6000029709F0F3C08BE390E0E7E6F1E029C0C7
:101F70008132910509F45AC0829709F0E7C0211512
:101F8000310509F469C02130310509F0DFC08BE764
:101F900090E0ECEAF0E015C0CA0199274130B1F1B8
:101FA0008230910509F43AC0892B09F0CFC0E4EDE5
:101FB000F1E0E4918E2F90E0E4EDF1E0009709F478
:101FC000C5C02091E800277F2093E80020918E0172
:101FD00030918F018217930708F49C0140E021158E
:101FE000310509F03EC041113CC08091E80082FDFE
:101FF000A1CF80919B01882309F49CCF853009F4FF
:1020000099CF8091E80083FFF0CF94CFE2ECF1E02C
:10201000E4918E2F90E0E2ECF1E0D0CFE4EBF1E040
:10202000E4918E2F90E0E4EBF1E0C8CF211531056B
:1020300071F02130310509F089C089E090E0E2E9D2
:10204000F1E0BFCF82E190E0E2EAF1E0BACF89E0CF
:1020500090E0E9E7F1E0B5CF80E490E0E7E2F1E07D
:10206000B0CF80919B01882309F464CF853009F4B7
:1020700061CF8091E80083FD5DCF8091E80082FD13
:10208000B4CF8091E80080FFAACF9091F3008091B7
:10209000F2002115310519F08830910550F041E02A
:1020A000089709F040E08091E8008E778093E8007F
:1020B00096CF44914093F100319621503109019619
:1020C000E8CF803809F042C08091E800877F809394
:1020D000E800809186018093F1009DCE811136C089
:1020E00010918A01123090F58091E800877F8093EB
:1020F000E800109386010E94060A112311F084E083
:1021000005C08091E30087FDFACF81E080939B01B9
:1021100042E061EC81E00E941C0B42E261EC82E053
:102120000E941C0B13C080918A01813079F481E0F8
:10213000933009F080E080939A011092E900809139
:10214000E800877F8093E8000E94060A8091E800FB
:1021500083FF0AC08091E800877F8093E800809128
:10216000EB0080628093EB00AA960FB6F894DEBF76
:102170000FBECDBFDF91CF911F9108956BEE7EEF23
:1021800090E080E00E941D2560E082E090E00E94E7
:10219000FF2460E083E090E00E94FF241092D001D1
:1021A0001092D1011092D2011092D30160E084E02C
:1021B00090E00E94FF2460E081E290E00E94FF2412
:1021C00060E085E090E00E94FF2460E086E090E01F
:1021D0000E94FF246FEF87E090E00E94FF2440E020
:1021E00050E0BA0188E090E00E94112560E08DE0A7
:1021F00090E00E94FF2440E050E0BA0188E190E0C6
:102200000E94112560E087E190E00E94FF2440E0F9
:1022100050E0BA018CE190E00E94112560E080E27C
:1022200090E00E94FF2440E050E0BA0188E190E095
:102230000E94112540E050E0BA018FE090E00E943A
:10224000112540E050E0BA0183E190E00C941125A3
:10225000CF9384E090E00E94F124C82F81E290E0C7
:102260000E94F124982F8C2FCF9108954F925F9266
:102270006F927F928F929F92AF92BF92CF92DF9296
:10228000EF92FF920F931F93CF93DF93CDB7DEB7FB
:102290002C970FB6F894DEBF0FBECDBF6C01FC01CA
:1022A00083819481892B39F08181908189238F3FAB
:1022B00011F00C94CC1C2C960FB6F894DEBF0FBE18
:1022C000CDBFDF91CF911F910F91FF90EF90DF90E5
:1022D000CF90BF90AF909F908F907F906F905F90C6
:1022E0004F900895882341F080EE0E94E2078AE231
:1022F0000E94E2070E94020E8091D8018770D9F2F5
:10230000F60182818823B9F282E02C960FB6F89408
:10231000DEBF0FBECDBFDF91CF911F910F91FF9018
:10232000EF90DF90CF90BF90AF909F908F907F9075
:102330006F905F904F900C943109882359F0E12CF5
:1023400000E020E040E06CE470E08AE290E00E946F
:102350003708D2CF0E94F90DCFCF8823D9F38091CF
:10236000400281FF04C085E00E94CB08C5CF83E016
:102370000E944909C1CF882309F4BECF83EE0E9491
:10238000E2078EE10E94E2070E94020EB5CF882389
:1023900009F4B2CF83EE0E94E2078FE10E94E207C8
:1023A0000E94020EA9CF882309F4A6CF83EE0E94D3
:1023B000E20780E20E94E2070E94020E9DCF88237E
:1023C00009F49ACF83EE0E94E20781E20E94E207BD
:1023D0000E94020E91CF882309F48ECF83EE0E94D3
:1023E000E20782E20E94E2070E94020E85CF882364
:1023F00009F482CF83EE0E94E20783E20E94E207A3
:102400000E94020E79CF882309F476CF83EE0E94D2
:10241000E20784E20E94E2070E94020E6DCF882349
:1024200009F46ACF83EE0E94E20785E20E94E20788
:102430000E94020E61CF882309F45ECF81EE0E94D4
:10244000E20783EE0E94E20786E20E94E2070E9412
:10245000020E52CF882309F44FCF81EE0E94E2078B
:1024600083EE0E94E20787E20E94E2070E94020ECA
:1024700043CF882309F440CF83EE0E94E20782E431
:102480000E94E2070E94020E37CF882309F434CF5E
:1024900081EE0E94E20783EE0E94E2078BE00E9439
:1024A000E2070E94020E28CF882309F425CF81EE8F
:1024B0000E94E20783EE0E94E20789E10E94E207A0
:1024C0000E94020E19CF882309F416CF83EE0E94D2
:1024D000E2078DE10E94E2070E94020E0DCF8823E1
:1024E00009F40ACF83EE0E94E20789E00E94E20726
:1024F0000E94020E01CF882309F4FECE81EE0E94D5
:10250000E20783EE0E94E2078AE00E94E2070E944F
:10251000020EF2CE882309F4EFCE83EE0E94E2078A
:1025200085E10E94E2070E94020EE6CE882309F4AC
:10253000E3CE81EE0E94E20783EE0E94E20784E090
:102540000E94E2070E94020ED7CE882309F4D4CE5F
:1025500083EE0E94E20780E10E94E2070E94020EE1
:10256000CBCE882309F4C8CE83EE0E94E20788E32D
:102570000E94E2070E94020EBFCE882309F4BCCE5F
:1025800083EE0E94E2078BE20E94E2070E94020EA5
:10259000B3CE882309F4B0CE81EE0E94E20783EE29
:1025A0000E94E20784E10E94E2070E94020EA4CE8C
:1025B000882359F081EE0E94E20783EE0E94E20731
:1025C0008BE10E94E2070E94020EF60182818823BD
:1025D00009F492CE81EE0E94E20783EE0E94E207A8
:1025E00086E00E94E2070E94020E81EE0E94E2074E
:1025F00083EE0E94E20785E10E94E2070E94020E3C
:102600007BCE882309F4A6CEE12C00E020E040E058
:102610006FE270E084E390E00E9437086DCE88237B
:1026200009F498CEEE24E39400E021E040E061E27A
:1026300070E080E290E00E9437085ECE882309F4C3
:1026400089CEE12C01E020E040E060E270E08DE224
:1026500090E00E94370850CE882309F47BCEE12C0D
:1026600001E020E041E064E370E08FE190E00E944F
:10267000370842CE882309F46DCEE12C01E020E03A
:1026800041E06EE270E08DE290E00E94370834CEC7
:10269000882309F45FCEE12C00E020E041E06EE207
:1026A00070E08EE190E00E94370826CE882309F47E
:1026B00051CEEE24E39400E020E041E063E270E0DC
:1026C00082E290E00E94370817CE882309F442CEB8
:1026D000EE24E39400E020E040E06FE170E080E36E
:1026E00090E00E94370808CE882309F433CEE12C0D
:1026F00001E020E040E068E370E088E390E00E94C1
:102700003708FACD882309F425CEE12C01E020E03A
:1027100041E06FE270E080E390E00E943708ECCD8A
:10272000882309F417CEEE24E39400E020E041E092
:1027300065E370E084E290E00E943708DDCD8823F5
:1027400009F408CEE12C01E020E041E067E270E00E
:1027500087E290E00E943708CFCD882309F4FACDB4
:10276000EE24E39400E020E040E06CE170E084E6D9
:1027700090E00E943708C0CD882309F4EBCDEE2409
:10278000E39400E020E041E06CE070E084E690E05B
:102790000E943708B1CD882309F4DCCDEE24E39400
:1027A00000E020E041E068E070E085E290E00E9417
:1027B0003708A2CD882309F4CDCDE12C01E020E03B
:1027C00041E061E270E086E290E00E94370894CD3B
:1027D000882309F4BFCDE12C01E020E041E065E36E
:1027E00070E083E290E00E94370886CD882309F4E8
:1027F000B1CDE12C00E021E040E065E370E08EE146
:1028000090E00E94370878CD882309F4A3CDEE2408
:10281000E39400E021E040E064E370E084E390E0D2
:102820000E94370869CD882309F494CDEE24E394FF
:1028300000E021E040E062E370E082E390E00E948B
:1028400037085ACD882309F485CDEE24E39400E0BF
:1028500021E040E06FE270E08FE290E00E943708F4
:102860004BCD882309F476CDEE24E39400E021E0FB
:1028700040E060E370E080E390E00E9437083CCDE8
:10288000882309F467CDE12C00E020E040E066E019
:1028900070E086E090E00E94370820E040E064E0CD
:1028A00070E08CE090E00E94370820E040E067E1B3
:1028B00070E087E190E00E9437081ECD882309F47C
:1028C00049CDE12C00E020E040E066E070E086E0E9
:1028D00090E00E94370820E040E064E070E08CE087
:1028E00090E00E94370820E040E063E170E083E17F
:1028F00090E00E94370800CD882309F42BCDE12C0D
:1029000000E020E040E066E070E086E090E00E94B9
:10291000370820E040E064E070E08CE090E00E9446
:10292000370820E040E066E170E086E190E00E9438
:102930003708E2CC882309F40DCDE12C00E020E03B
:1029400040E066E070E086E090E00E94370820E01A
:1029500040E064E070E08CE090E00E94370820E006
:1029600040E06AE170E08AE190E00E943708C4CC60
:10297000882309F4EFCCE12C00E020E040E066E0A1
:1029800070E086E090E00E94370820E040E06CE0D4
:1029900070E08CE090E00E94370820E041E065E0C4
:1029A00070E085E090E00E943708A6CC882309F407
:1029B000D1CCE12C00E020E040E069E170E089E169
:1029C00090E00E94370820E040E064E070E08CE096
:1029D00090E00E94370820E040E067E170E087E186
:1029E00090E00E94370888CC882309F4B3CCE12C0E
:1029F00000E020E040E069E170E089E190E00E94C1
:102A0000370820E040E064E070E08CE090E00E9455
:102A1000370820E040E063E170E083E190E00E944D
:102A200037086ACC882309F495CCE12C00E020E03B
:102A300040E069E170E089E190E00E94370820E021
:102A400040E064E070E08CE090E00E94370820E015
:102A500040E066E170E086E190E00E9437084CCCEF
:102A6000882309F477CCE12C00E020E040E069E124
:102A700070E089E190E00E94370820E040E064E0E7
:102A800070E08CE090E00E94370820E040E06AE1CE
:102A900070E08AE190E00E9437082ECC882309F488
:102AA00059CCE12C00E020E040E069E170E089E1F0
:102AB00090E00E94370820E040E06CE070E08CE09D
:102AC00090E00E94370820E041E065E070E085E09A
:102AD00090E00E94370810CC882309F43BCCE12C0D
:102AE00000E020E040E067E070E087E090E00E94D6
:102AF000370820E040E064E070E08CE090E00E9465
:102B0000370820E040E067E170E087E190E00E9454
:102B10003708F2CB882309F41DCCE12C00E020E03B
:102B200040E067E070E087E090E00E94370820E036
:102B300040E064E070E08CE090E00E94370820E024
:102B400040E063E170E083E190E00E943708D4CB7D
:102B5000882309F4FFCBE12C00E020E040E067E0AF
:102B600070E087E090E00E94370820E040E064E0F9
:102B700070E08CE090E00E94370820E040E066E1E1
:102B800070E086E190E00E943708B6CB882309F414
:102B9000E1CBE12C00E020E040E067E070E087E07E
:102BA00090E00E94370820E040E064E070E08CE0B4
:102BB00090E00E94370820E040E06AE170E08AE19E
:102BC00090E00E94370898CB882309F4C3CBE12C0E
:102BD00000E020E040E067E070E087E090E00E94E5
:102BE000370820E040E06CE070E08CE090E00E946C
:102BF000370820E041E065E070E085E090E00E9469
:102C000037087ACB882309F4A5CBEE24E39400E0BF
:102C100021E040E060E370E080E390E00E9437084C
:102C2000E12C20E040E060E170E080E190E00E9473
:102C3000370862CB882309F48DCBEE24E39400E0BF
:102C400021E040E06FE270E08FE290E00E94370800
:102C5000E12C20E040E060E170E080E190E00E9443
:102C600037084ACB882309F475CBEE24E39400E0BF
:102C700020E040E060E370E086E390E00E943708E7
:102C800020E040E060E370E086E090E00E943708DA
:102C9000E12C20E040E070E060E08EE190E00E94F6
:102CA00037082ACB882309F455CBEE24E39400E0BF
:102CB00020E040E06FE270E086E390E00E94370899
:102CC00020E040E06FE270E086E090E00E9437088C
:102CD000E12C20E040E070E060E08FE190E00E94B5
:102CE00037080ACB882309F407CB83EE0E94E2075A
:102CF00084E40E94E2070E94020EFECA882309F4BF
:102D0000FBCA80EE0E94E20783EE0E94E20785E0A4
:102D10000E94E2070E94020EEFCA882309F4ECCA5F
:102D200083EE0E94E20787E00E94E2070E94020E03
:102D3000E3CA882309F4E0CA80EE0E94E20783EE2A
:102D40000E94E20786E10E94E2070E94020ED4CAB6
:102D5000882309F4D1CA80EE0E94E20783EE0E9424
:102D6000E20788E00E94E2070E94020EC5CA88239B
:102D700009F4C2CA83EE0E94E20781E40E94E207DE
:102D80000E94020EB9CA882309F4B6CA80EE0E94D6
:102D9000E20783EE0E94E20780E10E94E2070E94C0
:102DA000020EAACA882309F4A7CA80EE0E94E2078D
:102DB00083EE0E94E20787E00E94E2070E94020E73
:102DC0009BCA882309F498CA80EE0E94E20783EE2A
:102DD0000E94E20784E00E94E2070E94020E8CCA71
:102DE000882309F489CA83EE0E94E2078AE30E94DD
:102DF000E2070E94020E80CA882309F47DCA83EE8E
:102E00000E94E2078BE30E94E2070E94020E74CA4E
:102E1000882309F471CA83EE0E94E20783E40E94CA
:102E2000E2070E94020E68CA882309F465CA80EE90
:102E30000E94E20783EE0E94E2078AE10E94E20715
:102E40000E94020E59CA882309F456CA61E083E041
:102E500090E00E94FF2461E070E080E090E00E943A
:102E6000B7084ACA882321F082E00E94CB0844CAEE
:102E700082E00E94FC0840CA882339F083E00E9467
:102E8000CB0881E00E94ED0A37CA83E00E94FC086B
:102E900080E00E94ED0A30CA882321F086E00E947B
:102EA000CB082ACA86E00E94FC0826CA882351F073
:102EB00081E00E94CB0881E00E94ED0A85E00E943B
:102EC000FC081ACA81E00E94FC0880E0F5CF0B31B3
:102ED0006CE5160709F442C080910E018E7F0C311B
:102EE0007CE5170709F02CC580930E01F60182815D
:102EF000882309F463C51092CD010631FCE51F0754
:102F000008F04FC102302CE5120708F40DC20E94F0
:102F1000281190933F0280933E0206313CE513074F
:102F200008F06AC102304CE5140708F058C16091FE
:102F30003E0210913F0284E090E00E94FF24612F46
:102F400081E290E00E94FF240E94020ED5C9909178
:102F50000E01892F8E7F90FF8160C6CF80910E0178
:102F60008160C2CF80910C0190910D0105979093E3
:102F70000D0180930C01BACF80910D018F93809148
:102F80000C018F9387E191E09F938F931F9288E0CC
:102F90008F93CE0101967C019F938F930E943325DE
:102FA0000FB6F894DEBF0FBECDBF3AE0432EF70157
:102FB0008081882309F49ACF813009F048C091813B
:102FC0008281913031F4F2E0EF0EF11C0E94EC0CA2
:102FD00007C0923049F422E0E20EF11C0E94E207A1
:102FE0002FEFE21AF20AE3CF933031F432E0E30E2E
:102FF000F11C0E946A08F4CF943021F04FEFE41ADC
:10300000F40AEECF52E0E50EF11C20E030E0A7011B
:103010004F5F5F4F8053990B8A30910560F0211507
:103020003105F1F28FE99FE00197F1F700C0000050
:1030300021503109F4CF429EB001439E700D1124FE
:103040009C01260F371FF70181817A01E0CFE82F1D
:10305000F0E0E85FFD4F5490282F269526952695A1
:1030600030E0F901E850FE4F64908770712C082E13
:1030700002C0759467940A94E2F791E0692277247C
:10308000F901E851FE4F8490912C082E02C09594CE
:1030900087940A94E2F7E1E08E229924F901E8523C
:1030A000FE4FA490B12C02C0B594A7948A95E2F784
:1030B000F1E0AF22BB246114710419F081EE0E948B
:1030C000E2078114910419F086EE0E94E207852D33
:1030D0000E94EC0C892819F086EE0E946A08672885
:1030E00019F081EE0E946A08AB2809F479CF8CE2CE
:1030F0006DCF0B32110509F434C4F8CE0436110536
:1031000009F42FC4043FFCE51F0799F1C8F4093DF9
:103110003CE5130741F10A3D4CE51407E1F1083D98
:103120005CE5150709F0E2CE26E241EE61EE0E9471
:103130000B0DE2C86F2D7E2DC8010E949F0ADCC8CE
:10314000063F6CE51607D9F0073F7CE51707E9F065
:10315000053F9CE5190709F0C9CE27E245EE64EE6C
:103160000E940B0DC9C827E245EE65EE0E940B0DCB
:10317000C3C826E241EE60EE0E940B0DBDC829E2F5
:1031800040E062EE0E940B0DB7C827E245EE66EE06
:103190000E940B0DB1C828E241E065EE0E940B0DC4
:1031A000ABC898012B5F3C452930310508F4AFCE00
:1031B0000631FCE51F0709F0B7C0809140028A7A0A
:1031C00091E009F490E09093CE0169E2811165E30A
:1031D0008AE791E00E9496070E9452078DC8F80185
:1031E000E350FC4580913E028160E331F10590F4AB
:1031F000EA51F84D0C94B4240B5F1C4509301105BD
:1032000008F095CE0750184DF8010C94B424809125
:103210003E02826080933E028ACE80913E028460AC
:10322000F9CF80913E028860F5CF80913F028160A6
:1032300080933F027CCE80913F028260F9CF8091E3
:103240003E028061E7CF80913E028062E3CF8091B1
:103250003E028064DFCF0E94020E80913E028068B1
:10326000D9CF80913E028C60D5CF80913F028360A0
:10327000DFCF80913E028E7FCDCF80913E028D7F49
:10328000C9CF80913E028B7FC5CF80913E02877F60
:10329000C1CF80913F028E7FCBCF80913F028D7F47
:1032A000C7CF80913E028F7EB5CF80913E028F7D49
:1032B000B1CF80913E028F7BADCF0E94020E8091F4
:1032C0003E028F77A7CF80913E02837FA3CF80916C
:1032D0003F028C7FADCF80913E0282FB992790F90F
:1032E00021E0922790FB82F990FB83F993CF8091A4
:1032F0003F02982F909591708E7F892B90FB81F9DA
:1033000097CF0E94020E90913E02892F97FB87F97A
:10331000805880CF61E08EE090E00E94FF2407CECD
:1033200060E0F9CF85E353C30115FCE51F0709F4FD
:1033300043C00F3D1C4509F45BC0F601E080F180FD
:10334000882309F459C0C7010E949006182F682FDE
:10335000C7010E943706B701812F0E9420038C010C
:10336000F601F280E580E2942FE0E2228091D8011C
:103370008770A1F09F2CFF2091F0812F807F8034F7
:1033800021F080E2800F883048F082E00E9431090D
:103390008091D8018770992493948111912C812F69
:1033A00082958F70A82EB12C8C3008F060C0F5018A
:1033B000EE5FF74D0C94B4240E94020E3FEF44E3FD
:1033C0005CE0315040405040E1F700C0000087E72A
:1033D00097E7909301088093000888E19AE00FB680
:1033E000F894A895809360000FBE90936000FFCF83
:1033F0000E94BE100C947C11C7010E946606182F13
:10340000AACFF12FFF70EF2E107F19F0E29490EF0A
:10341000E922FF20C9F0EE2069F080E2800F8830B9
:1034200010F001110BC080914002E82AE0924002A6
:103430000E945207802F0E94E20719C08091D90193
:10344000E82AE092D901F4CF802F0E946A08EE208A
:1034500071F0E09480E2800F883010F0011141C0DB
:1034600080914002E822E09240020E945207E8E088
:10347000AE1AB108F4E0AF16B10410F40E94F505DD
:103480009920A9F08091D80180FD11C0F601128227
:103490008595859585950E94CB08C6010E943611B9
:1034A0008091D8018595859585950E94FC0860E0FE
:1034B000C6012C960FB6F894DEBF0FBECDBFDF91CC
:1034C000CF911F910F91FF90EF90DF90CF90BF9021
:1034D000AF909F908F907F906F905F904F900C94E3
:1034E000D2068091D901E822E092D901BECF212FE6
:1034F0002F70822E107F103219F0829480EF882274
:10350000002369F0013061F1FF20B9F1EE2071F183
:10351000F601858180FF8ECF8F70858327C0FF20C5
:1035200091F09091CF01882D892BE11003C00E946A
:103530007F079DCF31E0E312FACF891709F497CFC7
:103540008093CF0194CFE11006C00E944C07882DD4
:103550000E9489078CCF41E0E41609F488CFF5CFAB
:10356000FF2031F055E05E1508F481CF882DDFCFC4
:1035700064E06E1508F47BCFEACFEE2041F3093307
:1035800049F4FFEF17EE23E0F15010402040E1F73F
:1035900000C00000802F0E946A0869CF812F8695A5
:1035A0008695837061F0813009F061CFC801937016
:1035B000F11002C090E080E00E94170658CFC801C9
:1035C0009370F11002C090E080E00E9401064FCF9E
:1035D000802FFF2029F00E9440050E94BC0747CFA2
:1035E0000E949505FACF812F837009F07AC0F110FF
:1035F0003ECF202F229526952770220F220F402F95
:103600004F7050E070E060E0022E04C0440F551F80
:10361000661F771F0A94D2F780E090E0DC0104FF78
:103620000FC08FE090E0A0E0B0E004C0880F991FC9
:10363000AA1FBB1F2A95D2F780959095A095B095AB
:10364000E12FE695E695E370E23059F1E33009F4B5
:1036500041C00091D0011091D1012091D20130914F
:10366000D301E13099F0842B952BA62BB72BAC011D
:10367000BD01402351236223732349875A876B87F7
:103680007C87CB01BA010E94B708F1CE042B152B21
:10369000262B372BB901A801482B592B6A2B7B2BE2
:1036A000ECCF842B952BA62BB72B4091D0015091BA
:1036B000D1016091D2017091D3018C019D01042749
:1036C00015272627372709871A872B873C87C901A3
:1036D000B801D9CF8A019B01082B192B2A2B3B2B30
:1036E000F2CFFF2009F44DC010FFC1CE202F22954C
:1036F00026952770220F220F402F4F7050E070E068
:1037000060E0022E04C0440F551F661F771F0A9405
:10371000D2F780E090E0DC0104FF0FC08FE090E082
:10372000A0E0B0E004C0880F991FAA1FBB1F2A9514
:10373000D2F780959095A095B095E12FE695E69506
:10374000E370E23061F1E33009F444C00091D40148
:103750001091D5012091D6013091D701E130A1F02F
:10376000842B952BA62BB72BAC01BD0140235123F5
:103770006223732349875A876B877C87CB01BA0101
:1037800026C011FF74CEB2CF042B152B262B372B5E
:10379000B901A801482B592B6A2B7B2BEBCF842B2B
:1037A000952BA62BB72B4091D4015091D501609158
:1037B000D6017091D7018C019D010427152726277A
:1037C000372709871A872B873C87C901B8010E94D0
:1037D000C1084DCE8A019B01082B192B2A2B3B2BAC
:1037E000F0CF1F70FF2029F0812F0E94CB08802F7F
:1037F0009ECE802F0E948907812F0E94FC0837CE21
:10380000023FB9F160F4003FE9F0013F59F1FF20B8
:1038100009F454C0E1100ECE812F8F7127C0033FF1
:1038200069F1043FA1F7FF20F1F11F71812F0E9480
:10383000CB0858E0159FC001112483608093D80104
:10384000812F14C0FF2049F024E02E1508F40FCE7C
:10385000812F8F710E9449090ACE35E03E1508F488
:1038600006CEF6CF812F8F71FF2039F20E94CB0850
:10387000FECD812F8F71FF20C9F3BFCF60E070E0D4
:10388000CB01FF2009F4A3CF1F7181E090E0A0E0FD
:10389000B0E0AC01BD0104C0440F551F661F771F87
:1038A0001A95D2F767CF81E00E94310961E06E1569
:1038B00008F0DDCD82E00E943109D9CDEE2059F02B
:1038C000093309F067CE7FEF87EE93E071508040B7
:1038D0009040E1F75DCE812F8F718FCF0E94B007AE
:1038E000F82EE92EF6018281882351F180910E0194
:1038F00082FF06C06F2D7E2D90E080E00E949F0A1F
:103900008091D9018D7F8093D9010A31FCE51F0791
:1039100009F41DCB08F0DBCA08313CE5130709F4B4
:1039200021CB09314CE5140709F426CB80910C0119
:1039300090910D01059607315CE5150709F417CB49
:10394000F60182810933110508F0D8CB0D3211053B
:1039500040F40E31110508F0CCCB0430110508F409
:10396000C5CA882309F4E6CB80910E0180FFBECA48
:10397000909140029111BACA109328020093270235
:10398000F0922902E0922A02846080930E0182E084
:103990000E9431090C947C1161E0C6010E94D2069C
:1039A0008C01F6018281F801E45CFC45E13CF10503
:1039B00008F094CFE25FF74D0C94B42406311C4517
:1039C00009F0BBCC8091CE018111ACCC89E20E9480
:1039D0003F0702CC1F93CF93DF9380911102807F2A
:1039E000A9F480910E02882389F08091DB01C091B7
:1039F000DA0170910C0260910D02A0910F02B0915A
:103A00001002D62FD72316E0C81304C0DF91CF9140
:103A10001F91089590E0109711F0DF3F19F401967F
:103A20008770F2CF189F9001199F300D1124F90172
:103A3000E452FE4F41816413F2CF40814713EFCF30
:103A400042814111ECCF438154814A1B5B0B4C32C4
:103A5000514028F7809111028F708061809311028C
:103A6000F901EF51FE4F80818F70806180838CE07F
:103A700092E00E943611DF91CF911F910C942D0698
:103A8000AF92BF92CF92DF92EF92FF920F931F936C
:103A9000CF93DF93CDB7DEB72B970FB6F894DEBF89
:103AA0000FBECDBF8C0185E0F801DE0117960190B5
:103AB0000D928A95E1F7F801E2808CE0A82E82E071
:103AC000B82E60910F02709110026115710549F0D6
:103AD00090910C0240910D02892F84238F3F09F0B1
:103AE0001DC1EE2009F42CC18F8198850E94120718
:103AF000F82E882309F424C186E0F801ACE0B2E096
:103B000001900D928A95E1F780910C0290910D023F
:103B10000E9406070E94EA1C1DC080911102582FC6
:103B2000507F6C32714008F078C0511194C0FE2C67
:103B3000241322C0931320C0E1101EC08F70806137
:103B4000809311028CE092E00E9436118091110264
:103B5000F80185838F2D2B960FB6F894DEBF0FBE2C
:103B6000CDBFDF91CF911F910F91FF90EF90DF902C
:103B7000CF90BF90AF900895CD2829F0822F832356
:103B80008F3F09F065C080E0F82FF170DF2EE091E3
:103B9000DB014091DA0156E080FD1CC0EE20D1F23D
:103BA00080911102816080931102F12CD3CF8E2F6E
:103BB00090E05E9FF0011124E452FE4F61812613D4
:103BC00006C06081361303C062816E11E7CFFC012D
:103BD0003196E770E413EBCF8F8198850E9406073A
:103BE000292F22952F70903260F0225F2F702230A3
:103BF00078F49F7051F0F8019581907F31F4D12CC9
:103C00000AC09F7011F08823D1F3805E8830B8F32A
:103C1000C8010E943611FD2C9DCF51114DC08CE082
:103C200092E00E94361186E0F50111928A95E9F73B
:103C3000BCCF8F8198850E941207811130C080917E
:103C40001102816080931102C8010E94361182CF57
:103C500081E08E2599CF241306C0931304C0F80188
:103C6000EE2009F44EC08F8198850E9412078823A8
:103C700009F466C0EE2009F463C08091110280321D
:103C800070F020910C0230910D023A8329831B823F
:103C9000DD82CC828E83CE0101960E94361186E0B1
:103CA000F801ACE0B2E001900D928A95E1F70E9434
:103CB000EA1CFF24F3944ECF2413D5CF9313D3CF14
:103CC000E110D1CFF8018583C8010E94361186E04A
:103CD000F50111928A95E9F73DCF2413AACF9313EA
:103CE000A8CF8091110280FD10C0982F907F69F0BD
:103CF000F8018583903F31F0982F907F905F8F700F
:103D0000892B8583C8010E94361186E0F801ACE05A
:103D1000B2E001900D928A95E1F71CCF30812181AC
:103D2000C380D480F0900E02F601E61BF70BBF01B2
:103D3000F110F3CE6C32714050F6FE2CE110CDCF75
:103D4000C8010E943611B5CF1F93CF93DF93CDB733
:103D5000DEB767970FB6F894DEBF0FBECDBF4B8BB3
:103D60005C8B962F6D8B7E8B8F8B61111092D9019E
:103D70001A8A85E0FE017396DE011D9601900D9270
:103D80008A95E1F79F8786E0FE013D96DE01179652
:103D900001900D928A95E1F7CE0107960E94401D91
:103DA000882389F016E08091DB019091DA01891374
:103DB00049C067960FB6F894DEBF0FBECDBFDF9146
:103DC000CF911F91089586E0FE013796DE0111968E
:103DD00001900D928A95E1F78A859B85892B11F3D5
:103DE0008F81988589238F3FE9F22091DA0130E0B5
:103DF000C9010196877099274091DB014817190680
:103E000071F40E94020E1092DA011092DB0186E03A
:103E1000ECE0F2E0DF011D928A95E9F7C3CF96E06E
:103E2000929FD001939FB00D1124A452BE4FFE016A
:103E3000319601900D929A95E1F78093DA010E94F4
:103E40002D06B0CF819FC001112484529E4F0E9445
:103E5000401D882309F4ADCF8091DB0190E00196ED
:103E6000877099278093DB019ECF1F921FB61F9208
:103E700011248F939F93AF93BF938091AD018111D4
:103E800013C08091A9019091AA01A091AB01B091BA
:103E9000AC014196A11DB11D8093A9019093AA0187
:103EA000A093AB01B093AC01BF91AF919F918F9163
:103EB0001F901FBE1F90189578941F921FB61F92D7
:103EC00011248F939F93AF93BF938091A9019091F9
:103ED000AA01A091AB01B091AC010196A11DB11D49
:103EE0008093A9019093AA01A093AB01B093AC0178
:103EF000BF91AF919F918F911F901FBE1F901895FA
:103F0000CF92DF92EF92FF92CF93DF9300D000D059
:103F1000CDB7DEB76B017C010E94AD0B81110EC0E5
:103F20000E947A09C61AD70AE80AF90AC092A501BE
:103F3000D092A601E092A701F092A8010F900F90F5
:103F40000F900F90DF91CF91FF90EF90DF90CF9087
:103F50000895CF93DF9300D000D0CDB7DEB70E9495
:103F6000AD0B882341F00F900F900F900F90DF91D1
:103F7000CF910C947A090E947A0969837A838B83A2
:103F80009C838091A5019091A601A091A701B09179
:103F9000A80129813A814B815C81280F391F4A1F72
:103FA0005B1FCA01B9010F900F900F900F90DF9126
:103FB000CF910895CDB7DEB72F970FB6F894DEBF37
:103FC0000FBECDBF84B7877F84BF0FB6F894A89586
:103FD00080916000886180936000109260000FBE45
:103FE00080E890E00FB6F8948093610090936100B0
:103FF0000FBE85B7806885BF85B7806885BF84E9B7
:1040000097E090937901809378010E94560A0E946C
:104010004C0B8091E20084608093E2007894809160
:104020009B018823A1F01091E9001F709091EC0092
:10403000892F817090FD80E8182B1092E900809103
:10404000E80083FD0E94060E1F701093E90082E0D5
:1040500084BD93E095BD9AEF97BD80936E0010925A
:10406000A5011092A6011092A7011092A8010E942A
:10407000AD0B91E08927809300010E94AD0B811167
:104080000E94F622809100018091000194E081114C
:1040900090E09093350284E0891B80932B0284E9A1
:1040A0000E94AC0486E60E94AC0487E90E94AC043E
:1040B00086EC0E94AC0484EF0E94AC0485EF0E9461
:1040C000AC0486EF0E94AC0487EF0E94AC0481E34D
:1040D0000E94AC0483E30E94AC0488E0E6E3F2E0D3
:1040E000DF01282F1D922A95E9F7EDE2F2E0DF01CA
:1040F0001D928A95E9F790E080E00E94F9248B3EBA
:104100009E4F11F00E94BE100E94AD0B811102C0A3
:104110000E94FC2290E080E00E94F9248B3E9E4F9A
:1041200011F00E94BE1082E090E00E94F124809382
:1041300091010E94281190933F0280933E0283E0F8
:1041400090E00E94F124282F30E050E040E02C87DE
:104150003D874E875F87CA01B9010E94B70881E099
:1041600091E0909317028093160248E1C42ED12C5F
:1041700050E4852E65E3A62E62E0B62E70E1972E00
:10418000AE014F5F5F4F7A0180919B0112E1853054
:1041900009F4D6C00E94CA0B81110E947A09EDE28F
:1041A000F2E0A2E9B1E010E000E0402E61908D91D4
:1041B000861509F4D4C08625512C77247394972D45
:1041C000982309F4C7C00E94AD0B882399F0598247
:1041D0004A82672081E009F480E08B830E94B00767
:1041E0008160782F9D838C8349815A816B818D8179
:1041F0000E94A41EF801EE56FE4F80817826708240
:1042000086E0ECE1F2E0D70101900D928A95E1F7AA
:1042100040901E0250901F02609020027090210278
:1042200010921E0210921F02109220021092210280
:10423000842D85298701B1F080911A0290911B028B
:104240000E949A09E0912202F0E0EE0FFF1FEC5D60
:10425000FE4F208131812817390720F440921E0239
:1042600050921F02862D8729B1F0809118029091FB
:1042700019020E949A09E0912202F0E0EE0FFF1F5E
:10428000E45EFE4F208131812817390720F46092C7
:1042900020027092210280911E0290911F02892BB0
:1042A00090912002892B90912102892B11F00E947C
:1042B000BC0786E0F801ACE1B2E001900D928A956E
:1042C000E1F70E94F50590919001891709F45CCF00
:1042D0000E94F5058093900157CF80919B01843017
:1042E00009F11092AD010FB6F894A895C092600044
:1042F0000FBE8092600083B7817F846083BF83B7E5
:10430000816083BF7894889583B78E7F83BF0FB613
:10431000F894A89580916000886180936000109265
:1043200060000FBE80919A01882351F00E94CA0B51
:10433000EDE2F2E08191811129C0AE16BF06D1F7FE
:1043400080919B01853009F4C8CF0E94020E0E9423
:10435000F50520CF5394770C56E0551230CF0F5F00
:104360001F4F0830110509F020CF8FEF8F8388870A
:1043700019860E94B0078160782F9B878A874F81BA
:10438000588569858B850E94A41E3ACF99BC19BDBA
:1043900009B400FEFDCF8091D8008F7D8093D800B6
:1043A0008091E00082608093E0008091E00081FDD8
:1043B000FCCF0E94020EC4CF1F920F920FB60F9235
:1043C00011242F933F934F935F936F937F938F931A
:1043D0009F93AF93BF93EF93FF938091E10082FF90
:1043E00009C08091E20082FF05C08091E1008B7FCF
:1043F0008093E1008091DA0080FF24C08091D80092
:1044000080FF20C08091DA008E7F8093DA00809157
:10441000D90080FF99C080E189BD82E189BD09B4DE
:1044200000FEFDCF81E080939B0180918701811187
:1044300009C00E94560A0E944C0B8091E2008460E1
:104440008093E2008091E10080FF17C08091E2003C
:1044500080FF13C08091E2008E7F8093E200809104
:10446000E20080618093E2008091D80080628093B6
:10447000D80019BC85E080939B018091E10084FF06
:1044800027C08091E20084FF23C080E189BD82E1E2
:1044900089BD09B400FEFDCF8091D8008F7D809347
:1044A000D8008091E1008F7E8093E1008091E2004E
:1044B0008F7E8093E2008091E20081608093E20031
:1044C00080918601882309F445C084E080939B0194
:1044D0008091E10083FF27C08091E20083FF23C029
:1044E0008091E100877F8093E10082E080939B01CF
:1044F000109286018091E1008E7F8093E10080918F
:10450000E2008E7F8093E2008091E20080618093E0
:10451000E20042E060E080E00E941C0B8091F0002D
:1045200088608093F000FF91EF91BF91AF919F91D0
:104530008F917F916F915F914F913F912F910F904C
:104540000FBE0F901F90189519BC10929B011092EE
:10455000870178CF8091E30087FD02C081E0B6CF6C
:1045600083E0B4CF1F920F920FB60F9211242F93B6
:104570003F934F935F936F937F938F939F93AF93EB
:10458000BF93CF93DF93EF93FF93D091E900DF7058
:104590008091EC00C82FC17080FDC0E81092E90046
:1045A0008091F000877F8093F00078940E94060E3F
:1045B0001092E9008091F00088608093F000CD2B8C
:1045C000CF70C093E900FF91EF91DF91CF91BF9140
:1045D000AF919F918F917F916F915F914F913F919B
:1045E0002F910F900FBE0F901F90189561E070E013
:1045F0008FE091E00C94C62361E070E08FE091E0E1
:104600000C94CD23CF93DF9300D000D00F92CDB781
:10461000DEB76D8379830E9467249C0180E02115B9
:104620003105E1F4ED81F981D901A95BBD4F8C9190
:1046300081932F5F3F4F24303105B1F70E94A91FAE
:10464000DC01CB010296A11DB11D80934302909322
:104650004402A0934502B093460281E00F900F9070
:104660000F900F900F90DF91CF910895CF93DF932C
:1046700000D000D000D0CDB7DEB76E837D838091AF
:10468000430290914402A0914502B0914602898371
:104690009A83AB83BC83BC01CD010E94801FEE8155
:1046A000FD8190E080E02191DC01A95BBD4F2C935E
:1046B000019684309105B9F726960FB6F894DEBFBF
:1046C0000FBECDBFDF91CF9108958EE14A9B02C00E
:1046D0008150E1F74A9BFECF08955A9880E28A956F
:1046E000F1F75A9A0895FC013BE03A95F1F798E00A
:1046F00020E080E031E040E14A95F1F7880F4A9BE5
:1047000002C08160232742E04A95F1F7000040E1B2
:104710004A95F1F7915079F790E19A95F1F799B1AF
:1047200032E03A95F1F7000040E14A95F1F792FB4B
:10473000992790F992272081920F90830895EF9204
:10474000FF920F931F93CF93DF930F92CDB7DEB7F6
:1047500019828C017C01E60EF11C0E151F0561F417
:1047600081E09981911180E00F90DF91CF911F91AD
:104770000F91FF90EF9008950E946523CE0101965E
:104780000E947323F80181938F01E7CF90934C022D
:1047900080934B02529A5A9A089590934C028093B8
:1047A0004B0252985A9AEA9AE9E6F0E080818F7CAF
:1047B000808308956150770B91E001C0990F6A954D
:1047C000EAF720E031E0911108C0222391F05A9AD3
:1047D00080E28A95F1F75A980895492F482339F0D5
:1047E0005A9A232740E24A95F1F79695ECCF5A98CA
:1047F000F9CF5A98EDCFFF920F931F93CF93DF938A
:10480000EC018C01060F111DC017D10731F4DF91A7
:10481000CF911F910F91FF900895F9900E946D2301
:1048200068E08F2D0E94DA23EFCF1F920F920FB610
:104830000F9211242F933F934F935F936F937F9326
:104840008F939F93AF93BF93CF93DF93EF93FF9398
:104850005A98529AC0914B02D0914C026D816623B6
:1048600021F08E819F810E94FB230E946D2380E1B5
:104870008A95F1F75A9852985A9A80E18A95F1F7F9
:104880006A81662309F18B819C810E949F23E881C4
:10489000F981882311F088E001C082E080830E94C2
:1048A0006523FF91EF91DF91CF91BF91AF919F91E0
:1048B0008F917F916F915F914F913F912F910F90C9
:1048C0000FBE0F901F901895E881F981E4CFCF9328
:1048D000DF93C0914B02D0914C02F894529A5A98AF
:1048E00085E08A95F1F7000052985A9A80E28A95FD
:1048F000F1F74A9B0CC0529A5A9AE881F98181E0FB
:104900008083789481E090E0DF91CF9108956D816C
:10491000662381F08E819F810E949F2381110AC0AE
:10492000529A5A9AE881F98182E08083789482E0F1
:1049300090E0EACF0E94652380E28A95F1F75A98C9
:10494000529A80E18A95F1F76A81662321F08B8182
:104950009C810E94FB230E946D23E881F9811082D3
:10496000789490E080E0D0CFEE0FFF1F0590F49197
:10497000E02D09942F923F924F925F926F927F9217
:104980008F929F92AF92BF92CF92DF92EF92FF925F
:104990000F931F93CF93DF93CDB7DEB7CA1BDB0B0B
:1049A0000FB6F894DEBF0FBECDBF09942A883988B0
:1049B00048885F846E847D848C849B84AA84B984B7
:1049C000C884DF80EE80FD800C811B81AA81B981C3
:1049D000CE0FD11D0FB6F894DEBF0FBECDBFED01D7
:1049E0000895F999FECF92BD81BDF89A992780B5B7
:1049F0000895A8E1B0E042E050E00C942525262F70
:104A0000F999FECF92BD81BDF89A019700B40216C4
:104A100039F01FBA20BD0FB6F894FA9AF99A0FBE72
:104A200008950396272F0E9400250E94FF24252F1A
:104A30000E940025242F0C9400250196272F0E9408
:104A400000250C94FF24DC01CB01FC01F999FECF79
:104A500006C0F2BDE1BDF89A319600B40D92415006
:104A60005040B8F70895AEE0B0E0E9E3F5E20C9409
:104A7000C8240D891E898F89988D26E02C831A837E
:104A8000098397FF02C080E090E801979E838D83A1
:104A9000AE01455E5F4F698D7A8DCE0101960E9411
:104AA00063254D815E8157FD0AC02F8138854217ED
:104AB00053070CF49A01020F131FF80110822E966F
:104AC000E4E00C94E424AFE0B0E0E9E6F5E20C9415
:104AD000BA247C013B018A01DC0117961C921E92CC
:104AE000169713968C9181FFBEC19AE0292EFE0184
:104AF00031964F01D70113969C91F30193FD859157
:104B000093FF81913F01882309F444C1853239F430
:104B100093FD859193FF81913F01853229F4B7017F
:104B200090E00E944C27E6CFB12C412C512CBFE1E4
:104B3000B51538F08B3209F188F4803201F18332F7
:104B400021F157FC3AC020ED280F2A3040F556FEDF
:104B50001FC0B29C200D1124B22E06C08D3291F0E0
:104B6000803379F7689450F8F30193FD859193FFB2
:104B700081913F018111DBCF20C0689451F8689486
:104B800052F8F2CF689453F8EFCF689454F8ECCF12
:104B9000429C200D1124422E689455F8E5CF8E32A8
:104BA00029F456FCF7C0689456F8DECF8C3619F419
:104BB000689457F8D9CF8836B9F2982F9F7D9554CD
:104BC0009330C0F08336A1F18337C1F1833509F00A
:104BD0005BC0D801CD90DD908D016B2D70E056FC4F
:104BE00002C06FEF7FEFC6010E9436275C01689418
:104BF00057F80AC00C5F1F4FEFE3E983AA24A39480
:104C0000B12C6401E89457F853FC04C04A141B0407
:104C100009F018F5342CA114B10431F5332009F44E
:104C200069CFB70180E290E00E944C273A94F6CF1A
:104C3000D8018C9189830E5F1F4FE0CFF801C1909E
:104C4000D1908F016B2D70E056FC02C06FEF7FEFAB
:104C5000C6010E9441275C01D5CFB70180E290E0F8
:104C60000E944C274A94D2CFF60157FC859157FEFB
:104C700081916F01B70190E00E944C2731103A9466
:104C8000B1E0AB1AB108C7CF843619F0893609F004
:104C900071C0F80157FE67C0619171918191919146
:104CA0008F01E52DEF76DE2E97FF09C09095809558
:104CB000709561957F4F8F4F9F4F6894D7F82AE08A
:104CC00030E0A4010E947C27C82EC818AC2C5D2CB3
:104CD000D6FE0CC0E89450F8CB1440F4D4FE05C0C6
:104CE000D2FC03C05D2D5E7E552EAB2C54FE93C0CE
:104CF000FE01EC0DF11D8081803309F085C0652D2A
:104D0000697E562E752D7870372E53FC93C050FE59
:104D10008DC0BC2CA41410F4B40CBA1854FE90C06E
:104D2000B70180E390E00E944C2752FE07C088E75D
:104D300051FC88E590E0B7010E944C27CB1408F4A1
:104D40008BC0CA94D12C8FEFC81AD80AC80CD91CB2
:104D5000D6018E916D01B70190E00E944C278C1412
:104D60009D04B1F75BCF61917191072E000C880B08
:104D7000990B96CFD52CE894D4F82AE0853729F101
:104D8000F52DF97FDF2E8037A1F058F48835A1F09A
:104D90008F36D1F0F701868197812F96E2E10C944E
:104DA000D6248837B9F7D4FE02C06894D2F820E13F
:104DB0000CC06894D4F8F7CF54FE03C02F2F2660A0
:104DC000D22E20E132E002C028E030E0F801D7FE28
:104DD00015C041915191619171914C875D876E87AA
:104DE0007F878F01A4016C857D858E859F850E94BC
:104DF0007C27C82EC818E894D7F868CF8191919184
:104E0000AC0170E060E0E9CF52FC02C0A3947ACF1D
:104E1000A394A39477CF852D867809F473CFF6CF2A
:104E2000B70180E290E00E944C27A394A414C0F341
:104E3000312C74CF342C3A18A41408F46FCFF8CF67
:104E4000852D867809F47ACF8BE251FE80E257FCFB
:104E50008DE2B70190E070CFB70180E390E00E944F
:104E60004C27BA946BCF8FEF9FEF97CFFC01059043
:104E7000615070400110D8F7809590958E0F9F1F5C
:104E80000895FC016150704001900110D8F78095A1
:104E900090958E0F9F1F08950F931F93CF93DF93CD
:104EA000182F092FEB018B8181FD09C01FEF0FEF38
:104EB000812F902FDF91CF911F910F91089582FF45
:104EC00014C02E813F818C819D81281739073CF4C5
:104ED000E881F981CF0101969983888310838E81BF
:104EE0009F8101969F838E83E3CFE885F985812F8B
:104EF0000995892BA1F3DACFFA01AA27283051F1BD
:104F0000203181F1E8946F936E7F6E5F7F4F8F4FFA
:104F10009F4FAF4FB1E03ED0B4E03CD0670F781F59
:104F2000891F9A1FA11D680F791F8A1F911DA11D3E
:104F30006A0F711D811D911DA11D20D009F4689477
:104F40003F912AE0269F11243019305D3193DEF61F
:104F5000CF010895462F4770405D4193B3E00FD0D5
:104F6000C9F7F6CF462F4F70405D4A3318F0495DC0
:104F700031FD4052419302D0A9F7EACFB4E0A695A3
:104F80009795879577956795BA95C9F700976105C5
:104F9000710508959B01AC010A2E0694579547951B
:104FA00037952795BA95C9F7620F731F841F951F10
:104FB000A01D0895F894FFCFE70E0F0FA6100F0F56
:104FC000A610420F630FA61061106E1007190D197D
:104FD00011191F19231927192B19311939193D19BD
:104FE000411945195119551959195D196319811933
:104FF0006B1915191B1949194D19351967197719A5
:105000008A199019011A011A771A771ACE1AE81A12
:10501000371A371AF31AF11B001C001C7C116E1C86
:105020006E1C6E1C6E1C6E1C6E1C6E1C6E1C6E1C30
:105030006E1C6E1C6E1C6E1C6E1C6E1C6E1C6E1C20
:105040006E1C6E1C6E1C6E1C6E1C6E1C6E1C6E1C10
:105050006E1C6E1C6E1C6E1C6E1C6E1C6E1C6E1C00
:105060006E1C6E1C6E1C6E1C6E1C6E1C6E1C6E1CF0
:105070006E1C6E1C6E1C6E1C6E1C6E1C6E1C6E1CE0
:105080006E1C6E1C6E1C6E1C6E1C6E1C6E1C6E1CD0
:105090006E1C6E1C6E1C6E1C6E1C6E1C6E1C6E1CC0
:1050A0006E1C6E1C6E1C6E1C6E1C6E1C6E1C6E1CB0
:1050B0006E1C6E1C6E1C6E1C6E1C6E1C6E1C6E1CA0
:1050C0006E1C6E1C6E1C6E1C6E1C6E1C6E1C6E1C90
:1050D0006E1C6E1C6E1C6E1C6E1C6E1C6E1C6E1C80
:1050E0006E1C6E1C6E1C2317561732173C176E1C55
:1050F0006E1C5E174C176E1C56176E1C72119D119C
:10510000AD11BB11C711D311DF11EB11F711031250
:105110000F121B122A1239124512541263126F1207
:105120007B128A129612A512B112BD12C912D812A0
:10513000E51201130F131E132C133A1348135613C1
:1051400065137413821390139F13BC13AD13CB1309
:10515000DA13E813F6130414131422143114401450
:105160005E147C149A14B814D614F4141215301565
:105170004E156C158A15A815C615E415521632166B
:1051800002161A1672167E168D169916A816B716DE
:0E519000C316D216E116F016FC1608171417F7
:10519E0001A9096F0D9F0DF10DF50D01AF00014233
:1051AE00020443020447020A25640A00280068012B
:1051BE007800140010002000100010000100010003
:1051CE00010001000600010002000400946697C66B
:1051DE0000000000F4F5F6F73133E200E900EA00D2
:1051EE00B500B600B700CD008301CC008A01920154
:1051FE0094012102230224022502260227022A02FA
:08520E00B300B4006F00700052
:00000001FF
