:100000000C94B8040C94FF040C94FF040C94482442
:100010000C94FF040C94FF040C94FF040C94FF0454
:100020000C94FF040C94FF040C944F0D0C94D3110A
:100030000C94701E0C94FF040C94FF040C94FF04A9
:100040000C94FF040C94FF040C94FF040C94FF0424
:100050000C94FF040C94260E0C94FF040C94FF04E3
:100060000C94FF040C94FF040C94FF040C94FF0404
:100070000C94FF040C94FF040C94FF040C94FF04F4
:100080000C94FF040C94FF040C94FF040C94FF04E4
:100090000C94FF040C94FF040C94FF040C94FF04D4
:1000A0000C94FF040C94FF040C94FF0400AF00AE0A
:1000B0000000000000000000000000000000000040
:1000C0000000000000000000000000000000000030
:1000D000000000007E0F00D4FFFFFFC70000007883
:1000E00000000000000000002A2B28000000000093
:1000F00000000000000000000000002900000000D7
:100100002C1E3420212224342627252E362D373844
:10011000271E1F202122232425263333362E37384D
:100120001F0405060708090A0B0C0D0E0F1011120B
:10013000131415161718191A1B1C1D2F3130232DD7
:10014000350405060708090A0B0C0D0E0F101112D5
:10015000131415161718191A1B1C1D2F3130354C86
:100160002B0014001A00080015001700E00004001E
:100170001600070009000A00E1001D001B00060030
:1001800019000500000000000000E30001512C00F0
:100190002A00130012000C0018001C003400330069
:1001A0000F000E000D000B0029003800370036004C
:1001B00010001100000000000000E60002512800BD
:1001C0002B001E001F00200021002200E000000084
:1001D0000000000000000000E1000000000000003E
:1001E00000000000000000000000E30001002C00FF
:1001F0002A0027002600250024002300000000001C
:100200004F005200510050000000000000000000AC
:1002100000000000000000000000E600035128007C
:100220002B001E021F02200221022202E000000019
:100230000000000000000000E100000000000000DD
:1002400000000000000000000000E30003512C004B
:100250002A0027022602250224022302350031004B
:1002600030002F002E002D003502310230022F0207
:100270002E022D02000000000000E6000100280010
:1002800000DA0281FFD9F1DB20A4A62EAF00A0C0C6
:1002900000A1C800AED580A81FD300408D14200057
:1002A000808182838485868788898A8B8C8D8E8FD6
:1002B0009091929394A0A1A2A3A4A5A6A7A8A9AA4D
:1002C000ABACADAEAFB0B1B2B3B4C0C1C2C3C4C5C4
:1002D000C6C7C8C9CACBCCCDCECFD0D1D2D3D4001B
:1002E00041646A757374005261697365004C6F777D
:1002F00065720044656661756C74004C6179657265
:100300003A200005010902A10185020901A10005A9
:1003100009190129081500250195087501810205B3
:1003200001093009311581257F950275088106097B
:10033000381581257F950175088106050C0A38025C
:100340001581257F950175088106C0C005010980CA
:10035000A101850319012AB700150126B7009501EF
:1003600075108100C0050C0901A101850419012A3D
:10037000A002150126A002950175108100C005019B
:100380000906A101050719E029E7150025019508CF
:10039000750181029501750881010507190029FF82
:1003A000150026FF0095067508810005081901292A
:1003B00005950575019102950175039101C009022A
:1003C0003B00020100A0FA09040000010301010042
:1003D0000921110100012240000705810308000ADC
:1003E000090401000103000000092111010001229C
:1003F0007B000705820320000A12011001000000A3
:1004000008534601000100010200010C0343006F84
:100410000072006E0065000000100366006F006F40
:10042000007300740061006E000000040309040002
:1004300000000000003E5B4F5B3E003E6B4F6B3E9A
:10044000001C3E7C3E1C00183C7E3C18001C577D66
:10045000571C001C5E7F5E1C0000183C180000FF4B
:10046000E7C3E7FF00001824180000FFE7DBE7FF01
:100470000030483A060E00262979292600407F05DB
:10048000050700407F05253F005A3CE73C5A007FA6
:100490003E1C1C0800081C1C3E7F0014227F2214F6
:1004A000005F5F005F5F0006097F017F00006689D3
:1004B000956A0060606060600094A2FFA2940008EA
:1004C000047E04080010207E20100008082A1C0862
:1004D00000081C2A0808001E10101010000C1E0C2A
:1004E0001E0C0030383E383000060E3E0E0600006E
:1004F000000000000000005F00000000070007008F
:1005000000147F147F1400242A7F2A12002313086A
:1005100064620036495620500000080703000000BE
:100520001C224100000041221C00002A1C7F1C2AC2
:100530000008083E08080000807030000008080825
:100540000808000000606000002010080402003E5F
:100550005149453E0000427F4000007249494946EA
:10056000002141494D33001814127F1000274545E2
:100570004539003C4A4949310041211109070036FB
:100580004949493600464949291E00000014000027
:10059000000040340000000008142241001414142C
:1005A0001414000041221408000201590906003EFB
:1005B000415D594E007C1211127C007F4949493639
:1005C000003E41414122007F4141413E007F494977
:1005D0004941007F09090901003E41415173007FF3
:1005E0000808087F0000417F4100002040413F0192
:1005F000007F08142241007F40404040007F021CE1
:10060000027F007F0408107F003E4141413E007F91
:1006100009090906003E4151215E007F091929465A
:100620000026494949320003017F0103003F404051
:10063000403F001F2040201F003F4038403F0063E4
:1006400014081463000304780403006159494D43FE
:1006500000007F4141410002040810200000414198
:10066000417F00040201020400404040404000007D
:1006700003070800002054547840007F2844443881
:1006800000384444442800384444287F00385454F7
:1006900054180000087E0902001824241C78007FEA
:1006A000080404780000447D4000002040403D00E4
:1006B000007F102844000000417F4000007C047847
:1006C0000478007C08040478003844444438007CF2
:1006D0001824241800182424187C007C080404081A
:1006E0000048545454240004043F4424003C404037
:1006F000207C001C2040201C003C4030403C00443A
:1007000028102844004C9090907C004464544C4441
:10071000000008364100000000770000000041366C
:100720000800000201020402003C2623263C0000CF
:10073000000000000000000000000000000000C0F9
:10074000E0F0F8F81800C0F0FCFEFFFFFFFFFFFF2D
:10075000FF7E00000000000000000080C0E0E0E03C
:10076000E0E0E0E0E0C0800000000080C0E0E0E009
:10077000E0E0E0E0E0C080000000E0E0C0C0E0E0D9
:10078000E0E00000E0E0C0C0E0E0E0E0E0C08000C9
:1007900000000080C0E0E0E0E0E0E0E0E0C08000D9
:1007A00000000000000000000000000000E0F0F089
:1007B000F0E0ECEEF7F37020007C7C7C7E007E7E27
:1007C0007E7F7F7F000080C0E07E5B4F5BFEC000CD
:1007D00000C000DCD7DEDEDED7DC00C00000000099
:1007E0000000000000000000000000000000000009
:1007F0000000000000000000F8FCFEFFE000FFFF2A
:10080000FFFFFFFF80FFFFFFFFFFFFFFFFFF1F074F
:1008100001000000000000000000FFFFFF81000059
:100820000000000081C3C3C30000FFFFFF81000080
:100830000000000081FFFFFF0000FFFFFF0100003C
:1008400000000000FFFFFF010000000001FFFFFFAC
:100850000000FFFFFF9D1C1C1C1C1C1C9DDFDFDF1C
:10086000000000000000000000000000000F1F3F1B
:100870007F7F7F7F7F3F1E0C001F1F1F3F003F3F7A
:100880003F7F7F7F00307B7F7830202030787F3B38
:100890000003000F7F0F0F0F7F0F00030000000009
:1008A0000000000000000000000000000000000048
:1008B0000000000000000000030F1F3F3F3F3F1FEC
:1008C0001F3F3F7F7F7F3F3F1F3F7F7F7F7F7C7842
:1008D00078381C0F00000000000000010307070724
:1008E00007070707070301000000000103070707C8
:1008F00007070707070301000000070707000000BC
:1009000000000000070707000000000000070707BD
:100910000000000103070707070707070703010097
:1009200000000000000000000000000000000000C7
:1009300000000000000000000000000000000000B7
:1009400000000000000000000000000000000000A7
:100950000000000000000000000000000000000097
:100960000000000000000000000000000000000087
:1009700011241FBECFEFDAE0DEBFCDBF04B603FE09
:1009800027C08091E8079091E907A091EA07B0910C
:10099000EB078730904BA740B04BD1F41092E8079B
:1009A0001092E9071092EA071092EB0714BE84B781
:1009B000877F84BF0FB6F894A89580916000886106
:1009C00080936000109260000FBEE0E0F8E30995AC
:1009D00011E0A0E0B1E0EAEEF2E502C005900D9270
:1009E000AC3BB107D9F727E0ACEBB1E001C01D92F9
:1009F000A83EB207E1F70E94DD1E0C9440290C943A
:100A00000000E8EDF0E080818E7F80831092E200AC
:100A10001092DA001092E100A0EEB0E08C918160BB
:100A20008C9380818F77808319BCA7EDB0E08C9187
:100A30008E7F8C9380818F7E80831092B005089585
:100A40002091E4003091E50095E6A9012091EC00A9
:100A5000822F817020FF06C08091E80080FF06C0D1
:100A600080E008952091E80022FD1AC08091BD0524
:100A7000882389F0853089F08091EB0085FD0FC0D7
:100A80002091E4003091E50042175307F9F29150AC
:100A9000E1F684E0089582E0089583E0089581E01E
:100AA0000895EF92FF920F931F93CF937C018B01D8
:100AB0000E942005C82F811117C08091E80085FD94
:100AC0000BC08091E8008E778093E8000E9420059B
:100AD000882399F3C82F08C0F70181917F01809383
:100AE000F1000150110949F78C2FCF911F910F91FF
:100AF000FF90EF9008958091BF0587FF13C080910C
:100B0000E80082FF06C08091E8008B778093E800C0
:100B100004C08091BD058111F2CF08958091BD057B
:100B20008823D9F38091E80080FFF8CF8091E80016
:100B30008E77ECCF982F9093E900242F762F50E0FA
:100B4000891731F07091EC002091ED005091F00088
:100B500021FD07C09F5F973071F78093E90081E026
:100B600008953091EB003E7F3093EB003091ED0023
:100B70003D7F3093ED003091EB0031603093EB001E
:100B80007093EC002093ED005093F0002091EE0064
:100B900027FDE0CF80E00895CF92DF92EF92FF92A1
:100BA0000F931F93CF93DF93C8EDD0E088818F7EA2
:100BB0008883E7EDF0E080818160808384E082BFFC
:100BC00081E08093B00588818E7F888302EE10E0FB
:100BD000F80110821092DA0081EEC82ED12CF601B5
:100BE000108288818F778883888180688883888154
:100BF0008F7D888319BC1092BD051092BE0510929E
:100C0000BC051092BB0590EEE92EF12CF701808116
:100C10008B7F808388818160888342E060E080E010
:100C20000E949A05F60180818E7F8083F801808181
:100C300081608083808188608083F70180818E7FDE
:100C40008083888180618883DF91CF911F910F918C
:100C5000FF90EF90DF90CF900895FC018091C50543
:100C60009091C60586179707A0F06115710529F4C4
:100C70009091E8009E779093E80090E061157105EF
:100C800051F4911108C08091E80082FF34C080E0E7
:100C90000895BC01F2CF8091BD058823C1F1853054
:100CA000C1F18091E80083FD30C08091E80082FDB1
:100CB000EACF8091E80080FFE1CF8091F30020919E
:100CC000F200382F6115710519F02830310558F000
:100CD00091E02830310509F090E02091E8002E776E
:100CE0002093E800CBCF81918093F100615071098E
:100CF0002F5F3F4FE7CF8091BD05882341F08530BE
:100D000041F08091E80083FFBECF81E0089582E04A
:100D1000089583E0089580E008958091B2050895D4
:100D20009C014FB7F8948091370590913805A091B8
:100D30003905B0913A054FBF821B930B08952FB729
:100D4000F89460913705709138058091390590913C
:100D50003A052FBF08959C01FC0132969FEF80E079
:100D60004191461751F09F3F19F4411101C0982F4E
:100D70008F5F8630A9F79F3F09F40895290F311D31
:100D800097FD3A95F90162830895809132058111AA
:100D90001092320508958091310590913005892B8C
:100DA00090912F05892B8093BE0190913205992354
:100DB00091F0892B8093BE0120E080EC91E0FC0152
:100DC0003191CF0131112F5FF1E0863C9F07B9F7D8
:100DD00021110E94C506E0914B05F0914C0530971A
:100DE00031F00280F381E02D8EEB91E009940895BB
:100DF000E92FEE0FE90FEE0F8E0F982F9770869563
:100E00008695869525E0829FF0011124E05FFA4FD8
:100E100050E040E080E0219130E0092E02C036959C
:100E200027950A94E2F721703327042E01C0220F80
:100E30000A94EAF7822B4F5F5F4F4530510559F70F
:100E40000895E92FEE0FE90FEE0F8E0F982F977090
:100E500041E001C0440F9A95EAF7869586958695FC
:100E600095E0899FF0011124E05FFA4F30E020E027
:100E700070E05191DF011197CB01022E02C09695CF
:100E800087950A94E2F781708195852784238527C9
:100E90008C932F5F3F4F2530310559F708952091EE
:100EA0000F059091DE0456E0291302C080E00895FA
:100EB00030E0529FF001539FF00D1124E152FB4F9F
:100EC0007181761306C07081781303C07281741328
:100ED00004C02F5F3F4F2770E7CF81E008958091D6
:100EE0000F059091DE04981301C008958F5F8770FD
:100EF000FACF882341F08095909131058923809322
:100F000031050C94CB060895882339F09091310572
:100F1000982B909331050C94CB0608952091CD0128
:100F20003091CE012817390771F09093CE0180934C
:100F3000CD01E0914B05F0914C05309721F00084F4
:100F4000F185E02D099408952091CB013091CC01D9
:100F50002817390771F09093CC018093CB01E09171
:100F60004B05F0914C05309721F00680F781E02D7C
:100F700009940895E0914B05F0914C05309721F0CC
:100F80000190F081E02D099480E008954091A20540
:100F90008D3E59F48091A30587FF0DC01092A305E3
:100FA00041110BC010929D0508C08E3E81F48091C6
:100FB000A30518169CF3442381F08091A405909119
:100FC000A505892B09F05AC010929A0508958F3E05
:100FD00049F447FFF0CF1092A2058091A30581113B
:100FE000ECCFE0CF803F19F41416ACF3E4CF90912E
:100FF000A405893F29F41916F4F61092A405DBCF55
:101000008A3F19F497FFD7CFF8CF9091A5058B3F72
:1010100029F497FFD0CF1092A505CDCF8C3F19F4BE
:101020001916CCF3C8CF9FE0980F983090F4815FE9
:10103000990B21E030E0B90102C0660F771F8A9555
:10104000E2F7CB0180959091A10589238093A105BA
:10105000B2CF8D3F31F48091D7048E7F8093D70437
:10106000AACF8E3F21F48091D7048D7FF7CF8F3F99
:1010700009F0A1CF8091D7048B7FF0CF08958091A4
:10108000D70480FD16C081FD16C082FD16C0809178
:101090009A058823A1F0883280F428E0829FC0015D
:1010A000112468E270E00E94F025862F672B39F04A
:1010B000089582E0089584E0089588E0089581E02D
:1010C00008958091D70480FD14C081FD14C082FD75
:1010D00016C080919D05882381F0843180F422E33D
:1010E000829FC001112464E170E00E94F025862FE8
:1010F00008958CE0089589E1089585E0089582E3DC
:1011000008958D3E31F40E94610881958093A30576
:1011100008958E3E19F40E946108F8CF8F3E31F495
:101120000E94610881958093A2050895803F19F47B
:101130000E946108F8CF893F29F40E943F088093FC
:10114000A40508958A3F21F40E943F088195F7CFB6
:101150008B3F31F40E943F0881958093A505089547
:101160008C3F19F40E943F08F8CF9FE0980F983009
:1011700070F4815F990B21E030E001C0220F8A9565
:10118000EAF78091A105822B8093A10508958D3FF8
:1011900031F48091D70481608093D70408958E3F05
:1011A00021F48091D7048260F7CF8F3FB9F7809107
:1011B000D7048460F1CFF894E82FE295EF70F0E067
:1011C00031A1282F2F7081E090E001C0880F2A956F
:1011D000EAF7982F9095932391A392A1892B82A34C
:1011E000789408959091490592FF06C0282F2871A0
:1011F0002830F9F4877F846093FF06C0282F287178
:101200002831F1F4877E846120914A0520FF06C0D1
:10121000382F38713830D9F4877F816021FF06C0BC
:10122000282F28712831D1F4877E816194FD877E33
:101230000895282F24712430F9F68B7F8860DCCF45
:10124000282F2471243101F78B7E8861DDCF382F60
:101250003171313019F78E7F8860E0CF282F2171EE
:10126000213121F78E7E8861E1CFCF93DF93972FD5
:1012700070E026E0929F600D711D1124FB0130E3A8
:10128000839FE00DF11D1124EE0FFF1FE05AFE4F6A
:10129000C591D491CE01C238D105B9F1E8F5C13379
:1012A000D10509F499C050F5C932D10509F48DC0B2
:1012B000CA32D10509F497C0C11521E5D20708F05B
:1012C000BFC0C11530E5D30708F016C1C83ED1052F
:1012D00008F09DC0C03ED10568F5C83AD10508F0B8
:1012E00089C0C53AD10508F0FFC0C130D10511F160
:1012F000209709F443C02497E8F440C0C533D105D2
:1013000009F45CC0C933D105B9F6209149052370B1
:1013100089F080EE90E00EC0C33ED10591F168F4F3
:10132000C03ED105F9F0C23ED10531F62091490504
:1013300022FD20C0DF91CF910895C63ED10561F115
:10134000C73ED10581F1C43ED10509F0B5CF20914A
:101350004A0521FFEFCF8091490584FD0FC087EE3C
:1013600090E0E8CF2091490520FD12C130914A0557
:1013700030FFE0CF83EE90E024FFDCCF90E080E010
:10138000D9CF2091490522FD06C130914A0530FD93
:10139000C0CF24FFCFCFF2CF2091490523FFCACF82
:1013A00024FDECCFDCCF2091490523FDF7C030911F
:1013B0004A0531FFEECF84EE90E0BCCF2091490585
:1013C00025FFB8CF89E290E0B5CF2091490525FFF0
:1013D000B1CF85E390E0AECF2091490526FFAACF9B
:1013E0008AE290E0A7CF2091490526FFA3CF81E3B1
:1013F00090E0A0CFCF3BD10508F6C85AD0E0CC0F83
:10140000DD1FC958DE4F88819981946493CFC1153F
:1014100020E2D20760F4C11531E0D30708F08ACF8B
:10142000CE019065CD3ED10508F084CFA7CFC11580
:1014300080E4D80708F4A2CFCE019F70906A7ACFDB
:10144000C11595E5D90710F5C11524E5D20708F0B7
:1014500088C0C11533E5D30708F06FC0C11582E518
:10146000D80708F465C09E012370332781E090E01F
:1014700002C0880F991F2A95E2F7C695C69520E20B
:10148000C29FE00111248C2B9D2B50C0C11599E502
:10149000D907A0F4C11528E5D20708F067C0C11527
:1014A00036E5D30708F06ACF8C2F0E94F20890E04F
:1014B000982F882788279F7190623CCFC1158AE5B5
:1014C000D80708F458C0CE0190568115904208F014
:1014D00055CF8D2F8F710E94F20890E0982F8827AA
:1014E00088279F718C2BE8CFC55AD0E0CC58DE4FAF
:1014F000888190E090641ECF9E01E4E036952795A8
:10150000EA95E1F723708C2F86958695837030E2FB
:10151000839FC0011124922BC37021E030E002C0F0
:10152000220F331FCA95E2F7822B932B9C6802CFC0
:101530009C2F8827816F906AFDCE9E0123703327F0
:1015400081E090E002C0880F991F2A95E2F7C695C6
:10155000C69530E2C39FE00111248C2B9D2B9A6825
:10156000E9CE9C2F8827846F906AE4CE9C2F882731
:10157000806F906ADFCE8C2F8F700E94F20834E06B
:10158000D695C7953A95E1F7CF709C2F9069D2CE4A
:1015900089E390E0CFCE82EE90E0CCCE86EE90E074
:1015A000C9CEBF92CF92DF92EF92FF920F931F931B
:1015B000CF93DF938C01C0905605D0905705E090F3
:1015C0005805F09059058091330590913405A0910C
:1015D0003505B0913605C82AD92AEA2AFB2ACFE177
:1015E000D0E0BC2ED701C6010C2E04C0B695A7953D
:1015F000979587950A94D2F780FD0EC0219788F7BA
:10160000B12C8B2DDF91CF911F910F91FF90EF9017
:10161000DF90CF90BF900895B8018C2F0E943509BC
:10162000019761F3EECFCF93DF93EC010E94D10AD3
:10163000BE01DF91CF910C9435090E94130B292F25
:101640002F7092959F7092509E3078F4E92FF0E0C1
:10165000EE5BF64D0C940426803F19F020F4883E92
:1016600020F481E00895843FE1F380E00895883E0E
:10167000C0F3813FD1F7F5CF822F86958695869569
:101680000895CF93DF93682F81E06A3019F06D30B1
:1016900029F480E0DF91CF910C94D00B8091D30797
:1016A0009091D40726E0FC01ADECB7E001900D92DB
:1016B0002A95E1F7603E08F45AC026E0FC01119239
:1016C0002A95E9F7C091D307D091D40746E050E0BE
:1016D000BE018DEC97E00E944A269E012D5C3540AC
:1016E000892B41F1C90145E0969587954A95E1F727
:1016F00041E050E0BA0102C0660F771F8A95E2F719
:10170000CB016091CB057091CC05862B972BB9014D
:101710006B5F7F4FE5E076956795EA95E1F702C04C
:10172000440F551F6A95E2F7842B952B9093CC05B7
:101730008093CB052A5F3F4F4091CA05642F70E02C
:10174000C9010E94DC25481B463010F4240F311DCE
:10175000211572E0370710F030E020E023533A4FB4
:101760003093D4072093D307DF91CF910895F6E00B
:101770006F9FB0011124615D7B4F46E050E00E94F5
:101780004126A0CFCF93DF93EC01FE01849181111C
:1017900003C0DF91CF9108950E94410B2196F5CFB0
:1017A000CF93382FE091D307F091D407ED5CF5404B
:1017B0002091CA05622F70E0CF010E94DC25281B12
:1017C000822F332361F066E00E94D025C82FC150DC
:1017D00010F4CF91089580E20E94410BF8CF9F0151
:1017E000280F311D2115324018F080E0F0E0E0E0D4
:1017F0008E0F9F2F911D83539A4F9093D407809300
:10180000D307E7CFCF92DF92EF92FF920F931F9310
:10181000CF93DF936C017B0164E670E088E70E9460
:10182000ED24EC0197FD12C010E000E0F601E00F9E
:10183000F11F849164E670E00E944925EC01892B38
:1018400029F40F5F1F4F0E151F0581F70E94CC254D
:10185000CE01DF91CF911F910F91FF90EF90DF901C
:10186000CF900895CF9384E090E00E94FE28C82F87
:1018700081E290E00E94FE28982F8C2FCF9108954E
:10188000CF93DF9300D00F92CDB7DEB79091BD0517
:10189000943019F589837B836A8382E08093E90021
:1018A0008FEF9091E800815095FD06C095ED9A95D7
:1018B000F1F700008111F5CF8091E80085FF0DC0A0
:1018C00050E040E063E070E0CE0101960E945105D7
:1018D0008091E8008E778093E8000F900F900F9032
:1018E000DF91CF910895BC0184E00C94400CBC01C1
:1018F00083E00C94400C9C0182E08093E9009FEF10
:101900008091E800915085FD06C085ED8A95F1F73C
:1019100000009111F5CF8091E80085FF0CC050E0E8
:1019200040E066E070E0C9010E9451058091E80046
:101930008E778093E8000895CF93DF93EC0181E0E8
:101940008093E9008FEF9091E800815095FD06C0EB
:1019500095ED9A95F1F700008111F5CF8091E8009F
:1019600085FF14C050E040E068E070E0CE010E94C6
:1019700051058091E8008E778093E80088E0FE01B1
:10198000A3EBB5E001900D928A95E1F7DF91CF913D
:1019900008958091CA01811111C08091D8008061A1
:1019A0008093D8008AE18A95F1F700C09091D90020
:1019B000892F817090FF82E08093CA0181E090912D
:1019C000CA01913009F080E008956BEE7EEF90E05F
:1019D00080E00E942A2960E082E090E00E940C29C9
:1019E00060E083E090E00E940C2910923305109291
:1019F0003405109235051092360560E084E090E0E1
:101A00000E940C2960E081E290E00E940C2960E0D5
:101A100085E090E00E940C2960E086E090E00E9462
:101A20000C296FEF87E090E00E940C2940E050E025
:101A3000BA0188E090E00E941E2960E08DE090E00D
:101A40000E940C2940E050E0BA0188E190E00E9439
:101A50001E2960E087E190E00E940C2940E050E000
:101A6000BA018CE190E00E941E2960E080E290E0E3
:101A70000E940C2940E050E0BA0188E190E00E9409
:101A80001E2940E050E0BA018FE090E00E941E293C
:101A900040E050E0BA0183E190E00C941E291F92CF
:101AA0000F920FB60F9211242F933F934F935F9392
:101AB0006F937F938F939F93AF93BF93EF93FF9316
:101AC0008091E10082FF09C08091E20082FF05C0A1
:101AD0008091E1008B7F8093E1008091DA0080FFAC
:101AE00024C08091D80080FF20C08091DA008E7FD2
:101AF0008093DA008091D90080FF9BC080E189BD8E
:101B000082E189BD09B400FEFDCF81E08093BD056F
:101B10008091B005811109C00E9401050E94CC0589
:101B20008091E20084608093E2008091E10080FF78
:101B300017C08091E20080FF13C08091E2008E7F89
:101B40008093E2008091E20080618093E2008091C6
:101B5000D80080628093D80019BC85E08093BD05D1
:101B60008091E10084FF29C08091E20084FF25C0BC
:101B700080E189BD82E189BD89B5982F917080FF90
:101B8000FBCF8091D8008F7D8093D8008091E100B9
:101B90008F7E8093E1008091E2008F7E8093E2004F
:101BA0008091E20081608093E2008091BE058823ED
:101BB00009F445C084E08093BD058091E10083FF76
:101BC00027C08091E20083FF23C08091E100877FDE
:101BD0008093E10082E08093BD051092BE05809164
:101BE000E1008E7F8093E1008091E2008E7F809300
:101BF000E2008091E20080618093E20042E060E0D8
:101C000080E00E949A058091F00088608093F00047
:101C1000FF91EF91BF91AF919F918F917F916F91C4
:101C20005F914F913F912F910F900FBE0F901F909A
:101C3000189519BC1092BD051092B00576CF809111
:101C4000E30087FD93E09093BD05B7CF78941F9292
:101C50001FB61F9211248F939F93AF93BF938091D0
:101C6000370590913805A0913905B0913A05019654
:101C7000A11DB11D8093370590933805A0933905B8
:101C8000B0933A05BF91AF919F918F911F901FBE66
:101C90001F9018952FB7F8948091370590913805CB
:101CA000A0913905B0913A052FBF08950E944A0EC0
:101CB0009C019091A2058091A305982B21F030936F
:101CC0009F0520939E059091A4058091A505982BD2
:101CD00021F030939C0520939B05E0914B05F091FA
:101CE0004C05309749F082E08093A0050480F5818F
:101CF000E02D80EA95E00994089590E080E00E944C
:101D0000A40790E080E00E948E07109230051092A8
:101D10002F050E94CB0686E0E0EAF5E0DF011D9288
:101D20008A95E9F710929D0510929A051092D704B2
:101D30000C94560E60935605709357058093580582
:101D4000909359050C947D0E0F931F9341E050E042
:101D500060E070E004C0440F551F661F771F8A952E
:101D6000D2F7CB01BA01609570958095909500915E
:101D7000560510915705209158053091590560235B
:101D80007123822393231F910F910C949A0E9091AB
:101D90002E058095892380932E05282F277071F4B6
:101DA000282F082E000C330B9217130639F0859557
:101DB000859585950E94A40E10922E0508950F9387
:101DC0001F9341E050E060E070E004C0440F551FF5
:101DD000661F771F8A95D2F7809156059091570517
:101DE000A0915805B09159058A019B01082B192B28
:101DF0002A2B3B2BC901B8011F910F910C949A0E0D
:101E000060E070E0CB010C949A0E60933305709300
:101E1000340580933505909336050C947D0E109211
:101E20003105E0ECF1E086E0DF011D928A95E9F7EB
:101E30000C947D0E1F93CF93DF93CDB7DEB7AA9797
:101E40000FB6F894DEBF0FBECDBF8FEB95E02091AB
:101E5000F100FC012193CF01F5E0873C9F07B9F722
:101E60008091C005833009F46FC0B8F4813009F463
:101E700046C0823009F4B0C08091E80083FF7BC285
:101E80008091BF059091C0059A3008F074C2E92F87
:101E9000F0E0E05BF64D0C9404268A3009F48BC028
:101EA0008B3009F46EC0893039F78091BF058132DB
:101EB00019F78091C3059091C4050297E8F68091C7
:101EC000E800877F8093E8008091E80082FF37C0B8
:101ED0009091F3008091F200029729F48091F10033
:101EE0008B7F813021F48091F1008093B205809145
:101EF000E8008B778093E8000E947B05BDCF80913E
:101F0000BF05813A09F0B8CF8091E800877F8093C0
:101F1000E8008091C3059091C405892B61F468E0C5
:101F200083EB95E070E00E942D068091E8008B77AE
:101F30008093E800A1CF60E090E080E0F3CF809153
:101F4000BD058111C1CF98CF8091BF05813A09F0BD
:101F500093CF8091C3059091C405892B09F08CCF54
:101F60008091E800877F8093E8008091E80080FFFF
:101F7000FCCF809119018093F1008091E8008E7769
:101F8000B9CF8091BF05813209F076CF8091C3052A
:101F90009091C405892B09F06FCF8091E800877F6D
:101FA0008093E8000E947B058091C1058093190110
:101FB0000E940F0F61CF8091BF05813209F05CCF85
:101FC0008091E800877F8093E8000E947B058091E4
:101FD000C2058093B10550CF8091BF05813A09F0C9
:101FE0004BCF8091E800877F8093E8008091E800E4
:101FF00080FFFCCF8091B105BECF803899F0823848
:1020000009F0B9C18091C3058F70873008F0B3C162
:102010008093E9008091EB0085FB882780F910927E
:10202000E90006C08091BB059091BC0591118260CA
:102030009091E800977F9093E8008093F1001092D0
:10204000F1008091E8008E7792C1882309F480C165
:10205000823009F090C18091C105811183C18091C6
:10206000C3058F702FEF280F263008F084C18093AE
:10207000E9002091EB0020FF75C1933031F480918D
:10208000EB0080628093EB006DC19091EB0090615A
:102090009093EB0021E030E001C0220F8A95EAF72F
:1020A0002093EA001092EA008091EB008860EACF6A
:1020B000811161C11091C1051F778091E300807883
:1020C000812B8093E3008091E800877F8093E80074
:1020D0000E947B058091E80080FFFCCF8091E300A7
:1020E00080688093E30082E0111183E08093BD0556
:1020F00042C18058823008F03EC18091C105909164
:10210000C2058C3D23E09207A1F583E08A838AE231
:1021100089834FB7F894DE01139620E03EE051E248
:10212000E32FF0E050935700E49120FF03C0E295C5
:10213000EF703F5FEF708E2F90E0EA30C0F0C796EF
:102140008D939D932F5F243159F74FBF8091E80005
:10215000877F8093E8006AE270E0CE0101960E94DA
:102160002D068091E8008B778093E80004C1C0962B
:10217000E7CF4091C3055091C405292F3327233061
:10218000310509F444C078F52130310509F46FC0F8
:102190008BE390E0EEEBF3E02230310509F0EBC089
:1021A0002091E800277F2093E8002091C505309119
:1021B000C6058217930708F49C0140E021153105FC
:1021C00009F064C0411162C08091E80082FDC9CF6E
:1021D0008091BD05882329F2853019F28091E800AD
:1021E00083FFF2CFBECF21323105A9F12232310572
:1021F00009F0C1C04115510509F443C041305105F2
:1022000009F0B9C08BE790E0E3E0F3E0C9CF99278C
:1022100081309105C1F0009759F0029709F0ABC0E9
:10222000EBE0F4E0E4918E2F90E0EBE0F4E007C007
:10223000EBE2F4E0E4918E2F90E0EBE2F4E0009723
:1022400009F499C0ADCFE9E1F4E0E4918E2F90E07C
:10225000E9E1F4E0F4CF4115510571F04130510549
:1022600009F089C089E090E0E9EEF3E099CF82E1DE
:1022700090E0E9EFF3E094CF89E090E0E0EDF3E067
:102280008FCF80E490E0EEE7F3E08ACF8091BD0548
:10229000882309F466CF853009F463CF8091E80084
:1022A00083FD5FCF8091E80082FD8ECF8091E800B2
:1022B00080FF84CF9091F3008091F20021153105C9
:1022C00019F08830910550F041E0089709F040E09E
:1022D0008091E8008E778093E80070CF449140931E
:1022E000F1003196215031090196E8CF803809F08C
:1022F00042C08091E800877F8093E8008091BE050E
:102300008093F1009ECE811136C01091C10512302C
:1023100090F58091E800877F8093E8001093BE05D8
:102320000E947B05112311F084E005C08091E30039
:1023300087FDFACF81E08093BD0542E061EC81E04A
:102340000E949A0542E261EC82E00E949A0513C065
:102350008091C105813079F481E0933009F080E00B
:102360008093BC051092E9008091E800877F8093FC
:10237000E8000E947B058091E80083FF0AC08091FD
:10238000E800877F8093E8008091EB008062809373
:10239000EB00AA960FB6F894DEBF0FBECDBFDF915B
:1023A000CF911F9108951F920F920FB60F92112493
:1023B0002F933F934F935F936F937F938F939F934D
:1023C000AF93BF93CF93DF93EF93FF93D091E90047
:1023D000DF708091EC00C82FC17080FDC0E81092C2
:1023E000E9008091F000877F8093F00078940E944C
:1023F0001A0F1092E9008091F00088608093F0003D
:10240000CD2BCF70C093E900FF91EF91DF91CF9179
:10241000BF91AF919F918F917F916F915F914F91FC
:102420003F912F910F900FBE0F901F90189588230A
:10243000F1F19CEF980F913A78F4E0ECF1E026ECA2
:1024400031E09191891303C0DF0111971C922E177F
:102450003F07B9F70C94CB0690E2980F983088F4B8
:10246000877021E030E0A90102C0440F551F8A9512
:10247000E2F7CA0180959091310589238093310557
:10248000E9CF9BE5980F933020F490E080E00C9426
:10249000A40798E5980F973120F490E080E00C9421
:1024A0008E078D3E20F00E94C6070C94560E0895AC
:1024B000CF93C82F882309F456C08CEF8C0F813A34
:1024C000F8F4E0ECF1E086EC91E0DF012D91C21729
:1024D00059F08A179B07D1F76C2F8EEB91E00E9481
:1024E000AB06CF910C94CB062191C21303C0DF0140
:1024F00011971C928E179F07B9F70E94CB06ECCF5D
:1025000080E28C0F883068F4C77021E030E001C0B1
:10251000220FCA95EAF780913105822B809331050D
:10252000E0CFEBE5EC0FE33040F4F0E0EC58FE4F89
:10253000808190E0CF910C94A407E8E5EC0FE7319F
:1025400050F4F0E0EE0FFF1FE958FE4F80819181BB
:10255000CF910C948E07CD3E30F08C2F0E948108D5
:10256000CF910C94560ECF9108951F93CF93DF9384
:10257000182FD0E0C0E0893311F4C0E5D0E0812FFE
:102580000E945812209731F4812FDF91CF911F9133
:102590000C9417128FE99FE00197F1F700C000003B
:1025A0002197F0CF0F931F93CF93DF93C62FD42F94
:1025B000022FFC0182818823A1F06093C9050E944B
:1025C0004A0E9093C8058093C705C77081E001C08B
:1025D000880FCA95EAF7DF91CF911F910F910C9464
:1025E00084078091C905681335C08091C705909113
:1025F000C8050E9490068331914060F510E21D0FDE
:10260000CD17B9F080E28C0F883040F4C77081E0BC
:1026100001C0880FCA95EAF70E947907183048F47C
:1026200081E09D2F977001C0880F9A95EAF70E946C
:102630008407802F0E94B512183098F4D77081E07B
:1026400001C0880FDA95EAF7DF91CF911F910F91C2
:102650000C947907C77081E001C0880FCA95EAF72A
:10266000F3CFDF91CF911F910F9108950F931F9397
:10267000CF93DF938C01EB018091060182FF2FC085
:102680008B7F809306018091D4042091D2043091F5
:10269000D304AB01421B530B20910401309105017F
:1026A0004217530788F40E945812809106018D7FCB
:1026B000809306018091D4040E9417128091300506
:1026C0008D7F8093300515C0909130059260909376
:1026D00030050E945812809106018260E9CF802F58
:1026E0000E9417128091D4049091D50408171907FD
:1026F00029F30E94CB06D093D304C093D204DF9178
:10270000CF911F910F9108952F923F924F925F9218
:102710006F927F928F929F92AF92BF92CF92DF92F1
:10272000EF92FF920F931F93CF93DF93CDB7DEB756
:1027300028970FB6F894DEBF0FBECDBF7C01FC0119
:1027400083819481892B39F01081D180812F8D2153
:102750008F3F09F0B0C628960FB6F894DEBF0FBEC3
:10276000CDBFDF91CF911F910F91FF90EF90DF9040
:10277000CF90BF90AF909F908F907F906F905F9021
:102780004F903F902F9008950E94D10A082F682FF4
:1027900089819A810E942107E12FF0E026E0D29EF4
:1027A000E00DF11D112430E3039FE00DF11D112414
:1027B000EE0FFF1FE05AFE4F059114918091D10456
:1027C000F7019281811104C191110CC00530FDE522
:1027D0001F0709F4CBC008F088C004303DE513079B
:1027E00009F4A9C0F7018281882391F1C8019056AC
:1027F0008115F0E29F0728F0905E8115904108F066
:102800006FC1C801992720E28C33910520F4FC01A7
:10281000E85CFE4F20811F922F939F938F93F701C7
:1028200080811F928F9381811F928F9382E291E02A
:102830009F938F931F9288E18F938AE595E09F93F2
:102840008F930E9457260FB6F894DEBF0FBECDBF00
:102850000E944A0E6C01F70182818823F9F0809171
:10286000060182FF05C0B60190E080E00E943613A9
:10287000809130058D7F809330050931FCE51F077D
:1028800009F4A7C108F02EC107313CE5130709F48C
:1028900090C108318CE5180709F495C10933110579
:1028A00008F050C20D32110520F40B32110509F069
:1028B0004DC2F7018281882309F461C2809106012B
:1028C00080FF21C19091310591111DC11093D50454
:1028D0000093D404D092D304C092D2048460809335
:1028E000060182E00E94C70E33C007308DE518074D
:1028F00009F448C008309DE5190709F073CFC0906E
:102900000001D09001018090560590905705A0904D
:102910005805B09059050E940F0F0E94000F09EC56
:1029200014E0C016D10609F442C0C8010E94841305
:1029300006501109F6CF0E940F0F0E94000F8FEC76
:1029400091E09093D0048093CF0481E08093D104F0
:1029500080912E05877009F4FECEF70182818823CD
:1029600009F4F9CE82E00E94C70EF5CE0E940F0F47
:102970000E94000F89EC94E09093D0048093CF04E0
:1029800082E0E4CFC0900201D09003018090560510
:1029900090905705A0905805B09059050E940F0FD0
:1029A0000E94000F0FEC11E0C016D10659F40E94EE
:1029B0000F0F8092560590925705A0925805B0923D
:1029C0005905C6CFC8010E9484130A5F1F4FECCF80
:1029D000980124503D4523303105B8F521E00630FB
:1029E0001D4509F420E0291709F4B2CF813029F000
:1029F0008230B9F01092D104ABCF8091CF04909186
:102A0000D004F1E08F3C9F0729F0FC01369722812A
:102A1000211105C09093030180930201EBCFCF01F8
:102A2000F0CF8091CF049091D00424E0893C9207AC
:102A300029F0FC0136962281211105C090930101F5
:102A400080930001D7CFCF01F0CF813021F18230C8
:102A500009F0C8CE2091020130910301A091CF046A
:102A6000B091D004911105C094E0A93CB90709F4D4
:102A7000B9CECD0106962817390709F4B3CE86E002
:102A8000F70101900D928A95E1F78091CF04909122
:102A9000D004069720C02091000130910101A0913F
:102AA000CF04B091D004911105C081E0AF3CB807CC
:102AB00009F498CECD0106972817390709F492CE6C
:102AC00086E0F70101900D928A95E1F78091CF049D
:102AD0009091D00406969093D0048093CF0482CE38
:102AE000C80191CE0B319CE5190709F45EC008F4CA
:102AF00055C0809106018E7F0C31FCE51F0709F05F
:102B0000CDCE80930601F7018281882309F4E7C4C2
:102B10001092C9050230FCE51F0708F434C20631E3
:102B20002CE5120738F098012B5F3C452930310520
:102B300008F029C20E94320C90934A0580934905FF
:102B400000313CE5130709F4EDC108F07BC1083002
:102B50009CE5190709F4DCC108F04AC10430FCE522
:102B60001F0709F4CDC108F030C102303CE513075E
:102B700009F4BCC103301C4509F4BEC1609149058C
:102B800010914A0584E090E00E940C29612F81E2B7
:102B900090E00E940C290E940F0FDACE909106015E
:102BA000892F8E7F90FF8160ACCF8091060181607C
:102BB000A8CF80910401909105010596909305019D
:102BC00080930401A0CF80910401909105010597A5
:102BD000F5CF809105018F93809104018F9383E35A
:102BE00091E09F938F931F9288E08F939F928F9293
:102BF0000E9457260FB6F894DEBF0FBECDBF64010A
:102C00005AE0252EF6012081222309F47CCF2130C1
:102C100009F046C091818281913031F4F2E0CF0E0B
:102C2000D11C0E94B51207C0923049F422E0C20EB6
:102C3000D11C0E9458123FEFC31AD30AE3CF93303E
:102C400031F432E0C30ED11C0E941712F4CF94303D
:102C500021F08FEFC81AD80AEECF92E0C90ED11C2E
:102C600030E020E0A6014F5F5F4F8053990B8A3020
:102C7000910550F021503109F0F28FE99FE0019762
:102C8000F1F700C00000F6CF229EB001239E700D28
:102C900011249C01260F371FF60181816A01E2CFC2
:102CA000E22FF0E0E052FF4F3490822F8695869518
:102CB000869590E0FC01E053FF4F44902770512C23
:102CC000022E02C0559447940A94E2F7E1E04E22A6
:102CD0005524FC01E054FF4F6490712C022E02C079
:102CE000759467940A94E2F7F1E06F227724FC016F
:102CF000E055FF4FA490B12C02C0B594A7942A953B
:102D0000E2F721E0A222BB244114510419F081EE24
:102D10000E9458126114710419F086EE0E94581234
:102D2000832D0E94B512672819F086EE0E941712B3
:102D3000452819F081EE0E941712AB2809F47BCFC9
:102D40008CE26FCF0436110509F4B3CD043FFCE5E6
:102D50001F0761F1C8F4093D3CE5130719F10A3D6D
:102D60008CE5180779F1083D9CE5190709F0CBCEF1
:102D700026E241EE61EEC7010E94D212E9CDB60112
:102D8000C8010E943613E4CD063FECE51E07B1F002
:102D900088F0073F2CE5120709F0B5CE27E245EE93
:102DA00066EEE9CF27E245EE65EEE5CF26E241EE9D
:102DB00060EEE1CF27E245EE64EEDDCF26E241EEA4
:102DC00062EED9CF28E241E0EFCF809149058061E2
:102DD00006309CE5190709F48CC08091490588608C
:102DE00007301C4508F485C080914905806281C088
:102DF000809149058D7F0C30FCE51F0709F479C0EF
:102E000070F4809149058C600A303CE5130709F4A1
:102E100070C008F481C0809149058E7F6AC080919E
:102E20004905877F0E309CE5190709F462C080913F
:102E300049058B7F0F301C4508F45BC08091490524
:102E40008F7E57C00C3FFCE51F0709F45DC030F5CD
:102E500003313CE5130709F46DC078F401319CE5BA
:102E6000190709F463C002311C4509F087CE0E949E
:102E70000F0F809149058F773CC00531FCE51F0796
:102E800009F460C008F474C080914A0581600B3F6A
:102E90001C4509F073CE80934A0570CE01158DE56F
:102EA000180709F44BC088F480914A058D7F0E3FC6
:102EB000ECE51E0781F380914A058E7F0F3F1C458C
:102EC00050F380914A058360E6CF02302DE512076A
:102ED00009F457C008F442C060E003301D4509F012
:102EE0004DCE8EE090E00E940C2948CE809149059D
:102EF00081608093490542CE809149058260F9CF77
:102F0000809149058460F5CF80914A058260C3CFE6
:102F1000809149058064EDCF0E940F0F8091490593
:102F20008068E7CF809149058F7DE3CF8091490587
:102F30008F7BDFCF80914905837FDBCF80914A056E
:102F40008C7FA9CF8091490582FB992790F921E0D8
:102F5000922790FB82F990FB83F9CBCF80914A05B1
:102F6000982F909591708E7F892B90FB81F993CF4C
:102F70000E940F0F90914905892F97FB87F9805880
:102F8000B8CF61E0AECF06319CE5190709F0BDC2AC
:102F9000809131058A7A91E009F490E09093D6040B
:102FA00069E2811165E38EEB91E00E94AB060E941D
:102FB000CB06CECC85E39BC20E940F0FEFEFF4E36C
:102FC0002CE0E150F0402040E1F700C0000087E72E
:102FD00097E7909301088093000888E19AE00FB684
:102FE000F894A895809360000FBE90936000FFCF87
:102FF0000E94E50CADCCC8010E94F806D82E9CC2F8
:10300000212F2F70A22E107F19F0A29420EFA22260
:10301000DD20C9F0AA2069F080E2800F883010F02E
:1030200061100BC080913105A82AA09231050E9441
:10303000CB06802F0E94581218C080913005A82A14
:10304000A0923005F4CF802F0E941712AA2069F0B9
:10305000A094005E083010F0611044C080913105EA
:10306000A822A09231050E94CB06EB2DE850FF0B61
:10307000349710F40E94BA07CC20A9F080912E0555
:1030800080FD11C0F70112828595859585950E9476
:10309000DF0EC7010E94841380912E0585958595CA
:1030A00085950E94A40E85E0F701D40101900D9250
:1030B0008A95E1F789819A810E94F8069A81E981CF
:1030C000F0E026E0929FE00DF11D112430E3839F94
:1030D000E00DF11D1124EE0FFF1FE05AFE4F859108
:1030E000949139CB80913005A822A0923005BBCFB6
:1030F000312F3F70732E107F103219F0729490EFC1
:103100007922662071F081E0681661F1DD20B9F165
:10311000AA2071F1F701858180FF8BCF8F708583A5
:1031200027C0DD2091F090913205892F8729A110C9
:1031300003C00E94840799CFE1E0AE12FACF98173E
:1031400009F493CF8093320590CFA11006C00E945E
:10315000C506872D0E94790788CFF1E0AF1609F4E4
:1031600084CFF5CFDD2031F025E02A1508F47DCF9E
:10317000872DDFCF34E03A1508F477CFEACFAA20C5
:1031800041F3F9E36F1290C12FEF37EE83E0215046
:1031900030408040E1F700C0000086C1812F869555
:1031A0008695837061F0813009F05FCFC80193701C
:1031B000D11002C090E080E00E948E0756CFC80177
:1031C0009370D11002C090E080E00E94A4074DCF20
:1031D000802FDD2029F00E9481080E94560E45CFE5
:1031E0000E94C607FACF812F837009F066C0D11004
:1031F0003CCF802F829586958770880F880F602F2F
:103200006F70462E512C712C612C082E04C0440C7A
:10321000551C661C771C0A94D2F740E050E0BA01B6
:1032200004FF0FC04FE050E060E070E004C0440FC6
:10323000551F661F771F8A95D2F740955095609568
:103240007095812F869586958370823019F1D8F418
:1032500000913305109134052091350530913605E4
:10326000813069F04429552966297729CB01BA01B3
:1032700060237123822393230E94050FF6CE402AF8
:10328000512A622A732ACB01BA0164297529862939
:103290009729F2CF442955296629772900913305CA
:1032A000109134052091350530913605CB01BA01D6
:1032B0006027712782279327DFCF8695DD2011F0C5
:1032C000812F8170882309F4D0CE802F8295869536
:1032D0008770880F880F602F6F70462E512C712CCD
:1032E000612C082E04C0440C551C661C771C0A94E3
:1032F000D2F740E050E0BA0104FF0FC04FE050E0C9
:1033000060E070E004C0440F551F661F771F8A9568
:10331000D2F74095509560957095812F869586954A
:103320008370823019F1D8F4009156051091570539
:103330002091580530915905813069F0442955296B
:1033400066297729CB01BA01602371238223932355
:103350000E949A0E8ACE402A512A622A732ACB01F1
:10336000BA016429752986299729F2CF442955295C
:103370006629772900915605109157052091580527
:1033800030915905CB01BA01602771278227932715
:10339000DFCF1F70DD2029F0812F0E94DF0E802FEC
:1033A000C8CE802F0E947907812F0E94A40E5DCE87
:1033B000802F92EF691609F450C0961578F0E0EF6F
:1033C0006E1619F1F1EF6F1609F43FC0DD2009F414
:1033D00066C0A1102ECE812F8F713CC023EF6216E4
:1033E00009F440C034EF6312F1CFDD2009F44CC082
:1033F0001F71812F0E94DF0EE8E01E9FC001112483
:10340000836080932E05812F25C0DD20C9F084E0E4
:103410008A1508F42ACE1F7161E070E080E090E028
:1034200004C0660F771F881F991F1A95D2F7009165
:103430005605109157052091580530915905A4CF94
:1034400095E09A1508F411CEE6CF812F8F71DD201B
:1034500009F4ABCF0E94DF0E08CE812F8F71DD20E3
:10346000C9F3A3CFDD2069F01F7161E070E080E057
:1034700090E004C0660F771F881F991F1A95D2F736
:1034800067CF0E94000FF1CD81E00E94C70EF1E0EE
:10349000FA1508F0EACD82E00E94C70EE6CDAA2018
:1034A00039F0893309F470CE802F0E941712DDCDD8
:1034B000812F8F717ACF85E09E012F5F3F4F4901A9
:1034C000D90101900D928A95E1F7F7012281898156
:1034D0009A81211159C90E94F806082F5DC9063149
:1034E0001C45E1F48091D604811164CD89E2E0ECC1
:1034F000F1E026EC31E09191891303C0DF011197CF
:103500001C922E173F07B9F752CD01152CE5120773
:1035100009F452CD0F3D1C4509F46ACDF701008135
:103520001181882309F467CDC8010E94D10AD82EE1
:10353000682FC8010E942107B8018D2D0E9435090E
:103540008C01682EF701D280A580A2944FE0A422BE
:1035500080912E058770A1F0CD2CDD2091F0812F78
:10356000807F803421F080E2800F883048F082E054
:103570000E94C70E80912E058770CC24C3948111C0
:10358000C12CB12EB2943FE0B322FBE0FB1508F44E
:103590006CCDEB2DF0E0E65AF64D0C9404261F930B
:1035A000CF93DF938091DD04807FA9F48091DA04CA
:1035B000882389F080910F05D091DE046091D804B2
:1035C0007091D904A091DB04B091DC04C62FC7230D
:1035D00016E0D81304C0DF91CF911F91089590E0B9
:1035E000109711F0CF3F19F401968770F2CF189F12
:1035F0009001199F300D1124F901E152FB4F4181D7
:103600004713F2CF40814613EFCF42814111ECCFF7
:10361000438154814A1B5B0B4331514028F7809111
:10362000DD048F7080618093DD04F901EC51FB4F64
:1036300080818F708061808388ED94E00E94841384
:10364000DF91CF911F910C946F078F929F92AF9251
:10365000BF92CF92DF92EF92FF920F931F93CF937F
:10366000DF93CDB7DEB761970FB6F894DEBF0FBE1C
:10367000CDBF8C0185E0F801DE011D9601900D9211
:103680008A95E1F7D801EC901196DC90119712968B
:10369000CC90129788ED882E84E0982E4091DB0420
:1036A0005091DC044115510509F444C19091D804AE
:1036B0002091D904892F82238F3F09F43BC11396AF
:1036C000AD90BC901497F090DA04F501E41BF50B73
:1036D000AF01FF2009F4FFC08091DD04382F307F57
:1036E0004331514008F0C8C0311185C0FC2C2D1168
:1036F00024C09E1122C0C11020C08F7080618093B1
:10370000DD04C4010E9484138091DD04D801159664
:103710008C938F2D61960FB6F894DEBF0FBECDBF90
:10372000DF91CF911F910F91FF90EF90DF90CF909D
:10373000BF90AF909F908F900895A114B10429F08D
:103740008E2D8D218F3F09F016C180E080FF14C0BF
:103750004C2D6D2D8E2D0E944F07882369F088ED2A
:1037600094E00E94841386E0E8EDF4E0DF011D920E
:103770008A95E9F7F12CCDCFAB2829F08E2D8D213C
:103780008F3F09F0F5C080E0B82FB170AB2E80FFFD
:1037900029C04C2D6D2D8E2D0E944F07B82E811102
:1037A00021C0ED86DE868D859E850E94130B292F14
:1037B00022952F70223050F0243078F49F7051F011
:1037C000F8019581907F31F4FB2CA3CF9F7011F00D
:1037D0008823D1F3805E8830B8F3C8010E94841337
:1037E000BA2CF2CFCC2009F494CF8091DD04816013
:1037F0008093DD04BFCF2D1112C09E1110C0C110E7
:103800000EC015968C93C8010E94841386E0F801BF
:10381000A8EDB4E001900D928A95E1F77ACFED869C
:10382000DE868D859E850E941D0B882309F1CC20A4
:10383000F9F08091DD04803270F02091D80430914D
:10384000D90438872F831986BB86AA868C87CE0138
:1038500007960E94841386E0F801A8EDB4E0019079
:103860000D928A95E1F70E94CF1AFF24F39451CF6D
:10387000C8010E948413F9CF332309F470CF2D11AE
:103880000FC09E110DC0C1100BC0F8018583C80187
:103890000E94841386E0D4011D928A95E9F739CFFE
:1038A000ED86DE868D859E850E941D0B882301F3A3
:1038B000CC20F1F28091DD04803268F22091D804AE
:1038C0003091D9043A8329831B82BD82AC828E83D6
:1038D000CE010196BECFE331F140E0F6FC2CCC20C6
:1038E00039F22D1116C09E1114C08091DD0480FDA7
:1038F0008DCF982F907F09F489CFF8018583903F71
:1039000009F481CF982F907F905F8F70892B8583EA
:103910007ACFED86DE868D859E850E941D0B8111F6
:103920009ACF8091DD0481608093DD04C8010E94FC
:103930008413EFCECC2009F49BCFED86DE868D85F7
:103940009E850E941D0BF82E882309F491CF86E0F6
:10395000F801A8EDB4E001900D928A95E1F780910D
:10396000D8049091D9040E94130B0E94CF1AD1CE93
:1039700081E08C2509CF81E08C25E8CE1F93CF9381
:10398000DF93CDB7DEB767970FB6F894DEBF0FBEF3
:10399000CDBF342F4B8B252F5C8B6D8B7E8B8F8B0C
:1039A0008E899F896111109230051A8A198A3D8784
:1039B0002E876F87998B888B86E0FE013D96DE010E
:1039C000179601900D928A95E1F7CE0107960E9415
:1039D000251B811112C086E0FE013796DE0111968B
:1039E00001900D928A95E1F78A859B85892B29F0B4
:1039F0008F81988589238F3FB1F516E080910F055F
:103A00009091DE0489131DC067960FB6F894DEBF4F
:103A10000FBECDBFDF91CF911F91089596E0929F89
:103A2000D001939FB00D1124A152BB4FFE013196DE
:103A300001900D929A95E1F78093DE040E946F0742
:103A4000DCCF819FC001112481529B4F0E94251B16
:103A50008823D1F280910F0590E001968770992715
:103A600080930F05CBCF2091DE0430E0C901019691
:103A70008770992740910F054817190679F60E941B
:103A80000F0F1092DE0410920F0586E0E8EDF4E0CF
:103A9000DF011D928A95E9F7B0CFAF92BF92CF9226
:103AA000DF92EF92FF920F931F93CF93DF9300D09B
:103AB00000D0CDB7DEB785EAE82E81E0F82E9FE38F
:103AC000A92E95E0B92E00E0CC24C394D12CF701A7
:103AD00081917F01F894E82FE295EF70F0E021A149
:103AE0008F70A60102C0440F551F8A95E2F7CA01E4
:103AF000922F982B91A392A18095892382A37894E9
:103B000000C0EDEAF1E030E020E010E04191A42FA8
:103B1000A295AF70B0E090968C9190E04F7002C08B
:103B2000959587954A95E2F780FD4CC08C2D022E25
:103B300001C0880F0A94EAF7182B2F5F3F4F2630F9
:103B4000310521F7F701319780810E94DB0850EAA7
:103B50005A95F1F7F50180811817B1F1108381E0D2
:103B6000082BFFEFAF1ABF0A49EAE41641E0F4065A
:103B700009F0ADCF10914805002341F181E0809319
:103B8000C8010E944A0E9093C7018093C60180919C
:103B9000C6019091C7010E9490060697D8F0E12FC8
:103BA000F0E0E25BFA4F80913F0580838091400511
:103BB00081838091410582838091420583831092A5
:103BC000C80108C080E0B8CF80E0CACF8091C801AA
:103BD0008111DDCF0E94C90C182F60914805882300
:103BE00009F473C019821A821B821C82862F90E00E
:103BF000BE016F5F7F4F825B9A4F0E94FC22811152
:103C000044C08091C9018F5F8093C901863008F458
:103C10005AC0E0914705F0E0E25BFA4FDE011196F1
:103C2000CE01059611921D92A817B907D9F7809178
:103C3000060182FF17C00E944A0E2091D2043091E3
:103C4000D304AC01421B530B2091040130910501B8
:103C50004217530738F0BC018091D4049091D504E9
:103C60000E943613011101C0012F802F0F900F9079
:103C70000F900F90DF91CF911F910F91FF90EF90D8
:103C8000DF90CF90BF90AF9008951092C901A0919E
:103C90004705B0E0A25BBA4FBE016F5F7F4F9E0148
:103CA0002B5F3F4F10E04D91FB019191BF014917F0
:103CB00031F0AD0141505109FA019083182F62177C
:103CC000730789F7B4CF10E0B2CF70E0625B7A4F30
:103CD0008091470590E0825B9A4F0E943923C2CFC2
:103CE0001F921FB61F9211248F939F93AF93BF9380
:103CF00080914D05811113C0809137059091380551
:103D0000A0913905B0913A054196A11DB11D80934E
:103D1000370590933805A0933905B0933A05BF91C4
:103D2000AF919F918F911F901FBE1F90189580910A
:103D3000980508958091980590919905911103C077
:103D400091E089270895882369F062E070E08EEAA7
:103D500090E00E94020C892B19F08091980508953B
:103D60001092980580919805EBCFCF93C09198055C
:103D7000809199058823D1F00E949F06605A754171
:103D80008F4F9F4F60939405709395058093960590
:103D900090939705C11108C062E070E08CEA90E052
:103DA0000E94020C892B29F0C09198058C2FCF918D
:103DB000089581E080939805F7CFCDB7DEB763977C
:103DC0000FB6F894DEBF0FBECDBF84B7877F84BF28
:103DD0000FB6F894A8958091600088618093600088
:103DE000109260000FBE80E890E00FB6F8948093C8
:103DF0006100909361000FBE85B7806885BF85B76D
:103E0000806885BF8BE896E09093BD018093BC01EC
:103E10000E9401050E94CC058091E200846080939D
:103E2000E20078948091BD058823A1F01091E9000B
:103E30001F709091EC00892F817090FD80E8182B05
:103E40001092E9008091E80083FD0E941A0F1F7014
:103E50001093E90082E084BD93E095BD9AEF97BD91
:103E600080936E0010923B0510923C0510923D0528
:103E700010923E050E94C90C91E0892780930701AA
:103E80000E94C90C81110E94F0228091070180914B
:103E9000070194E0811190E09093480584E0891B2C
:103EA0008093470584E90E94DB0886E60E94DB08D0
:103EB00087E90E94DB0886EC0E94DB0884EF0E9401
:103EC000DB0885EF0E94DB0886EF0E94DB0887EFA6
:103ED0000E94DB0881E30E94DB0883E30E94DB0889
:103EE000EFE3F5E0AEE4B5E011921D9225E0E73492
:103EF000F207D1F790E080E00E9406298B3E9E4FAA
:103F000011F00E94E50C0E94C90C811102C00E94B0
:103F1000F6220E94C90C882309F4CDC182E0809367
:103F2000920580E88093CA050E94E7246DE070E066
:103F300083E992E00E94020C892BE9F580919205B9
:103F400063E070E081FDB9C180E992E00E94020C5B
:103F5000892B89F56DE070E080E892E00E94020C08
:103F6000892B49F50E949F06605A75418F4F9F4FDC
:103F700060939405709395058093960590939705AB
:103F8000EDECF5E080E092E0DF019C011D92215014
:103F90003040E1F7F093D407E093D3078FEF9FEF22
:103FA0009093CC058093CB0581E080939905809315
:103FB00098051092930590E080E00E9406298B3EC0
:103FC0009E4F11F00E94E50C82E090E00E94FE28D6
:103FD0008093A7050E94320C90934A05809349056F
:103FE00083E090E00E94FE28682F70E090E080E07F
:103FF0000E94050F8FE091E090934C0580934B0554
:1040000068E1862E912C8EE495E048E0480F498BBC
:104010008091BD0500E112E1853009F485C10E945F
:104020004D1DD82E81110E949F06E8EAF5E0AEE40E
:10403000B5E010E000E0B02EED9081918E1509F40E
:1040400082C1C12CFF24F3948E25982F9F2109F45F
:1040500075C10E94C90C882399F0CF82B886EF20E1
:1040600081E009F480E089870E944A0E8160782F00
:104070009B878A874F81588569858B850E94BE1CE6
:10408000F801E855FA4F8081F826F0828091990571
:104090008823D1F18DEC95E09093D4078093D307DA
:1040A0000E94C90C882309F465C180EA92E00E944D
:1040B000C20B80919905882371F02091CB05309136
:1040C000CC052115310539F08091930561E070E050
:1040D000882309F48DC1809198058823A9F00E9456
:1040E0009F060091940510919505209196053091B9
:1040F0009705601B710B820B930B6F3F7F4F8F4FA8
:104100009F4710F40E949A1ED1100E94B51E86E0AF
:10411000E0EAF5E0DE01119601900D928A95E1F753
:10412000F090A205E090A3051091A4050091A505CB
:104130001092A2051092A3051092A4051092A50555
:104140008F2D8E2909F448C080919E0590919F057E
:104150000E9490069C0190919D05992309F43CC210
:104160002D313105C8F19F3F19F09F5F90939D0558
:10417000FF2059F00E9461089FEF1F140CF491E09A
:10418000899F802D11248093A205EE2059F00E9472
:1041900061089FEF1E140CF491E0899F802D11247B
:1041A0008093A3053091A2053323B1F02091A3059C
:1041B000222391F045EB3403C0011124992309F423
:1041C000E0C19093A20545EB240390011124332311
:1041D00009F4DBC13093A305812F802B09F448C07B
:1041E00080919B0590919C050E9490069C01909166
:1041F0009A05992309F4EBC125363105C8F19F3F93
:1042000019F09F5F90939A05112359F00E943F087F
:104210009FEF11160CF491E0899F802D112480935B
:10422000A405002359F00E943F089FEF10160CF4DC
:1042300091E0899F802D11248093A5053091A405DC
:104240003323B1F02091A505222391F045EB3403EF
:10425000C0011124992309F49CC19093A40545EB56
:10426000240390011124332309F497C13093A50549
:104270008091A2059091A305892B9091A405892B8B
:104280009091A505892B11F00E94560E86E0FE0143
:104290003196A0EAB5E001900D928A95E1F70E946F
:1042A000BA079091A605891709F4B2CE0E94BA0701
:1042B0008093A605ADCE80E032CE8DE892E046CE6A
:1042C0008091BD05843011F110924D0580E40FB648
:1042D000F894A895809260000FBE8093600083B729
:1042E000817F846083BF83B7816083BF7894889522
:1042F00083B78E7F83BF0FB6F894A8958091600036
:10430000886180936000109260000FBE8091BC05B0
:10431000882351F00E944D1DEEE4F5E0819181115A
:1043200040C199899E13FACF8091BD05853009F46B
:10433000C7CF0E940F0F0E94BA0771CEC394FF0C23
:1043400026E0C21282CE0F5F1F4F0830110509F020
:1043500072CE8FEF8C878D871E860E944A0E8160F9
:10436000782F988B8F874C855D856E8588890E9414
:10437000BE1C8CCE8BEF92E00E94C20B8091560542
:1043800090915705A0915805B09159058F3091052E
:10439000A105B10560F4FC01EA59F64D0C94042620
:1043A00083EF92E00E94C20B81E00E94D00B0AE5ED
:1043B00015E0D8010D900020E9F78D010150110999
:1043C0005AE5E52E55E0F52EE016F10608F071CE1F
:1043D000F70181917F010E94410BF6CF8DEE92E0B3
:1043E000E1CF87EE92E0DECF80EE92E0DBCF8F5F11
:1043F000082F10E07B01082E02C0EE0CFF1C0A946F
:10440000E2F7A9014E215F21452B89F39091920596
:1044100090FD43C08295880F807680930A019801B1
:10442000369527953695279520930D01815E8093CB
:104430000B0110920E0124E630E047E050E068E006
:1044400071E088E70E947825892B09F044CEA80105
:1044500025E0440F551F2A95E1F78091920580FDD4
:104460002AC043535A4F04E610E020E230E060E4F3
:1044700088E70E949F25892B09F02DCE0E94B51E4A
:10448000E094F0948091CB059091CC05E822F9223C
:10449000F092CC05E092CB051ECE880F880F880FD6
:1044A00080930A0110920D01895F80930B0183E0D4
:1044B00080930E01C0CFE2E7F5E080E2DF011D92BC
:1044C0008A95E9F7E7EBF1E0FB8BEA8B03EB11E070
:1044D0009BEB292E91E0392EAA89BB892D91BB8BAC
:1044E000AA8BF80141908F01440E552E511CC20138
:1044F00083539A4F2C01E22FF0E0EE58FA4F30E050
:1045000020E087E0682E621ACC24C394022E01C0FA
:10451000CC0C0A94EAF7520190E0D5018D915D012F
:104520008C21662D691B6770762E062E000C770B8A
:10453000B82F01C0BB0F7A94EAF77B2E7195619575
:1045400071096770772701C086956A95EAF7782A1E
:104550008081782A70829F5F9830F9F62F5F3F4FF5
:1045600031962830310569F6EA89FB892E163F0617
:1045700009F0B2CF04E610E020E230E042E755E077
:1045800076CF81E08093A2051ECE81E08093A305C3
:1045900023CE81E08093A40562CE81E08093A505BF
:1045A00067CE09BD19BD09B400FEFDCF8091D800CA
:1045B0008F7D8093D8008091E00082608093E0003E
:1045C0008091E00081FDFCCF0E940F0FADCE2D3217
:1045D000314008F016CE4CCE232B09F0C6CDFCCDD1
:1045E00061E070E08AE191E00C94F92361E070E011
:1045F0008AE191E00C940024CF93DF93D82FC92F48
:104600000E949A24009799F5ED2FFC2FDC01A0520F
:10461000B84F2C912193019684309105B9F7809180
:10462000560590915705A0915805B0915905809372
:10463000D7079093D807A093D907B093DA07809152
:10464000330590913405A0913505B09136058093DE
:10465000DB079093DC07A093DD07B093DE070E9491
:10466000971E8093D60781E0DF91CF91089580E077
:10467000FBCF30E020E0FC014191CF01F901E05295
:10468000F84F40832F5F3F4F24303105A1F7409111
:10469000D7075091D8076091D9077091DA078091B8
:1046A000560590915705A0915805B09159054817A6
:1046B00059076A077B0781F08091D7079091D80747
:1046C000A091D907B091DA078093560590935705CA
:1046D000A0935805B09359054091DB075091DC0732
:1046E0006091DD077091DE0780913305909134056C
:1046F000A0913505B0913605481759076A077B0721
:1047000081F08091DB079091DC07A091DD07B091EB
:10471000DE078093330590933405A0933505B0935D
:1047200036058091D60781110C94B51E0C949A1E03
:104730008EE14A9B02C08150E1F74A9BFECF08956B
:104740005A9880E28A95F1F75A9A0895FC013BE065
:104750003A95F1F798E020E080E031E040E14A95B9
:10476000F1F7880F4A9B02C08160232742E04A95F7
:10477000F1F7000040E14A95F1F7915079F790E1A7
:104780009A95F1F799B132E03A95F1F7000040E1DE
:104790004A95F1F792FB992790F992272081920F81
:1047A00090830895EF92FF920F931F93CF93DF931F
:1047B0000F92CDB7DEB719828C017C01E60EF11C99
:1047C0000E151F0561F481E09981911180E00F9031
:1047D000DF91CF911F910F91FF90EF9008950E946C
:1047E0009823CE0101960E94A623F80181938F01A0
:1047F000E7CF9093E7078093E607529A5A9A089575
:104800009093E7078093E60752985A9AEA9AE9E666
:10481000F0E080818F7C808308956150770B91E078
:1048200001C0990F6A95EAF720E031E0911108C0C4
:10483000222391F05A9A80E28A95F1F75A980895C6
:10484000492F482339F05A9A232740E24A95F1F735
:104850009695ECCF5A98F9CF5A98EDCFFF920F93D7
:104860001F93CF93DF93EC018C01060F111DC0172E
:10487000D10731F4DF91CF911F910F91FF900895EF
:10488000F9900E94A02368E08F2D0E940D24EFCFA5
:104890001F920F920FB60F9211242F933F934F93B5
:1048A0005F936F937F938F939F93AF93BF93CF93B8
:1048B000DF93EF93FF935A98529AC091E607D091F5
:1048C000E7076D81662321F08E819F810E942E244F
:1048D0000E94A02380E18A95F1F75A9852985A9A3B
:1048E00080E18A95F1F76A81662309F18B819C81C9
:1048F0000E94D223E881F981882311F088E001C069
:1049000082E080830E949823FF91EF91DF91CF9105
:10491000BF91AF919F918F917F916F915F914F91D7
:104920003F912F910F900FBE0F901F901895E88127
:10493000F981E4CFCF93DF93C091E607D091E707E9
:10494000F894529A5A9885E08A95F1F700005298A7
:104950005A9A80E28A95F1F74A9B0CC0529A5A9A69
:10496000E881F98181E08083789481E090E0DF91B3
:10497000CF9108956D81662381F08E819F810E9481
:10498000D22381110AC0529A5A9AE881F98182E0B1
:104990008083789482E090E0EACF0E94982380E2BE
:1049A0008A95F1F75A98529A80E18A95F1F76A81CF
:1049B000662321F08B819C810E942E240E94A023DB
:1049C000E881F9811082789490E080E0D0CF109255
:1049D000B9008CE08093B8000895EF92FF920F9396
:1049E0001F93CF93DF93182FEB011092BC0084EA42
:1049F0008093BC000E944A0E7C018091BC0087FF1E
:104A000027C08091B900887F883029F08091B90053
:104A1000887F8031D9F51093BB0084E88093BC0077
:104A20000E944A0E8C018091BC0087FF24C0209117
:104A3000B900287F90E080E02831B1F081E090E07B
:104A4000203411F490E080E09195819591090CC09B
:104A5000CF3FDC0791F20E944A0E8E199F098C17F6
:104A60009D0758F28EEF9FEFDF91CF911F910F912D
:104A7000FF90EF900895CF3FDC07A9F20E944A0E05
:104A8000801B910B8C179D0770F2ECCF8FEF9FEF7F
:104A9000EBCF0F931F93CF93DF93EB018093BB007A
:104AA00084E88093BC000E944A0E8C018091BC0077
:104AB00087FF11C02091B900287F81E090E0283263
:104AC00011F490E080E0919581959109DF91CF916B
:104AD0001F910F910895CF3FDC0741F30E944A0ECA
:104AE000801B910B8C179D0708F38EEF9FEFEECF85
:104AF000CF92DF92EF92FF920F931F93CF93DF93AA
:104B00006B018A017901B9010E94ED24E6010C0DC7
:104B10001D1DC017D10761F424E92093BC00DF916B
:104B2000CF911F910F91FF90EF90DF90CF9008955C
:104B300097FDF2CFB70189910E944925EACFCF9224
:104B4000DF92EF92FF920F931F93CF93DF93C62FC5
:104B50006A017901B8010E94ED2497FD0CC0B801EB
:104B60008C2F0E944925E601EC0CFD1CCE15DF05BB
:104B700011F097FF0CC024E92093BC00DF91CF9186
:104B80001F910F91FF90EF90DF90CF900895B801A3
:104B900089910E944925EACF84E98093BC00089559
:104BA000991B79E004C0991F961708F0961B881F7F
:104BB0007A95C9F780950895AA1BBB1B51E107C0E0
:104BC000AA1FBB1FA617B70710F0A61BB70B881F9D
:104BD000991F5A95A9F780959095BC01CD0108952C
:104BE00097FB072E16F4009407D077FD09D00E949A
:104BF000DC2507FC05D03EF4909581959F4F0895E4
:104C0000709561957F4F0895EE0FFF1F0590F49109
:104C1000E02D09942F923F924F925F926F927F9274
:104C20008F929F92AF92BF92CF92DF92EF92FF92BC
:104C30000F931F93CF93DF93CDB7DEB7CA1BDB0B68
:104C40000FB6F894DEBF0FBECDBF09942A8839880D
:104C500048885F846E847D848C849B84AA84B98414
:104C6000C884DF80EE80FD800C811B81AA81B98120
:104C7000CE0FD11D0FB6F894DEBF0FBECDBFED0134
:104C80000895FB01DC0102C005900D924150504097
:104C9000D8F70895FB01DC0104C08D9101908019C3
:104CA00021F441505040C8F7881B990B0895AEE09D
:104CB000B0E0EDE5F6E20C9418260D891E898F8987
:104CC000988D26E02C831A83098397FF02C080E029
:104CD00090E801979E838D83AE01455E5F4F698D9D
:104CE0007A8DCE0101960E9487264D815E8157FD07
:104CF0000AC02F813885421753070CF49A01020F1E
:104D0000131FF80110822E96E4E00C943426AFE0D5
:104D1000B0E0EDE8F6E20C940A267C013B018A0142
:104D2000DC0117961C921E92169713968C9181FFA8
:104D3000BEC19AE0292EFE0131964F01D70113968C
:104D40009C91F30193FD859193FF81913F0188230D
:104D500009F444C1853239F493FD859193FF819123
:104D60003F01853229F4B70190E00E947028E6CF18
:104D7000B12C412C512CBFE1B51538F08B3209F123
:104D800088F4803201F1833221F157FC3AC020EDE2
:104D9000280F2A3040F556FE1FC0B29C200D11246A
:104DA000B22E06C08D3291F0803379F7689450F8B6
:104DB000F30193FD859193FF81913F018111DBCF39
:104DC00020C0689451F8689452F8F2CF689453F870
:104DD000EFCF689454F8ECCF429C200D1124422E62
:104DE000689455F8E5CF8E3229F456FCF7C06894E4
:104DF00056F8DECF8C3619F4689457F8D9CF883638
:104E0000B9F2982F9F7D95549330C0F08336A1F16D
:104E10008337C1F1833509F05BC0D801CD90DD90B7
:104E20008D016B2D70E056FC02C06FEF7FEFC60165
:104E30000E945A285C01689457F80AC00C5F1F4F03
:104E4000EFE3E983AA24A394B12C6401E89457F812
:104E500053FC04C04A141B0409F018F5342CA114A7
:104E6000B10431F5332009F469CFB70180E290E055
:104E70000E9470283A94F6CFD8018C9189830E5FF6
:104E80001F4FE0CFF801C190D1908F016B2D70E0E2
:104E900056FC02C06FEF7FEFC6010E9465285C01DF
:104EA000D5CFB70180E290E00E9470284A94D2CF1B
:104EB000F60157FC859157FE81916F01B70190E093
:104EC0000E94702831103A94B1E0AB1AB108C7CFF4
:104ED000843619F0893609F071C0F80157FE67C0B1
:104EE00061917191819191918F01E52DEF76DE2E87
:104EF00097FF09C090958095709561957F4F8F4F72
:104F00009F4F6894D7F82AE030E0A4010E94A028BF
:104F1000C82EC818AC2C5D2CD6FE0CC0E89450F8F6
:104F2000CB1440F4D4FE05C0D2FC03C05D2D5E7EE0
:104F3000552EAB2C54FE93C0FE01EC0DF11D80816B
:104F4000803309F085C0652D697E562E752D7870E9
:104F5000372E53FC93C050FE8DC0BC2CA41410F40B
:104F6000B40CBA1854FE90C0B70180E390E00E94E0
:104F7000702852FE07C088E751FC88E590E0B70131
:104F80000E947028CB1408F48BC0CA94D12C8FEFE8
:104F9000C81AD80AC80CD91CD6018E916D01B70168
:104FA00090E00E9470288C149D04B1F75BCF619152
:104FB0007191072E000C880B990B96CFD52CE89495
:104FC000D4F82AE0853729F1F52DF97FDF2E8037D7
:104FD000A1F058F48835A1F08F36D1F0F701868121
:104FE00097812F96E2E10C9426268837B9F7D4FEF4
:104FF00002C06894D2F820E10CC06894D4F8F7CFCE
:1050000054FE03C02F2F2660D22E20E132E002C0D2
:1050100028E030E0F801D7FE15C04191519161912F
:1050200071914C875D876E877F878F01A4016C85A6
:105030007D858E859F850E94A028C82EC818E8947B
:10504000D7F868CF81919191AC0170E060E0E9CF31
:1050500052FC02C0A3947ACFA394A39477CF852D5A
:10506000867809F473CFF6CFB70180E290E00E9412
:105070007028A394A414C0F3312C74CF342C3A18A4
:10508000A41408F46FCFF8CF852D867809F47ACF71
:105090008BE251FE80E257FC8DE2B70190E070CFC9
:1050A000B70180E390E00E947028BA946BCF8FEF35
:1050B0009FEF97CFFC010590615070400110D8F729
:1050C000809590958E0F9F1F0895FC016150704050
:1050D00001900110D8F7809590958E0F9F1F08952D
:1050E0000F931F93CF93DF93182F092FEB018B8121
:1050F00081FD09C01FEF0FEF812F902FDF91CF911E
:105100001F910F91089582FF14C02E813F818C81E1
:105110009D81281739073CF4E881F981CF01019678
:105120009983888310838E819F8101969F838E83CC
:10513000E3CFE885F985812F0995892BA1F3DACF93
:10514000FA01AA27283051F1203181F1E8946F93B8
:105150006E7F6E5F7F4F8F4F9F4FAF4FB1E03ED05E
:10516000B4E03CD0670F781F891F9A1FA11D680FFC
:10517000791F8A1F911DA11D6A0F711D811D911D2F
:10518000A11D20D009F468943F912AE0269F1124A4
:105190003019305D3193DEF6CF010895462F477008
:1051A000405D4193B3E00FD0C9F7F6CF462F4F7063
:1051B000405D4A3318F0495D31FD4052419302D0C1
:1051C000A9F7EACFB4E0A695979587957795679567
:1051D000BA95C9F700976105710508959B01AC0167
:1051E0000A2E06945795479537952795BA95C9F78E
:1051F000620F731F841F951FA01D0895F999FECF9C
:1052000092BD81BDF89A992780B50895A8E1B0E0D4
:1052100042E050E00C943229262FF999FECF92BD3E
:1052200081BDF89A019700B4021639F01FBA20BD6B
:105230000FB6F894FA9AF99A0FBE08950396272F9D
:105240000E940D290E940C29252F0E940D29242F30
:105250000C940D290196272F0E940D290C940C29DE
:10526000DC01CB01FC01F999FECF06C0F2BDE1BD26
:10527000F89A319600B40D9241505040B8F7089515
:10528000F894FFCF2C0B2C0B350B350B370B350B54
:10529000350B350B2C0B2C0B3C0B350B350B3C0B12
:1052A000FD0F2510BB112510BB1158107910BB1133
:1052B000761183110018001878187818CE18E8189D
:1052C00035183518F318C919D819D819D021D7218C
:1052D000EE21D721F121D721D721D721F421D721C0
:0A52E000F421D721F421D721F42195
:1052EA00C904CF01AF0001010021007F2200038D14
:1052FA00069C0C7B0C770C730C01D5070AD60706A3
:10530A00E00725647825642C206B253264203A2036
:10531A002563000A25640A00202020206162636454
:10532A0065666768696A6B6C6D6E6F7071727374AB
:10533A0075767778797A3132333435363738393089
:10534A00524542545F2D3D5B5D5C233B27602C2E0A
:10535A002F202020818283E200E900EA00B500B60E
:10536A0000B700CD008301CC008A0192019401218B
:10537A0002230224022502260227022A02B300B4CB
:10538A00006F007000946697C600000000F4F5F6FE
:0C539A00F731330008101818100800004C
:00000001FF
