:100000000C94090A0C94500A0C94500A0C94A029E0
:100010000C94500A0C94500A0C94500A0C94500AF8
:100020000C94500A0C94500A0C9434160C94F0154D
:100030000C944B1F0C94500A0C94500A0C94500AC8
:100040000C94500A0C94500A0C94500A0C94500AC8
:100050000C94500A0C940E170C94500A0C94500AED
:100060000C94500A0C94500A0C94500A0C94500AA8
:100070000C94500A0C94500A0C94500A0C94500A98
:100080000C94500A0C94500A0C94500A0C94500A88
:100090000C94500A0C94500A0C94500A0C94500A78
:1000A0000C94500A0C94500A0C94500A084AD73BFE
:1000B0003BCE016E84BCBFFDC12F3D6C74319ABD37
:1000C00056833DDA3D00C77F11BED9E4BB4C3E915B
:1000D0006BAAAABE000000803F05A84CCDB2D44E4A
:1000E000B93836A9020C50B9918688083CA6AAAA4C
:1000F0002ABE000000803F07634236B79BD8A71A8C
:1001000039685618AEBAAB558C1D3CB7CC5763BD99
:100110006DEDFD753EF6177231BF000000803F089F
:10012000000000BE922449123EABAAAA2ABECDCC42
:10013000CC4C3E00000080BEABAAAAAA3E00000044
:1001400000BF000000803F0000000000084178D39D
:10015000BB4387D1133D190E3CC3BD4282AD2B3E3C
:1001600068EC8276BED98FE1A93E4C80EFFFBE01DC
:10017000C4FF7F3F00000000000005010980A101CD
:10018000850319012AB700150126B70095017510DE
:100190008100C0050C0901A101850419012AA002F2
:1001A000150126A002950175108100C00501090204
:1001B000A1010901A100050919012908150025015E
:1001C0009508750181020501093009311581257FE6
:1001D00095027508810609381581257F95017508F6
:1001E0008106050C0A38021581257F950175088165
:1001F00006C0C005010906A101050719E029E71598
:100200000025019508750181029501750881010598
:1002100007190029FF150026FF00950675088100C3
:1002200005081901290595057501910295017503C8
:100230009101C000C03E01000000C0FCFFFFFF7C38
:10024000704040615E80C0BC030000000000000000
:100250000000003C0300000080788700030F3FF897
:10026000F0F02040808000000101020408102040CE
:1002700080000000000000F887000106186080C0C0
:100280003F0380780700000000000000000000002D
:100290000102040000F0CF00010618608080790799
:1002A00080780700000000000000383838000000A7
:1002B000000000E01E0100030C30C000F907807848
:1002C00007000000000000C02C32220000000000E7
:1002D00000000007030C30C00000F00F807807001A
:1002E000000000000000000102000000000000000B
:1002F0000000001860800000E11E01F08F80808007
:100300000000000E0E0E00000000000000000000C3
:100310000000000808090E0E01F00F0000000000A8
:1003200001011919410A2284780000000000000030
:1003300080601800000000F00F02020202020202B8
:10034000020202010101010000000000000000069D
:100350000970800000F01F10101010100808080429
:100360000402020101010101020202020202020270
:1003700004020100C03E01000000C0FC0300030CA9
:1003800030C000E11E00C0BC8380808080800000FF
:100390000000003C0300000080788700030C30C0A0
:1003A00000E01F01C03C03000000000000303105E8
:1003B00041120400000000F887000106186080C0A8
:1003C0003F038078070202020202020202020201D7
:1003D0000103050000F0CF00010618608080790756
:1003E0008078070000000000000038383800000066
:1003F000000000E0FEFFFFFFFCF0C000F90780787E
:1004000007000000000000C02C32220000000000A5
:1004100000000007030F3FFF0301030718F8070060
:1004200000000000000000010200000000000000C9
:10043000000000186080000FF000000000033C0086
:100440000000000E0E0E0000000000000000000082
:100450000000000808090E0E01F30F000000000064
:10046000000000000000000000000000000000008C
:1004700080601800000000F00F0000000000000085
:100480000000000000000000000000000000000666
:100490000970800000F01F101010101008080804E8
:1004A000040202010101010102020202020202022F
:1004B00004020100C03E01000000C0FC0300030C68
:1004C00030C000E11E00C0BC8380808080800000BE
:1004D0000000003C0300000080788700030C30C05F
:1004E00000E01F01C03C03000000000000303105A7
:1004F00041120400000000F887000106186080C067
:100500003F03807807020202020202020202020195
:100510000103050000F0CF00010618608080790714
:100520008078070000000000000038383800000024
:10053000000000E01E0100030C30C000F9078078C5
:1005400007000000000000C02C3222000000000064
:1005500000000007030C30C00000F00F8078070097
:100560000000000000000001020000000000000088
:100570000000001860800000E11E01F08F80808084
:100580000000000E0E0E0000000000000000000041
:100590000000000808090E0E01F00F000000000026
:1005A00001011919410A22847800000000000000AE
:1005B00080601800000000F00F0202020202020236
:1005C000020202010101010000000000000000061B
:1005D0000970800000F01F101010101008080804A7
:1005E00004020201010101010202020202020202EE
:1005F00004020100000000000000000000000000F4
:1006000000000000000000000000000000000000EA
:1006100000000000000000000000000000000000DA
:1006200000000000000000000000000000000000CA
:1006300000000000000000000000000000000000BA
:100AF0000000000000000000003E5B4F5B3E003E37
:100B00006B4F6B3E001C3E7C3E1C00183C7E3C182C
:100B1000001C577D571C001C5E7F5E1C0000183CAB
:100B2000180000FFE7C3E7FF00001824180000FFCB
:100B3000E7DBE7FF0030483A060E00262979292630
:100B400000407F05050700407F05253F005A3CE730
:100B50003C5A007F3E1C1C0800081C1C3E7F0014F1
:100B6000227F2214005F5F005F5F0006097F017F24
:100B700000006689956A0060606060600094A2FF72
:100B8000A2940008047E04080010207E20100008B3
:100B9000082A1C0800081C2A0808001E1010101043
:100BA000000C1E0C1E0C0030383E383000060E3E85
:100BB0000E060000000000000000005F00000000C2
:100BC0000700070000147F147F1400242A7F2A12D4
:100BD00000231308646200364956205000000807BD
:100BE000030000001C224100000041221C00002ADA
:100BF0001C7F1C2A0008083E080800008070300096
:100C000000080808080800000060600000201008C4
:100C10000402003E5149453E0000427F4000007200
:100C200049494946002141494D33001814127F10AB
:100C3000002745454539003C4A49493100412111C9
:100C4000090700364949493600464949291E00002E
:100C5000001400000000403400000000081422418D
:100C60000014141414140000412214080002015945
:100C70000906003E415D594E007C1211127C007F36
:100C800049494936003E41414122007F4141413EB0
:100C9000007F49494941007F09090901003E41415E
:100CA0005173007F0808087F0000417F4100002049
:100CB00040413F01007F08142241007F40404040F6
:100CC000007F021C027F007F0408107F003E41412C
:100CD000413E007F09090906003E4151215E007F27
:100CE000091929460026494949320003017F0103B9
:100CF000003F4040403F001F2040201F003F403841
:100D0000403F006314081463000304780403006187
:100D100059494D4300007F41414100020408102021
:100D200000004141417F00040201020400404040B4
:100D30004040000003070800002054547840007F22
:100D40002844443800384444442800384444287F28
:100D50000038545454180000087E09020018A4A456
:100D60009C78007F080404780000447D4000002047
:100D700040403D00007F102844000000417F4000BB
:100D8000007C04780478007C08040478003844442B
:100D9000443800FC182424180018242418FC007C73
:100DA000080404080048545454240004043F442414
:100DB000003C4040207C001C2040201C003C403077
:100DC000403C004428102844004C9090907C004403
:100DD00064544C44000008364100000000770000D5
:100DE000000041360800000201020402003C2623F4
:100DF000263C00000000000000404040F0F8F8FFF2
:100E000038FFF8F83FF8F8FF38FFF8F8F0404040B6
:100E100000000000000080C0C0C0800000C0C08092
:100E200000000080C0C000C0C0000080C0C0000042
:100E3000000000C0C0C0C0C000C0C0000000000072
:100E400000000000000000000000000000000000A2
:100E50000000000000000000000000000000000092
:100E60000000000000000000000000000000000082
:100E70000000C0F0F8FC3E1E06010000007F41416A
:100E8000417F007F4141417F000080C0E07E5B4F99
:100E90005BFEC00000C000DCD7DEDEDED7DC00C0B9
:100EA0000000000000000000000000000000000042
:100EB000000000000000000000494949FFFFFFFF5B
:100EC000E0DFBFBF00BFBFDFE0FFFFFFFF494949D1
:100ED00000000000001F3F6060E0BF1F007F7F0731
:100EE0001E381E077F7F007F7F0E1F3B7160000052
:100EF0000000007F7F0C0C0C007E7E007F7E0303D1
:100F0000007F7E03037E7E03037F7E000F3E703CE6
:100F1000063C703E0F00327B49493F7E007F7E03D6
:100F200003001E3F69696F260000000000000000FA
:100F30000000030F1F3F3C7870600000007F4141BC
:100F4000417F007F4141417F00307B7F783020200E
:100F500030787F3B0003000F7F0F0F0F7F0F0003E0
:100F60000000000000000000000000000000000081
:100F7000000000000000000000010101070F0F7FCA
:100F80000F7F0F0F7E0F0F7F0F7F0F0F07010101E4
:100F9000000000000000000000000101000000004F
:100FA0000000000000000000000000000000000041
:100FB0000000000000000000000000000000000031
:100FC0000000000000000000000000000000000021
:100FD0000000000000000000000000000000000011
:100FE0000000000000000000000000000000000001
:100FF00000000000000000000000000000000000F1
:1010000000000000000000000000000000000000E0
:1010100000000000000000000000000000000000D0
:1010200000000000000000000000000000000000C0
:1010300000000000AF00AE29001E001F00200021AC
:101040000022002B0014001A00080015001700E011
:101050000004001600070009000A00E1001D001B43
:10106000000600190005002F00E300E2002B5D2CB4
:1010700000A8002A002700260025002400230031B4
:1010800000130012000C0018001C00340033000F85
:10109000000E000D000B00E5003800370036001090
:1010A0000011003000E600E4002C5D28000000354F
:1010B000001E001F00200021002200290014001A39
:1010C00000090013000A002B000400150016001789
:1010D000000700E1001D001B00060019000500E3E9
:1010E00000E200E0002B5D2800A800350027002664
:1010F000002500240023002A0033001C0018000FE4
:10110000000D00340012000C00080011000B00E577
:101110000038003700360010000E00E700E600E45B
:10112000002C5D2C0000003A003B003C003D003EDE
:10113000003F0035001E001F002000210022003368
:101140005D1E021F0220022102220201002E002D3C
:10115000002E022F023002010001000100010001F7
:1011600000010045004400430042004100400001EE
:101170000027002600250024002300310227022634
:101180000225022402230201003100330233003021
:10119000002F000100010001000100010001000119
:1011A00000010001000100010001000100490046AA
:1011B000006500000000000100E200E000E1000026
:1011C00000390001007A007B007C007D00000001F6
:1011D000000100010001000100AE0001000100015A
:1011E000000100010001002A00325D2F5D52002E37
:1011F0005D4B002A004C004F00510050004E000192
:10120000000000315D0000305D00000100010001C0
:1012100000010001000100000000000000000000CB
:10122000000000005C0000295D2A5D015D000000F7
:10123000000000015D000000000000000000000050
:101240000000000000000001000100010001000199
:10125000000000000000000000000000000000008E
:10126000000000000000000000000000000000A9D5
:1012700000A800AA00000000000000AB00AE00AC17
:101280000000000100010001000100010000000059
:10129000000000000000000000000000000000004E
:1012A000000000000000000000000000000000003E
:1012B000000000000000000000000000000000012D
:1012C000000100010001000100000000000000001A
:1012D000000000000000000000000000000000000E
:1012E0000000000000000000000000355D345D00DB
:1012F00000000000000000000000000100010001EB
:101300000001000100000000DA0281FFD9F1DB20BA
:10131000A4A62EAF00A0C000A1C800AED580A81F13
:10132000D300408D1420004350534C4B000A0A0058
:10133000556E646566004D6F7573650A0041646A99
:101340000A004C6F776572005261697365004261F3
:1013500073650A004C41594552000A0A00556E64F3
:10136000656600436C6D6B00517772740057494E8F
:10137000004D414300004D4F4445000A0A00090258
:101380005400030100A0FA09040000010301010058
:101390000921110100012240000705810308000A0C
:1013A00009040100010301020009211101000122C9
:1013B00047000705820308000A0904020001030030
:1013C00000000921110100012232000705830320DA
:1013D000000A120110010000000832FC870201001F
:1013E000010200010C0353006F0066006C006500F1
:1013F00000001A034A006F00730065006600410098
:10140000640061006D00630069006B00000004036C
:10141000090411241FBECFEFDAE0DEBFCDBF04B652
:1014200003FE27C08091A5049091A604A091A70473
:10143000B091A8048730904BA740B04BD1F41092E4
:10144000A5041092A6041092A7041092A80414BE3A
:1014500084B7877F84BF0FB6F894A8958091600009
:10146000886180936000109260000FBEE0E0F8E3B6
:10147000099511E0A0E0B1E0ECE7F9E602C00590C3
:101480000D92A039B107D9F724E0A0E9B1E001C07D
:101490001D92A53AB207E1F70E944A200C94B2349B
:1014A0000C940000CF93DF93409183045091840407
:1014B000435852409A01205C3E4F21303240C0F0E8
:1014C00020E032E0241B350B609181027091820292
:1014D000FC01CA01240F351FC1E0D0E08217930739
:1014E00050F07093820260938102DF91CF91089552
:1014F00020E431E0E9CF4491DC01AD57BD4F5C9170
:10150000451781F04C93AC01A5E056954795AA95F7
:10151000E1F7DE0102C0AA0FBB1F4A95E2F7AD0159
:101520006A2B752B01963196D9CFE8EDF0E08081DA
:101530008E7F80831092E2001092DA001092E10018
:10154000A0EEB0E08C9181608C9380818F77808356
:1015500019BCA7EDB0E08C918E7F8C9380818F7E3B
:1015600080831092630208952091E4003091E50099
:1015700095E6A9012091EC00822F817020FF06C022
:101580008091E80080FF06C080E008952091E80087
:1015900022FD1AC080917002882389F0853089F07D
:1015A0008091EB0085FD0FC02091E4003091E500B3
:1015B00042175307F9F29150E1F684E0089582E072
:1015C000089583E0089581E00895EF92FF920F93CC
:1015D0001F93CF937C018B010E94B40AC82F811105
:1015E00017C08091E80085FD0BC08091E8008E77E0
:1015F0008093E8000E94B40A882399F3C82F08C09A
:10160000F70181917F018093F1000150110949F7A1
:101610008C2FCF911F910F91FF90EF9008958091A3
:10162000720287FF13C08091E80082FF06C080919C
:10163000E8008B778093E80004C0809170028111EC
:10164000F2CF0895809170028823D9F38091E80049
:1016500080FFF8CF8091E8008E77ECCF982F9093A1
:10166000E900242F762F50E0891731F07091EC00BB
:101670002091ED005091F00021FD07C09F5F973051
:1016800071F78093E90081E008953091EB003E7F8F
:101690003093EB003091ED003D7F3093ED003091C1
:1016A000EB0031603093EB007093EC002093ED0081
:1016B0005093F0002091EE0027FDE0CF80E00895E8
:1016C000CF92DF92EF92FF920F931F93CF93DF930E
:1016D000C8EDD0E088818F7E8883E7EDF0E08081DF
:1016E0008160808384E082BF81E08093630288818F
:1016F0008E7F888302EE10E0F80110821092DA00EB
:1017000081EEC82ED12CF601108288818F778883D4
:1017100088818068888388818F7D888319BC109236
:1017200070021092710210926F0210926E0290EE8F
:10173000E92EF12CF70180818B7F80838881816085
:10174000888342E060E080E00E942E0BF6018081F9
:101750008E7F8083F80180818160808380818860B2
:101760008083F70180818E7F808388818061888378
:10177000DF91CF911F910F91FF90EF90DF90CF906D
:101780000895FC018091780290917902861797075D
:10179000A0F06115710529F49091E8009E7790936F
:1017A000E80090E06115710551F4911108C0809135
:1017B000E80082FF34C080E00895BC01F2CF809140
:1017C00070028823C1F18530C1F18091E80083FD6A
:1017D00030C08091E80082FDEACF8091E80080FF70
:1017E000E1CF8091F3002091F200382F611571054F
:1017F00019F02830310558F091E02830310509F012
:1018000090E02091E8002E772093E800CBCF8191E3
:101810008093F100615071092F5F3F4FE7CF8091B6
:101820007002882341F0853041F08091E80083FF09
:10183000BECF81E0089582E0089583E0089580E0BE
:1018400008958091650208959C014FB7F8948091A6
:10185000040290910502A0910602B09107024FBFC9
:10186000821B930B08952FB7F89460910402709136
:10187000050280910602909107022FBF08959C01F6
:10188000FC0132969FEF80E04191461751F09F3F57
:1018900019F4411101C0982F8F5F8630A9F79F3F3F
:1018A00009F40895290F311D97FD3A95F9016283D6
:1018B00008958091DB019091F801892B9091DA01D4
:1018C000892B80939201E0914E02F0914F02309764
:1018D00031F00280F381E02D82E991E009940895CE
:1018E000E92FEE0FE90FEE0F8E0F982F9770869568
:1018F0008695869525E0829FF0011124EE54FE4FD7
:1019000050E040E080E0219130E0092E02C03695A1
:1019100027950A94E2F721703327042E01C0220F85
:101920000A94EAF7822B4F5F5F4F4530510559F714
:101930000895E92FEE0FE90FEE0F8E0F982F977095
:1019400041E001C0440F9A95EAF786958695869501
:1019500095E0899FF0011124EE54FE4F30E020E025
:1019600070E05191DF011197CB01022E02C09695D4
:1019700087950A94E2F781708195852784238527CE
:101980008C932F5F3F4F2530310559F708958823F9
:1019900041F080959091DB0189238093DB010C94C9
:1019A000590C0895882339F09091DB01982B90937E
:1019B000DB010C94590C08950C94330C2091AD016B
:1019C0003091AE012817390771F09093AE018093E2
:1019D000AD01E0914E02F0914F02309721F000846A
:1019E000F185E02D099408952091AB013091AC016F
:1019F0002817390771F09093AC018093AB01E09107
:101A00004E02F0914F02309721F00680F781E02DD1
:101A10000994089590E080E00E94F40C90E080E04A
:101A20000E94DE0C1092F8011092DA010C94590C0D
:101A300060937D0270937E0280937F029093800278
:101A40000C940A0D0F931F9360917D0270917E029A
:101A500080917F02909180028B019C010C70112774
:101A6000222733270C3011052105310529F4606147
:101A70001F910F910C94180D6F7EFACF0F931F9347
:101A800041E050E060E070E004C0440F551F661F65
:101A9000771F8A95D2F7CB01BA0160957095809532
:101AA000909500917D0210917E0220917F023091ED
:101AB000800260237123822393231F910F910C9442
:101AC000180D0F931F9341E050E060E070E004C0F8
:101AD000440F551F661F771F8A95D2F780917D02AC
:101AE00090917E02A0917F02B09180028A019B01B9
:101AF000082B192B2A2B3B2BC901B8011F910F91E1
:101B00000C94180D6093FE017093FF018093000206
:101B1000909301020C940A0D8823B1F19CEF980F69
:101B2000913A70F4E4E9F1E09191891303C0DF0187
:101B300011971C9241E0EA39F407B1F70C94590C63
:101B400090E2980F983088F4877021E030E0A90186
:101B500002C0440F551F8A95E2F7CA018095909103
:101B6000DB0189238093DB01E9CF9BE5980F93305C
:101B700020F490E080E00C94F40C885A873120F433
:101B800090E080E00C94DE0C0895CF93C82F88235A
:101B900009F44EC08CEF8C0F813AF8F4E4E9F1E0DF
:101BA0008AE991E0DF012D91C21759F08A179B074E
:101BB000D1F76C2F82E991E00E943F0CCF910C94F9
:101BC000590C2191C21303C0DF0111971C928E178B
:101BD0009F07B9F70E94590CECCF80E28C0F883038
:101BE00068F4C77021E030E001C0220FCA95EAF71F
:101BF0008091DB01822B8093DB01E0CFEBE5EC0FE2
:101C0000E33040F4F0E0E95DFE4F808190E0CF9159
:101C10000C94F40CC85AC73158F4EC2FF0E0EE0FD6
:101C2000FF1FE65DFE4F80819181CF910C94DE0C09
:101C3000CF910895E0914E02F0914F02309721F03C
:101C40000190F081E02D099480E00895F894E82F48
:101C5000E295EF70F0E031A1282F2F7081E090E045
:101C600001C0880F2A95EAF7982F9095932391A3A6
:101C700092A1892B82A3789408959091020292FFF9
:101C800006C0282F2871283079F4877F846020913E
:101C9000030220FF06C0282F2871283061F4877FB7
:101CA000816094FD877E0895282F2471243079F770
:101CB0008B7F8860ECCF282F2171213091F78E7FA8
:101CC0008860EFCFCF93DF93972F70E026E0929F4D
:101CD000600D711D1124FB013CE3839FE00DF11D9C
:101CE0001124EE0FFF1FE95CFF4EC591D491CE0188
:101CF000C238D10589F1B8F5C133D10509F493C0D3
:101D000020F5C932D10509F487C0CA32D10509F4DA
:101D100091C0C11520E5D20708F0A0C0C11530E47C
:101D2000D30708F00EC1CF3BD10508F08AC0C83AEE
:101D3000D10508F0FBC0C53AD10508F0EFC0C430AA
:101D4000D105F8F42197E9F040C0C533D10509F475
:101D50005CC0C933D105E9F620910202237089F0F5
:101D600080EE90E00EC0C33ED10591F168F4C03E14
:101D7000D105F9F0C23ED10561F62091020222FDA3
:101D800020C0DF91CF910895C63ED10561F1C73ED5
:101D9000D10581F1C43ED10509F0BBCF20910302EA
:101DA00021FFEFCF8091020284FD0FC087EE90E00B
:101DB000E8CF2091020220FDE6C03091030230FFFF
:101DC000E0CF83EE90E024FFDCCF90E080E0D9CF3D
:101DD0002091020222FDDAC03091030230FDC0CF13
:101DE00024FFCFCFF2CF2091020223FFCACF24FDE0
:101DF000ECCFDCCF2091020223FDCBC03091030257
:101E000031FFEECF84EE90E0BCCF2091020225FF9F
:101E1000B8CF89E290E0B5CF2091020225FFB1CF83
:101E200085E390E0AECF2091020226FFAACF8AE29E
:101E300090E0A7CF2091020226FFA3CF81E390E09C
:101E4000A0CFC13ED10508F2C83ED10508F499CF14
:101E5000DA95C115DF4108F494CFB7CFC11533E54A
:101E6000D30730F5C11582E5D80708F073C0C11556
:101E700091E5D90708F069C09E0144E036952795A1
:101E80004A95E1F723708C2F86958695837030E212
:101E9000839FC0011124922BC37041E050E002C027
:101EA000440F551FCA95E2F7842B952B9C6869CF88
:101EB000C11529E5D207F8F4C11538E5D30708F0B4
:101EC0005DC0C11584E5D80708F07FCF9E0123705F
:101ED000332781E090E002C0880F991F2A95E2F72E
:101EE000EC2FE695E69530E2E39FF00111248E2B6E
:101EF0009F2B9A6846CFC1159AE5D90708F065CFA0
:101F00008C2F8F700E943D0E9E0194E03695279590
:101F10009A95E1F72F70922F906933CFC55AD0E090
:101F2000C95DDE4F888190E090642BCFC85AEC2FBA
:101F3000F0E0EE0FFF1FE65DFE4F8081918194641B
:101F400020CFCE019F70906A1CCF9C2F8827816F75
:101F5000906A17CF9E012370332781E090E002C082
:101F6000880F991F2A95E2F7EC2FE695E69520E277
:101F7000E29FF00111248E2B9F2B98CF9C2F882756
:101F8000806F906AFECE89E390E0FBCE82EE90E017
:101F9000F8CE86EE90E0F5CEBF92CF92DF92EF9230
:101FA000FF920F931F93CF93DF938C01C0907D021C
:101FB000D0907E02E0907F02F09080028091FE013E
:101FC0009091FF01A0910002B0910102C82AD92A84
:101FD000EA2AFB2ACFE1D0E0BC2ED701C6010C2EA5
:101FE00004C0B695A795979587950A94D2F780FD7A
:101FF0000EC0219788F7B12C8B2DDF91CF911F91C7
:102000000F91FF90EF90DF90CF90BF900895B801AF
:102010008C2F0E94620E019761F3EECFCF92DF9278
:10202000EF92FF926C01EE24FF2420E0C114D10452
:10203000E104F10419F0C701B60120E1C72ED82E42
:10204000E92EFF24C114D104E104F10419F0285F42
:10205000C701B6016B017C0154E0F694E794D79474
:10206000C7945A95D1F7C114D104E104F10419F0D1
:102070002C5FC701B6016B017C0142E0F694E79446
:10208000D794C7944A95D1F7C114D104E104F1045F
:1020900019F02E5FC701B6019695879577956795DC
:1020A000672B682B692B09F02F5F822FFF90EF9031
:1020B000DF90CF90089580911102893220F483EB54
:1020C00094E00C94520A8C33C0F080919A0190E015
:1020D00001968170992780939A0121E030E0281BB6
:1020E000390B40E451E0249FC001259F900D349F9F
:1020F000900D11248D5C9D4FE4CF0895DC01FB0110
:1021000080819181803891054CF08FE78C9380819C
:1021100091818F57910991838083089581382FEFA2
:1021200092073CF481E88C938081918181589F4F84
:10213000F2CF8C93118210820895CF92DF92EF92AA
:10214000FF920F931F93CF93DF936C017B0164E6A3
:1021500070E088E70E94B32AEC0197FD12C010E0FE
:1021600000E0F601E00FF11F849164E670E00E9448
:102170000F2BEC01892B29F40F5F1F4F0E151F0544
:1021800081F70E94292CCE01DF91CF911F910F91F1
:10219000FF90EF90DF90CF9008951092DB01E4E97B
:1021A000F1E086E0DF011D928A95E9F70C940A0DB3
:1021B0001F93CF93DF93CDB7DEB7AA970FB6F894EE
:1021C000DEBF0FBECDBF82E792E02091F100DC01BF
:1021D0002D93CD01B2E08A379B07B9F78091730246
:1021E000833009F471C0B8F4813009F448C08230FA
:1021F00009F4B2C08091E80083FF83C2809172022B
:10220000909173029A3008F07CC2E92FF0E0EC5410
:10221000FB4C0C94802C8A3009F48DC08B3009F46F
:1022200070C0893039F780917202813219F780913C
:10223000760290917702009711F00297D9F680917B
:10224000E800877F8093E8008091E80082FF37C034
:102250009091F3008091F200029729F48091F100AF
:102260008B7F813021F48091F10080936502809111
:10227000E8008B778093E8000E940F0BBBCF809122
:102280007202813A09F0B6CF8091E800877F80938F
:10229000E8008091760290917702892B61F468E0E2
:1022A00086E692E070E00E94C10B8091E8008B7797
:1022B0008093E8009FCF60E090E080E0F3CF8091D2
:1022C00070028111C1CF96CF80917202813A09F0DC
:1022D00091CF8091760290917702892B09F08ACF75
:1022E0008091E800877F8093E8008091E80080FF7C
:1022F000FCCF809114018093F1008091E8008E77EB
:10230000B9CF80917202813209F074CF8091760248
:1023100090917702892B09F06DCF8091E800877F3B
:102320008093E8000E940F0B809174028093140147
:102330000E94CD105FCF80917202813209F05ACF96
:102340008091E800877F8093E8000E940F0B8091C6
:102350007502809364024ECF80917202813A09F037
:1023600049CF8091E800877F8093E8008091E80062
:1023700080FFFCCF80916402BECF803899F0823814
:1023800009F0BFC1809176028F70873008F0B9C123
:102390008093E9008091EB0085FB882780F91092FB
:1023A000E90006C080916E0290916F0291118260E7
:1023B0009091E800977F9093E8008093F10010924D
:1023C000F1008091E8008E7798C1882309F486C1D6
:1023D000823009F096C180917402811189C1809187
:1023E00076028F702FEF280F263008F08AC1809375
:1023F000E9002091EB0020FF7BC1933031F4809104
:10240000EB0080628093EB0073C19091EB009061D0
:102410009093EB0021E030E001C0220F8A95EAF7AB
:102420002093EA001092EA008091EB008860EACFE6
:10243000811167C1109174021F778091E300807849
:10244000812B8093E3008091E800877F8093E800F0
:102450000E940F0B8091E80080FFFCCF8091E30089
:1024600080688093E30082E0111183E08093700222
:1024700048C18058823008F044C1209174023091E4
:1024800075022C3DE3E03E07A1F583E08A838AE2F2
:1024900089834FB7F894DE01139620E03EE051E2C5
:1024A000E32FF0E050935700E49120FF03C0E29542
:1024B000EF703F5FEF708E2F90E0EA30C0F0C7966C
:1024C0008D939D932F5F243159F74FBF8091E80082
:1024D000877F8093E8006AE270E0CE0101960E9457
:1024E000C10B8091E8008B778093E8000AC1C09609
:1024F000E7CF8091760290917702432F55274330A2
:10250000510509F44AC078F54130510509F47AC003
:1025100084E590E0EEE7F3E14230510509F0F1C0C7
:102520002091E800277F2093E800209178023091E5
:1025300079028217930708F49C0140E021153105C8
:1025400009F065C0411163C08091E80082FDC9CFE8
:1025500080917002882329F2853019F28091E80079
:1025600083FFF2CFBECF4132510509F43CC0423265
:10257000510509F0C6C08330910508F0C2C0FC01C6
:10258000EE0FFF1FED57FE4F0190F081E02D8058B8
:102590009E4FDC018C9190E01AC033272130310529
:1025A000D1F02115310561F02230310509F0A9C0C3
:1025B000E4EEF3E1E4918E2F90E0E4EEF3E107C066
:1025C000EEE0F4E1E4918E2F90E0EEE0F4E100978C
:1025D00009F497C0A5CFE2EFF3E1E4918E2F90E0EC
:1025E000E2EFF3E1F4CF8330910508F08AC0880F61
:1025F000991FFC01E757FE4F0190F081E02D89E023
:1026000090E08ECF82E190E0E2EDF3E189CF80911E
:102610007002882309F465CF853009F462CF809178
:10262000E80083FD5ECF8091E80082FD8DCF809130
:10263000E80080FF83CF9091F3008091F200211594
:10264000310519F08830910550F041E0089709F004
:1026500040E08091E8008E778093E8006FCF44914E
:102660004093F1003196215031090196E8CF80382E
:1026700009F047C08091E800877F8093E80080914F
:1026800071028093F1009DCE81113BC010917402C4
:102690001230B8F58091E800877F8093E8001093AE
:1026A00071020E940F0B112311F084E005C080918C
:1026B000E30087FDFACF81E08093700242E061EC95
:1026C00081E00E942E0B42E061EC82E00E942E0B22
:1026D00042E261EC83E00E942E0B13C080917402F1
:1026E000813079F481E0933009F080E080936F02CB
:1026F0001092E9008091E800877F8093E8000E94B3
:102700000F0B8091E80083FF0AC08091E800877F6B
:102710008093E8008091EB0080628093EB00AA96A2
:102720000FB6F894DEBF0FBECDBFDF91CF911F91E2
:102730000895CF93DF9300D000D00F92CDB7DEB7CE
:1027400019828A836B834C832D8324E630E045E035
:1027500050E0BE016F5F7F4F84E10E94862B0F9097
:102760000F900F900F900F90DF91CF910895CF931E
:1027700084E090E00E948F2FC82F81E290E00E94B9
:102780008F2F982F8C2FCF910895CF93DF9300D068
:102790000F92CDB7DEB790917002943019F589830E
:1027A0007B836A8383E08093E9008FEF9091E80058
:1027B000815095FD06C095ED9A95F1F700008111C5
:1027C000F5CF8091E80085FF0DC050E040E063E068
:1027D00070E0CE0101960E94E50A8091E8008E77B4
:1027E0008093E8000F900F900F90DF91CF910895A4
:1027F000BC0184E00C94C513BC0183E00C94C513A8
:102800009C0182E08093E9009FEF8091E800915065
:1028100085FD06C085ED8A95F1F700009111F5CF91
:102820008091E80085FF0CC050E040E065E070E07A
:10283000C9010E94E50A8091E8008E778093E80044
:102840000895CF93DF93EC0181E08093E9008FEF4F
:102850009091E800815095FD06C095ED9A95F1F7AD
:1028600000008111F5CF8091E80085FF14C050E091
:1028700040E068E070E0CE010E94E50A8091E80047
:102880008E778093E80088E0FE01A6E6B2E0019032
:102890000D928A95E1F7DF91CF9108951F93CF9321
:1028A000DF93182FEB010E94C50D8FE99FE0019780
:1028B000F1F700C000002197C1F7812FDF91CF9180
:1028C0001F910C948C0DCF93DF93D82FC62F60915E
:1028D0007D0270917E0280917F02909180020E9421
:1028E0000E10823028F0833079F0DF91CF91089577
:1028F000D111FBCF64E670E08AEAC11101C089EA18
:10290000DF91CF910C944E14D111EFCF64E670E0BB
:102910008CEAC111F5CF8BEAF3CF80919F01811131
:1029200011C08091D80080618093D8008AE18A9597
:10293000F1F700C09091D900892F817090FF82E05B
:1029400080939F0181E090919F01913009F080E098
:1029500008956BEE7EEF90E080E00E94BB2F60E078
:1029600082E090E00E949D2F60E083E090E00E9472
:102970009D2F1092FE011092FF0110920002109202
:10298000010260E084E090E00E949D2F60E081E21F
:1029900090E00E949D2F60E085E090E00E949D2FD6
:1029A00060E086E090E00E949D2F6FEF87E090E06E
:1029B0000E949D2F40E050E0BA0188E090E00E9424
:1029C000AF2F60E08DE090E00E949D2F40E050E04E
:1029D000BA0188E190E00E94AF2F60E087E190E0CB
:1029E0000E949D2F40E050E0BA018CE190E00E94EF
:1029F000AF2F60E080E290E00E949D2F40E050E029
:102A0000BA0188E190E00E94AF2F40E050E0BA01A7
:102A10008FE090E00E94AF2F40E050E0BA0183E1E8
:102A200090E00C94AF2F1F93CF93DF93162F8A3033
:102A300031F481E0DF91CF911F910C94B8158D3066
:102A400011F480E0F7CFC0918304D091840496E024
:102A5000FE01A5EAB1E001900D929A95E1F7803E62
:102A6000A8F186E0FE0111928A95E9F7C0918304EE
:102A7000D0918404111136C046E050E0BE0185EAD1
:102A800091E00E94E82C9E0123583240892BA9F541
:102A90002A5F3F4F40911002642F70E0C9010E94ED
:102AA000392C481B463010F4240F311D211572E0DB
:102AB000370710F030E020E02D573D4F309384046D
:102AC00020938304DF91CF911F910895F6E08F9FAB
:102AD000B00111246D50754F46E050E0CE010E94C8
:102AE000DF2CC4CF9E012A5F3F4FFE012E173F0708
:102AF00019F2808180958193F9CFC90145E09695BF
:102B000087954A95E1F741E050E0BA0102C0660FAF
:102B1000771F8A95E2F7CB01609181027091820262
:102B2000862B972BB9016B5F7F4FE5E07695679514
:102B3000EA95E1F702C0440F551F6A95E2F7842B2E
:102B4000952B9093820280938102A2CF1F93CF9303
:102B5000DF93EC01162FFE018491811104C0DF91F7
:102B6000CF911F910895612F0E9413152196F3CFE5
:102B7000CF93382FE0918304F0918404E358F2401E
:102B800020911002622F70E0CF010E94392C281B87
:102B9000822F332369F066E00E942D2CC82FC1508C
:102BA00010F4CF91089560E080E20E941315F7CFF2
:102BB0009F01280F311D2115324018F080E0F0E010
:102BC000E0E08E0F9F2F911D8D579D4F90938404B1
:102BD00080938304E6CF0E94A61581E00C94B8157B
:102BE0001F920F920FB60F9211242F933F934F9382
:102BF0005F936F937F938F939F93AF93BF93CF9385
:102C0000DF93EF93FF93D091E900DF708091EC00A8
:102C1000C82FC17080FDC0E81092E9008091F000DB
:102C2000877F8093F00078940E94D8101092E9007A
:102C30008091F00088608093F000CD2BCF70C0931E
:102C4000E900FF91EF91DF91CF91BF91AF919F91FB
:102C50008F917F916F915F914F913F912F910F9045
:102C60000FBE0F901F9018951F920F920FB60F92E4
:102C700011242F933F934F935F936F937F938F9381
:102C80009F93AF93BF93EF93FF938091E10082FFF7
:102C900009C08091E20082FF05C08091E1008B7F36
:102CA0008093E1008091DA0080FF24C08091D800F9
:102CB00080FF20C08091DA008E7F8093DA008091BF
:102CC000D90080FF9BC080E189BD82E189BD09B444
:102CD00000FEFDCF81E0809370028091630281113C
:102CE00009C00E94950A0E94600B8091E2008460F6
:102CF0008093E2008091E10080FF17C08091E200A4
:102D000080FF13C08091E2008E7F8093E20080916B
:102D1000E20080618093E2008091D800806280931D
:102D2000D80019BC85E0809370028091E10084FF97
:102D300029C08091E20084FF25C080E189BD82E145
:102D400089BD89B5982F917080FFFBCF8091D80005
:102D50008F7D8093D8008091E1008F7E8093E10089
:102D60008091E2008F7E8093E2008091E20081609A
:102D70008093E20080917102882309F445C084E0C9
:102D8000809370028091E10083FF27C08091E20070
:102D900083FF23C08091E100877F8093E10082E080
:102DA00080937002109271028091E1008E7F809377
:102DB000E1008091E2008E7F8093E2008091E2004A
:102DC00080618093E20042E060E080E00E942E0B90
:102DD0008091F00088608093F000FF91EF91BF91A7
:102DE000AF919F918F917F916F915F914F913F91A3
:102DF0002F910F900FBE0F901F90189519BC109235
:102E000070021092630276CF8091E30087FD93E019
:102E100090937002B7CF80911102089578941F9219
:102E20001FB61F9211248F939F93AF93BF938091EE
:102E3000040290910502A0910602B091070201964A
:102E4000A11DB11D8093040290930502A093060278
:102E5000B0930702BF91AF919F918F911F901FBEBA
:102E60001F9018952FB7F894809104029091050255
:102E7000A0910602B09107022FBF0895CF93DF9370
:102E8000C0918504D0918604CE010E94240C892B28
:102E9000A1F0CE010E94240C893B9B4070F40E945B
:102EA0003217909386048093850420E540E060E02B
:102EB00080E0DF91CF910C949913809115018111DD
:102EC0000EC020E540E060E00E9499130E94321796
:102ED0009093860480938504DF91CF910895CE016D
:102EE0000E94240C893B9B40B8F320E0DFCF0F9376
:102EF0001F93CF93DF93C62FD42F022FFC01828123
:102F00008823A1F060937C020E94321790937B0289
:102F100080937A02C77081E001C0880FCA95EAF7F2
:102F2000DF91CF911F910F910C94D20C80917C0274
:102F3000681337C080917A0290917B020E94240C22
:102F40008436910570F510E21D0FCD17B9F080E2BF
:102F50008C0F883040F4C77081E001C0880FCA959B
:102F6000EAF70E94C70C183048F481E09D2F977053
:102F700001C0880F9A95EAF70E94D20C64E670E0CF
:102F8000802F0E944E14183098F4D77081E001C051
:102F9000880FDA95EAF7DF91CF911F910F910C948A
:102FA000C70CC77081E001C0880FCA95EAF7F3CF5C
:102FB000DF91CF911F910F9108954F925F926F9281
:102FC0007F928F929F92AF92BF92DF92EF92FF9289
:102FD0000F931F93CF93DF9300D000D00F92CDB704
:102FE000DEB77C01FC0183819481892B39F010814B
:102FF000D180812F8D218F3F09F0BFC50F900F9099
:103000000F900F900F90DF91CF911F910F91FF9034
:10301000EF90DF90BF90AF909F908F907F906F90D8
:103020005F904F9008950E94CC0F082F682F8981E0
:103030009A810E94990CE12FF0E026E0D29EE00DEB
:10304000F11D11243CE3039FE00DF11D1124EE0F4F
:10305000FF1FE95CFF4E05911491F70182818823DF
:1030600009F460C0C80190568115F0E29F0750F046
:10307000905E811520E1920728F0915C81159F41B7
:1030800008F097C0C80199279C01245031092432C7
:10309000310520F08B970E9708F044C08091AF0166
:1030A0009091B0010097C1F10E94240CA0901102F0
:1030B000B12C9C0150E040E060E67AEE80E090E0C8
:1030C0000E94612CCA01B90125E030E040E050E0E7
:1030D0000E94612C622F70E06A197B09072E000C98
:1030E000880B990B0E945B3127EA39E747E45DE3DF
:1030F0000E945A322B013C01B501BB0C880B990B85
:103100000E945B319B01AC01C301B2010E94D22F2E
:103110000E942A31609311020E9432179093B001ED
:103120008093AF010D328DE5180709F4F0C008F067
:1031300089C00D37110509F414C208F043C00B37DC
:10314000110509F41DC208F0D3C10A37110509F4AD
:1031500026C2043FFCE51F0709F450C208F03CC238
:10316000093D3CE5130709F445C20A3D8CE5180703
:1031700009F450C2083D9CE5190709F011C126E287
:1031800041EE61EEC7010F900F900F900F900F90DE
:10319000DF91CF911F910F91FF90EF90DF90BF9043
:1031A000AF909F908F907F906F905F904F900C9416
:1031B000771790E080E00F3F110511F008F064CF21
:1031C000C80162CF0A32EDE51E0709F46EC048F56A
:1031D00009322DE5120709F0BCCFF701828188235F
:1031E00009F40CCF61E083E090E00E949D2F61E044
:1031F00070E080E090E00F900F900F900F900F9094
:10320000DF91CF911F910F91FF90EF90DF90BF90D2
:10321000AF909F908F907F906F905F904F900C94A5
:10322000820D0B323DE5130709F44EC00C328DE5DB
:10323000180709F08ECFF7018281882309F465C051
:1032400083E047C001339DE5190709F433C198F4C1
:10325000F7019281809103020F32FDE51F0709F407
:103260000CC108F48EC08170992309F41FC181112B
:10327000F5C08AE493C003333DE5130709F479C030
:1032800008F427C104339DE5190709F497C10533F4
:10329000EDE51E0709F05DCF80915602F70192819E
:1032A000992309F497C1826090C1F7018281882334
:1032B00009F4A4CE62E083E090E00E949D2F62E0DA
:1032C00070E080E090E097CFF7018281882321F0C1
:1032D00082E00E94610D03C082E00E943E0D0F90CB
:1032E0000F900F900F900F90DF91CF911F910F9142
:1032F000FF90EF90DF90BF90AF909F908F907F9066
:103300006F905F904F900C94220D83E0E6CFF70111
:1033100082818823B9F084E00F900F900F900F9076
:103320000F90DF91CF911F910F91FF90EF90DF9061
:10333000BF90AF909F908F907F906F905F904F90D5
:103340000C94610D84E00F900F900F900F900F90F0
:10335000DF91CF911F910F91FF90EF90DF90BF9081
:10336000AF909F908F907F906F905F904F900C9454
:103370003E0DF7018281882311F085E0CDCF85E0F5
:10338000E2CF8170992309F46BC0882309F466C0E9
:1033900084E00E943D0E0E94D20C80E50E94C50D83
:1033A000F7018281882309F4F9C310927C0202306C
:1033B000FCE51F0708F409C406312CE5120738F0B4
:1033C00098012B5F3C452930310508F0FEC30E946F
:1033D000B713909303028093020200313CE5130778
:1033E00009F4C8C108F056C108309CE5190709F472
:1033F000B7C108F025C10430FCE51F0709F4A8C1D6
:1034000008F00BC102303CE5130709F497C1033003
:103410001C4509F499C1609102021091030284E0F5
:1034200090E00E949D2F612F81E290E00E949D2FED
:103430000F900F900F900F900F90DF91CF911F91F1
:103440000F91FF90EF90DF90BF90AF909F908F9083
:103450007F906F905F904F900C94CD1081E099CF4A
:10346000882349F084E00E943D0E0E94C70C80E54D
:103470000E948C0D95CF81E0F6CF8170992359F091
:10348000882339F084E00E943D0E0E94D20C8FE424
:1034900085CF81E0F8CF882339F084E00E943D0E8B
:1034A0000E94C70C8FE4E4CF81E0F8CF8111E3CF15
:1034B0008AE4DECF809103028170F7019281992323
:1034C00021F08111E6CF8DE469CF8111EDCF8DE43C
:1034D000CFCF81E00E943D0EF7019281992321F028
:1034E0000E94D20C8AE25ACF0E94C70C8AE2C0CF57
:1034F00081E00E943D0EF70192819923C9F00E945C
:10350000D20C86E00F900F900F900F900F90DF91EC
:10351000CF911F910F91FF90EF90DF90BF90AF90F0
:103520009F908F907F906F905F904F900C94C50DFF
:103530000E94C70C86E00F900F900F900F900F9095
:10354000DF91CF911F910F91FF90EF90DF90BF908F
:10355000AF909F908F907F906F905F904F900C9462
:103560008C0D81E00E943D0EF7019281992321F09C
:103570000E94D20C89E1C6CF0E94C70C89E1DBCF43
:1035800081E00E943D0EF7019281992321F00E9473
:10359000D20C8BE1B7CF0E94C70C8BE1CCCF81E07E
:1035A0000E943D0EF7019281992321F00E94D20CD6
:1035B0008DE1A8CF0E94C70C8DE1BDCF809156024E
:1035C000F7019281992321F081608093560216CDF4
:1035D0008E7FFBCF8D7FF9CF063FECE51E07B1F064
:1035E00088F0073F2CE5120709F0DACE27E245EE16
:1035F00066EEC8CD27E245EE65EEC4CD26E241EE8B
:1036000060EEC0CD27E245EE64EEBCCD26E241EE91
:1036100062EEB8CD28E241E0EFCF809102028061F6
:1036200006309CE5190709F48CC08091020288607D
:1036300007301C4508F485C080910202806281C079
:10364000809102028D7F0C30FCE51F0709F479C0E0
:1036500070F4809102028C600A303CE5130709F493
:1036600070C008F481C0809102028E7F6AC0809190
:103670000202877F0E309CE5190709F462C0809131
:1036800002028B7F0F301C4508F45BC08091020260
:103690008F7E57C00C3FFCE51F0709F45DC030F575
:1036A00003313CE5130709F46DC078F401319CE562
:1036B000190709F463C002311C4509F0ACCE0E9421
:1036C000CD10809102028F773CC00531FCE51F07C9
:1036D00009F460C008F474C08091030281600B3F5C
:1036E0001C4509F098CE8093030295CE01158DE517
:1036F000180709F44BC088F4809103028D7F0E3FB8
:10370000ECE51E0781F3809103028E7F0F3F1C457D
:1037100050F3809103028360E6CF02302DE512075B
:1037200009F457C008F442C060E003301D4509F0B9
:1037300072CE8EE090E00E949D2F6DCE80910202AD
:1037400081608093020267CE809102028260F9CF8D
:10375000809102028460F5CF809103028260C3CF22
:10376000809102028064EDCF0E94CD108091020210
:103770008068E7CF809102028F7DE3CF80910202C3
:103780008F7BDFCF80910202837FDBCF80910302AA
:103790008C7FA9CF8091020282FB992790F921E0CA
:1037A000922790FB82F990FB83F9CBCF80910302A3
:1037B000982F909591708E7F892B90FB81F993CFF4
:1037C0000E94CD1090910202892F97FB87F98058B3
:1037D000B8CF61E0AECF85E3EAC1882349F0011597
:1037E0009CE5190709F44DC00F3D1C4509F465C05F
:1037F000F70100811181882309F475C0C8010E9476
:10380000CC0FD82E682FC8010E94990CB8018D2DBD
:103810000E94620ED82EB82EF7018281192F1295C0
:103820001F70143009F4B2C008F062C0123008F4FE
:1038300071C0212F2850330B2230310510F40E9423
:103840001A0E85E0F701DE01119601900D928A951E
:10385000E1F789819A810E94700C9A81E981F0E0F8
:1038600036E0939FE00DF11D11249CE3899FE00D4C
:10387000F11D1124EE0FFF1FE95CFF4E859194911D
:10388000BDCB0E94CD10FFEF24E33CE0F15020407F
:103890003040E1F700C0000087E797E79093010808
:1038A0008093000888E19AE00FB6F894A895809379
:1038B00060000FBE90936000FFCF0F900F900F90AD
:1038C0000F900F90DF91CF911F910F91FF90EF908C
:1038D000DF90BF90AF909F908F907F906F905F90A0
:1038E0004F900C94A914C8010E94700CD82E8ECF52
:1038F000183009F467C0193009F09BCF092F0F70F9
:10390000882309F433C1802F0E94610D8D2D0E9400
:10391000D20C8FCF092F0F70907F11F00295007F8E
:103920008823C9F0002369F080E28D0D883010F003
:10393000D1100BC08091DB01082B0093DB010E94AA
:10394000590C8D2D0E94C50D74CF8091F801082B64
:103950000093F801F4CF8D2D0E948C0D002309F403
:1039600068CF009580E28D0D883010F0B11008C04E
:103970008091DB0108230093DB010E94590C59CF91
:103980008091F80108230093F801F7CF292F26959D
:103990002695237051F0213009F04BCF882379F020
:1039A0008D2D93700E94DE0C44CF882329F08D2D3D
:1039B00093700E94F40C3DCF90E080E0FACF90E04D
:1039C00080E0F0CF292F237009F065C0811131CF3D
:1039D0008D2D829586958770880F880F6D2D6F705D
:1039E000862E912CB12CA12C082E04C0880C991C79
:1039F000AA1CBB1C0A94D2F740E050E0BA01D4FEE6
:103A00000FC04FE050E060E070E004C0440F551F6D
:103A1000661F771F8A95D2F74095509560957095EF
:103A2000969596959370923019F1D8F44090FE01D6
:103A30005090FF016090000270900102913069F097
:103A4000482959296A297B29CB01BA0164217521AA
:103A5000862197210E94820DECCE84289528A628E5
:103A6000B728CB01BA01682979298A299B29F2CF85
:103A7000482959296A297B298090FE019090FF01ED
:103A8000A0900002B0900102CB01BA01682579250F
:103A90008A259B25DFCF2695882311F0292F2170B9
:103AA000222309F4C6CE8D2D829586958770880FC6
:103AB000880F6D2D6F70862E912CB12CA12C082EA5
:103AC00004C0880C991CAA1CBB1C0A94D2F740E0C5
:103AD00050E0BA01D4FE0FC04FE050E060E070E06B
:103AE00004C0440F551F661F771F8A95D2F7409573
:103AF000509560957095969596959370923019F1C2
:103B0000D8F440907D0250907E0260907F027090C9
:103B10008002913069F0482959296A297B29CB0113
:103B2000BA0164217521862197210E94180D81CE4A
:103B300084289528A628B728CB01BA0168297929B5
:103B40008A299B29F2CF482959296A297B29809003
:103B50007D0290907E02A0907F02B0908002CB0107
:103B6000BA01682579258A259B25DFCF8D2D0E94F6
:103B7000C70C802F0E943E0D5CCE85E0DE011196C1
:103B800001900D928A95E1F7F701228189819A814E
:103B9000211149CA0E94700C082F4DCA06311C45DC
:103BA00009F026CE8091B101811115CE89E2E4E9B8
:103BB000F1E02AE931E09191891303C0DF01119707
:103BC0001C922E173F07B9F714C006312CE51207D7
:103BD00009F003CE8091DB018A7A91E009F490E04C
:103BE0009093B10169E2811165E382E991E00E945D
:103BF0003F0C0F900F900F900F900F90DF91CF918F
:103C00001F910F91FF90EF90DF90BF90AF909F902A
:103C10008F907F906F905F904F900C94590C8F9283
:103C20009F92AF92BF92CF92DF92EF92FF920F934B
:103C30001F93CF93DF9300D000D00F92CDB7DEB7A4
:103C400008E511E080EEC82E81E0D82E4601F12C67
:103C5000AA24A394B12CD8018D918D01F894E82F5A
:103C6000E295EF70F0E021A18F70A50102C0440F32
:103C7000551F8A95E2F7CA01922F982B91A392A122
:103C80008095892382A3789400C0E2E6F1E030E0D9
:103C900020E0E12C4191A42FA295AF70B0E0909666
:103CA0008C9190E04F7002C0959587954A95E2F708
:103CB00080FD48C08A2D022E01C0880F0A94EAF7C1
:103CC000E82A2F5F3F4F2630310521F7F801319761
:103CD00080810E94260E50EA5A95F1F7D4018C910A
:103CE000E81691F1EC9281E0F82ABFEF8B1A9B0A5B
:103CF000E1E00D351E0709F0AECF1091EB01FF207A
:103D000029F181E080939D010E94321790939C01DC
:103D100080939B0180919B0190919C010E94240CB7
:103D20000697C0F0E12FF0E0E251FE4FD6018D91F1
:103D30006D018193B5EECB16B1E0DB06B9F71092B9
:103D40009D0108C080E0BCCF80E0CECF80919D0176
:103D50008111E0CF0E948D14E82E6091EB01882341
:103D600009F48EC08E010F5F1F4F85E0F80111929C
:103D70008A95E9F7862F90E0B80182519E4F0E9404
:103D8000EB27811160C080919E018F5F80939E011F
:103D9000863008F473C0E091EA01F0E0E251FE4F92
:103DA000D801CE01069611921D928A179B07D9F76A
:103DB0008091AF019091B0010E94240C893E934004
:103DC00060F160911102062F10E066277727601BD3
:103DD000710B072E000C880B990B0E945B3127EAB0
:103DE00039E747E45DE30E945A324B015C01B801B8
:103DF000110F880B990B0E945B319B01AC01C5012F
:103E0000B4010E94D22F0E942A31609311020E94B5
:103E100032179093B0018093AF01F11001C0FE2CD6
:103E20008F2D0F900F900F900F900F90DF91CF91EB
:103E30001F910F91FF90EF90DF90CF90BF90AF90C8
:103E40009F908F90089510929E01A091EA01B0E09A
:103E5000A251BE4F9E012A5F3F4FE12C4D91F801C8
:103E600091918F01491731F0AD0141505109FA018B
:103E70009083E82E0217130789F79ACFE12C98CF89
:103E800070E062517E4F8091EA0190E082519E4F36
:103E90000E945A28C2CF1F921FB61F9211248F93DF
:103EA0009F93AF93BF938091ED01811113C08091D7
:103EB000040290910502A0910602B091070241967A
:103EC000A11DB11D8093040290930502A0930602E8
:103ED000B0930702BF91AF919F918F911F901FBE2A
:103EE0001F90189580913C02089580913C0290911A
:103EF0003D02911103C091E089270895882369F05C
:103F000062E070E085E390E10E949D10892B19F03A
:103F100080913C02089510923C0280913C02EBCFCC
:103F2000CF93C0913C0280913D028823D1F00E9442
:103F3000330C605A75418F4F9F4F609338027093D6
:103F4000390280933A0290933B02C11108C062E0AB
:103F500070E083E390E10E949D10892B29F0C091CD
:103F60003C028C2FCF91089581E080933C02F7CFE3
:103F7000FF920F931F93CF93DF93D091EC010D2FFE
:103F800010E007501E4FFC01C081F8018081C81B62
:103F9000FC2E80E01F147CF09C2FC7FD90E0C91B15
:103FA000C11114C08823E9F0DF91CF911F910F91C7
:103FB000FF900C94DC0CFA94F80180818F5F808371
:103FC00060E08D2F0E94631481E0E4CFCF5FF801A1
:103FD00080818150808361E08D2F0E94631481E095
:103FE000DFCFDF91CF911F910F91FF900895E09166
:103FF000FC01F0E0E750FE4F2081FC012083089592
:10400000809311020895CF93DF9300D000D00F92D8
:10401000CDB7DEB749835A836B837C838D8385E07C
:10402000FE013196A0EAB1E001900D928A95E1F788
:104030000F900F900F900F900F90DF91CF910895F8
:10404000CF93DF9300D000D00F92CDB7DEB785E0DD
:10405000E0EAF1E0DE01119601900D928A95E1F718
:1040600029813A814B815C816D8170E080E090E034
:104070000F900F900F900F900F90DF91CF910895B8
:104080008EE090E00E948F2F91E0811101C090E0BE
:10409000892F0895CDB7DEB761970FB6F894DEBFCC
:1040A0000FBECDBF84B7877F84BF0FB6F894A895A5
:1040B00080916000886180936000109260000FBE64
:1040C00080E890E00FB6F8948093610090936100CF
:1040D0000FBE85B7806885BF85B7806885BF8FE1D3
:1040E0009CE090939101809390010E94950A0E9418
:1040F000600B8091E20084608093E200789480916C
:1041000070028823A1F01091E9001F709091EC00DB
:10411000892F817090FD80E8182B1092E900809122
:10412000E80083FD0E94D8101F701093E90082E020
:1041300084BD93E095BD9AEF97BD80936E00109279
:10414000DC011092DD011092DE011092DF010E946D
:104150004020809300010E948D1481110E94DF276E
:10416000809100018091000195E0811190E0909391
:10417000EB0185E0891B8093EA0186E60E94260E0A
:1041800087E90E94260E86EC0E94260E84E30E9498
:10419000260E85E30E94260E86EF0E94260E87EFEC
:1041A0000E94260E81E30E94260E83E30E94260EC3
:1041B00082E30E94260E86E30E94260EE0EEF1E0E6
:1041C0008AEE91E0AEEEB1E011921D928E179F073C
:1041D000D9F790E080E00E94972F8B3E9E4F11F020
:1041E0000E94A9140E948D14811102C00E94E5272B
:1041F00083E08093360280E2809310020E94AD2A11
:104200006DE070E08AE193E10E949D10892BE9F551
:104210008091360263E070E081FDB5C187E193E1F2
:104220000E949D10892B89F56DE070E087E093E195
:104230000E949D10892B49F50E94330C605A7541EC
:104240008F4F9F4F609338027093390280933A02E8
:1042500090933B02E3E8F2E080E092E0DF019C0112
:104260001D9221503040E1F7F0938404E0938304E1
:104270008FEF9FEF909382028093810281E0809381
:104280003D0280933C021092370290E080E00E9451
:10429000972F8B3E9E4F11F00E94A91482E090E070
:1042A0000E948F2F809358020E94B71390930302AD
:1042B0008093020283E090E00E948F2F682F70E0CD
:1042C00090E080E00E94820D80910001811106C083
:1042D00084EF8093020185EF809301012091020118
:1042E000A22FA295AF70B0E091963C9191972F705C
:1042F00081E090E0BC01022E01C0660F0A94EAF74B
:10430000462F4095432391964C93919792963C91DA
:104310009297362B92963C93929740910101E42F0D
:10432000E295EF70F0E031A14F70042E01C0880FCC
:104330000A94EAF7982F9095932391A392A1892B41
:1043400082A390968C9190E002C0959587952A95CE
:10435000E2F7817020A130E002C0359527954A959B
:10436000E2F792E020FF90E0892B8093FD0190918D
:10437000000181E098279093FC01891B8093EC0158
:1043800026E440E060E080E00E9499138AE091E03A
:1043900090934F0280934E028EEE91E0AAE0A80F18
:1043A000A98BFE013196FC87EB878091700200E1BA
:1043B00012E1853009F420C10E940F1EE82E811100
:1043C0000E94330CE9E5F2E0AEEEB1E010E000E06F
:1043D000B02EFD9081918F1509F41DC1C12CDD24F3
:1043E000D3948F25982F9D2109F410C10E948D141C
:1043F0008823A9F0FD20AA24A394F11001C0A12CC8
:104400000E9432178160F1101092F801C982BA82BD
:10441000AB829D838C83CE0101960E94DD17F8014B
:10442000E75AFD4F8081D826D0828091FD01E82F88
:10443000EE0FEE0F90910201A92FA295AF70B0E0A0
:1044400090962C9130E09F7002C0359527959A95F3
:10445000E2F72170332790910101A92FA295AF7047
:10446000B0E090964C9150E09F7002C055954795F2
:104470009A95E2F7CA018170992740FF02C082E055
:1044800090E0822B8E2B8093FD011091FC018F70A8
:10449000E82FF0E0E859FE4F80819091FB01890FF1
:1044A0008093FB01F12C82307CF0E12F012E000C77
:1044B000FF0BE750FE4F80818F5F808360E0812F8C
:1044C0000E946314FF24F3948091FB018F3F7CF4DE
:1044D000E12F012E000CFF0BE750FE4F8081815031
:1044E000808361E0812F0E946314FF24F394809104
:1044F000FB01082E000C990B62E070E00E944D2C2D
:104500008093FB01F1100E94DC0C80913D02882316
:1045100009F40EC183E892E09093840480938304AD
:104520000E948D14882309F488C160E08BE793E131
:104530000E94A61560E086E793E10E94EB1560E01B
:1045400085E793E10E94EB158091030260E080FF14
:1045500076C081E793E10E94EB156091FE017091B6
:10456000FF0180910002909101020E940E108823A9
:1045700009F468C0813009F490C060E08DE593E1F2
:104580000E94A61564C084E193E14ACE8091700236
:10459000843021F11092ED0128E130E080E40FB683
:1045A000F894A895209360000FBE8093600083B7B5
:1045B000817F846083BF83B7816083BF789488954F
:1045C00083B78E7F83BF0FB6F894A8958091600063
:1045D000886180936000109260000FBE80916F022E
:1045E000882351F00E940F1EEEEEF1E081918111BF
:1045F000A2C499899E13FACF80917002853009F484
:10460000C5CF0E94CD100E941A0ED6CEC394DD0CE9
:1046100026E0C212E7CE0F5F1F4F0A30110509F0E6
:10462000D7CE0E9432172FEF29832A831B82816005
:104630009D838C83CE0101960E94DD17F6CE8DE618
:1046400093E189CF60E088E693E10E94EB1560E09A
:104650008AE593E10E94A61560E084E593E10E945B
:10466000EB1560917D0270917E0280917F029091A6
:1046700080020E940E10823009F4D3C090F0843082
:1046800009F4D3C008F4C9C0853009F4D2C060E091
:1046900080E393E10E94EB1509C060E083E693E1BB
:1046A000D4CF60E08EE493E10E94A61560E08DE235
:1046B00093E10E94A615E0914E02F0914F0280E036
:1046C000309721F00190F081E02D099581FB66275C
:1046D00060F987E293E10E94EB1580913D02882307
:1046E00071F020918102309182022115310539F05B
:1046F0008091370261E070E0882309F45DC1809108
:104700003C028823A9F00E94330C009138021091DA
:10471000390220913A0230913B02601B710B820BEF
:10472000930B6F3F7F4F8F4F9F4710F40E94751F71
:10473000E11001C0F1100E94901F0E9420203F83D1
:10474000488759876A87322E80917D0290917E0238
:10475000A0917F02B09180020097A105B10551F0B0
:1047600035E0B695A795979587953A95D1F780FD51
:10477000309056020E943E170E9440208111E9C1EC
:10478000198204E610E021E030E0AE014F5F5F4F98
:1047900069EF84E10E94DA2B898180FD57C2809104
:1047A0004802909149022091460230914702822BA3
:1047B000932B2091420230914302822B932B209124
:1047C000440230914502822B932B892B09F4C6C1F8
:1047D00068E472E081E492E00E947E1066E472E098
:1047E00080E492E00E947E1064E472E08FE392E045
:1047F0000E947E1062E472E08EE392E00E947E10DE
:10480000809141028F8380914002888780913F028E
:10481000898780913E028A87C2CF60E088E493E175
:1048200043CF60E082E493E13FCF60E08DE393E12A
:104830003BCF60E086E393E137CF8091110288237C
:1048400009F470C00E94901F40910C0250910D021B
:1048500060910E0270910F022FB7F89480910402BC
:1048600090910502A0910602B09107022FBF841B10
:10487000950BA60BB70B893C9105A105B10560F01E
:104880000E94330C60930C0270930D0280930E0211
:1048900090930F020E945B100E94330C60930802F9
:1048A0007093090280930A0290930B028091100288
:1048B000ACE08A9FC00111248115B2E09B0714F07F
:1048C00090E080E08D579D4F909384048093830403
:1048D000809111021F928F938EE191E09F938F93AD
:1048E00002E112E01F930F930E94F52CF801019052
:1048F0000020E9F78F01015011090F900F900F90E0
:104900000F900F900F90B2E1CB2EB2E0DB2EC016CD
:10491000D10608F0E2CE60E0D6018D916D010E94D3
:104920001315F5CF409108025091090260910A02D7
:1049300070910B022FB7F8948091040290910502B8
:10494000A0910602B09107022FBF841B950BA60B06
:10495000B70B81369A4EA105B10518F00E94751F5C
:10496000A5CF40910C0250910D0260910E02709102
:104970000F022FB7F8948091040290910502A09144
:104980000602B09107022FBF841B950BA60BB70B35
:10499000893C9105A105B10508F488CF0E94330C2C
:1049A00060930C0270930D0280930E0290930F029D
:1049B0000E945B107BCF8F5F082F10E02B01082E29
:1049C00002C0440C551C0A94E2F7A9014421552168
:1049D000452B89F39091360290FD44C08295880F53
:1049E0008076809305019801369527953695279511
:1049F00020930801815E809306011092090124E64C
:104A000030E047E050E063E071E088E70E94862BE9
:104A1000892B09F074CEA801F5E0440F551FFA95D3
:104A2000E1F78091360280FD2BC04D575D4F04E6C3
:104A300010E020E230E060E488E70E94AD2B892B93
:104A400009F05DCE0E94901FC20180959095409024
:104A50008102509082024822592250928202409252
:104A600081024DCE880F880F880F80930501109228
:104A70000801895F8093060183E080930901BFCF1D
:104A8000E6E1F2E080E2DF011D928A95E9F7ECE7CA
:104A9000F1E0FE87ED8778E7672E71E0772EE0E89A
:104AA0008E2EE1E09E2EBB24B394AD85BE852D9164
:104AB000BE87AD87F30121903F01240E352E311CB6
:104AC000C1018D579D4F1C01E22FF0E0EA5EFD4FC2
:104AD00030E020E067E0C62EC21ADB2C022E01C0B7
:104AE000DD0C0A94EAF7810190E0D8018D918D01E7
:104AF0008D216C2D691B6770A62E062E000C770B7E
:104B0000B82F01C0BB0FAA94EAF7AB2E719561953F
:104B100071096770772701C086956A95EAF7A82A18
:104B20008081A82AA0829F5F9830F9F62F5F3F4FBF
:104B300031962830310571F6ED85FE858E169F067B
:104B400009F0B3CF04E610E020E230E046E152E0A5
:104B500072CF0E948D14882309F412CE60917D02D9
:104B600070917E0280917F02909180020E940E10CF
:104B7000823009F493C140F0843009F496C108F4FE
:104B800088C1853009F495C10E943E1780917D024D
:104B900090917E02A0917F02B09180020097A105C2
:104BA000B10509F48AC122E0B695A7959795879536
:104BB0002A95D1F780FF81C181E0809355023E8222
:104BC000432D5F81688579858A850E9403200E9434
:104BD000202029833A834B835C836D830E9440208D
:104BE000882309F46DC13A812B819D818C811A82C1
:104BF0001B821D821C8240915502411191C13A8352
:104C00002B839981809150029813ABC18A81909136
:104C10005102882311F09813A4C18B819091520204
:104C2000882311F089139DC18D81909154028823AE
:104C300011F0891396C18C8190915302882311F051
:104C400089138FC181E08093150199C180914C0235
:104C500090914D02009709F0FEC00E9432178160CA
:104C600090934D0280934C0285E0AB85BC851D92EC
:104C70008A95E9F704E610E025E030E0AE014F5FE9
:104C80005F4F64E084E10E94DA2B6B819C811A8182
:104C900009818D8180FDE5C0691B770B072E000C13
:104CA000880B990B0E945B316D877E878F87988B6D
:104CB000E12FE01BFF0BBF01072E000C880B990BA7
:104CC0000E945B314B015C012D853E854F855889E3
:104CD000CA01B9010E945A326B017C01A5019401FD
:104CE000C501B4010E945A329B01AC01C701B60153
:104CF0000E94D22F0E9425336B017C0120E030E01E
:104D000040EC5FE30E94C7322B013C0120E030E021
:104D100040E050E4C701B6010E944D3218160CF075
:104D2000AFC000914A0210914B02C8010E94240CAE
:104D3000892B09F09EC00E94321790934B028093FA
:104D40004A02A7019601C701B6010E94D22F20E0B6
:104D500030E040EC5FE30E94C7329B01AC01C3012D
:104D6000B2010E94D22F6B017C012D853E854F85BB
:104D70005889C501B4010E94513020E030E0A901FA
:104D80000E94D22F2B013C010E94B0309B01AC014C
:104D9000C701B6010E945A324B015C016091480282
:104DA00070914902072E000C880B990B0E945B3111
:104DB000A50194010E94D22F0E94233170934902D1
:104DC00060934802C301B2010E9417339B01AC01FA
:104DD000C701B6010E945A326B017C016091460204
:104DE00070914702072E000C880B990B0E945B31D3
:104DF000A70196010E94D22F0E942331709347028F
:104E0000609346026091440270914502072E000CA7
:104E1000880B990B0E945B31A70196010E94D12F4C
:104E20000E942331709345026093440260914202D4
:104E300070914302072E000C880B990B0E945B3186
:104E4000A50194010E94D22F0E9423317093430246
:104E500060934202A4CC0E94240C069708F0FDCE79
:104E60009ECC87FF03C0689430F899CCE89430F862
:104E700096CCC8010E94240C8838934108F45BCF7B
:104E80000E94321790934B0280934A02A301920131
:104E900066CF20E04FE569E980E004C020E040E013
:104EA00061E789E90E94991371CE20E04EE660E047
:104EB000F8CF20E049E969E4EFCF109255027FCEA8
:104EC0000E948D1481118FCE09818A816B812C8182
:104ED0004D8190915002091318C09091510288237E
:104EE00011F0981312C090915202662311F06913C9
:104EF0000CC090915402442311F0941306C0909179
:104F00005302222381F0921771F0109215019091B3
:104F1000550291110CC020E040E00E94DD282FC016
:104F20009D838C836ECE91E090931501F0CF00E0CD
:104F300060E080E0F2CF09BD19BD09B400FEFDCFED
:104F40008091D8008F7D8093D8008091E0008260AE
:104F50008093E0008091E00081FDFCCF0E94CD10A5
:104F60004BCB10921501E0914E02F0914F02309719
:104F700031F00480F581E02DCE01019609951A8269
:104F80001B821C821D8285E0FE013196A0E5B2E005
:104F900001900D928A95E1F749815A816B817C815C
:104FA0008D810E9403200E941A0E9091570289174A
:104FB00009F4FBC90E941A0E80935702F6C961E0FA
:104FC00070E086E191E00C944D2961E070E086E1AB
:104FD00091E00C9456290F931F93CF93DF9300D049
:104FE00000D00F92CDB7DEB78C0190E080E00E9438
:104FF0002F2A009709F05CC0F801DC01AE56BB4FC8
:105000002C912193019685309105B9F787E994E0B9
:105010000E94B81F0E940B17809388040E944020B2
:105020008823B9F00E94202029833A834B835C8334
:105030006D83509198045A83609199046B83809199
:105040009A048D8370919B047C8340919C040E9400
:1050500003200E94721F8093890480917D029091A9
:105060007E02A0917F02B091800280938A04909387
:105070008B04A0938C04B0938D048091FE019091D9
:10508000FF01A0910002B091010280938E049093E1
:105090008F04A0939004B093910481E00F900F903F
:1050A0000F900F900F90DF91CF911F910F91089566
:1050B00080E0F4CF30E020E0FC014191CF01F90124
:1050C000EE56FB4F40832F5F3F4F25303105A1F750
:1050D00087E994E00E94F71F809188040E940020D5
:1050E0000E944020811114C08091A10480939804F3
:1050F0008091A0048093990480919F0480939A04E6
:1051000080919E0480939B0480919D0480939C04D5
:1051100080918904882309F44DC00E94901F40911A
:105120008A0450918B0460918C0470918D0480915D
:105130007D0290917E02A0917F02B091800248177B
:1051400059076A077B0781F080918A0490918B044C
:10515000A0918C04B0918D0480937D0290937E0287
:10516000A0937F02B093800240918E0450918F04EF
:1051700060919004709191048091FE019091FF01E3
:10518000A0910002B0910102481759076A077B07F6
:1051900081F080918E0490918F04A0919004B09141
:1051A00091048093FE019093FF01A0930002B093BD
:1051B000010208950E94751FB2CF0F938093A1043E
:1051C0006093A00440939F0420939E0400939D0449
:1051D0000F9108958EE14A9B02C08150E1F74A9BEE
:1051E000FECF08955A9880E28A95F1F75A9A089569
:1051F000FC013BE03A95F1F720E090E080E031E0FF
:1052000040E14A95F1F7880F4A9B02C0816023274D
:1052100042E04A95F1F7000040E14A95F1F79F5FBF
:105220006913EECF90E19A95F1F799B132E03A9592
:10523000F1F7000040E14A95F1F792FB992790F9C8
:1052400092272081920F90830895EF92FF920F93FF
:105250001F93CF93DF930F92CDB7DEB719828C01E6
:105260007C01E60EF11C0E151F0561F481E09981A9
:10527000911180E00F90DF91CF911F910F91FF90DE
:10528000EF9008950E94EA2868E0CE0101960E94FE
:10529000F828F80181938F01E6CF9093A4048093BE
:1052A000A3046093A204529A5A9A08959093A40476
:1052B0008093A3046093A20452985A9AEA9AE9E66A
:1052C000F0E080818F7C808308956150770B91E0BE
:1052D00001C0990F6A95EAF720E031E0911108C00A
:1052E000222391F05A9A80E28A95F1F75A9808950C
:1052F000492F482339F05A9A232740E24A95F1F77B
:105300009695ECCF5A98F9CF5A98EDCFFF920F931C
:105310001F93CF93DF93EC018C01060F111DC01773
:10532000D10731F4DF91CF911F910F91FF90089534
:10533000F9900E94F22868E08F2D0E946529EFCF36
:105340001F920F920FB60F9211240F931F932F935A
:105350003F934F935F936F937F938F939F93AF93FD
:10536000BF93EF93FF93CF93DF930F92CDB7DEB749
:1053700019820E94EA2867E0CE0101960E94F8286F
:10538000082F069506950695982F92959570202FD3
:105390002570920F292F2370969596958770920FFE
:1053A000891344C08981811141C08091A204801772
:1053B000E8F120E12A95F1F75A9A529A82E08A950B
:1053C000F1F700C0A8E00A9FC00111240091A304D6
:1053D0001091A404080F191F5A98F80165816623DB
:1053E00021F0868197810E9486290E94F228F0E1AF
:1053F000FA95F1F75A9852985A9A20E12A95F1F7BE
:10540000D80112966C911297662331F113968D9103
:105410009C910E942529D801ED91FC91882311F0DF
:1054200088E001C082E080830E94EA280F90DF912B
:10543000CF91FF91EF91BF91AF919F918F917F910C
:105440006F915F914F913F912F911F910F910F900D
:105450000FBE0F901F901895ED91FC91E1CF0F9327
:105460001F93CF93DF932091A204281719060CF401
:1054700071C08C0193E0000F111F9A95E1F7C09164
:10548000A304D091A404C00FD11FF894529A5A9843
:1054900025E02A95F1F70000982F96959570857074
:1054A000980F892F837096959695980F092B0E94D7
:1054B000F22800C067E0802F0E94652980E18A956C
:1054C000F1F752985A9A4A9B17C087E090E04A99A0
:1054D00015C06D81662321F18E819F810E9425294F
:1054E00081111EC0529A5A9AE881F98182E0808324
:1054F000789482E090E00DC000C0E5CF019771F490
:10550000529A5A9AE881F98181E08083789481E007
:1055100090E0DF91CF911F910F91089500C0D7CFF8
:105520000E94EA2820E22A95F1F75A98529A80E1DF
:105530008A95F1F76A81662321F08B819C810E9414
:1055400086290E94F228E881F9811082789490E0FF
:1055500080E0DFCF84E090E0DCCF1092B9008CE0F7
:105560008093B8000895EF92FF920F931F93CF930B
:10557000DF93182FEB011092BC0084EA8093BC00EB
:105580000E9432177C018091BC0087FF27C0809168
:10559000B900887F883029F08091B900887F8031F8
:1055A000D9F51093BB0084E88093BC000E943217A9
:1055B0008C018091BC0087FF24C02091B900287F16
:1055C00090E080E02831B1F081E090E0203411F4E7
:1055D00090E080E09195819591090CC0CF3FDC0768
:1055E00091F20E9432178E199F098C179D0758F26D
:1055F0008EEF9FEFDF91CF911F910F91FF90EF9072
:105600000895CF3FDC07A9F20E943217801B910B4F
:105610008C179D0770F2ECCF8FEF9FEFEBCF0F93BE
:105620001F93CF93DF93EB018093BB0084E88093BB
:10563000BC000E9432178C018091BC0087FF11C012
:105640002091B900287F81E090E0283211F490E0A9
:1056500080E0919581959109DF91CF911F910F91F4
:105660000895CF3FDC0741F30E943217801B910B56
:105670008C179D0708F38EEF9FEFEECF0F931F93CC
:10568000CF93DF93EC0184EC8093BC000E9432172F
:105690008C018091BC0087FF08C08091BB0090E026
:1056A000DF91CF911F910F910895CF3FDC0789F3D0
:1056B0000E943217801B910B8C179D0750F38EEFC1
:1056C0009FEFEECF0F931F93CF93DF93EC0184E80E
:1056D0008093BC000E9432178C018091BC0087FF30
:1056E00008C08091BB0090E0DF91CF911F910F9196
:1056F0000895CF3FDC0789F30E943217801B910B7E
:105700008C179D0750F38EEF9FEFEECFCF92DF9275
:10571000EF92FF920F931F93CF93DF936B018A0158
:105720007901B9010E94B32AE6010C0D1D1DC017B5
:10573000D10761F424E92093BC00DF91CF911F9140
:105740000F91FF90EF90DF90CF90089597FDF2CFEB
:10575000B70189910E940F2BEACFCF92DF92EF928F
:10576000FF920F931F93CF93DF93C62F6A017901A6
:10577000B8010E94B32A97FD0CC0B8018C2F0E947B
:105780000F2BE601EC0CFD1CCE15DF0511F097FF89
:105790000CC024E92093BC00DF91CF911F910F91A1
:1057A000FF90EF90DF90CF900895B80189910E940B
:1057B0000F2BEACFCF92DF92EF92FF920F931F93BE
:1057C000CF93DF93F82EE62EEA016901B8010E941B
:1057D000B32A97FD15C0B8018E2D0E940F2B97FD9F
:1057E0000FC0B8018F2D81600E94B32AF12CE12CEB
:1057F00021E0C21AD108EC14FD0400F597FF11C096
:1058000024E92093BC001816190614F490E080E0F7
:10581000DF91CF911F910F91FF90EF90DF90CF908C
:105820000895C8010E943E2B97FD04C0FE01EE0DB5
:10583000FF1D80832FEFE21AF20ADDCF97FDE0CF44
:10584000C8010E94622B97FDDBCFCC0DDD1D888344
:10585000D7CF84E98093BC000895991B79E004C0F8
:10586000991F961708F0961B881F7A95C9F780959F
:105870000895AA1BBB1B51E107C0AA1FBB1FA61797
:10588000B70710F0A61BB70B881F991F5A95A9F7E9
:1058900080959095BC01CD01089597FB072E16F4D5
:1058A000009407D077FD09D00E94392C07FC05D061
:1058B0003EF4909581959F4F0895709561957F4F27
:1058C0000895052E97FB1EF400940E94782C57FD36
:1058D00007D00E94862C07FC03D04EF40C94782C41
:1058E00050954095309521953F4F4F4F5F4F08950C
:1058F00090958095709561957F4F8F4F9F4F08953C
:10590000EE0FFF1F0590F491E02D0994A1E21A2EED
:10591000AA1BBB1BFD010DC0AA1FBB1FEE1FFF1F53
:10592000A217B307E407F50720F0A21BB30BE40BA3
:10593000F50B661F771F881F991F1A9469F76095EA
:105940007095809590959B01AC01BD01CF010895A4
:105950002F923F924F925F926F927F928F929F927F
:10596000AF92BF92CF92DF92EF92FF920F931F936D
:10597000CF93DF93CDB7DEB7CA1BDB0B0FB6F8941E
:10598000DEBF0FBECDBF09942A88398848885F845E
:105990006E847D848C849B84AA84B984C884DF80CF
:1059A000EE80FD800C811B81AA81B981CE0FD11DB3
:1059B0000FB6F894DEBF0FBECDBFED010895FB0119
:1059C000DC0102C005900D9241505040D8F7089577
:1059D000FB01DC0104C08D910190801921F441503C
:1059E0005040C8F7881B990B0895AEE0B0E0EBEF8C
:1059F000FCE20C94B62C0D891E8986E08C831A83F8
:105A000009838FEF9FE79E838D83AE01475E5F4FD3
:105A10006F89788DCE0101960E94182D2F813885CF
:105A2000020F131FF80110822E96E4E00C94D22C82
:105A3000AFE0B0E0EEE1FDE20C94A82C7C013B016C
:105A40008A01DC0117961C921E92169713968C9170
:105A500081FFBEC19AE0292EFE0131964F01D70188
:105A600013969C91F30193FD859193FF81913F01E2
:105A7000882309F444C1853239F493FD859193FF5D
:105A800081913F01853229F4B70190E00E94012FF6
:105A9000E6CFB12C412C512CBFE1B51538F08B323B
:105AA00009F188F4803201F1833221F157FC3AC0C8
:105AB00020ED280F2A3040F556FE1FC0B29C200D65
:105AC0001124B22E06C08D3291F0803379F768949C
:105AD00050F8F30193FD859193FF81913F0181116E
:105AE000DBCF20C0689451F8689452F8F2CF6894E4
:105AF00053F8EFCF689454F8ECCF429C200D11245A
:105B0000422E689455F8E5CF8E3229F456FCF7C042
:105B1000689456F8DECF8C3619F4689457F8D9CFCC
:105B20008836B9F2982F9F7D95549330C0F0833614
:105B3000A1F18337C1F1833509F05BC0D801CD9065
:105B4000DD908D016B2D70E056FC02C06FEF7FEF92
:105B5000C6010E94EB2E5C01689457F80AC00C5FE6
:105B60001F4FEFE3E983AA24A394B12C6401E894C6
:105B700057F853FC04C04A141B0409F018F5342CE0
:105B8000A114B10431F5332009F469CFB70180E2E3
:105B900090E00E94012F3A94F6CFD8018C9189832E
:105BA0000E5F1F4FE0CFF801C190D1908F016B2D98
:105BB00070E056FC02C06FEF7FEFC6010E94F62E28
:105BC0005C01D5CFB70180E290E00E94012F4A949A
:105BD000D2CFF60157FC859157FE81916F01B70135
:105BE00090E00E94012F31103A94B1E0AB1AB10855
:105BF000C7CF843619F0893609F071C0F80157FE15
:105C000067C061917191819191918F01E52DEF763E
:105C1000DE2E97FF09C090958095709561957F4F16
:105C20008F4F9F4F6894D7F82AE030E0A4010E947C
:105C3000312FC82EC818AC2C5D2CD6FE0CC0E894B1
:105C400050F8CB1440F4D4FE05C0D2FC03C05D2D47
:105C50005E7E552EAB2C54FE93C0FE01EC0DF11D63
:105C60008081803309F085C0652D697E562E752DA3
:105C70007870372E53FC93C050FE8DC0BC2CA414FA
:105C800010F4B40CBA1854FE90C0B70180E390E051
:105C90000E94012F52FE07C088E751FC88E590E082
:105CA000B7010E94012FCB1408F48BC0CA94D12CE9
:105CB0008FEFC81AD80AC80CD91CD6018E916D0175
:105CC000B70190E00E94012F8C149D04B1F75BCFC7
:105CD00061917191072E000C880B990B96CFD52CF2
:105CE000E894D4F82AE0853729F1F52DF97FDF2EE5
:105CF0008037A1F058F48835A1F08F36D1F0F70144
:105D0000868197812F96E2E10C94C42C8837B9F7ED
:105D1000D4FE02C06894D2F820E10CC06894D4F894
:105D2000F7CF54FE03C02F2F2660D22E20E132E0A1
:105D300002C028E030E0F801D7FE15C04191519132
:105D4000619171914C875D876E877F878F01A40178
:105D50006C857D858E859F850E94312FC82EC81841
:105D6000E894D7F868CF81919191AC0170E060E040
:105D7000E9CF52FC02C0A3947ACFA394A39477CF27
:105D8000852D867809F473CFF6CFB70180E290E0D5
:105D90000E94012FA394A414C0F3312C74CF342C8F
:105DA0003A18A41408F46FCFF8CF852D867809F43B
:105DB0007ACF8BE251FE80E257FC8DE2B70190E092
:105DC00070CFB70180E390E00E94012FBA946BCFAF
:105DD0008FEF9FEF97CFFC0105906150704001104D
:105DE000D8F7809590958E0F9F1F0895FC01615004
:105DF000704001900110D8F7809590958E0F9F1FED
:105E000008950F931F93CF93DF93182F092FEB0162
:105E10008B8181FD09C01FEF0FEF812F902FDF9144
:105E2000CF911F910F91089582FF14C02E813F8161
:105E30008C819D81281739073CF4E881F981CF01D5
:105E400001969983888310838E819F8101969F8319
:105E50008E83E3CFE885F985812F0995892BA1F3FE
:105E6000DACFFA01AA27283051F1203181F1E894E4
:105E70006F936E7F6E5F7F4F8F4F9F4FAF4FB1E03D
:105E80003ED0B4E03CD0670F781F891F9A1FA11D38
:105E9000680F791F8A1F911DA11D6A0F711D811D39
:105EA000911DA11D20D009F468943F912AE0269FFE
:105EB00011243019305D3193DEF6CF010895462F5D
:105EC0004770405D4193B3E00FD0C9F7F6CF462F3E
:105ED0004F70405D4A3318F0495D31FD40524193A7
:105EE00002D0A9F7EACFB4E0A69597958795779564
:105EF0006795BA95C9F700976105710508959B01EB
:105F0000AC010A2E06945795479537952795BA9573
:105F1000C9F7620F731F841F951FA01D0895F9997B
:105F2000FECF92BD81BDF89A992780B50895A8E16A
:105F3000B0E042E050E00C94C32F262FF999FECF39
:105F400092BD81BDF89A019700B4021639F01FBACC
:105F500020BD0FB6F894FA9AF99A0FBE08950396E9
:105F6000272F0E949E2F0E949D2F252F0E949E2F3B
:105F7000242F0C949E2F0196272F0E949E2F0C9465
:105F80009D2FDC01CB01FC01F999FECF06C0F2BDCB
